{
  "_format": "hh-sol-artifact-1",
  "contractName": "JPSGuard",
  "sourceName": "contracts/JPSGuard.sol",
  "abi": [
    {
      "inputs": [
        {
          "internalType": "string",
          "name": "_uri",
          "type": "string"
        },
        {
          "internalType": "uint8",
          "name": "_txFee",
          "type": "uint8"
        }
      ],
      "stateMutability": "nonpayable",
      "type": "constructor"
    },
    {
      "inputs": [],
      "name": "JPSG_EmptyURI",
      "type": "error"
    },
    {
      "inputs": [],
      "name": "JPSG_InactiveToken",
      "type": "error"
    },
    {
      "inputs": [],
      "name": "JPSG_InsufficientFundsSent",
      "type": "error"
    },
    {
      "inputs": [],
      "name": "JPSG_InvalidServiceID",
      "type": "error"
    },
    {
      "inputs": [],
      "name": "JPSG_InvalidTokenId",
      "type": "error"
    },
    {
      "inputs": [],
      "name": "JPSG_NotManager",
      "type": "error"
    },
    {
      "inputs": [],
      "name": "JPSG_NotTokenOwner",
      "type": "error"
    },
    {
      "inputs": [],
      "name": "JPSG_NotWhitelisted",
      "type": "error"
    },
    {
      "inputs": [],
      "name": "JPSG_NotWhitelistedToken",
      "type": "error"
    },
    {
      "inputs": [],
      "name": "JPSG_TokenLimitExceeded",
      "type": "error"
    },
    {
      "inputs": [
        {
          "internalType": "address",
          "name": "owner",
          "type": "address"
        }
      ],
      "name": "OwnableInvalidOwner",
      "type": "error"
    },
    {
      "inputs": [
        {
          "internalType": "address",
          "name": "account",
          "type": "address"
        }
      ],
      "name": "OwnableUnauthorizedAccount",
      "type": "error"
    },
    {
      "anonymous": false,
      "inputs": [
        {
          "indexed": false,
          "internalType": "address",
          "name": "owner",
          "type": "address"
        },
        {
          "indexed": false,
          "internalType": "uint256",
          "name": "tokenId",
          "type": "uint256"
        }
      ],
      "name": "Minted",
      "type": "event"
    },
    {
      "anonymous": false,
      "inputs": [
        {
          "indexed": true,
          "internalType": "address",
          "name": "previousOwner",
          "type": "address"
        },
        {
          "indexed": true,
          "internalType": "address",
          "name": "newOwner",
          "type": "address"
        }
      ],
      "name": "OwnershipTransferred",
      "type": "event"
    },
    {
      "anonymous": false,
      "inputs": [
        {
          "indexed": false,
          "internalType": "address",
          "name": "owner",
          "type": "address"
        },
        {
          "indexed": false,
          "internalType": "uint256",
          "name": "tokenId",
          "type": "uint256"
        }
      ],
      "name": "Revoked",
      "type": "event"
    },
    {
      "anonymous": false,
      "inputs": [
        {
          "indexed": false,
          "internalType": "string",
          "name": "uri",
          "type": "string"
        },
        {
          "indexed": true,
          "internalType": "address",
          "name": "manager",
          "type": "address"
        },
        {
          "indexed": false,
          "internalType": "uint256",
          "name": "price",
          "type": "uint256"
        },
        {
          "indexed": true,
          "internalType": "uint256",
          "name": "serviceID",
          "type": "uint256"
        },
        {
          "indexed": true,
          "internalType": "uint64",
          "name": "remainingTokens",
          "type": "uint64"
        },
        {
          "indexed": false,
          "internalType": "enum JPSGuard.ServiceStatus",
          "name": "status",
          "type": "uint8"
        },
        {
          "indexed": false,
          "internalType": "bool",
          "name": "isLimitedToken",
          "type": "bool"
        },
        {
          "indexed": false,
          "internalType": "bool",
          "name": "isPrivate",
          "type": "bool"
        }
      ],
      "name": "ServiceRegistered",
      "type": "event"
    },
    {
      "anonymous": false,
      "inputs": [
        {
          "indexed": true,
          "internalType": "address",
          "name": "_owner",
          "type": "address"
        },
        {
          "indexed": true,
          "internalType": "uint256",
          "name": "_tokenId",
          "type": "uint256"
        }
      ],
      "name": "TokenMinted",
      "type": "event"
    },
    {
      "inputs": [
        {
          "internalType": "address",
          "name": "owner",
          "type": "address"
        }
      ],
      "name": "balanceOf",
      "outputs": [
        {
          "internalType": "uint256",
          "name": "",
          "type": "uint256"
        }
      ],
      "stateMutability": "view",
      "type": "function"
    },
    {
      "inputs": [],
      "name": "emittedCount",
      "outputs": [
        {
          "internalType": "uint256",
          "name": "",
          "type": "uint256"
        }
      ],
      "stateMutability": "view",
      "type": "function"
    },
    {
      "inputs": [
        {
          "internalType": "address",
          "name": "_user",
          "type": "address"
        },
        {
          "internalType": "uint8",
          "name": "_start",
          "type": "uint8"
        },
        {
          "internalType": "uint8",
          "name": "_limit",
          "type": "uint8"
        }
      ],
      "name": "fetchUserIDs",
      "outputs": [
        {
          "internalType": "uint256[]",
          "name": "",
          "type": "uint256[]"
        }
      ],
      "stateMutability": "view",
      "type": "function"
    },
    {
      "inputs": [
        {
          "internalType": "address",
          "name": "owner",
          "type": "address"
        }
      ],
      "name": "hasValid",
      "outputs": [
        {
          "internalType": "bool",
          "name": "",
          "type": "bool"
        }
      ],
      "stateMutability": "view",
      "type": "function"
    },
    {
      "inputs": [],
      "name": "holdersCount",
      "outputs": [
        {
          "internalType": "uint256",
          "name": "",
          "type": "uint256"
        }
      ],
      "stateMutability": "view",
      "type": "function"
    },
    {
      "inputs": [],
      "name": "i_Transaction_Fee",
      "outputs": [
        {
          "internalType": "uint256",
          "name": "",
          "type": "uint256"
        }
      ],
      "stateMutability": "view",
      "type": "function"
    },
    {
      "inputs": [
        {
          "internalType": "uint256",
          "name": "tokenId",
          "type": "uint256"
        }
      ],
      "name": "isValid",
      "outputs": [
        {
          "internalType": "bool",
          "name": "",
          "type": "bool"
        }
      ],
      "stateMutability": "view",
      "type": "function"
    },
    {
      "inputs": [
        {
          "internalType": "uint256",
          "name": "",
          "type": "uint256"
        },
        {
          "internalType": "address",
          "name": "",
          "type": "address"
        }
      ],
      "name": "isWhitelisted",
      "outputs": [
        {
          "internalType": "bool",
          "name": "",
          "type": "bool"
        }
      ],
      "stateMutability": "view",
      "type": "function"
    },
    {
      "inputs": [
        {
          "internalType": "address",
          "name": "_user",
          "type": "address"
        },
        {
          "internalType": "uint256",
          "name": "_serviceId",
          "type": "uint256"
        }
      ],
      "name": "mintPaidToken",
      "outputs": [],
      "stateMutability": "payable",
      "type": "function"
    },
    {
      "inputs": [
        {
          "internalType": "address",
          "name": "_user",
          "type": "address"
        },
        {
          "internalType": "uint256",
          "name": "_serviceId",
          "type": "uint256"
        }
      ],
      "name": "mintPrivateToken",
      "outputs": [],
      "stateMutability": "nonpayable",
      "type": "function"
    },
    {
      "inputs": [
        {
          "internalType": "address",
          "name": "_user",
          "type": "address"
        },
        {
          "internalType": "uint256",
          "name": "_serviceId",
          "type": "uint256"
        }
      ],
      "name": "mintPublicToken",
      "outputs": [],
      "stateMutability": "nonpayable",
      "type": "function"
    },
    {
      "inputs": [
        {
          "internalType": "address",
          "name": "_user",
          "type": "address"
        },
        {
          "internalType": "uint256",
          "name": "_serviceId",
          "type": "uint256"
        }
      ],
      "name": "mintServiceToken",
      "outputs": [],
      "stateMutability": "nonpayable",
      "type": "function"
    },
    {
      "inputs": [
        {
          "internalType": "address",
          "name": "_user",
          "type": "address"
        },
        {
          "internalType": "uint256",
          "name": "_serviceId",
          "type": "uint256"
        }
      ],
      "name": "mintWhitelistedToken",
      "outputs": [],
      "stateMutability": "nonpayable",
      "type": "function"
    },
    {
      "inputs": [],
      "name": "name",
      "outputs": [
        {
          "internalType": "string",
          "name": "",
          "type": "string"
        }
      ],
      "stateMutability": "view",
      "type": "function"
    },
    {
      "inputs": [],
      "name": "owner",
      "outputs": [
        {
          "internalType": "address",
          "name": "",
          "type": "address"
        }
      ],
      "stateMutability": "view",
      "type": "function"
    },
    {
      "inputs": [
        {
          "internalType": "uint256",
          "name": "tokenId",
          "type": "uint256"
        }
      ],
      "name": "ownerOf",
      "outputs": [
        {
          "internalType": "address",
          "name": "",
          "type": "address"
        }
      ],
      "stateMutability": "view",
      "type": "function"
    },
    {
      "inputs": [
        {
          "internalType": "string",
          "name": "_uri",
          "type": "string"
        },
        {
          "internalType": "address",
          "name": "_manager",
          "type": "address"
        },
        {
          "internalType": "uint256",
          "name": "_price",
          "type": "uint256"
        },
        {
          "internalType": "uint64",
          "name": "_tokenCount",
          "type": "uint64"
        },
        {
          "internalType": "enum JPSGuard.ServiceStatus",
          "name": "_status",
          "type": "uint8"
        },
        {
          "internalType": "bool",
          "name": "_isLimitedToken",
          "type": "bool"
        },
        {
          "internalType": "bool",
          "name": "_active",
          "type": "bool"
        }
      ],
      "name": "registerService",
      "outputs": [
        {
          "internalType": "uint256",
          "name": "",
          "type": "uint256"
        }
      ],
      "stateMutability": "nonpayable",
      "type": "function"
    },
    {
      "inputs": [],
      "name": "renounceOwnership",
      "outputs": [],
      "stateMutability": "nonpayable",
      "type": "function"
    },
    {
      "inputs": [
        {
          "internalType": "address",
          "name": "_user",
          "type": "address"
        },
        {
          "internalType": "uint256",
          "name": "_tokenId",
          "type": "uint256"
        }
      ],
      "name": "revokeToken",
      "outputs": [],
      "stateMutability": "nonpayable",
      "type": "function"
    },
    {
      "inputs": [],
      "name": "serviceCount",
      "outputs": [
        {
          "internalType": "uint256",
          "name": "",
          "type": "uint256"
        }
      ],
      "stateMutability": "view",
      "type": "function"
    },
    {
      "inputs": [
        {
          "internalType": "uint256",
          "name": "",
          "type": "uint256"
        }
      ],
      "name": "serviceIds",
      "outputs": [
        {
          "internalType": "uint256",
          "name": "",
          "type": "uint256"
        }
      ],
      "stateMutability": "view",
      "type": "function"
    },
    {
      "inputs": [
        {
          "internalType": "uint256",
          "name": "",
          "type": "uint256"
        }
      ],
      "name": "services",
      "outputs": [
        {
          "internalType": "string",
          "name": "uri",
          "type": "string"
        },
        {
          "internalType": "address",
          "name": "manager",
          "type": "address"
        },
        {
          "internalType": "uint256",
          "name": "price",
          "type": "uint256"
        },
        {
          "internalType": "uint64",
          "name": "remainingTokens",
          "type": "uint64"
        },
        {
          "internalType": "enum JPSGuard.ServiceStatus",
          "name": "status",
          "type": "uint8"
        },
        {
          "internalType": "bool",
          "name": "isLimitedToken",
          "type": "bool"
        },
        {
          "internalType": "bool",
          "name": "active",
          "type": "bool"
        }
      ],
      "stateMutability": "view",
      "type": "function"
    },
    {
      "inputs": [
        {
          "internalType": "uint256",
          "name": "tokenId",
          "type": "uint256"
        },
        {
          "internalType": "string",
          "name": "tokenUri",
          "type": "string"
        }
      ],
      "name": "setTokenURI",
      "outputs": [],
      "stateMutability": "nonpayable",
      "type": "function"
    },
    {
      "inputs": [
        {
          "internalType": "bytes4",
          "name": "interfaceId",
          "type": "bytes4"
        }
      ],
      "name": "supportsInterface",
      "outputs": [
        {
          "internalType": "bool",
          "name": "",
          "type": "bool"
        }
      ],
      "stateMutability": "view",
      "type": "function"
    },
    {
      "inputs": [],
      "name": "symbol",
      "outputs": [
        {
          "internalType": "string",
          "name": "",
          "type": "string"
        }
      ],
      "stateMutability": "view",
      "type": "function"
    },
    {
      "inputs": [
        {
          "internalType": "uint256",
          "name": "index",
          "type": "uint256"
        }
      ],
      "name": "tokenByIndex",
      "outputs": [
        {
          "internalType": "uint256",
          "name": "",
          "type": "uint256"
        }
      ],
      "stateMutability": "view",
      "type": "function"
    },
    {
      "inputs": [
        {
          "internalType": "address",
          "name": "",
          "type": "address"
        },
        {
          "internalType": "uint256",
          "name": "",
          "type": "uint256"
        }
      ],
      "name": "tokenIds",
      "outputs": [
        {
          "internalType": "uint256",
          "name": "",
          "type": "uint256"
        }
      ],
      "stateMutability": "view",
      "type": "function"
    },
    {
      "inputs": [
        {
          "internalType": "address",
          "name": "owner",
          "type": "address"
        },
        {
          "internalType": "uint256",
          "name": "index",
          "type": "uint256"
        }
      ],
      "name": "tokenOfOwnerByIndex",
      "outputs": [
        {
          "internalType": "uint256",
          "name": "",
          "type": "uint256"
        }
      ],
      "stateMutability": "view",
      "type": "function"
    },
    {
      "inputs": [
        {
          "internalType": "uint256",
          "name": "_tokenId",
          "type": "uint256"
        }
      ],
      "name": "tokenURI",
      "outputs": [
        {
          "internalType": "string",
          "name": "",
          "type": "string"
        }
      ],
      "stateMutability": "view",
      "type": "function"
    },
    {
      "inputs": [
        {
          "internalType": "address",
          "name": "owner",
          "type": "address"
        }
      ],
      "name": "tokensOfOwner",
      "outputs": [
        {
          "internalType": "uint256[]",
          "name": "tokens",
          "type": "uint256[]"
        }
      ],
      "stateMutability": "view",
      "type": "function"
    },
    {
      "inputs": [
        {
          "internalType": "address",
          "name": "newOwner",
          "type": "address"
        }
      ],
      "name": "transferOwnership",
      "outputs": [],
      "stateMutability": "nonpayable",
      "type": "function"
    },
    {
      "inputs": [
        {
          "internalType": "uint256",
          "name": "_serviceId",
          "type": "uint256"
        },
        {
          "internalType": "bool",
          "name": "_active",
          "type": "bool"
        }
      ],
      "name": "updateServiceActive",
      "outputs": [],
      "stateMutability": "nonpayable",
      "type": "function"
    },
    {
      "inputs": [
        {
          "internalType": "address",
          "name": "_manager",
          "type": "address"
        },
        {
          "internalType": "uint256",
          "name": "_serviceId",
          "type": "uint256"
        }
      ],
      "name": "updateServiceManager",
      "outputs": [],
      "stateMutability": "nonpayable",
      "type": "function"
    },
    {
      "inputs": [
        {
          "internalType": "uint256",
          "name": "_serviceId",
          "type": "uint256"
        },
        {
          "internalType": "uint256",
          "name": "_price",
          "type": "uint256"
        }
      ],
      "name": "updateServicePrice",
      "outputs": [],
      "stateMutability": "nonpayable",
      "type": "function"
    },
    {
      "inputs": [
        {
          "internalType": "uint256",
          "name": "_serviceId",
          "type": "uint256"
        },
        {
          "internalType": "uint64",
          "name": "_tokenCount",
          "type": "uint64"
        }
      ],
      "name": "updateServiceRemainingTokens",
      "outputs": [],
      "stateMutability": "nonpayable",
      "type": "function"
    },
    {
      "inputs": [
        {
          "internalType": "string",
          "name": "_uri",
          "type": "string"
        },
        {
          "internalType": "uint256",
          "name": "_serviceId",
          "type": "uint256"
        }
      ],
      "name": "updateServiceURI",
      "outputs": [],
      "stateMutability": "nonpayable",
      "type": "function"
    },
    {
      "inputs": [
        {
          "internalType": "address",
          "name": "_user",
          "type": "address"
        },
        {
          "internalType": "uint256",
          "name": "_serviceId",
          "type": "uint256"
        },
        {
          "internalType": "bool",
          "name": "_status",
          "type": "bool"
        }
      ],
      "name": "updateWhitelist",
      "outputs": [
        {
          "internalType": "bool",
          "name": "",
          "type": "bool"
        }
      ],
      "stateMutability": "nonpayable",
      "type": "function"
    },
    {
      "inputs": [
        {
          "internalType": "address[]",
          "name": "_users",
          "type": "address[]"
        },
        {
          "internalType": "uint256",
          "name": "_serviceId",
          "type": "uint256"
        },
        {
          "internalType": "bool",
          "name": "_status",
          "type": "bool"
        }
      ],
      "name": "updateWhitelistBatch",
      "outputs": [
        {
          "internalType": "bool",
          "name": "",
          "type": "bool"
        }
      ],
      "stateMutability": "nonpayable",
      "type": "function"
    },
    {
      "inputs": [],
      "name": "withdraw",
      "outputs": [],
      "stateMutability": "nonpayable",
      "type": "function"
    }
  ],
  "bytecode": "0x60a060405234801561001057600080fd5b50604051612d83380380612d8383398101604081905261002f916103cb565b33604051806040016040528060038152602001624a505360e81b8152506040518060400160405280601081526020016f12940814dd1858dad95c8811dd585c9960821b81525081600590816100849190610518565b5060066100918282610518565b5050600980546001600160a01b03191633179055506001600160a01b0381166100d557604051631e4fbdf760e01b8152600060048201526024015b60405180910390fd5b6100de816100ff565b5060ff81166080526100f7823360008080806001610151565b505050610683565b600a80546001600160a01b038381166001600160a01b0319831681179093556040519116919082907f8be0079c531659141344cd1fd0a4f28419497f9722a3daafe3b4186f6b6457e090600090a35050565b600061015b61034c565b87600081511161017e5760405163c97d637b60e01b815260040160405180910390fd5b600b805490600061018e836105d6565b91905055506040518060e001604052808a8152602001896001600160a01b03168152602001888152602001876001600160401b031681526020018660048111156101da576101da6105fd565b8152851515602080830191909152851515604092830152600b546000908152600d909152208151819061020d9082610518565b5060208201516001820180546001600160a01b039092166001600160a01b03199092169190911790556040820151600282015560608201516003820180546001600160401b039092166001600160401b03198316811782556080850151926001600160481b0319161768010000000000000000836004811115610292576102926105fd565b021790555060a08201516003909101805460c09093015115156a01000000000000000000000260ff60501b199215156901000000000000000000029290921661ffff60481b1990931692909217179055600b546040516001600160401b03881691906001600160a01b038b16907f4903e9c3826c1a365f9c5b6193e9e708b4269472495fff7ba4b271d74907fcde90610334908e908d908c908c908c90610613565b60405180910390a45050600b54979650505050505050565b600a546001600160a01b031633146103795760405163118cdaa760e01b81523360048201526024016100cc565b565b634e487b7160e01b600052604160045260246000fd5b60005b838110156103ac578181015183820152602001610394565b50506000910152565b805160ff811681146103c657600080fd5b919050565b600080604083850312156103de57600080fd5b82516001600160401b038111156103f457600080fd5b8301601f8101851361040557600080fd5b80516001600160401b0381111561041e5761041e61037b565b604051601f8201601f19908116603f011681016001600160401b038111828210171561044c5761044c61037b565b60405281815282820160200187101561046457600080fd5b610475826020830160208601610391565b9350610486915050602084016103b5565b90509250929050565b600181811c908216806104a357607f821691505b6020821081036104c357634e487b7160e01b600052602260045260246000fd5b50919050565b601f82111561051357806000526020600020601f840160051c810160208510156104f05750805b601f840160051c820191505b8181101561051057600081556001016104fc565b50505b505050565b81516001600160401b038111156105315761053161037b565b6105458161053f845461048f565b846104c9565b6020601f82116001811461057957600083156105615750848201515b600019600385901b1c1916600184901b178455610510565b600084815260208120601f198516915b828110156105a95787850151825560209485019460019092019101610589565b50848210156105c75786840151600019600387901b60f8161c191681555b50505050600190811b01905550565b6000600182016105f657634e487b7160e01b600052601160045260246000fd5b5060010190565b634e487b7160e01b600052602160045260246000fd5b60a08152600086518060a08401526106328160c0850160208b01610391565b60208301879052601f01601f1916820160c00190506005851061066557634e487b7160e01b600052602160045260246000fd5b60408201949094529115156060830152151560809091015292915050565b6080516126de6106a5600039600081816106ea0152610f1b01526126de6000f3fe6080604052600436106102305760003560e01c8063701ee22e1161012e578063a4e3bab9116100ab578063ef76b3871161006f578063ef76b387146106d8578063ef9ec2f31461070c578063f2fde38b1461072c578063f577a5001461074c578063fb0af39d1461076c57600080fd5b8063a4e3bab914610625578063c22c4f4314610645578063c87b56dd14610678578063d88f5b8914610698578063ee2786bc146106b857600080fd5b80638462151c116100f25780638462151c146105855780638da5cb5b146105b257806395d89b41146105d0578063987168c0146105e55780639fd809341461060557600080fd5b8063701ee22e146104bf57806370a08231146104df578063715018a61461051557806371bae2cb1461052a5780637d22c35c1461054a57600080fd5b80633ccfd60b116101bc5780635484dabb116101805780635484dabb146104125780635bd59738146104255780636352211e1461044557806369d269331461047d5780636b4ed21b146104aa57600080fd5b80633ccfd60b146103675780633de419e91461037c578063439455121461039c57806347883916146103d45780634f6ccce7146103f457600080fd5b8063162094c411610203578063162094c4146102d057806326019c18146102f257806329bd58b4146103075780632d58443c146103275780632f745c591461034757600080fd5b806301ffc9a714610235578063062375261461026a57806306fdde031461028e57806308405e74146102b0575b600080fd5b34801561024157600080fd5b50610255610250366004611e73565b61078c565b60405190151581526020015b60405180910390f35b34801561027657600080fd5b50610280600b5481565b604051908152602001610261565b34801561029a57600080fd5b506102a36107f9565b6040516102619190611eea565b3480156102bc57600080fd5b506102556102cb366004611f29565b61088b565b3480156102dc57600080fd5b506102f06102eb36600461201a565b610927565b005b3480156102fe57600080fd5b50600754610280565b34801561031357600080fd5b506102f0610322366004612060565b6109b2565b34801561033357600080fd5b506102806103423660046120a1565b610a63565b34801561035357600080fd5b50610280610362366004612060565b610c55565b34801561037357600080fd5b506102f0610cda565b34801561038857600080fd5b50610280610397366004612060565b610d15565b3480156103a857600080fd5b506102556103b7366004612140565b6001600160a01b0316600090815260046020526040902054151590565b3480156103e057600080fd5b506102f06103ef36600461215b565b610d46565b34801561040057600080fd5b5061028061040f36600461219f565b90565b6102f0610420366004612060565b610de9565b34801561043157600080fd5b506102f06104403660046121b8565b610f9b565b34801561045157600080fd5b5061046561046036600461219f565b61102f565b6040516001600160a01b039091168152602001610261565b34801561048957600080fd5b5061028061049836600461219f565b600e6020526000908152604090205481565b3480156104b657600080fd5b50600854610280565b3480156104cb57600080fd5b506102f06104da3660046121e4565b61104d565b3480156104eb57600080fd5b506102806104fa366004612140565b6001600160a01b031660009081526002602052604090205490565b34801561052157600080fd5b506102f06110dd565b34801561053657600080fd5b506102f0610545366004612060565b6110f1565b34801561055657600080fd5b50610255610565366004612207565b600f60209081526000928352604080842090915290825290205460ff1681565b34801561059157600080fd5b506105a56105a0366004612140565b6111bc565b604051610261919061222a565b3480156105be57600080fd5b50600a546001600160a01b0316610465565b3480156105dc57600080fd5b506102a3611228565b3480156105f157600080fd5b506102f0610600366004612060565b611237565b34801561061157600080fd5b506102f061062036600461226d565b611295565b34801561063157600080fd5b506102f0610640366004612060565b61130c565b34801561065157600080fd5b5061066561066036600461219f565b61140a565b60405161026197969594939291906122c7565b34801561068457600080fd5b506102a361069336600461219f565b6114f0565b3480156106a457600080fd5b506102f06106b3366004612060565b6115b8565b3480156106c457600080fd5b506102556106d3366004612328565b6115e6565b3480156106e457600080fd5b506102807f000000000000000000000000000000000000000000000000000000000000000081565b34801561071857600080fd5b506102f0610727366004612060565b6116be565b34801561073857600080fd5b506102f0610747366004612140565b6117c6565b34801561075857600080fd5b5061025561076736600461219f565b611804565b34801561077857600080fd5b506105a56107873660046123fd565b611823565b60006001600160e01b0319821663a511533d60e01b14806107bd57506001600160e01b03198216635b5e139f60e01b145b806107d857506001600160e01b03198216632d57debd60e01b145b806107f357506301ffc9a760e01b6001600160e01b03198316145b92915050565b60606005805461080890612437565b80601f016020809104026020016040519081016040528092919081815260200182805461083490612437565b80156108815780601f1061085657610100808354040283529160200191610881565b820191906000526020600020905b81548152906001019060200180831161086457829003601f168201915b5050505050905090565b6000828152600d602052604081206001015483906001600160a01b031633146108c7576040516394ad3ab960e01b815260040160405180910390fd5b83600b548111156108eb576040516364dc5f3760e11b815260040160405180910390fd5b5050506000918252600f602090815260408084206001600160a01b03959095168452939052919020805460ff1916911515919091179055600190565b6009546001600160a01b031633146109955760405162461bcd60e51b815260206004820152602660248201527f4f6e6c79207468652063726561746f722063616e207365742074686520746f6b604482015265656e2055524960d01b60648201526084015b60405180910390fd5b60008281526001602052604090206109ad82826124b8565b505050565b6000818152600e6020908152604080832054808452600d909252909120600101546001600160a01b031633146109fb576040516394ad3ab960e01b815260040160405180910390fd5b610a0482611804565b610a20576040516236065f60e21b815260040160405180910390fd5b826001600160a01b0316610a338361102f565b6001600160a01b031614610a5a576040516353ce435f60e11b815260040160405180910390fd5b6109ad8261196f565b6000610a6d611a8b565b876000815111610a905760405163c97d637b60e01b815260040160405180910390fd5b600b8054906000610aa08361258c565b91905055506040518060e001604052808a8152602001896001600160a01b03168152602001888152602001876001600160401b03168152602001866004811115610aec57610aec61228f565b8152851515602080830191909152851515604092830152600b546000908152600d9091522081518190610b1f90826124b8565b5060208201516001820180546001600160a01b039092166001600160a01b03199092169190911790556040820151600282015560608201516003820180546001600160401b0390921667ffffffffffffffff1983168117825560808501519268ffffffffffffffffff191617600160401b836004811115610ba257610ba261228f565b021790555060a08201516003909101805460c0909301511515600160501b0260ff60501b19921515600160481b02929092166affff0000000000000000001990931692909217179055600b546040516001600160401b03881691906001600160a01b038b16907f4903e9c3826c1a365f9c5b6193e9e708b4269472495fff7ba4b271d74907fcde90610c3d908e908d908c908c908c906125a5565b60405180910390a45050600b54979650505050505050565b6001600160a01b038216600090815260026020526040812080548310610cb45760405162461bcd60e51b8152602060048201526014602482015273151bdad95b88191bd95cc81b9bdd08195e1a5cdd60621b604482015260640161098c565b808381548110610cc657610cc66125e5565b906000526020600020015491505092915050565b610ce2611a8b565b6040514790339082156108fc029083906000818181858888f19350505050158015610d11573d6000803e3d6000fd5b5050565b600c6020528160005260406000208181548110610d3157600080fd5b90600052602060002001600091509150505481565b6000818152600d602052604090206001015481906001600160a01b03163314610d82576040516394ad3ab960e01b815260040160405180910390fd5b81600b54811115610da6576040516364dc5f3760e11b815260040160405180910390fd5b836000815111610dc95760405163c97d637b60e01b815260040160405180910390fd5b6000848152600d60205260409020610de186826124b8565b505050505050565b6000818152600d602052604090206001015481906001600160a01b03163314610e25576040516394ad3ab960e01b815260040160405180910390fd5b816003600b54821115610e4b576040516364dc5f3760e11b815260040160405180910390fd5b6000828152600d6020526040902060030154600160501b900460ff16610e84576040516394ad3ab960e01b815260040160405180910390fd5b806004811115610e9657610e9661228f565b6000838152600d6020526040902060030154600160401b900460ff166004811115610ec357610ec361228f565b14610ee0576040516236065f60e21b815260040160405180910390fd5b6000848152600d6020526040902060020154341015610f1257604051630ff0d0c160e31b815260040160405180910390fd5b60006064610f407f0000000000000000000000000000000000000000000000000000000000000000346125fb565b610f4a9190612612565b90506000610f588234612634565b9050610f648787611ab8565b604051339082156108fc029083906000818181858888f19350505050158015610f91573d6000803e3d6000fd5b5050505050505050565b6000828152600d602052604090206001015482906001600160a01b03163314610fd7576040516394ad3ab960e01b815260040160405180910390fd5b82600b54811115610ffb576040516364dc5f3760e11b815260040160405180910390fd5b50506000918252600d6020526040909120600301805467ffffffffffffffff19166001600160401b03909216919091179055565b600061103a82611bd5565b600101546001600160a01b031692915050565b6000828152600d602052604090206001015482906001600160a01b03163314611089576040516394ad3ab960e01b815260040160405180910390fd5b82600b548111156110ad576040516364dc5f3760e11b815260040160405180910390fd5b50506000918252600d60205260409091206003018054911515600160501b0260ff60501b19909216919091179055565b6110e5611a8b565b6110ef6000611c34565b565b806000600b54821115611117576040516364dc5f3760e11b815260040160405180910390fd5b6000828152600d6020526040902060030154600160501b900460ff16611150576040516394ad3ab960e01b815260040160405180910390fd5b8060048111156111625761116261228f565b6000838152600d6020526040902060030154600160401b900460ff16600481111561118f5761118f61228f565b146111ac576040516236065f60e21b815260040160405180910390fd5b6111b68484611ab8565b50505050565b6001600160a01b03811660009081526002602090815260409182902080548351818402810184019094528084526060939283018282801561121c57602002820191906000526020600020905b815481526020019060010190808311611208575b50505050509050919050565b60606006805461080890612437565b61123f611a8b565b80600b54811115611263576040516364dc5f3760e11b815260040160405180910390fd5b506000908152600d6020526040902060010180546001600160a01b0319166001600160a01b0392909216919091179055565b6000828152600d602052604090206001015482906001600160a01b031633146112d1576040516394ad3ab960e01b815260040160405180910390fd5b82600b548111156112f5576040516364dc5f3760e11b815260040160405180910390fd5b50506000918252600d602052604090912060020155565b806004600b54821115611332576040516364dc5f3760e11b815260040160405180910390fd5b6000828152600d6020526040902060030154600160501b900460ff1661136b576040516394ad3ab960e01b815260040160405180910390fd5b80600481111561137d5761137d61228f565b6000838152600d6020526040902060030154600160401b900460ff1660048111156113aa576113aa61228f565b146113c7576040516236065f60e21b815260040160405180910390fd5b6000838152600f602090815260408083206001600160a01b038816845290915290205460ff166111ac57604051630a3ad7c560e21b815260040160405180910390fd5b600d6020526000908152604090208054819061142590612437565b80601f016020809104026020016040519081016040528092919081815260200182805461145190612437565b801561149e5780601f106114735761010080835404028352916020019161149e565b820191906000526020600020905b81548152906001019060200180831161148157829003601f168201915b5050506001840154600285015460039095015493946001600160a01b03909116939092506001600160401b038116915060ff600160401b8204811691600160481b8104821691600160501b9091041687565b60606114fb82611804565b611517576040516236065f60e21b815260040160405180910390fd5b6000828152600e60209081526040808320548352600d9091529020805461153d90612437565b80601f016020809104026020016040519081016040528092919081815260200182805461156990612437565b801561121c5780601f1061158b5761010080835404028352916020019161121c565b820191906000526020600020905b8154815290600101906020018083116115995750939695505050505050565b6115c0611a8b565b806001600b54821115611117576040516364dc5f3760e11b815260040160405180910390fd5b6000828152600d602052604081206001015483906001600160a01b03163314611622576040516394ad3ab960e01b815260040160405180910390fd5b83600b54811115611646576040516364dc5f3760e11b815260040160405180910390fd5b60005b86518110156116b1576000868152600f6020526040812088518792908a9085908110611677576116776125e5565b6020908102919091018101516001600160a01b03168252810191909152604001600020805460ff1916911515919091179055600101611649565b5060019695505050505050565b6000818152600d602052604090206001015481906001600160a01b031633146116fa576040516394ad3ab960e01b815260040160405180910390fd5b816002600b54821115611720576040516364dc5f3760e11b815260040160405180910390fd5b6000828152600d6020526040902060030154600160501b900460ff16611759576040516394ad3ab960e01b815260040160405180910390fd5b80600481111561176b5761176b61228f565b6000838152600d6020526040902060030154600160401b900460ff1660048111156117985761179861228f565b146117b5576040516236065f60e21b815260040160405180910390fd5b6117bf8585611ab8565b5050505050565b6117ce611a8b565b6001600160a01b0381166117f857604051631e4fbdf760e01b81526000600482015260240161098c565b61180181611c34565b50565b600061180f82611bd5565b60010154600160a01b900460ff1692915050565b6001600160a01b0383166000908152600c6020908152604080832080548251818502810185019093528083526060949383018282801561188257602002820191906000526020600020905b81548152602001906001019080831161186e575b505050505090506000815184866118999190612647565b60ff16116118b3576118ab8486612647565b60ff166118b6565b81515b905060006118c760ff871683612634565b6001600160401b038111156118de576118de611f65565b604051908082528060200260200182016040528015611907578160200160208202803683370190505b50905060ff86165b8281101561196457838181518110611929576119296125e5565b6020026020010151828860ff16836119419190612634565b81518110611951576119516125e5565b602090810291909101015260010161190f565b509695505050505050565b600061197a82611bd5565b6001810154909150600160a01b900460ff166119d85760405162461bcd60e51b815260206004820152601860248201527f546f6b656e20697320616c726561647920696e76616c69640000000000000000604482015260640161098c565b60018101805460ff60a01b1981169091556001600160a01b0316600090815260046020526040902054611a0d57611a0d612660565b6001818101546001600160a01b031660009081526004602052604081208054909190611a3a908490612634565b90915550506001810154604080516001600160a01b039092168252602082018490527f713b90881ad62c4fa8ab6bd9197fa86481fc0c11b2edba60026514281b2dbac4910160405180910390a15050565b600a546001600160a01b031633146110ef5760405163118cdaa760e01b815233600482015260240161098c565b6000818152600d6020526040902060030154600160481b900460ff1615611b10576000818152600d60205260409020600301546001600160401b0316611b105760405162ffd04560e21b815260040160405180910390fd5b6000611b1b83611c86565b6000838152600d602052604081206003018054929350600192909190611b4b9084906001600160401b0316612676565b82546001600160401b039182166101009390930a9283029190920219909116179055506001600160a01b0383166000818152600c60209081526040808320805460018101825590845282842001859055848352600e909152808220859055518392917fb9144c96c86541f6fa89c9f2f02495cccf4b08cd6643e26d34ee00aa586558a891a3505050565b600081815260208190526040812060018101546001600160a01b03166107f35760405162461bcd60e51b8152602060048201526014602482015273151bdad95b88191bd95cc81b9bdd08195e1a5cdd60621b604482015260640161098c565b600a80546001600160a01b038381166001600160a01b0319831681179093556040519116919082907f8be0079c531659141344cd1fd0a4f28419497f9722a3daafe3b4186f6b6457e090600090a35050565b600754611c9582826001611cf5565b604080516001600160a01b0384168152602081018390527f30385c845b448a36257a6a1716e6ad2e1bc2cbe333cde1e69fe849ad6511adfe910160405180910390a1600160076000828254611cea9190612695565b909155509092915050565b6000828152602081905260409020600101546001600160a01b031615611d5d5760405162461bcd60e51b815260206004820152601d60248201527f43616e6e6f74206d696e7420616e2061737369676e656420746f6b656e000000604482015260640161098c565b6001600160a01b0383166000908152600260205260408120549003611d9557600160086000828254611d8f9190612695565b90915550505b604080516060810182523381526001600160a01b0385811660208084018281528615801586880190815260008a8152808552888120975188549088166001600160a01b031990911617885592516001978801805492511515600160a01b026001600160a81b031990931691909716171790945591825260028082528583208054600384528785208a865284529684208790559082529385018455928152919091209091018390556109ad576001600160a01b0383166000908152600460205260408120805460019290611e69908490612695565b9091555050505050565b600060208284031215611e8557600080fd5b81356001600160e01b031981168114611e9d57600080fd5b9392505050565b6000815180845260005b81811015611eca57602081850181015186830182015201611eae565b506000602082860101526020601f19601f83011685010191505092915050565b602081526000611e9d6020830184611ea4565b80356001600160a01b0381168114611f1457600080fd5b919050565b80358015158114611f1457600080fd5b600080600060608486031215611f3e57600080fd5b611f4784611efd565b925060208401359150611f5c60408501611f19565b90509250925092565b634e487b7160e01b600052604160045260246000fd5b604051601f8201601f191681016001600160401b0381118282101715611fa357611fa3611f65565b604052919050565b600082601f830112611fbc57600080fd5b81356001600160401b03811115611fd557611fd5611f65565b611fe8601f8201601f1916602001611f7b565b818152846020838601011115611ffd57600080fd5b816020850160208301376000918101602001919091529392505050565b6000806040838503121561202d57600080fd5b8235915060208301356001600160401b0381111561204a57600080fd5b61205685828601611fab565b9150509250929050565b6000806040838503121561207357600080fd5b61207c83611efd565b946020939093013593505050565b80356001600160401b0381168114611f1457600080fd5b600080600080600080600060e0888a0312156120bc57600080fd5b87356001600160401b038111156120d257600080fd5b6120de8a828b01611fab565b9750506120ed60208901611efd565b9550604088013594506121026060890161208a565b935060808801356005811061211657600080fd5b925061212460a08901611f19565b915061213260c08901611f19565b905092959891949750929550565b60006020828403121561215257600080fd5b611e9d82611efd565b6000806040838503121561216e57600080fd5b82356001600160401b0381111561218457600080fd5b61219085828601611fab565b95602094909401359450505050565b6000602082840312156121b157600080fd5b5035919050565b600080604083850312156121cb57600080fd5b823591506121db6020840161208a565b90509250929050565b600080604083850312156121f757600080fd5b823591506121db60208401611f19565b6000806040838503121561221a57600080fd5b823591506121db60208401611efd565b602080825282518282018190526000918401906040840190835b81811015612262578351835260209384019390920191600101612244565b509095945050505050565b6000806040838503121561228057600080fd5b50508035926020909101359150565b634e487b7160e01b600052602160045260246000fd5b600581106122c357634e487b7160e01b600052602160045260246000fd5b9052565b60e0815260006122da60e083018a611ea4565b6001600160a01b0389166020840152604083018890526001600160401b0387166060840152905061230e60808301866122a5565b92151560a082015290151560c09091015295945050505050565b60008060006060848603121561233d57600080fd5b83356001600160401b0381111561235357600080fd5b8401601f8101861361236457600080fd5b80356001600160401b0381111561237d5761237d611f65565b8060051b61238d60208201611f7b565b918252602081840181019290810190898411156123a957600080fd5b6020850194505b838510156123d2576123c185611efd565b8252602094850194909101906123b0565b965050505060208501359250611f5c905060408501611f19565b803560ff81168114611f1457600080fd5b60008060006060848603121561241257600080fd5b61241b84611efd565b9250612429602085016123ec565b9150611f5c604085016123ec565b600181811c9082168061244b57607f821691505b60208210810361246b57634e487b7160e01b600052602260045260246000fd5b50919050565b601f8211156109ad57806000526020600020601f840160051c810160208510156124985750805b601f840160051c820191505b818110156117bf57600081556001016124a4565b81516001600160401b038111156124d1576124d1611f65565b6124e5816124df8454612437565b84612471565b6020601f82116001811461251957600083156125015750848201515b600019600385901b1c1916600184901b1784556117bf565b600084815260208120601f198516915b828110156125495787850151825560209485019460019092019101612529565b50848210156125675786840151600019600387901b60f8161c191681555b50505050600190811b01905550565b634e487b7160e01b600052601160045260246000fd5b60006001820161259e5761259e612576565b5060010190565b60a0815260006125b860a0830188611ea4565b90508560208301526125cd60408301866122a5565b92151560608201529015156080909101529392505050565b634e487b7160e01b600052603260045260246000fd5b80820281158282048414176107f3576107f3612576565b60008261262f57634e487b7160e01b600052601260045260246000fd5b500490565b818103818111156107f3576107f3612576565b60ff81811683821601908111156107f3576107f3612576565b634e487b7160e01b600052600160045260246000fd5b6001600160401b0382811682821603908111156107f3576107f3612576565b808201808211156107f3576107f361257656fea2646970667358221220427848e0ed97bb0a8ab6733a03ffc5b839cc4cf2f12b7236b9b9ee7f9211320764736f6c634300081c0033",
  "linkReferences": {},
  "deployedLinkReferences": {}
}