{
  "_format": "hh-sol-artifact-1",
  "contractName": "JPSGuard",
  "sourceName": "contracts/JPSGuard.sol",
  "abi": [
    {
      "inputs": [
        {
          "internalType": "string",
          "name": "_uri",
          "type": "string"
        }
      ],
      "stateMutability": "nonpayable",
      "type": "constructor"
    },
    {
      "inputs": [],
      "name": "JPSGuard_InactiveToken",
      "type": "error"
    },
    {
      "inputs": [],
      "name": "JPSGuard_InsufficientFundsSent",
      "type": "error"
    },
    {
      "inputs": [],
      "name": "JPSGuard_InvalidServiceID",
      "type": "error"
    },
    {
      "inputs": [],
      "name": "JPSGuard_InvalidTokenId",
      "type": "error"
    },
    {
      "inputs": [],
      "name": "JPSGuard_NotManager",
      "type": "error"
    },
    {
      "inputs": [],
      "name": "JPSGuard_NotWhitelisted",
      "type": "error"
    },
    {
      "inputs": [],
      "name": "JPSGuard_NotWhitelistedToken",
      "type": "error"
    },
    {
      "inputs": [],
      "name": "JPSGuard_TokenLimitExceeded",
      "type": "error"
    },
    {
      "inputs": [
        {
          "internalType": "address",
          "name": "owner",
          "type": "address"
        }
      ],
      "name": "OwnableInvalidOwner",
      "type": "error"
    },
    {
      "inputs": [
        {
          "internalType": "address",
          "name": "account",
          "type": "address"
        }
      ],
      "name": "OwnableUnauthorizedAccount",
      "type": "error"
    },
    {
      "anonymous": false,
      "inputs": [
        {
          "indexed": false,
          "internalType": "address",
          "name": "owner",
          "type": "address"
        },
        {
          "indexed": false,
          "internalType": "uint256",
          "name": "tokenId",
          "type": "uint256"
        }
      ],
      "name": "Minted",
      "type": "event"
    },
    {
      "anonymous": false,
      "inputs": [
        {
          "indexed": true,
          "internalType": "address",
          "name": "previousOwner",
          "type": "address"
        },
        {
          "indexed": true,
          "internalType": "address",
          "name": "newOwner",
          "type": "address"
        }
      ],
      "name": "OwnershipTransferred",
      "type": "event"
    },
    {
      "anonymous": false,
      "inputs": [
        {
          "indexed": false,
          "internalType": "address",
          "name": "owner",
          "type": "address"
        },
        {
          "indexed": false,
          "internalType": "uint256",
          "name": "tokenId",
          "type": "uint256"
        }
      ],
      "name": "Revoked",
      "type": "event"
    },
    {
      "anonymous": false,
      "inputs": [
        {
          "indexed": false,
          "internalType": "string",
          "name": "uri",
          "type": "string"
        },
        {
          "indexed": true,
          "internalType": "address",
          "name": "manager",
          "type": "address"
        },
        {
          "indexed": false,
          "internalType": "uint256",
          "name": "price",
          "type": "uint256"
        },
        {
          "indexed": false,
          "internalType": "uint256",
          "name": "serviceId",
          "type": "uint256"
        },
        {
          "indexed": false,
          "internalType": "uint64",
          "name": "tokenLimit",
          "type": "uint64"
        },
        {
          "indexed": false,
          "internalType": "enum JPSGuard.ServiceStatus",
          "name": "status",
          "type": "uint8"
        },
        {
          "indexed": false,
          "internalType": "bool",
          "name": "isPrivate",
          "type": "bool"
        }
      ],
      "name": "ServiceRegistered",
      "type": "event"
    },
    {
      "anonymous": false,
      "inputs": [
        {
          "indexed": true,
          "internalType": "address",
          "name": "_owner",
          "type": "address"
        },
        {
          "indexed": true,
          "internalType": "uint256",
          "name": "_tokenId",
          "type": "uint256"
        }
      ],
      "name": "TokenMinted",
      "type": "event"
    },
    {
      "inputs": [
        {
          "internalType": "address",
          "name": "owner",
          "type": "address"
        }
      ],
      "name": "balanceOf",
      "outputs": [
        {
          "internalType": "uint256",
          "name": "",
          "type": "uint256"
        }
      ],
      "stateMutability": "view",
      "type": "function"
    },
    {
      "inputs": [],
      "name": "emittedCount",
      "outputs": [
        {
          "internalType": "uint256",
          "name": "",
          "type": "uint256"
        }
      ],
      "stateMutability": "view",
      "type": "function"
    },
    {
      "inputs": [
        {
          "internalType": "address",
          "name": "_user",
          "type": "address"
        }
      ],
      "name": "getUserIDs",
      "outputs": [
        {
          "internalType": "uint256[]",
          "name": "",
          "type": "uint256[]"
        }
      ],
      "stateMutability": "view",
      "type": "function"
    },
    {
      "inputs": [
        {
          "internalType": "address",
          "name": "owner",
          "type": "address"
        }
      ],
      "name": "hasValid",
      "outputs": [
        {
          "internalType": "bool",
          "name": "",
          "type": "bool"
        }
      ],
      "stateMutability": "view",
      "type": "function"
    },
    {
      "inputs": [],
      "name": "holdersCount",
      "outputs": [
        {
          "internalType": "uint256",
          "name": "",
          "type": "uint256"
        }
      ],
      "stateMutability": "view",
      "type": "function"
    },
    {
      "inputs": [
        {
          "internalType": "uint256",
          "name": "tokenId",
          "type": "uint256"
        }
      ],
      "name": "isValid",
      "outputs": [
        {
          "internalType": "bool",
          "name": "",
          "type": "bool"
        }
      ],
      "stateMutability": "view",
      "type": "function"
    },
    {
      "inputs": [
        {
          "internalType": "uint256",
          "name": "",
          "type": "uint256"
        },
        {
          "internalType": "address",
          "name": "",
          "type": "address"
        }
      ],
      "name": "isWhitelisted",
      "outputs": [
        {
          "internalType": "bool",
          "name": "",
          "type": "bool"
        }
      ],
      "stateMutability": "view",
      "type": "function"
    },
    {
      "inputs": [
        {
          "internalType": "address",
          "name": "_user",
          "type": "address"
        },
        {
          "internalType": "uint256",
          "name": "_serviceId",
          "type": "uint256"
        }
      ],
      "name": "mintPaidToken",
      "outputs": [],
      "stateMutability": "payable",
      "type": "function"
    },
    {
      "inputs": [
        {
          "internalType": "address",
          "name": "_user",
          "type": "address"
        },
        {
          "internalType": "uint256",
          "name": "_serviceId",
          "type": "uint256"
        }
      ],
      "name": "mintPrivateToken",
      "outputs": [],
      "stateMutability": "nonpayable",
      "type": "function"
    },
    {
      "inputs": [
        {
          "internalType": "address",
          "name": "_user",
          "type": "address"
        },
        {
          "internalType": "uint256",
          "name": "_serviceId",
          "type": "uint256"
        }
      ],
      "name": "mintPublicToken",
      "outputs": [],
      "stateMutability": "nonpayable",
      "type": "function"
    },
    {
      "inputs": [
        {
          "internalType": "address",
          "name": "_user",
          "type": "address"
        },
        {
          "internalType": "uint256",
          "name": "_serviceId",
          "type": "uint256"
        }
      ],
      "name": "mintServiceToken",
      "outputs": [],
      "stateMutability": "nonpayable",
      "type": "function"
    },
    {
      "inputs": [
        {
          "internalType": "address",
          "name": "_user",
          "type": "address"
        },
        {
          "internalType": "uint256",
          "name": "_serviceId",
          "type": "uint256"
        }
      ],
      "name": "mintWhitelistedToken",
      "outputs": [],
      "stateMutability": "nonpayable",
      "type": "function"
    },
    {
      "inputs": [],
      "name": "name",
      "outputs": [
        {
          "internalType": "string",
          "name": "",
          "type": "string"
        }
      ],
      "stateMutability": "view",
      "type": "function"
    },
    {
      "inputs": [],
      "name": "owner",
      "outputs": [
        {
          "internalType": "address",
          "name": "",
          "type": "address"
        }
      ],
      "stateMutability": "view",
      "type": "function"
    },
    {
      "inputs": [
        {
          "internalType": "uint256",
          "name": "tokenId",
          "type": "uint256"
        }
      ],
      "name": "ownerOf",
      "outputs": [
        {
          "internalType": "address",
          "name": "",
          "type": "address"
        }
      ],
      "stateMutability": "view",
      "type": "function"
    },
    {
      "inputs": [
        {
          "internalType": "string",
          "name": "_uri",
          "type": "string"
        },
        {
          "internalType": "address",
          "name": "_manager",
          "type": "address"
        },
        {
          "internalType": "uint256",
          "name": "_price",
          "type": "uint256"
        },
        {
          "internalType": "uint64",
          "name": "_tokenLimit",
          "type": "uint64"
        },
        {
          "internalType": "enum JPSGuard.ServiceStatus",
          "name": "_status",
          "type": "uint8"
        },
        {
          "internalType": "bool",
          "name": "_active",
          "type": "bool"
        }
      ],
      "name": "registerServiceToken",
      "outputs": [
        {
          "internalType": "uint256",
          "name": "",
          "type": "uint256"
        }
      ],
      "stateMutability": "nonpayable",
      "type": "function"
    },
    {
      "inputs": [],
      "name": "renounceOwnership",
      "outputs": [],
      "stateMutability": "nonpayable",
      "type": "function"
    },
    {
      "inputs": [],
      "name": "serviceCount",
      "outputs": [
        {
          "internalType": "uint256",
          "name": "",
          "type": "uint256"
        }
      ],
      "stateMutability": "view",
      "type": "function"
    },
    {
      "inputs": [
        {
          "internalType": "uint256",
          "name": "",
          "type": "uint256"
        }
      ],
      "name": "services",
      "outputs": [
        {
          "internalType": "string",
          "name": "uri",
          "type": "string"
        },
        {
          "internalType": "address",
          "name": "manager",
          "type": "address"
        },
        {
          "internalType": "uint256",
          "name": "price",
          "type": "uint256"
        },
        {
          "internalType": "uint64",
          "name": "tokenLimit",
          "type": "uint64"
        },
        {
          "internalType": "enum JPSGuard.ServiceStatus",
          "name": "status",
          "type": "uint8"
        },
        {
          "internalType": "bool",
          "name": "active",
          "type": "bool"
        }
      ],
      "stateMutability": "view",
      "type": "function"
    },
    {
      "inputs": [
        {
          "internalType": "uint256",
          "name": "tokenId",
          "type": "uint256"
        },
        {
          "internalType": "string",
          "name": "tokenUri",
          "type": "string"
        }
      ],
      "name": "setTokenURI",
      "outputs": [],
      "stateMutability": "nonpayable",
      "type": "function"
    },
    {
      "inputs": [
        {
          "internalType": "bytes4",
          "name": "interfaceId",
          "type": "bytes4"
        }
      ],
      "name": "supportsInterface",
      "outputs": [
        {
          "internalType": "bool",
          "name": "",
          "type": "bool"
        }
      ],
      "stateMutability": "view",
      "type": "function"
    },
    {
      "inputs": [],
      "name": "symbol",
      "outputs": [
        {
          "internalType": "string",
          "name": "",
          "type": "string"
        }
      ],
      "stateMutability": "view",
      "type": "function"
    },
    {
      "inputs": [
        {
          "internalType": "uint256",
          "name": "index",
          "type": "uint256"
        }
      ],
      "name": "tokenByIndex",
      "outputs": [
        {
          "internalType": "uint256",
          "name": "",
          "type": "uint256"
        }
      ],
      "stateMutability": "view",
      "type": "function"
    },
    {
      "inputs": [
        {
          "internalType": "address",
          "name": "",
          "type": "address"
        },
        {
          "internalType": "uint256",
          "name": "",
          "type": "uint256"
        }
      ],
      "name": "tokenIds",
      "outputs": [
        {
          "internalType": "uint256",
          "name": "",
          "type": "uint256"
        }
      ],
      "stateMutability": "view",
      "type": "function"
    },
    {
      "inputs": [
        {
          "internalType": "address",
          "name": "owner",
          "type": "address"
        },
        {
          "internalType": "uint256",
          "name": "index",
          "type": "uint256"
        }
      ],
      "name": "tokenOfOwnerByIndex",
      "outputs": [
        {
          "internalType": "uint256",
          "name": "",
          "type": "uint256"
        }
      ],
      "stateMutability": "view",
      "type": "function"
    },
    {
      "inputs": [
        {
          "internalType": "uint256",
          "name": "tokenId",
          "type": "uint256"
        }
      ],
      "name": "tokenURI",
      "outputs": [
        {
          "internalType": "string",
          "name": "",
          "type": "string"
        }
      ],
      "stateMutability": "view",
      "type": "function"
    },
    {
      "inputs": [
        {
          "internalType": "address",
          "name": "owner",
          "type": "address"
        }
      ],
      "name": "tokensOfOwner",
      "outputs": [
        {
          "internalType": "uint256[]",
          "name": "tokens",
          "type": "uint256[]"
        }
      ],
      "stateMutability": "view",
      "type": "function"
    },
    {
      "inputs": [
        {
          "internalType": "address",
          "name": "newOwner",
          "type": "address"
        }
      ],
      "name": "transferOwnership",
      "outputs": [],
      "stateMutability": "nonpayable",
      "type": "function"
    },
    {
      "inputs": [
        {
          "internalType": "uint256",
          "name": "_serviceId",
          "type": "uint256"
        },
        {
          "internalType": "bool",
          "name": "_active",
          "type": "bool"
        }
      ],
      "name": "updateServiceActiveStatus",
      "outputs": [],
      "stateMutability": "nonpayable",
      "type": "function"
    },
    {
      "inputs": [
        {
          "internalType": "address",
          "name": "_manager",
          "type": "address"
        },
        {
          "internalType": "uint256",
          "name": "_serviceId",
          "type": "uint256"
        }
      ],
      "name": "updateServiceManager",
      "outputs": [],
      "stateMutability": "nonpayable",
      "type": "function"
    },
    {
      "inputs": [
        {
          "internalType": "uint256",
          "name": "_serviceId",
          "type": "uint256"
        },
        {
          "internalType": "uint256",
          "name": "_price",
          "type": "uint256"
        }
      ],
      "name": "updateServicePrice",
      "outputs": [],
      "stateMutability": "nonpayable",
      "type": "function"
    },
    {
      "inputs": [
        {
          "internalType": "uint256",
          "name": "_serviceId",
          "type": "uint256"
        },
        {
          "internalType": "enum JPSGuard.ServiceStatus",
          "name": "_status",
          "type": "uint8"
        }
      ],
      "name": "updateServiceStatus",
      "outputs": [],
      "stateMutability": "nonpayable",
      "type": "function"
    },
    {
      "inputs": [
        {
          "internalType": "uint256",
          "name": "_serviceId",
          "type": "uint256"
        },
        {
          "internalType": "uint64",
          "name": "_tokenLimit",
          "type": "uint64"
        }
      ],
      "name": "updateServiceTokenLimit",
      "outputs": [],
      "stateMutability": "nonpayable",
      "type": "function"
    },
    {
      "inputs": [
        {
          "internalType": "string",
          "name": "_uri",
          "type": "string"
        },
        {
          "internalType": "uint256",
          "name": "_serviceId",
          "type": "uint256"
        }
      ],
      "name": "updateServiceURI",
      "outputs": [],
      "stateMutability": "nonpayable",
      "type": "function"
    },
    {
      "inputs": [
        {
          "internalType": "address",
          "name": "_user",
          "type": "address"
        },
        {
          "internalType": "uint256",
          "name": "_serviceId",
          "type": "uint256"
        },
        {
          "internalType": "bool",
          "name": "_status",
          "type": "bool"
        }
      ],
      "name": "updateWhitelist",
      "outputs": [
        {
          "internalType": "bool",
          "name": "",
          "type": "bool"
        }
      ],
      "stateMutability": "nonpayable",
      "type": "function"
    },
    {
      "inputs": [
        {
          "internalType": "address[]",
          "name": "_users",
          "type": "address[]"
        },
        {
          "internalType": "uint256",
          "name": "_serviceId",
          "type": "uint256"
        },
        {
          "internalType": "bool",
          "name": "_status",
          "type": "bool"
        }
      ],
      "name": "updateWhitelistBatch",
      "outputs": [
        {
          "internalType": "bool",
          "name": "",
          "type": "bool"
        }
      ],
      "stateMutability": "nonpayable",
      "type": "function"
    }
  ],
  "bytecode": "0x608060405234801561001057600080fd5b5060405161285d38038061285d83398101604081905261002f91610350565b33604051806040016040528060038152602001624a505360e81b8152506040518060400160405280601081526020016f12940814dd1858dad95c8811dd585c9960821b8152508160059081610084919061048b565b506006610091828261048b565b5050600980546001600160a01b03191633179055506001600160a01b0381166100d557604051631e4fbdf760e01b8152600060048201526024015b60405180910390fd5b6100de816100fd565b506100f6813360006001600160401b0381600161014f565b505061060d565b600a80546001600160a01b038381166001600160a01b0319831681179093556040519116919082907f8be0079c531659141344cd1fd0a4f28419497f9722a3daafe3b4186f6b6457e090600090a35050565b60006101596102e7565b600b805490600061016983610549565b91905055506040518060c00160405280888152602001876001600160a01b03168152602001868152602001856001600160401b031681526020018460048111156101b5576101b5610570565b8152831515602091820152600b546000908152600d90915260409020815181906101df908261048b565b5060208201516001820180546001600160a01b039092166001600160a01b03199092169190911790556040820151600282015560608201516003820180546001600160401b039092166001600160401b03198316811782556080850151926001600160481b031916176801000000000000000083600481111561026457610264610570565b021790555060a08201518160030160096101000a81548160ff021916908315150217905550905050856001600160a01b03167f28345b1271c32202a14d2a477bca4d93555559e75e1e17ac3f690a13ed71881b8887600b548888886040516102d196959493929190610586565b60405180910390a250600b549695505050505050565b600a546001600160a01b031633146103145760405163118cdaa760e01b81523360048201526024016100cc565b565b634e487b7160e01b600052604160045260246000fd5b60005b8381101561034757818101518382015260200161032f565b50506000910152565b60006020828403121561036257600080fd5b81516001600160401b0381111561037857600080fd5b8201601f8101841361038957600080fd5b80516001600160401b038111156103a2576103a2610316565b604051601f8201601f19908116603f011681016001600160401b03811182821017156103d0576103d0610316565b6040528181528282016020018610156103e857600080fd5b6103f982602083016020860161032c565b95945050505050565b600181811c9082168061041657607f821691505b60208210810361043657634e487b7160e01b600052602260045260246000fd5b50919050565b601f82111561048657806000526020600020601f840160051c810160208510156104635750805b601f840160051c820191505b81811015610483576000815560010161046f565b50505b505050565b81516001600160401b038111156104a4576104a4610316565b6104b8816104b28454610402565b8461043c565b6020601f8211600181146104ec57600083156104d45750848201515b600019600385901b1c1916600184901b178455610483565b600084815260208120601f198516915b8281101561051c57878501518255602094850194600190920191016104fc565b508482101561053a5786840151600019600387901b60f8161c191681555b50505050600190811b01905550565b60006001820161056957634e487b7160e01b600052601160045260246000fd5b5060010190565b634e487b7160e01b600052602160045260246000fd5b60c08152600087518060c08401526105a58160e0850160208c0161032c565b60208301889052604083018790526001600160401b0386166060840152601f01601f1916820160e0019050600584106105ee57634e487b7160e01b600052602160045260246000fd5b83608083015261060260a083018415159052565b979650505050505050565b6122418061061c6000396000f3fe60806040526004361061020f5760003560e01c806370a08231116101185780639fd80934116100a0578063d88f5b891161006f578063d88f5b8914610654578063ee2786bc14610674578063ef9ec2f314610694578063f2fde38b146106b4578063f577a500146106d457600080fd5b80639fd80934146105c2578063a4e3bab9146105e2578063c22c4f4314610602578063c87b56dd1461063457600080fd5b80638462151c116100e75780638462151c146105225780638da5cb5b1461054f57806395d89b411461056d578063987168c01461058257806398b06f07146105a257600080fd5b806370a082311461047c578063715018a6146104b257806371bae2cb146104c75780637d22c35c146104e757600080fd5b80633de419e91161019b5780635484dabb1161016a5780635484dabb146103dc5780635c5514d0146103ef57806360423fa21461040f5780636352211e1461042f5780636b4ed21b1461046757600080fd5b80633de419e9146103465780634394551214610366578063478839161461039e5780634f6ccce7146103be57600080fd5b806308405e74116101e257806308405e74146102b1578063162094c4146102d157806318dce595146102f157806326019c18146103115780632f745c591461032657600080fd5b806301ffc9a714610214578063062375261461024957806306fdde031461026d57806308322acb1461028f575b600080fd5b34801561022057600080fd5b5061023461022f366004611aab565b6106f4565b60405190151581526020015b60405180910390f35b34801561025557600080fd5b5061025f600b5481565b604051908152602001610240565b34801561027957600080fd5b50610282610761565b6040516102409190611b22565b34801561029b57600080fd5b506102af6102aa366004611b51565b6107f3565b005b3480156102bd57600080fd5b506102346102cc366004611ba4565b610887565b3480156102dd57600080fd5b506102af6102ec366004611c95565b610923565b3480156102fd57600080fd5b5061025f61030c366004611cea565b6109ae565b34801561031d57600080fd5b5060075461025f565b34801561033257600080fd5b5061025f610341366004611d71565b610b44565b34801561035257600080fd5b5061025f610361366004611d71565b610bc9565b34801561037257600080fd5b50610234610381366004611d9b565b6001600160a01b0316600090815260046020526040902054151590565b3480156103aa57600080fd5b506102af6103b9366004611db6565b610bfa565b3480156103ca57600080fd5b5061025f6103d9366004611dfa565b90565b6102af6103ea366004611d71565b610c79565b3480156103fb57600080fd5b506102af61040a366004611e13565b610dae565b34801561041b57600080fd5b506102af61042a366004611e36565b610e44565b34801561043b57600080fd5b5061044f61044a366004611dfa565b610ee8565b6040516001600160a01b039091168152602001610240565b34801561047357600080fd5b5060085461025f565b34801561048857600080fd5b5061025f610497366004611d9b565b6001600160a01b031660009081526002602052604090205490565b3480156104be57600080fd5b506102af610f06565b3480156104d357600080fd5b506102af6104e2366004611d71565b610f1a565b3480156104f357600080fd5b50610234610502366004611e59565b600e60209081526000928352604080842090915290825290205460ff1681565b34801561052e57600080fd5b5061054261053d366004611d9b565b610fe7565b6040516102409190611e7c565b34801561055b57600080fd5b50600a546001600160a01b031661044f565b34801561057957600080fd5b50610282611053565b34801561058e57600080fd5b506102af61059d366004611d71565b611062565b3480156105ae57600080fd5b506105426105bd366004611d9b565b6110c0565b3480156105ce57600080fd5b506102af6105dd366004611ebf565b61112a565b3480156105ee57600080fd5b506102af6105fd366004611d71565b6111a1565b34801561060e57600080fd5b5061062261061d366004611dfa565b6112a1565b60405161024096959493929190611f19565b34801561064057600080fd5b5061028261064f366004611dfa565b61137c565b34801561066057600080fd5b506102af61066f366004611d71565b61141c565b34801561068057600080fd5b5061023461068f366004611f73565b61144a565b3480156106a057600080fd5b506102af6106af366004611d71565b611522565b3480156106c057600080fd5b506102af6106cf366004611d9b565b61161b565b3480156106e057600080fd5b506102346106ef366004611dfa565b611659565b60006001600160e01b0319821663a511533d60e01b148061072557506001600160e01b03198216635b5e139f60e01b145b8061074057506001600160e01b03198216632d57debd60e01b145b8061075b57506301ffc9a760e01b6001600160e01b03198316145b92915050565b60606005805461077090612037565b80601f016020809104026020016040519081016040528092919081815260200182805461079c90612037565b80156107e95780601f106107be576101008083540402835291602001916107e9565b820191906000526020600020905b8154815290600101906020018083116107cc57829003601f168201915b5050505050905090565b6000828152600d602052604090206001015482906001600160a01b0316331461082f5760405163c69e727960e01b815260040160405180910390fd5b82600b5481111561085357604051638c2cb5fb60e01b815260040160405180910390fd5b50506000918252600d6020526040909120600301805467ffffffffffffffff19166001600160401b03909216919091179055565b6000828152600d602052604081206001015483906001600160a01b031633146108c35760405163c69e727960e01b815260040160405180910390fd5b83600b548111156108e757604051638c2cb5fb60e01b815260040160405180910390fd5b5050506000918252600e602090815260408084206001600160a01b03959095168452939052919020805460ff1916911515919091179055600190565b6009546001600160a01b031633146109915760405162461bcd60e51b815260206004820152602660248201527f4f6e6c79207468652063726561746f722063616e207365742074686520746f6b604482015265656e2055524960d01b60648201526084015b60405180910390fd5b60008281526001602052604090206109a982826120b8565b505050565b60006109b8611678565b600b80549060006109c88361218c565b91905055506040518060c00160405280888152602001876001600160a01b03168152602001868152602001856001600160401b03168152602001846004811115610a1457610a14611ee1565b8152831515602091820152600b546000908152600d9091526040902081518190610a3e90826120b8565b5060208201516001820180546001600160a01b039092166001600160a01b03199092169190911790556040820151600282015560608201516003820180546001600160401b0390921667ffffffffffffffff1983168117825560808501519268ffffffffffffffffff191617600160401b836004811115610ac157610ac1611ee1565b021790555060a08201518160030160096101000a81548160ff021916908315150217905550905050856001600160a01b03167f28345b1271c32202a14d2a477bca4d93555559e75e1e17ac3f690a13ed71881b8887600b54888888604051610b2e969594939291906121a5565b60405180910390a250600b549695505050505050565b6001600160a01b038216600090815260026020526040812080548310610ba35760405162461bcd60e51b8152602060048201526014602482015273151bdad95b88191bd95cc81b9bdd08195e1a5cdd60621b6044820152606401610988565b808381548110610bb557610bb56121e2565b906000526020600020015491505092915050565b600c6020528160005260406000208181548110610be557600080fd5b90600052602060002001600091509150505481565b6000818152600d602052604090206001015481906001600160a01b03163314610c365760405163c69e727960e01b815260040160405180910390fd5b81600b54811115610c5a57604051638c2cb5fb60e01b815260040160405180910390fd5b6000838152600d60205260409020610c7285826120b8565b5050505050565b6000818152600d602052604090206001015481906001600160a01b03163314610cb55760405163c69e727960e01b815260040160405180910390fd5b816003600b54821115610cdb57604051638c2cb5fb60e01b815260040160405180910390fd5b6000828152600d60205260409020600101546001600160a01b03163314610d155760405163c69e727960e01b815260040160405180910390fd5b806004811115610d2757610d27611ee1565b6000838152600d6020526040902060030154600160401b900460ff166004811115610d5457610d54611ee1565b14610d7257604051634fcd7f0b60e01b815260040160405180910390fd5b6000848152600d6020526040902060020154341015610da457604051636495458560e01b815260040160405180910390fd5b610c7285856116a5565b6000828152600d602052604090206001015482906001600160a01b03163314610dea5760405163c69e727960e01b815260040160405180910390fd5b82600b54811115610e0e57604051638c2cb5fb60e01b815260040160405180910390fd5b50506000918252600d60205260409091206003018054911515600160481b0269ff00000000000000000019909216919091179055565b6000828152600d602052604090206001015482906001600160a01b03163314610e805760405163c69e727960e01b815260040160405180910390fd5b82600b54811115610ea457604051638c2cb5fb60e01b815260040160405180910390fd5b6000848152600d60205260409020600301805484919068ff00000000000000001916600160401b836004811115610edd57610edd611ee1565b021790555050505050565b6000610ef38261180d565b600101546001600160a01b031692915050565b610f0e611678565b610f18600061186c565b565b806000600b54821115610f4057604051638c2cb5fb60e01b815260040160405180910390fd5b6000828152600d60205260409020600101546001600160a01b03163314610f7a5760405163c69e727960e01b815260040160405180910390fd5b806004811115610f8c57610f8c611ee1565b6000838152600d6020526040902060030154600160401b900460ff166004811115610fb957610fb9611ee1565b14610fd757604051634fcd7f0b60e01b815260040160405180910390fd5b610fe184846116a5565b50505050565b6001600160a01b03811660009081526002602090815260409182902080548351818402810184019094528084526060939283018282801561104757602002820191906000526020600020905b815481526020019060010190808311611033575b50505050509050919050565b60606006805461077090612037565b61106a611678565b80600b5481111561108e57604051638c2cb5fb60e01b815260040160405180910390fd5b506000908152600d6020526040902060010180546001600160a01b0319166001600160a01b0392909216919091179055565b6001600160a01b0381166000908152600c602090815260409182902080548351818402810184019094528084526060939283018282801561104757602002820191906000526020600020908154815260200190600101908083116110335750505050509050919050565b6000828152600d602052604090206001015482906001600160a01b031633146111665760405163c69e727960e01b815260040160405180910390fd5b82600b5481111561118a57604051638c2cb5fb60e01b815260040160405180910390fd5b50506000918252600d602052604090912060020155565b806004600b548211156111c757604051638c2cb5fb60e01b815260040160405180910390fd5b6000828152600d60205260409020600101546001600160a01b031633146112015760405163c69e727960e01b815260040160405180910390fd5b80600481111561121357611213611ee1565b6000838152600d6020526040902060030154600160401b900460ff16600481111561124057611240611ee1565b1461125e57604051634fcd7f0b60e01b815260040160405180910390fd5b6000838152600e602090815260408083206001600160a01b038816845290915290205460ff16610fd75760405163bd9044c360e01b815260040160405180910390fd5b600d602052600090815260409020805481906112bc90612037565b80601f01602080910402602001604051908101604052809291908181526020018280546112e890612037565b80156113355780601f1061130a57610100808354040283529160200191611335565b820191906000526020600020905b81548152906001019060200180831161131857829003601f168201915b5050506001840154600285015460039095015493946001600160a01b03909116939092506001600160401b038116915060ff600160401b8204811691600160481b90041686565b60606113878261180d565b50600082815260016020526040902080546113a190612037565b80601f01602080910402602001604051908101604052809291908181526020018280546113cd90612037565b80156110475780601f106113ef57610100808354040283529160200191611047565b820191906000526020600020905b8154815290600101906020018083116113fd5750939695505050505050565b611424611678565b806001600b54821115610f4057604051638c2cb5fb60e01b815260040160405180910390fd5b6000828152600d602052604081206001015483906001600160a01b031633146114865760405163c69e727960e01b815260040160405180910390fd5b83600b548111156114aa57604051638c2cb5fb60e01b815260040160405180910390fd5b60005b8651811015611515576000868152600e6020526040812088518792908a90859081106114db576114db6121e2565b6020908102919091018101516001600160a01b03168252810191909152604001600020805460ff19169115159190911790556001016114ad565b5060019695505050505050565b6000818152600d602052604090206001015481906001600160a01b0316331461155e5760405163c69e727960e01b815260040160405180910390fd5b816002600b5482111561158457604051638c2cb5fb60e01b815260040160405180910390fd5b6000828152600d60205260409020600101546001600160a01b031633146115be5760405163c69e727960e01b815260040160405180910390fd5b8060048111156115d0576115d0611ee1565b6000838152600d6020526040902060030154600160401b900460ff1660048111156115fd576115fd611ee1565b14610da457604051634fcd7f0b60e01b815260040160405180910390fd5b611623611678565b6001600160a01b03811661164d57604051631e4fbdf760e01b815260006004820152602401610988565b6116568161186c565b50565b60006116648261180d565b60010154600160a01b900460ff1692915050565b600a546001600160a01b03163314610f185760405163118cdaa760e01b8152336004820152602401610988565b6000818152600d60209081526040808320600301546001600160a01b0386168452600c909252909120546001600160401b03909116116116f857604051635d0efcb160e01b815260040160405180910390fd5b6000611703836118be565b6001600160a01b0384166000908152600c60209081526040808320805460018101825590845282842001849055858352600d909152902080549192506117d29183919061174f90612037565b80601f016020809104026020016040519081016040528092919081815260200182805461177b90612037565b80156117c85780601f1061179d576101008083540402835291602001916117c8565b820191906000526020600020905b8154815290600101906020018083116117ab57829003601f168201915b5050505050610923565b60405181906001600160a01b038516907fb9144c96c86541f6fa89c9f2f02495cccf4b08cd6643e26d34ee00aa586558a890600090a3505050565b600081815260208190526040812060018101546001600160a01b031661075b5760405162461bcd60e51b8152602060048201526014602482015273151bdad95b88191bd95cc81b9bdd08195e1a5cdd60621b6044820152606401610988565b600a80546001600160a01b038381166001600160a01b0319831681179093556040519116919082907f8be0079c531659141344cd1fd0a4f28419497f9722a3daafe3b4186f6b6457e090600090a35050565b6007546118cd8282600161192d565b604080516001600160a01b0384168152602081018390527f30385c845b448a36257a6a1716e6ad2e1bc2cbe333cde1e69fe849ad6511adfe910160405180910390a160016007600082825461192291906121f8565b909155509092915050565b6000828152602081905260409020600101546001600160a01b0316156119955760405162461bcd60e51b815260206004820152601d60248201527f43616e6e6f74206d696e7420616e2061737369676e656420746f6b656e0000006044820152606401610988565b6001600160a01b03831660009081526002602052604081205490036119cd576001600860008282546119c791906121f8565b90915550505b604080516060810182523381526001600160a01b0385811660208084018281528615801586880190815260008a8152808552888120975188549088166001600160a01b031990911617885592516001978801805492511515600160a01b026001600160a81b031990931691909716171790945591825260028082528583208054600384528785208a865284529684208790559082529385018455928152919091209091018390556109a9576001600160a01b0383166000908152600460205260408120805460019290611aa19084906121f8565b9091555050505050565b600060208284031215611abd57600080fd5b81356001600160e01b031981168114611ad557600080fd5b9392505050565b6000815180845260005b81811015611b0257602081850181015186830182015201611ae6565b506000602082860101526020601f19601f83011685010191505092915050565b602081526000611ad56020830184611adc565b80356001600160401b0381168114611b4c57600080fd5b919050565b60008060408385031215611b6457600080fd5b82359150611b7460208401611b35565b90509250929050565b80356001600160a01b0381168114611b4c57600080fd5b80358015158114611b4c57600080fd5b600080600060608486031215611bb957600080fd5b611bc284611b7d565b925060208401359150611bd760408501611b94565b90509250925092565b634e487b7160e01b600052604160045260246000fd5b604051601f8201601f191681016001600160401b0381118282101715611c1e57611c1e611be0565b604052919050565b600082601f830112611c3757600080fd5b81356001600160401b03811115611c5057611c50611be0565b611c63601f8201601f1916602001611bf6565b818152846020838601011115611c7857600080fd5b816020850160208301376000918101602001919091529392505050565b60008060408385031215611ca857600080fd5b8235915060208301356001600160401b03811115611cc557600080fd5b611cd185828601611c26565b9150509250929050565b803560058110611b4c57600080fd5b60008060008060008060c08789031215611d0357600080fd5b86356001600160401b03811115611d1957600080fd5b611d2589828a01611c26565b965050611d3460208801611b7d565b945060408701359350611d4960608801611b35565b9250611d5760808801611cdb565b9150611d6560a08801611b94565b90509295509295509295565b60008060408385031215611d8457600080fd5b611d8d83611b7d565b946020939093013593505050565b600060208284031215611dad57600080fd5b611ad582611b7d565b60008060408385031215611dc957600080fd5b82356001600160401b03811115611ddf57600080fd5b611deb85828601611c26565b95602094909401359450505050565b600060208284031215611e0c57600080fd5b5035919050565b60008060408385031215611e2657600080fd5b82359150611b7460208401611b94565b60008060408385031215611e4957600080fd5b82359150611b7460208401611cdb565b60008060408385031215611e6c57600080fd5b82359150611b7460208401611b7d565b602080825282518282018190526000918401906040840190835b81811015611eb4578351835260209384019390920191600101611e96565b509095945050505050565b60008060408385031215611ed257600080fd5b50508035926020909101359150565b634e487b7160e01b600052602160045260246000fd5b60058110611f1557634e487b7160e01b600052602160045260246000fd5b9052565b60c081526000611f2c60c0830189611adc565b6001600160a01b0388166020840152604083018790526001600160401b03861660608401529050611f606080830185611ef7565b82151560a0830152979650505050505050565b600080600060608486031215611f8857600080fd5b83356001600160401b03811115611f9e57600080fd5b8401601f81018613611faf57600080fd5b80356001600160401b03811115611fc857611fc8611be0565b8060051b611fd860208201611bf6565b91825260208184018101929081019089841115611ff457600080fd5b6020850194505b8385101561201d5761200c85611b7d565b825260209485019490910190611ffb565b965050505060208501359250611bd7905060408501611b94565b600181811c9082168061204b57607f821691505b60208210810361206b57634e487b7160e01b600052602260045260246000fd5b50919050565b601f8211156109a957806000526020600020601f840160051c810160208510156120985750805b601f840160051c820191505b81811015610c7257600081556001016120a4565b81516001600160401b038111156120d1576120d1611be0565b6120e5816120df8454612037565b84612071565b6020601f82116001811461211957600083156121015750848201515b600019600385901b1c1916600184901b178455610c72565b600084815260208120601f198516915b828110156121495787850151825560209485019460019092019101612129565b50848210156121675786840151600019600387901b60f8161c191681555b50505050600190811b01905550565b634e487b7160e01b600052601160045260246000fd5b60006001820161219e5761219e612176565b5060010190565b60c0815260006121b860c0830189611adc565b90508660208301528560408301526001600160401b0385166060830152611f606080830185611ef7565b634e487b7160e01b600052603260045260246000fd5b8082018082111561075b5761075b61217656fea2646970667358221220fcd27b28c482cfb3db36e45a1d3114acd3ffa675d9951f8728cd3e4adf5d4f9464736f6c634300081c0033",
  "linkReferences": {},
  "deployedLinkReferences": {}
}