{
  "_format": "hh-sol-artifact-1",
  "contractName": "ERC4671Store",
  "sourceName": "contracts/base/ERC4671Store.sol",
  "abi": [
    {
      "anonymous": false,
      "inputs": [
        {
          "indexed": false,
          "internalType": "address",
          "name": "owner",
          "type": "address"
        },
        {
          "indexed": false,
          "internalType": "address",
          "name": "token",
          "type": "address"
        }
      ],
      "name": "Added",
      "type": "event"
    },
    {
      "anonymous": false,
      "inputs": [
        {
          "indexed": false,
          "internalType": "address",
          "name": "owner",
          "type": "address"
        },
        {
          "indexed": false,
          "internalType": "address",
          "name": "token",
          "type": "address"
        }
      ],
      "name": "Removed",
      "type": "event"
    },
    {
      "inputs": [
        {
          "internalType": "address",
          "name": "token",
          "type": "address"
        }
      ],
      "name": "add",
      "outputs": [],
      "stateMutability": "nonpayable",
      "type": "function"
    },
    {
      "inputs": [
        {
          "internalType": "address",
          "name": "owner",
          "type": "address"
        }
      ],
      "name": "get",
      "outputs": [
        {
          "internalType": "address[]",
          "name": "",
          "type": "address[]"
        }
      ],
      "stateMutability": "view",
      "type": "function"
    },
    {
      "inputs": [
        {
          "internalType": "address",
          "name": "token",
          "type": "address"
        }
      ],
      "name": "remove",
      "outputs": [],
      "stateMutability": "nonpayable",
      "type": "function"
    },
    {
      "inputs": [
        {
          "internalType": "bytes4",
          "name": "interfaceId",
          "type": "bytes4"
        }
      ],
      "name": "supportsInterface",
      "outputs": [
        {
          "internalType": "bool",
          "name": "",
          "type": "bool"
        }
      ],
      "stateMutability": "view",
      "type": "function"
    }
  ],
  "bytecode": "0x6080604052348015600f57600080fd5b506105688061001f6000396000f3fe608060405234801561001057600080fd5b506004361061004c5760003560e01c806301ffc9a7146100515780630a3b0a4f1461007957806329092d0e1461008e578063c2bc2efc146100a1575b600080fd5b61006461005f366004610446565b6100c1565b60405190151581526020015b60405180910390f35b61008c610087366004610470565b6100f8565b005b61008c61009c366004610470565b610181565b6100b46100af366004610470565b61033a565b6040516100709190610499565b60006001600160e01b0319821663e18e09bd60e01b14806100f257506301ffc9a760e01b6001600160e01b03198316145b92915050565b33600081815260208181526040808320805460018085528386206001600160a01b0389168088529086528487208390559082018355828652948490200180546001600160a01b03191685179055815194855291840192909252917f938c63ac3d228b23f6bee7618fefc6790522e338ac202c958a2ea9eb9706c5d1910160405180910390a15050565b600061018d33836103ae565b3360009081526020819052604090208054919250906101ae906001906104e5565b82036101dd573360009081526001602090815260408083206001600160a01b0387168452909152812055610236565b3360009081526001602081905260408220835485939192859161020091906104e5565b8154811061021057610210610506565b60009182526020808320909101546001600160a01b031683528201929092526040019020555b80548190610246906001906104e5565b8154811061025657610256610506565b9060005260206000200160009054906101000a90046001600160a01b031681838154811061028657610286610506565b9060005260206000200160006101000a8154816001600160a01b0302191690836001600160a01b03160217905550808054806102c4576102c461051c565b600082815260209020810160001990810180546001600160a01b03191690550190556040517f40e634d0e26d9ec2e860e4dd9b7b2cfbb569b6058362a1a54d3a94718bc495879061032d90339086906001600160a01b0392831681529116602082015260400190565b60405180910390a1505050565b6001600160a01b038116600090815260208181526040918290208054835181840281018401909452808452606093928301828280156103a257602002820191906000526020600020905b81546001600160a01b03168152600190910190602001808311610384575b50505050509050919050565b6001600160a01b038083166000908152600160209081526040808320938516835292905290812054801515806103fb57506001600160a01b03841660009081526020819052604090205415155b61043f5760405162461bcd60e51b81526020600482015260116024820152701059191c995cdcc81b9bdd08199bdd5b99607a1b604482015260640160405180910390fd5b9392505050565b60006020828403121561045857600080fd5b81356001600160e01b03198116811461043f57600080fd5b60006020828403121561048257600080fd5b81356001600160a01b038116811461043f57600080fd5b602080825282518282018190526000918401906040840190835b818110156104da5783516001600160a01b03168352602093840193909201916001016104b3565b509095945050505050565b818103818111156100f257634e487b7160e01b600052601160045260246000fd5b634e487b7160e01b600052603260045260246000fd5b634e487b7160e01b600052603160045260246000fdfea2646970667358221220949a0067319edbf96597bdb998c425a74408e70a980cc6a8fe65c22cd621d3dc64736f6c634300081c0033",
  "linkReferences": {},
  "deployedLinkReferences": {}
}