{"contracts/JPSGuard.sol":{"JPSGuard":{"abi":[{"inputs":[{"internalType":"string","name":"_uri","type":"string"}],"stateMutability":"nonpayable","type":"constructor"},{"inputs":[],"name":"JPSGuard_InactiveToken","type":"error"},{"inputs":[],"name":"JPSGuard_InsufficientEtherSent","type":"error"},{"inputs":[],"name":"JPSGuard_InvalidServiceID","type":"error"},{"inputs":[],"name":"JPSGuard_NotManager","type":"error"},{"inputs":[],"name":"JPSGuard_NotPaidToken","type":"error"},{"inputs":[],"name":"JPSGuard_NotPrivateToken","type":"error"},{"inputs":[],"name":"JPSGuard_NotPublicToken","type":"error"},{"inputs":[],"name":"JPSGuard_NotServiceToken","type":"error"},{"inputs":[],"name":"JPSGuard_NotWhitelistedToken","type":"error"},{"inputs":[],"name":"JPSGuard_TokenLimitExceeded","type":"error"},{"inputs":[],"name":"JPSGuard_UserNotWhitelisted","type":"error"},{"inputs":[{"internalType":"address","name":"owner","type":"address"}],"name":"OwnableInvalidOwner","type":"error"},{"inputs":[{"internalType":"address","name":"account","type":"address"}],"name":"OwnableUnauthorizedAccount","type":"error"},{"anonymous":false,"inputs":[{"indexed":false,"internalType":"address","name":"owner","type":"address"},{"indexed":false,"internalType":"uint256","name":"tokenId","type":"uint256"}],"name":"Minted","type":"event"},{"anonymous":false,"inputs":[{"indexed":true,"internalType":"address","name":"previousOwner","type":"address"},{"indexed":true,"internalType":"address","name":"newOwner","type":"address"}],"name":"OwnershipTransferred","type":"event"},{"anonymous":false,"inputs":[{"indexed":false,"internalType":"address","name":"owner","type":"address"},{"indexed":false,"internalType":"uint256","name":"tokenId","type":"uint256"}],"name":"Revoked","type":"event"},{"anonymous":false,"inputs":[{"indexed":false,"internalType":"string","name":"uri","type":"string"},{"indexed":true,"internalType":"address","name":"manager","type":"address"},{"indexed":false,"internalType":"uint256","name":"price","type":"uint256"},{"indexed":false,"internalType":"uint256","name":"serviceId","type":"uint256"},{"indexed":false,"internalType":"uint64","name":"tokenLimit","type":"uint64"},{"indexed":false,"internalType":"enum JPSGuard.ServiceStatus","name":"status","type":"uint8"},{"indexed":false,"internalType":"bool","name":"isPrivate","type":"bool"}],"name":"ServiceRegistered","type":"event"},{"anonymous":false,"inputs":[{"indexed":true,"internalType":"address","name":"_owner","type":"address"},{"indexed":true,"internalType":"uint256","name":"_tokenId","type":"uint256"}],"name":"TokenMinted","type":"event"},{"inputs":[{"internalType":"address","name":"owner","type":"address"}],"name":"balanceOf","outputs":[{"internalType":"uint256","name":"","type":"uint256"}],"stateMutability":"view","type":"function"},{"inputs":[],"name":"emittedCount","outputs":[{"internalType":"uint256","name":"","type":"uint256"}],"stateMutability":"view","type":"function"},{"inputs":[{"internalType":"address","name":"_user","type":"address"}],"name":"getUserIDs","outputs":[{"internalType":"uint256[]","name":"","type":"uint256[]"}],"stateMutability":"view","type":"function"},{"inputs":[{"internalType":"address","name":"owner","type":"address"}],"name":"hasValid","outputs":[{"internalType":"bool","name":"","type":"bool"}],"stateMutability":"view","type":"function"},{"inputs":[],"name":"holdersCount","outputs":[{"internalType":"uint256","name":"","type":"uint256"}],"stateMutability":"view","type":"function"},{"inputs":[{"internalType":"uint256","name":"tokenId","type":"uint256"}],"name":"isValid","outputs":[{"internalType":"bool","name":"","type":"bool"}],"stateMutability":"view","type":"function"},{"inputs":[{"internalType":"uint256","name":"","type":"uint256"},{"internalType":"address","name":"","type":"address"}],"name":"isWhitelisted","outputs":[{"internalType":"bool","name":"","type":"bool"}],"stateMutability":"view","type":"function"},{"inputs":[{"internalType":"address","name":"_user","type":"address"},{"internalType":"uint256","name":"_serviceId","type":"uint256"}],"name":"mintPaidToken","outputs":[],"stateMutability":"payable","type":"function"},{"inputs":[{"internalType":"address","name":"_user","type":"address"},{"internalType":"uint256","name":"_serviceId","type":"uint256"}],"name":"mintPrivateToken","outputs":[],"stateMutability":"nonpayable","type":"function"},{"inputs":[{"internalType":"address","name":"_user","type":"address"},{"internalType":"uint256","name":"_serviceId","type":"uint256"}],"name":"mintPublicToken","outputs":[],"stateMutability":"nonpayable","type":"function"},{"inputs":[{"internalType":"address","name":"_user","type":"address"},{"internalType":"uint256","name":"_serviceId","type":"uint256"}],"name":"mintServiceToken","outputs":[],"stateMutability":"nonpayable","type":"function"},{"inputs":[{"internalType":"address","name":"_user","type":"address"},{"internalType":"uint256","name":"_serviceId","type":"uint256"}],"name":"mintWhitelistedToken","outputs":[],"stateMutability":"nonpayable","type":"function"},{"inputs":[],"name":"name","outputs":[{"internalType":"string","name":"","type":"string"}],"stateMutability":"view","type":"function"},{"inputs":[],"name":"owner","outputs":[{"internalType":"address","name":"","type":"address"}],"stateMutability":"view","type":"function"},{"inputs":[{"internalType":"uint256","name":"tokenId","type":"uint256"}],"name":"ownerOf","outputs":[{"internalType":"address","name":"","type":"address"}],"stateMutability":"view","type":"function"},{"inputs":[{"internalType":"string","name":"_uri","type":"string"},{"internalType":"address","name":"_manager","type":"address"},{"internalType":"uint256","name":"_price","type":"uint256"},{"internalType":"uint64","name":"_tokenLimit","type":"uint64"},{"internalType":"enum JPSGuard.ServiceStatus","name":"_status","type":"uint8"},{"internalType":"bool","name":"_active","type":"bool"}],"name":"registerServiceToken","outputs":[{"internalType":"uint256","name":"","type":"uint256"}],"stateMutability":"nonpayable","type":"function"},{"inputs":[],"name":"renounceOwnership","outputs":[],"stateMutability":"nonpayable","type":"function"},{"inputs":[],"name":"serviceCount","outputs":[{"internalType":"uint256","name":"","type":"uint256"}],"stateMutability":"view","type":"function"},{"inputs":[{"internalType":"uint256","name":"","type":"uint256"}],"name":"services","outputs":[{"internalType":"string","name":"uri","type":"string"},{"internalType":"address","name":"manager","type":"address"},{"internalType":"uint256","name":"price","type":"uint256"},{"internalType":"uint64","name":"tokenLimit","type":"uint64"},{"internalType":"enum JPSGuard.ServiceStatus","name":"status","type":"uint8"},{"internalType":"bool","name":"active","type":"bool"}],"stateMutability":"view","type":"function"},{"inputs":[{"internalType":"uint256","name":"tokenId","type":"uint256"},{"internalType":"string","name":"tokenUri","type":"string"}],"name":"setTokenURI","outputs":[],"stateMutability":"nonpayable","type":"function"},{"inputs":[{"internalType":"bytes4","name":"interfaceId","type":"bytes4"}],"name":"supportsInterface","outputs":[{"internalType":"bool","name":"","type":"bool"}],"stateMutability":"view","type":"function"},{"inputs":[],"name":"symbol","outputs":[{"internalType":"string","name":"","type":"string"}],"stateMutability":"view","type":"function"},{"inputs":[{"internalType":"uint256","name":"index","type":"uint256"}],"name":"tokenByIndex","outputs":[{"internalType":"uint256","name":"","type":"uint256"}],"stateMutability":"view","type":"function"},{"inputs":[{"internalType":"address","name":"","type":"address"},{"internalType":"uint256","name":"","type":"uint256"}],"name":"tokenIds","outputs":[{"internalType":"uint256","name":"","type":"uint256"}],"stateMutability":"view","type":"function"},{"inputs":[{"internalType":"address","name":"owner","type":"address"},{"internalType":"uint256","name":"index","type":"uint256"}],"name":"tokenOfOwnerByIndex","outputs":[{"internalType":"uint256","name":"","type":"uint256"}],"stateMutability":"view","type":"function"},{"inputs":[{"internalType":"uint256","name":"tokenId","type":"uint256"}],"name":"tokenURI","outputs":[{"internalType":"string","name":"","type":"string"}],"stateMutability":"view","type":"function"},{"inputs":[{"internalType":"address","name":"owner","type":"address"}],"name":"tokensOfOwner","outputs":[{"internalType":"uint256[]","name":"tokens","type":"uint256[]"}],"stateMutability":"view","type":"function"},{"inputs":[{"internalType":"address","name":"newOwner","type":"address"}],"name":"transferOwnership","outputs":[],"stateMutability":"nonpayable","type":"function"},{"inputs":[{"internalType":"uint256","name":"_serviceId","type":"uint256"},{"internalType":"bool","name":"_active","type":"bool"}],"name":"updatServiceActiveStatus","outputs":[],"stateMutability":"nonpayable","type":"function"},{"inputs":[{"internalType":"address","name":"_manager","type":"address"},{"internalType":"uint256","name":"_serviceId","type":"uint256"}],"name":"updatServiceManager","outputs":[],"stateMutability":"nonpayable","type":"function"},{"inputs":[{"internalType":"uint256","name":"_serviceId","type":"uint256"},{"internalType":"uint256","name":"_price","type":"uint256"}],"name":"updatServicePrice","outputs":[],"stateMutability":"nonpayable","type":"function"},{"inputs":[{"internalType":"uint256","name":"_serviceId","type":"uint256"},{"internalType":"enum JPSGuard.ServiceStatus","name":"_status","type":"uint8"}],"name":"updatServiceStatus","outputs":[],"stateMutability":"nonpayable","type":"function"},{"inputs":[{"internalType":"uint256","name":"_serviceId","type":"uint256"},{"internalType":"uint64","name":"_tokenLimit","type":"uint64"}],"name":"updatServiceTokenLimit","outputs":[],"stateMutability":"nonpayable","type":"function"},{"inputs":[{"internalType":"string","name":"_uri","type":"string"},{"internalType":"uint256","name":"_serviceId","type":"uint256"}],"name":"updatServiceURI","outputs":[],"stateMutability":"nonpayable","type":"function"},{"inputs":[{"internalType":"address","name":"_user","type":"address"},{"internalType":"uint256","name":"_serviceId","type":"uint256"},{"internalType":"bool","name":"_status","type":"bool"}],"name":"updateWhitelist","outputs":[{"internalType":"bool","name":"","type":"bool"}],"stateMutability":"nonpayable","type":"function"},{"inputs":[{"internalType":"address[]","name":"_users","type":"address[]"},{"internalType":"uint256","name":"_serviceId","type":"uint256"},{"internalType":"bool","name":"_status","type":"bool"}],"name":"updateWhitelistBatch","outputs":[{"internalType":"bool","name":"","type":"bool"}],"stateMutability":"nonpayable","type":"function"}],"evm":{"bytecode":{"linkReferences":{},"object":"608060405234801561001057600080fd5b506040516127c23803806127c283398101604081905261002f91610350565b33604051806040016040528060038152602001624a505360e81b8152506040518060400160405280601081526020016f12940814dd1858dad95c8811dd585c9960821b8152508160059081610084919061048b565b506006610091828261048b565b5050600980546001600160a01b03191633179055506001600160a01b0381166100d557604051631e4fbdf760e01b8152600060048201526024015b60405180910390fd5b6100de816100fd565b506100f6813360006001600160401b0381600161014f565b505061060d565b600a80546001600160a01b038381166001600160a01b0319831681179093556040519116919082907f8be0079c531659141344cd1fd0a4f28419497f9722a3daafe3b4186f6b6457e090600090a35050565b60006101596102e7565b600b805490600061016983610549565b91905055506040518060c00160405280888152602001876001600160a01b03168152602001868152602001856001600160401b031681526020018460048111156101b5576101b5610570565b8152831515602091820152600b546000908152600d90915260409020815181906101df908261048b565b5060208201516001820180546001600160a01b039092166001600160a01b03199092169190911790556040820151600282015560608201516003820180546001600160401b039092166001600160401b03198316811782556080850151926001600160481b031916176801000000000000000083600481111561026457610264610570565b021790555060a08201518160030160096101000a81548160ff021916908315150217905550905050856001600160a01b03167f28345b1271c32202a14d2a477bca4d93555559e75e1e17ac3f690a13ed71881b8887600b548888886040516102d196959493929190610586565b60405180910390a250600b549695505050505050565b600a546001600160a01b031633146103145760405163118cdaa760e01b81523360048201526024016100cc565b565b634e487b7160e01b600052604160045260246000fd5b60005b8381101561034757818101518382015260200161032f565b50506000910152565b60006020828403121561036257600080fd5b81516001600160401b0381111561037857600080fd5b8201601f8101841361038957600080fd5b80516001600160401b038111156103a2576103a2610316565b604051601f8201601f19908116603f011681016001600160401b03811182821017156103d0576103d0610316565b6040528181528282016020018610156103e857600080fd5b6103f982602083016020860161032c565b95945050505050565b600181811c9082168061041657607f821691505b60208210810361043657634e487b7160e01b600052602260045260246000fd5b50919050565b601f82111561048657806000526020600020601f840160051c810160208510156104635750805b601f840160051c820191505b81811015610483576000815560010161046f565b50505b505050565b81516001600160401b038111156104a4576104a4610316565b6104b8816104b28454610402565b8461043c565b6020601f8211600181146104ec57600083156104d45750848201515b600019600385901b1c1916600184901b178455610483565b600084815260208120601f198516915b8281101561051c57878501518255602094850194600190920191016104fc565b508482101561053a5786840151600019600387901b60f8161c191681555b50505050600190811b01905550565b60006001820161056957634e487b7160e01b600052601160045260246000fd5b5060010190565b634e487b7160e01b600052602160045260246000fd5b60c08152600087518060c08401526105a58160e0850160208c0161032c565b60208301889052604083018790526001600160401b0386166060840152601f01601f1916820160e0019050600584106105ee57634e487b7160e01b600052602160045260246000fd5b83608083015261060260a083018415159052565b979650505050505050565b6121a68061061c6000396000f3fe60806040526004361061020f5760003560e01c806370a0823111610118578063a4e3bab9116100a0578063ee2786bc1161006f578063ee2786bc14610654578063ef9ec2f314610674578063f2fde38b14610694578063f577a500146106b4578063f82c4954146106d457600080fd5b8063a4e3bab9146105c2578063c22c4f43146105e2578063c87b56dd14610614578063d88f5b891461063457600080fd5b80637d22c35c116100e75780637d22c35c146105075780638462151c146105425780638da5cb5b1461056f57806395d89b411461058d57806398b06f07146105a257600080fd5b806370a082311461047c578063715018a6146104b257806371bae2cb146104c7578063771996a9146104e757600080fd5b80632f745c591161019b5780635484dabb1161016a5780635484dabb146103dc578063577c917f146103ef5780636352211e1461040f5780636b4ed21b146104475780636e0963411461045c57600080fd5b80632f745c59146103465780633de419e91461036657806343945512146103865780634f6ccce7146103be57600080fd5b8063162094c4116101e2578063162094c4146102af57806318dce595146102d157806326019c18146102f157806327e031b114610306578063285c69ce1461032657600080fd5b806301ffc9a714610214578063062375261461024957806306fdde031461026d57806308405e741461028f575b600080fd5b34801561022057600080fd5b5061023461022f366004611a10565b6106f4565b60405190151581526020015b60405180910390f35b34801561025557600080fd5b5061025f600b5481565b604051908152602001610240565b34801561027957600080fd5b50610282610761565b6040516102409190611a87565b34801561029b57600080fd5b506102346102aa366004611ac6565b6107f3565b3480156102bb57600080fd5b506102cf6102ca366004611bb7565b61086a565b005b3480156102dd57600080fd5b5061025f6102ec366004611c23565b6108f5565b3480156102fd57600080fd5b5060075461025f565b34801561031257600080fd5b506102cf610321366004611caa565b610a8b565b34801561033257600080fd5b506102cf610341366004611cd6565b610b21565b34801561035257600080fd5b5061025f610361366004611cf8565b610b98565b34801561037257600080fd5b5061025f610381366004611cf8565b610c1d565b34801561039257600080fd5b506102346103a1366004611d22565b6001600160a01b0316600090815260046020526040902054151590565b3480156103ca57600080fd5b5061025f6103d9366004611d3d565b90565b6102cf6103ea366004611cf8565b610c4e565b3480156103fb57600080fd5b506102cf61040a366004611d56565b610d53565b34801561041b57600080fd5b5061042f61042a366004611d3d565b610dd2565b6040516001600160a01b039091168152602001610240565b34801561045357600080fd5b5060085461025f565b34801561046857600080fd5b506102cf610477366004611cf8565b610df0565b34801561048857600080fd5b5061025f610497366004611d22565b6001600160a01b031660009081526002602052604090205490565b3480156104be57600080fd5b506102cf610e4e565b3480156104d357600080fd5b506102cf6104e2366004611cf8565b610e62565b3480156104f357600080fd5b506102cf610502366004611d9a565b610ef3565b34801561051357600080fd5b50610234610522366004611dbd565b600e60209081526000928352604080842090915290825290205460ff1681565b34801561054e57600080fd5b5061056261055d366004611d22565b610f87565b6040516102409190611de0565b34801561057b57600080fd5b50600a546001600160a01b031661042f565b34801561059957600080fd5b50610282610ff3565b3480156105ae57600080fd5b506105626105bd366004611d22565b611002565b3480156105ce57600080fd5b506102cf6105dd366004611cf8565b61106c565b3480156105ee57600080fd5b506106026105fd366004611d3d565b611137565b60405161024096959493929190611e5b565b34801561062057600080fd5b5061028261062f366004611d3d565b611212565b34801561064057600080fd5b506102cf61064f366004611cf8565b6112b2565b34801561066057600080fd5b5061023461066f366004611eb5565b611342565b34801561068057600080fd5b506102cf61068f366004611cf8565b6113f5565b3480156106a057600080fd5b506102cf6106af366004611d22565b6114b9565b3480156106c057600080fd5b506102346106cf366004611d3d565b6114f7565b3480156106e057600080fd5b506102cf6106ef366004611f79565b611516565b60006001600160e01b0319821663a511533d60e01b148061072557506001600160e01b03198216635b5e139f60e01b145b8061074057506001600160e01b03198216632d57debd60e01b145b8061075b57506301ffc9a760e01b6001600160e01b03198316145b92915050565b60606005805461077090611f9c565b80601f016020809104026020016040519081016040528092919081815260200182805461079c90611f9c565b80156107e95780601f106107be576101008083540402835291602001916107e9565b820191906000526020600020905b8154815290600101906020018083116107cc57829003601f168201915b5050505050905090565b6000828152600d602052604081206001015483906001600160a01b0316331461082f5760405163c69e727960e01b815260040160405180910390fd5b50506000918252600e602090815260408084206001600160a01b03959095168452939052919020805460ff1916911515919091179055600190565b6009546001600160a01b031633146108d85760405162461bcd60e51b815260206004820152602660248201527f4f6e6c79207468652063726561746f722063616e207365742074686520746f6b604482015265656e2055524960d01b60648201526084015b60405180910390fd5b60008281526001602052604090206108f0828261201d565b505050565b60006108ff6115ba565b600b805490600061090f836120f1565b91905055506040518060c00160405280888152602001876001600160a01b03168152602001868152602001856001600160401b0316815260200184600481111561095b5761095b611e23565b8152831515602091820152600b546000908152600d9091526040902081518190610985908261201d565b5060208201516001820180546001600160a01b039092166001600160a01b03199092169190911790556040820151600282015560608201516003820180546001600160401b0390921667ffffffffffffffff1983168117825560808501519268ffffffffffffffffff191617600160401b836004811115610a0857610a08611e23565b021790555060a08201518160030160096101000a81548160ff021916908315150217905550905050856001600160a01b03167f28345b1271c32202a14d2a477bca4d93555559e75e1e17ac3f690a13ed71881b8887600b54888888604051610a759695949392919061210a565b60405180910390a250600b549695505050505050565b6000828152600d602052604090206001015482906001600160a01b03163314610ac75760405163c69e727960e01b815260040160405180910390fd5b82600b54811115610aeb57604051638c2cb5fb60e01b815260040160405180910390fd5b50506000918252600d60205260409091206003018054911515600160481b0269ff00000000000000000019909216919091179055565b6000828152600d602052604090206001015482906001600160a01b03163314610b5d5760405163c69e727960e01b815260040160405180910390fd5b82600b54811115610b8157604051638c2cb5fb60e01b815260040160405180910390fd5b50506000918252600d602052604090912060020155565b6001600160a01b038216600090815260026020526040812080548310610bf75760405162461bcd60e51b8152602060048201526014602482015273151bdad95b88191bd95cc81b9bdd08195e1a5cdd60621b60448201526064016108cf565b808381548110610c0957610c09612147565b906000526020600020015491505092915050565b600c6020528160005260406000208181548110610c3957600080fd5b90600052602060002001600091509150505481565b6000818152600d602052604090206001015481906001600160a01b03163314610c8a5760405163c69e727960e01b815260040160405180910390fd5b6000828152600d60205260409020600301548290600160481b900460ff16610cc557604051630bd897d760e41b815260040160405180910390fd5b60036000848152600d6020526040902060030154600160401b900460ff166004811115610cf457610cf4611e23565b14610d12576040516318aea04960e31b815260040160405180910390fd5b6000838152600d60205260409020600201543414610d435760405163155c70ff60e01b815260040160405180910390fd5b610d4d84846115e7565b50505050565b6000818152600d602052604090206001015481906001600160a01b03163314610d8f5760405163c69e727960e01b815260040160405180910390fd5b81600b54811115610db357604051638c2cb5fb60e01b815260040160405180910390fd5b6000838152600d60205260409020610dcb858261201d565b5050505050565b6000610ddd82611772565b600101546001600160a01b031692915050565b610df86115ba565b80600b54811115610e1c57604051638c2cb5fb60e01b815260040160405180910390fd5b506000908152600d6020526040902060010180546001600160a01b0319166001600160a01b0392909216919091179055565b610e566115ba565b610e6060006117d1565b565b6000818152600d60205260409020600301548190600160481b900460ff16610e9d57604051630bd897d760e41b815260040160405180910390fd5b600080838152600d6020526040902060030154600160401b900460ff166004811115610ecb57610ecb611e23565b14610ee957604051630408d2fd60e11b815260040160405180910390fd5b6108f083836115e7565b6000828152600d602052604090206001015482906001600160a01b03163314610f2f5760405163c69e727960e01b815260040160405180910390fd5b82600b54811115610f5357604051638c2cb5fb60e01b815260040160405180910390fd5b50506000918252600d6020526040909120600301805467ffffffffffffffff19166001600160401b03909216919091179055565b6001600160a01b038116600090815260026020908152604091829020805483518184028101840190945280845260609392830182828015610fe757602002820191906000526020600020905b815481526020019060010190808311610fd3575b50505050509050919050565b60606006805461077090611f9c565b6001600160a01b0381166000908152600c6020908152604091829020805483518184028101840190945280845260609392830182828015610fe75760200282019190600052602060002090815481526020019060010190808311610fd35750505050509050919050565b6000818152600d60205260409020600301548190600160481b900460ff166110a757604051630bd897d760e41b815260040160405180910390fd5b60046000838152600d6020526040902060030154600160401b900460ff1660048111156110d6576110d6611e23565b146110f45760405163d21787b560e01b815260040160405180910390fd5b6000828152600e602090815260408083206001600160a01b038716845290915290205460ff16610ee95760405163d244700560e01b815260040160405180910390fd5b600d6020526000908152604090208054819061115290611f9c565b80601f016020809104026020016040519081016040528092919081815260200182805461117e90611f9c565b80156111cb5780601f106111a0576101008083540402835291602001916111cb565b820191906000526020600020905b8154815290600101906020018083116111ae57829003601f168201915b5050506001840154600285015460039095015493946001600160a01b03909116939092506001600160401b038116915060ff600160401b8204811691600160481b90041686565b606061121d82611772565b506000828152600160205260409020805461123790611f9c565b80601f016020809104026020016040519081016040528092919081815260200182805461126390611f9c565b8015610fe75780601f1061128557610100808354040283529160200191610fe7565b820191906000526020600020905b8154815290600101906020018083116112935750939695505050505050565b6112ba6115ba565b6000818152600d60205260409020600301548190600160481b900460ff166112f557604051630bd897d760e41b815260040160405180910390fd5b60016000838152600d6020526040902060030154600160401b900460ff16600481111561132457611324611e23565b14610ee9576040516379ba471b60e11b815260040160405180910390fd5b6000828152600d602052604081206001015483906001600160a01b0316331461137e5760405163c69e727960e01b815260040160405180910390fd5b60005b85518110156113e9576000858152600e6020526040812087518692908990859081106113af576113af612147565b6020908102919091018101516001600160a01b03168252810191909152604001600020805460ff1916911515919091179055600101611381565b50600195945050505050565b6000818152600d602052604090206001015481906001600160a01b031633146114315760405163c69e727960e01b815260040160405180910390fd5b6000828152600d60205260409020600301548290600160481b900460ff1661146c57604051630bd897d760e41b815260040160405180910390fd5b60026000848152600d6020526040902060030154600160401b900460ff16600481111561149b5761149b611e23565b14610d4357604051631dd17e6d60e31b815260040160405180910390fd5b6114c16115ba565b6001600160a01b0381166114eb57604051631e4fbdf760e01b8152600060048201526024016108cf565b6114f4816117d1565b50565b600061150282611772565b60010154600160a01b900460ff1692915050565b6000828152600d602052604090206001015482906001600160a01b031633146115525760405163c69e727960e01b815260040160405180910390fd5b82600b5481111561157657604051638c2cb5fb60e01b815260040160405180910390fd5b6000848152600d60205260409020600301805484919068ff00000000000000001916600160401b8360048111156115af576115af611e23565b021790555050505050565b600a546001600160a01b03163314610e605760405163118cdaa760e01b81523360048201526024016108cf565b600b5481111561160a57604051638c2cb5fb60e01b815260040160405180910390fd5b6000818152600d60209081526040808320600301546001600160a01b0386168452600c909252909120546001600160401b039091161161165d57604051635d0efcb160e01b815260040160405180910390fd5b600061166883611823565b6001600160a01b0384166000908152600c60209081526040808320805460018101825590845282842001849055858352600d90915290208054919250611737918391906116b490611f9c565b80601f01602080910402602001604051908101604052809291908181526020018280546116e090611f9c565b801561172d5780601f106117025761010080835404028352916020019161172d565b820191906000526020600020905b81548152906001019060200180831161171057829003601f168201915b505050505061086a565b60405181906001600160a01b038516907fb9144c96c86541f6fa89c9f2f02495cccf4b08cd6643e26d34ee00aa586558a890600090a3505050565b600081815260208190526040812060018101546001600160a01b031661075b5760405162461bcd60e51b8152602060048201526014602482015273151bdad95b88191bd95cc81b9bdd08195e1a5cdd60621b60448201526064016108cf565b600a80546001600160a01b038381166001600160a01b0319831681179093556040519116919082907f8be0079c531659141344cd1fd0a4f28419497f9722a3daafe3b4186f6b6457e090600090a35050565b60075461183282826001611892565b604080516001600160a01b0384168152602081018390527f30385c845b448a36257a6a1716e6ad2e1bc2cbe333cde1e69fe849ad6511adfe910160405180910390a1600160076000828254611887919061215d565b909155509092915050565b6000828152602081905260409020600101546001600160a01b0316156118fa5760405162461bcd60e51b815260206004820152601d60248201527f43616e6e6f74206d696e7420616e2061737369676e656420746f6b656e00000060448201526064016108cf565b6001600160a01b03831660009081526002602052604081205490036119325760016008600082825461192c919061215d565b90915550505b604080516060810182523381526001600160a01b0385811660208084018281528615801586880190815260008a8152808552888120975188549088166001600160a01b031990911617885592516001978801805492511515600160a01b026001600160a81b031990931691909716171790945591825260028082528583208054600384528785208a865284529684208790559082529385018455928152919091209091018390556108f0576001600160a01b0383166000908152600460205260408120805460019290611a0690849061215d565b9091555050505050565b600060208284031215611a2257600080fd5b81356001600160e01b031981168114611a3a57600080fd5b9392505050565b6000815180845260005b81811015611a6757602081850181015186830182015201611a4b565b506000602082860101526020601f19601f83011685010191505092915050565b602081526000611a3a6020830184611a41565b80356001600160a01b0381168114611ab157600080fd5b919050565b80358015158114611ab157600080fd5b600080600060608486031215611adb57600080fd5b611ae484611a9a565b925060208401359150611af960408501611ab6565b90509250925092565b634e487b7160e01b600052604160045260246000fd5b604051601f8201601f191681016001600160401b0381118282101715611b4057611b40611b02565b604052919050565b600082601f830112611b5957600080fd5b81356001600160401b03811115611b7257611b72611b02565b611b85601f8201601f1916602001611b18565b818152846020838601011115611b9a57600080fd5b816020850160208301376000918101602001919091529392505050565b60008060408385031215611bca57600080fd5b8235915060208301356001600160401b03811115611be757600080fd5b611bf385828601611b48565b9150509250929050565b80356001600160401b0381168114611ab157600080fd5b803560058110611ab157600080fd5b60008060008060008060c08789031215611c3c57600080fd5b86356001600160401b03811115611c5257600080fd5b611c5e89828a01611b48565b965050611c6d60208801611a9a565b945060408701359350611c8260608801611bfd565b9250611c9060808801611c14565b9150611c9e60a08801611ab6565b90509295509295509295565b60008060408385031215611cbd57600080fd5b82359150611ccd60208401611ab6565b90509250929050565b60008060408385031215611ce957600080fd5b50508035926020909101359150565b60008060408385031215611d0b57600080fd5b611d1483611a9a565b946020939093013593505050565b600060208284031215611d3457600080fd5b611a3a82611a9a565b600060208284031215611d4f57600080fd5b5035919050565b60008060408385031215611d6957600080fd5b82356001600160401b03811115611d7f57600080fd5b611d8b85828601611b48565b95602094909401359450505050565b60008060408385031215611dad57600080fd5b82359150611ccd60208401611bfd565b60008060408385031215611dd057600080fd5b82359150611ccd60208401611a9a565b602080825282518282018190526000918401906040840190835b81811015611e18578351835260209384019390920191600101611dfa565b509095945050505050565b634e487b7160e01b600052602160045260246000fd5b60058110611e5757634e487b7160e01b600052602160045260246000fd5b9052565b60c081526000611e6e60c0830189611a41565b6001600160a01b0388166020840152604083018790526001600160401b03861660608401529050611ea26080830185611e39565b82151560a0830152979650505050505050565b600080600060608486031215611eca57600080fd5b83356001600160401b03811115611ee057600080fd5b8401601f81018613611ef157600080fd5b80356001600160401b03811115611f0a57611f0a611b02565b8060051b611f1a60208201611b18565b91825260208184018101929081019089841115611f3657600080fd5b6020850194505b83851015611f5f57611f4e85611a9a565b825260209485019490910190611f3d565b965050505060208501359250611af9905060408501611ab6565b60008060408385031215611f8c57600080fd5b82359150611ccd60208401611c14565b600181811c90821680611fb057607f821691505b602082108103611fd057634e487b7160e01b600052602260045260246000fd5b50919050565b601f8211156108f057806000526020600020601f840160051c81016020851015611ffd5750805b601f840160051c820191505b81811015610dcb5760008155600101612009565b81516001600160401b0381111561203657612036611b02565b61204a816120448454611f9c565b84611fd6565b6020601f82116001811461207e57600083156120665750848201515b600019600385901b1c1916600184901b178455610dcb565b600084815260208120601f198516915b828110156120ae578785015182556020948501946001909201910161208e565b50848210156120cc5786840151600019600387901b60f8161c191681555b50505050600190811b01905550565b634e487b7160e01b600052601160045260246000fd5b600060018201612103576121036120db565b5060010190565b60c08152600061211d60c0830189611a41565b90508660208301528560408301526001600160401b0385166060830152611ea26080830185611e39565b634e487b7160e01b600052603260045260246000fd5b8082018082111561075b5761075b6120db56fea26469706673582212202202cfab45517cf7ee196f5b9fe7c22f996f0323522dea16973e1e73b2db70ab64736f6c634300081c0033","opcodes":"PUSH1 0x80 PUSH1 0x40 MSTORE CALLVALUE DUP1 ISZERO PUSH2 0x10 JUMPI PUSH1 0x0 DUP1 REVERT JUMPDEST POP PUSH1 0x40 MLOAD PUSH2 0x27C2 CODESIZE SUB DUP1 PUSH2 0x27C2 DUP4 CODECOPY DUP2 ADD PUSH1 0x40 DUP2 SWAP1 MSTORE PUSH2 0x2F SWAP2 PUSH2 0x350 JUMP JUMPDEST CALLER PUSH1 0x40 MLOAD DUP1 PUSH1 0x40 ADD PUSH1 0x40 MSTORE DUP1 PUSH1 0x3 DUP2 MSTORE PUSH1 0x20 ADD PUSH3 0x4A5053 PUSH1 0xE8 SHL DUP2 MSTORE POP PUSH1 0x40 MLOAD DUP1 PUSH1 0x40 ADD PUSH1 0x40 MSTORE DUP1 PUSH1 0x10 DUP2 MSTORE PUSH1 0x20 ADD PUSH16 0x12940814DD1858DAD95C8811DD585C99 PUSH1 0x82 SHL DUP2 MSTORE POP DUP2 PUSH1 0x5 SWAP1 DUP2 PUSH2 0x84 SWAP2 SWAP1 PUSH2 0x48B JUMP JUMPDEST POP PUSH1 0x6 PUSH2 0x91 DUP3 DUP3 PUSH2 0x48B JUMP JUMPDEST POP POP PUSH1 0x9 DUP1 SLOAD PUSH1 0x1 PUSH1 0x1 PUSH1 0xA0 SHL SUB NOT AND CALLER OR SWAP1 SSTORE POP PUSH1 0x1 PUSH1 0x1 PUSH1 0xA0 SHL SUB DUP2 AND PUSH2 0xD5 JUMPI PUSH1 0x40 MLOAD PUSH4 0x1E4FBDF7 PUSH1 0xE0 SHL DUP2 MSTORE PUSH1 0x0 PUSH1 0x4 DUP3 ADD MSTORE PUSH1 0x24 ADD JUMPDEST PUSH1 0x40 MLOAD DUP1 SWAP2 SUB SWAP1 REVERT JUMPDEST PUSH2 0xDE DUP2 PUSH2 0xFD JUMP JUMPDEST POP PUSH2 0xF6 DUP2 CALLER PUSH1 0x0 PUSH1 0x1 PUSH1 0x1 PUSH1 0x40 SHL SUB DUP2 PUSH1 0x1 PUSH2 0x14F JUMP JUMPDEST POP POP PUSH2 0x60D JUMP JUMPDEST PUSH1 0xA DUP1 SLOAD PUSH1 0x1 PUSH1 0x1 PUSH1 0xA0 SHL SUB DUP4 DUP2 AND PUSH1 0x1 PUSH1 0x1 PUSH1 0xA0 SHL SUB NOT DUP4 AND DUP2 OR SWAP1 SWAP4 SSTORE PUSH1 0x40 MLOAD SWAP2 AND SWAP2 SWAP1 DUP3 SWAP1 PUSH32 0x8BE0079C531659141344CD1FD0A4F28419497F9722A3DAAFE3B4186F6B6457E0 SWAP1 PUSH1 0x0 SWAP1 LOG3 POP POP JUMP JUMPDEST PUSH1 0x0 PUSH2 0x159 PUSH2 0x2E7 JUMP JUMPDEST PUSH1 0xB DUP1 SLOAD SWAP1 PUSH1 0x0 PUSH2 0x169 DUP4 PUSH2 0x549 JUMP JUMPDEST SWAP2 SWAP1 POP SSTORE POP PUSH1 0x40 MLOAD DUP1 PUSH1 0xC0 ADD PUSH1 0x40 MSTORE DUP1 DUP9 DUP2 MSTORE PUSH1 0x20 ADD DUP8 PUSH1 0x1 PUSH1 0x1 PUSH1 0xA0 SHL SUB AND DUP2 MSTORE PUSH1 0x20 ADD DUP7 DUP2 MSTORE PUSH1 0x20 ADD DUP6 PUSH1 0x1 PUSH1 0x1 PUSH1 0x40 SHL SUB AND DUP2 MSTORE PUSH1 0x20 ADD DUP5 PUSH1 0x4 DUP2 GT ISZERO PUSH2 0x1B5 JUMPI PUSH2 0x1B5 PUSH2 0x570 JUMP JUMPDEST DUP2 MSTORE DUP4 ISZERO ISZERO PUSH1 0x20 SWAP2 DUP3 ADD MSTORE PUSH1 0xB SLOAD PUSH1 0x0 SWAP1 DUP2 MSTORE PUSH1 0xD SWAP1 SWAP2 MSTORE PUSH1 0x40 SWAP1 KECCAK256 DUP2 MLOAD DUP2 SWAP1 PUSH2 0x1DF SWAP1 DUP3 PUSH2 0x48B JUMP JUMPDEST POP PUSH1 0x20 DUP3 ADD MLOAD PUSH1 0x1 DUP3 ADD DUP1 SLOAD PUSH1 0x1 PUSH1 0x1 PUSH1 0xA0 SHL SUB SWAP1 SWAP3 AND PUSH1 0x1 PUSH1 0x1 PUSH1 0xA0 SHL SUB NOT SWAP1 SWAP3 AND SWAP2 SWAP1 SWAP2 OR SWAP1 SSTORE PUSH1 0x40 DUP3 ADD MLOAD PUSH1 0x2 DUP3 ADD SSTORE PUSH1 0x60 DUP3 ADD MLOAD PUSH1 0x3 DUP3 ADD DUP1 SLOAD PUSH1 0x1 PUSH1 0x1 PUSH1 0x40 SHL SUB SWAP1 SWAP3 AND PUSH1 0x1 PUSH1 0x1 PUSH1 0x40 SHL SUB NOT DUP4 AND DUP2 OR DUP3 SSTORE PUSH1 0x80 DUP6 ADD MLOAD SWAP3 PUSH1 0x1 PUSH1 0x1 PUSH1 0x48 SHL SUB NOT AND OR PUSH9 0x10000000000000000 DUP4 PUSH1 0x4 DUP2 GT ISZERO PUSH2 0x264 JUMPI PUSH2 0x264 PUSH2 0x570 JUMP JUMPDEST MUL OR SWAP1 SSTORE POP PUSH1 0xA0 DUP3 ADD MLOAD DUP2 PUSH1 0x3 ADD PUSH1 0x9 PUSH2 0x100 EXP DUP2 SLOAD DUP2 PUSH1 0xFF MUL NOT AND SWAP1 DUP4 ISZERO ISZERO MUL OR SWAP1 SSTORE POP SWAP1 POP POP DUP6 PUSH1 0x1 PUSH1 0x1 PUSH1 0xA0 SHL SUB AND PUSH32 0x28345B1271C32202A14D2A477BCA4D93555559E75E1E17AC3F690A13ED71881B DUP9 DUP8 PUSH1 0xB SLOAD DUP9 DUP9 DUP9 PUSH1 0x40 MLOAD PUSH2 0x2D1 SWAP7 SWAP6 SWAP5 SWAP4 SWAP3 SWAP2 SWAP1 PUSH2 0x586 JUMP JUMPDEST PUSH1 0x40 MLOAD DUP1 SWAP2 SUB SWAP1 LOG2 POP PUSH1 0xB SLOAD SWAP7 SWAP6 POP POP POP POP POP POP JUMP JUMPDEST PUSH1 0xA SLOAD PUSH1 0x1 PUSH1 0x1 PUSH1 0xA0 SHL SUB AND CALLER EQ PUSH2 0x314 JUMPI PUSH1 0x40 MLOAD PUSH4 0x118CDAA7 PUSH1 0xE0 SHL DUP2 MSTORE CALLER PUSH1 0x4 DUP3 ADD MSTORE PUSH1 0x24 ADD PUSH2 0xCC JUMP JUMPDEST JUMP JUMPDEST PUSH4 0x4E487B71 PUSH1 0xE0 SHL PUSH1 0x0 MSTORE PUSH1 0x41 PUSH1 0x4 MSTORE PUSH1 0x24 PUSH1 0x0 REVERT JUMPDEST PUSH1 0x0 JUMPDEST DUP4 DUP2 LT ISZERO PUSH2 0x347 JUMPI DUP2 DUP2 ADD MLOAD DUP4 DUP3 ADD MSTORE PUSH1 0x20 ADD PUSH2 0x32F JUMP JUMPDEST POP POP PUSH1 0x0 SWAP2 ADD MSTORE JUMP JUMPDEST PUSH1 0x0 PUSH1 0x20 DUP3 DUP5 SUB SLT ISZERO PUSH2 0x362 JUMPI PUSH1 0x0 DUP1 REVERT JUMPDEST DUP2 MLOAD PUSH1 0x1 PUSH1 0x1 PUSH1 0x40 SHL SUB DUP2 GT ISZERO PUSH2 0x378 JUMPI PUSH1 0x0 DUP1 REVERT JUMPDEST DUP3 ADD PUSH1 0x1F DUP2 ADD DUP5 SGT PUSH2 0x389 JUMPI PUSH1 0x0 DUP1 REVERT JUMPDEST DUP1 MLOAD PUSH1 0x1 PUSH1 0x1 PUSH1 0x40 SHL SUB DUP2 GT ISZERO PUSH2 0x3A2 JUMPI PUSH2 0x3A2 PUSH2 0x316 JUMP JUMPDEST PUSH1 0x40 MLOAD PUSH1 0x1F DUP3 ADD PUSH1 0x1F NOT SWAP1 DUP2 AND PUSH1 0x3F ADD AND DUP2 ADD PUSH1 0x1 PUSH1 0x1 PUSH1 0x40 SHL SUB DUP2 GT DUP3 DUP3 LT OR ISZERO PUSH2 0x3D0 JUMPI PUSH2 0x3D0 PUSH2 0x316 JUMP JUMPDEST PUSH1 0x40 MSTORE DUP2 DUP2 MSTORE DUP3 DUP3 ADD PUSH1 0x20 ADD DUP7 LT ISZERO PUSH2 0x3E8 JUMPI PUSH1 0x0 DUP1 REVERT JUMPDEST PUSH2 0x3F9 DUP3 PUSH1 0x20 DUP4 ADD PUSH1 0x20 DUP7 ADD PUSH2 0x32C JUMP JUMPDEST SWAP6 SWAP5 POP POP POP POP POP JUMP JUMPDEST PUSH1 0x1 DUP2 DUP2 SHR SWAP1 DUP3 AND DUP1 PUSH2 0x416 JUMPI PUSH1 0x7F DUP3 AND SWAP2 POP JUMPDEST PUSH1 0x20 DUP3 LT DUP2 SUB PUSH2 0x436 JUMPI PUSH4 0x4E487B71 PUSH1 0xE0 SHL PUSH1 0x0 MSTORE PUSH1 0x22 PUSH1 0x4 MSTORE PUSH1 0x24 PUSH1 0x0 REVERT JUMPDEST POP SWAP2 SWAP1 POP JUMP JUMPDEST PUSH1 0x1F DUP3 GT ISZERO PUSH2 0x486 JUMPI DUP1 PUSH1 0x0 MSTORE PUSH1 0x20 PUSH1 0x0 KECCAK256 PUSH1 0x1F DUP5 ADD PUSH1 0x5 SHR DUP2 ADD PUSH1 0x20 DUP6 LT ISZERO PUSH2 0x463 JUMPI POP DUP1 JUMPDEST PUSH1 0x1F DUP5 ADD PUSH1 0x5 SHR DUP3 ADD SWAP2 POP JUMPDEST DUP2 DUP2 LT ISZERO PUSH2 0x483 JUMPI PUSH1 0x0 DUP2 SSTORE PUSH1 0x1 ADD PUSH2 0x46F JUMP JUMPDEST POP POP JUMPDEST POP POP POP JUMP JUMPDEST DUP2 MLOAD PUSH1 0x1 PUSH1 0x1 PUSH1 0x40 SHL SUB DUP2 GT ISZERO PUSH2 0x4A4 JUMPI PUSH2 0x4A4 PUSH2 0x316 JUMP JUMPDEST PUSH2 0x4B8 DUP2 PUSH2 0x4B2 DUP5 SLOAD PUSH2 0x402 JUMP JUMPDEST DUP5 PUSH2 0x43C JUMP JUMPDEST PUSH1 0x20 PUSH1 0x1F DUP3 GT PUSH1 0x1 DUP2 EQ PUSH2 0x4EC JUMPI PUSH1 0x0 DUP4 ISZERO PUSH2 0x4D4 JUMPI POP DUP5 DUP3 ADD MLOAD JUMPDEST PUSH1 0x0 NOT PUSH1 0x3 DUP6 SWAP1 SHL SHR NOT AND PUSH1 0x1 DUP5 SWAP1 SHL OR DUP5 SSTORE PUSH2 0x483 JUMP JUMPDEST PUSH1 0x0 DUP5 DUP2 MSTORE PUSH1 0x20 DUP2 KECCAK256 PUSH1 0x1F NOT DUP6 AND SWAP2 JUMPDEST DUP3 DUP2 LT ISZERO PUSH2 0x51C JUMPI DUP8 DUP6 ADD MLOAD DUP3 SSTORE PUSH1 0x20 SWAP5 DUP6 ADD SWAP5 PUSH1 0x1 SWAP1 SWAP3 ADD SWAP2 ADD PUSH2 0x4FC JUMP JUMPDEST POP DUP5 DUP3 LT ISZERO PUSH2 0x53A JUMPI DUP7 DUP5 ADD MLOAD PUSH1 0x0 NOT PUSH1 0x3 DUP8 SWAP1 SHL PUSH1 0xF8 AND SHR NOT AND DUP2 SSTORE JUMPDEST POP POP POP POP PUSH1 0x1 SWAP1 DUP2 SHL ADD SWAP1 SSTORE POP JUMP JUMPDEST PUSH1 0x0 PUSH1 0x1 DUP3 ADD PUSH2 0x569 JUMPI PUSH4 0x4E487B71 PUSH1 0xE0 SHL PUSH1 0x0 MSTORE PUSH1 0x11 PUSH1 0x4 MSTORE PUSH1 0x24 PUSH1 0x0 REVERT JUMPDEST POP PUSH1 0x1 ADD SWAP1 JUMP JUMPDEST PUSH4 0x4E487B71 PUSH1 0xE0 SHL PUSH1 0x0 MSTORE PUSH1 0x21 PUSH1 0x4 MSTORE PUSH1 0x24 PUSH1 0x0 REVERT JUMPDEST PUSH1 0xC0 DUP2 MSTORE PUSH1 0x0 DUP8 MLOAD DUP1 PUSH1 0xC0 DUP5 ADD MSTORE PUSH2 0x5A5 DUP2 PUSH1 0xE0 DUP6 ADD PUSH1 0x20 DUP13 ADD PUSH2 0x32C JUMP JUMPDEST PUSH1 0x20 DUP4 ADD DUP9 SWAP1 MSTORE PUSH1 0x40 DUP4 ADD DUP8 SWAP1 MSTORE PUSH1 0x1 PUSH1 0x1 PUSH1 0x40 SHL SUB DUP7 AND PUSH1 0x60 DUP5 ADD MSTORE PUSH1 0x1F ADD PUSH1 0x1F NOT AND DUP3 ADD PUSH1 0xE0 ADD SWAP1 POP PUSH1 0x5 DUP5 LT PUSH2 0x5EE JUMPI PUSH4 0x4E487B71 PUSH1 0xE0 SHL PUSH1 0x0 MSTORE PUSH1 0x21 PUSH1 0x4 MSTORE PUSH1 0x24 PUSH1 0x0 REVERT JUMPDEST DUP4 PUSH1 0x80 DUP4 ADD MSTORE PUSH2 0x602 PUSH1 0xA0 DUP4 ADD DUP5 ISZERO ISZERO SWAP1 MSTORE JUMP JUMPDEST SWAP8 SWAP7 POP POP POP POP POP POP POP JUMP JUMPDEST PUSH2 0x21A6 DUP1 PUSH2 0x61C PUSH1 0x0 CODECOPY PUSH1 0x0 RETURN INVALID PUSH1 0x80 PUSH1 0x40 MSTORE PUSH1 0x4 CALLDATASIZE LT PUSH2 0x20F JUMPI PUSH1 0x0 CALLDATALOAD PUSH1 0xE0 SHR DUP1 PUSH4 0x70A08231 GT PUSH2 0x118 JUMPI DUP1 PUSH4 0xA4E3BAB9 GT PUSH2 0xA0 JUMPI DUP1 PUSH4 0xEE2786BC GT PUSH2 0x6F JUMPI DUP1 PUSH4 0xEE2786BC EQ PUSH2 0x654 JUMPI DUP1 PUSH4 0xEF9EC2F3 EQ PUSH2 0x674 JUMPI DUP1 PUSH4 0xF2FDE38B EQ PUSH2 0x694 JUMPI DUP1 PUSH4 0xF577A500 EQ PUSH2 0x6B4 JUMPI DUP1 PUSH4 0xF82C4954 EQ PUSH2 0x6D4 JUMPI PUSH1 0x0 DUP1 REVERT JUMPDEST DUP1 PUSH4 0xA4E3BAB9 EQ PUSH2 0x5C2 JUMPI DUP1 PUSH4 0xC22C4F43 EQ PUSH2 0x5E2 JUMPI DUP1 PUSH4 0xC87B56DD EQ PUSH2 0x614 JUMPI DUP1 PUSH4 0xD88F5B89 EQ PUSH2 0x634 JUMPI PUSH1 0x0 DUP1 REVERT JUMPDEST DUP1 PUSH4 0x7D22C35C GT PUSH2 0xE7 JUMPI DUP1 PUSH4 0x7D22C35C EQ PUSH2 0x507 JUMPI DUP1 PUSH4 0x8462151C EQ PUSH2 0x542 JUMPI DUP1 PUSH4 0x8DA5CB5B EQ PUSH2 0x56F JUMPI DUP1 PUSH4 0x95D89B41 EQ PUSH2 0x58D JUMPI DUP1 PUSH4 0x98B06F07 EQ PUSH2 0x5A2 JUMPI PUSH1 0x0 DUP1 REVERT JUMPDEST DUP1 PUSH4 0x70A08231 EQ PUSH2 0x47C JUMPI DUP1 PUSH4 0x715018A6 EQ PUSH2 0x4B2 JUMPI DUP1 PUSH4 0x71BAE2CB EQ PUSH2 0x4C7 JUMPI DUP1 PUSH4 0x771996A9 EQ PUSH2 0x4E7 JUMPI PUSH1 0x0 DUP1 REVERT JUMPDEST DUP1 PUSH4 0x2F745C59 GT PUSH2 0x19B JUMPI DUP1 PUSH4 0x5484DABB GT PUSH2 0x16A JUMPI DUP1 PUSH4 0x5484DABB EQ PUSH2 0x3DC JUMPI DUP1 PUSH4 0x577C917F EQ PUSH2 0x3EF JUMPI DUP1 PUSH4 0x6352211E EQ PUSH2 0x40F JUMPI DUP1 PUSH4 0x6B4ED21B EQ PUSH2 0x447 JUMPI DUP1 PUSH4 0x6E096341 EQ PUSH2 0x45C JUMPI PUSH1 0x0 DUP1 REVERT JUMPDEST DUP1 PUSH4 0x2F745C59 EQ PUSH2 0x346 JUMPI DUP1 PUSH4 0x3DE419E9 EQ PUSH2 0x366 JUMPI DUP1 PUSH4 0x43945512 EQ PUSH2 0x386 JUMPI DUP1 PUSH4 0x4F6CCCE7 EQ PUSH2 0x3BE JUMPI PUSH1 0x0 DUP1 REVERT JUMPDEST DUP1 PUSH4 0x162094C4 GT PUSH2 0x1E2 JUMPI DUP1 PUSH4 0x162094C4 EQ PUSH2 0x2AF JUMPI DUP1 PUSH4 0x18DCE595 EQ PUSH2 0x2D1 JUMPI DUP1 PUSH4 0x26019C18 EQ PUSH2 0x2F1 JUMPI DUP1 PUSH4 0x27E031B1 EQ PUSH2 0x306 JUMPI DUP1 PUSH4 0x285C69CE EQ PUSH2 0x326 JUMPI PUSH1 0x0 DUP1 REVERT JUMPDEST DUP1 PUSH4 0x1FFC9A7 EQ PUSH2 0x214 JUMPI DUP1 PUSH4 0x6237526 EQ PUSH2 0x249 JUMPI DUP1 PUSH4 0x6FDDE03 EQ PUSH2 0x26D JUMPI DUP1 PUSH4 0x8405E74 EQ PUSH2 0x28F JUMPI JUMPDEST PUSH1 0x0 DUP1 REVERT JUMPDEST CALLVALUE DUP1 ISZERO PUSH2 0x220 JUMPI PUSH1 0x0 DUP1 REVERT JUMPDEST POP PUSH2 0x234 PUSH2 0x22F CALLDATASIZE PUSH1 0x4 PUSH2 0x1A10 JUMP JUMPDEST PUSH2 0x6F4 JUMP JUMPDEST PUSH1 0x40 MLOAD SWAP1 ISZERO ISZERO DUP2 MSTORE PUSH1 0x20 ADD JUMPDEST PUSH1 0x40 MLOAD DUP1 SWAP2 SUB SWAP1 RETURN JUMPDEST CALLVALUE DUP1 ISZERO PUSH2 0x255 JUMPI PUSH1 0x0 DUP1 REVERT JUMPDEST POP PUSH2 0x25F PUSH1 0xB SLOAD DUP2 JUMP JUMPDEST PUSH1 0x40 MLOAD SWAP1 DUP2 MSTORE PUSH1 0x20 ADD PUSH2 0x240 JUMP JUMPDEST CALLVALUE DUP1 ISZERO PUSH2 0x279 JUMPI PUSH1 0x0 DUP1 REVERT JUMPDEST POP PUSH2 0x282 PUSH2 0x761 JUMP JUMPDEST PUSH1 0x40 MLOAD PUSH2 0x240 SWAP2 SWAP1 PUSH2 0x1A87 JUMP JUMPDEST CALLVALUE DUP1 ISZERO PUSH2 0x29B JUMPI PUSH1 0x0 DUP1 REVERT JUMPDEST POP PUSH2 0x234 PUSH2 0x2AA CALLDATASIZE PUSH1 0x4 PUSH2 0x1AC6 JUMP JUMPDEST PUSH2 0x7F3 JUMP JUMPDEST CALLVALUE DUP1 ISZERO PUSH2 0x2BB JUMPI PUSH1 0x0 DUP1 REVERT JUMPDEST POP PUSH2 0x2CF PUSH2 0x2CA CALLDATASIZE PUSH1 0x4 PUSH2 0x1BB7 JUMP JUMPDEST PUSH2 0x86A JUMP JUMPDEST STOP JUMPDEST CALLVALUE DUP1 ISZERO PUSH2 0x2DD JUMPI PUSH1 0x0 DUP1 REVERT JUMPDEST POP PUSH2 0x25F PUSH2 0x2EC CALLDATASIZE PUSH1 0x4 PUSH2 0x1C23 JUMP JUMPDEST PUSH2 0x8F5 JUMP JUMPDEST CALLVALUE DUP1 ISZERO PUSH2 0x2FD JUMPI PUSH1 0x0 DUP1 REVERT JUMPDEST POP PUSH1 0x7 SLOAD PUSH2 0x25F JUMP JUMPDEST CALLVALUE DUP1 ISZERO PUSH2 0x312 JUMPI PUSH1 0x0 DUP1 REVERT JUMPDEST POP PUSH2 0x2CF PUSH2 0x321 CALLDATASIZE PUSH1 0x4 PUSH2 0x1CAA JUMP JUMPDEST PUSH2 0xA8B JUMP JUMPDEST CALLVALUE DUP1 ISZERO PUSH2 0x332 JUMPI PUSH1 0x0 DUP1 REVERT JUMPDEST POP PUSH2 0x2CF PUSH2 0x341 CALLDATASIZE PUSH1 0x4 PUSH2 0x1CD6 JUMP JUMPDEST PUSH2 0xB21 JUMP JUMPDEST CALLVALUE DUP1 ISZERO PUSH2 0x352 JUMPI PUSH1 0x0 DUP1 REVERT JUMPDEST POP PUSH2 0x25F PUSH2 0x361 CALLDATASIZE PUSH1 0x4 PUSH2 0x1CF8 JUMP JUMPDEST PUSH2 0xB98 JUMP JUMPDEST CALLVALUE DUP1 ISZERO PUSH2 0x372 JUMPI PUSH1 0x0 DUP1 REVERT JUMPDEST POP PUSH2 0x25F PUSH2 0x381 CALLDATASIZE PUSH1 0x4 PUSH2 0x1CF8 JUMP JUMPDEST PUSH2 0xC1D JUMP JUMPDEST CALLVALUE DUP1 ISZERO PUSH2 0x392 JUMPI PUSH1 0x0 DUP1 REVERT JUMPDEST POP PUSH2 0x234 PUSH2 0x3A1 CALLDATASIZE PUSH1 0x4 PUSH2 0x1D22 JUMP JUMPDEST PUSH1 0x1 PUSH1 0x1 PUSH1 0xA0 SHL SUB AND PUSH1 0x0 SWAP1 DUP2 MSTORE PUSH1 0x4 PUSH1 0x20 MSTORE PUSH1 0x40 SWAP1 KECCAK256 SLOAD ISZERO ISZERO SWAP1 JUMP JUMPDEST CALLVALUE DUP1 ISZERO PUSH2 0x3CA JUMPI PUSH1 0x0 DUP1 REVERT JUMPDEST POP PUSH2 0x25F PUSH2 0x3D9 CALLDATASIZE PUSH1 0x4 PUSH2 0x1D3D JUMP JUMPDEST SWAP1 JUMP JUMPDEST PUSH2 0x2CF PUSH2 0x3EA CALLDATASIZE PUSH1 0x4 PUSH2 0x1CF8 JUMP JUMPDEST PUSH2 0xC4E JUMP JUMPDEST CALLVALUE DUP1 ISZERO PUSH2 0x3FB JUMPI PUSH1 0x0 DUP1 REVERT JUMPDEST POP PUSH2 0x2CF PUSH2 0x40A CALLDATASIZE PUSH1 0x4 PUSH2 0x1D56 JUMP JUMPDEST PUSH2 0xD53 JUMP JUMPDEST CALLVALUE DUP1 ISZERO PUSH2 0x41B JUMPI PUSH1 0x0 DUP1 REVERT JUMPDEST POP PUSH2 0x42F PUSH2 0x42A CALLDATASIZE PUSH1 0x4 PUSH2 0x1D3D JUMP JUMPDEST PUSH2 0xDD2 JUMP JUMPDEST PUSH1 0x40 MLOAD PUSH1 0x1 PUSH1 0x1 PUSH1 0xA0 SHL SUB SWAP1 SWAP2 AND DUP2 MSTORE PUSH1 0x20 ADD PUSH2 0x240 JUMP JUMPDEST CALLVALUE DUP1 ISZERO PUSH2 0x453 JUMPI PUSH1 0x0 DUP1 REVERT JUMPDEST POP PUSH1 0x8 SLOAD PUSH2 0x25F JUMP JUMPDEST CALLVALUE DUP1 ISZERO PUSH2 0x468 JUMPI PUSH1 0x0 DUP1 REVERT JUMPDEST POP PUSH2 0x2CF PUSH2 0x477 CALLDATASIZE PUSH1 0x4 PUSH2 0x1CF8 JUMP JUMPDEST PUSH2 0xDF0 JUMP JUMPDEST CALLVALUE DUP1 ISZERO PUSH2 0x488 JUMPI PUSH1 0x0 DUP1 REVERT JUMPDEST POP PUSH2 0x25F PUSH2 0x497 CALLDATASIZE PUSH1 0x4 PUSH2 0x1D22 JUMP JUMPDEST PUSH1 0x1 PUSH1 0x1 PUSH1 0xA0 SHL SUB AND PUSH1 0x0 SWAP1 DUP2 MSTORE PUSH1 0x2 PUSH1 0x20 MSTORE PUSH1 0x40 SWAP1 KECCAK256 SLOAD SWAP1 JUMP JUMPDEST CALLVALUE DUP1 ISZERO PUSH2 0x4BE JUMPI PUSH1 0x0 DUP1 REVERT JUMPDEST POP PUSH2 0x2CF PUSH2 0xE4E JUMP JUMPDEST CALLVALUE DUP1 ISZERO PUSH2 0x4D3 JUMPI PUSH1 0x0 DUP1 REVERT JUMPDEST POP PUSH2 0x2CF PUSH2 0x4E2 CALLDATASIZE PUSH1 0x4 PUSH2 0x1CF8 JUMP JUMPDEST PUSH2 0xE62 JUMP JUMPDEST CALLVALUE DUP1 ISZERO PUSH2 0x4F3 JUMPI PUSH1 0x0 DUP1 REVERT JUMPDEST POP PUSH2 0x2CF PUSH2 0x502 CALLDATASIZE PUSH1 0x4 PUSH2 0x1D9A JUMP JUMPDEST PUSH2 0xEF3 JUMP JUMPDEST CALLVALUE DUP1 ISZERO PUSH2 0x513 JUMPI PUSH1 0x0 DUP1 REVERT JUMPDEST POP PUSH2 0x234 PUSH2 0x522 CALLDATASIZE PUSH1 0x4 PUSH2 0x1DBD JUMP JUMPDEST PUSH1 0xE PUSH1 0x20 SWAP1 DUP2 MSTORE PUSH1 0x0 SWAP3 DUP4 MSTORE PUSH1 0x40 DUP1 DUP5 KECCAK256 SWAP1 SWAP2 MSTORE SWAP1 DUP3 MSTORE SWAP1 KECCAK256 SLOAD PUSH1 0xFF AND DUP2 JUMP JUMPDEST CALLVALUE DUP1 ISZERO PUSH2 0x54E JUMPI PUSH1 0x0 DUP1 REVERT JUMPDEST POP PUSH2 0x562 PUSH2 0x55D CALLDATASIZE PUSH1 0x4 PUSH2 0x1D22 JUMP JUMPDEST PUSH2 0xF87 JUMP JUMPDEST PUSH1 0x40 MLOAD PUSH2 0x240 SWAP2 SWAP1 PUSH2 0x1DE0 JUMP JUMPDEST CALLVALUE DUP1 ISZERO PUSH2 0x57B JUMPI PUSH1 0x0 DUP1 REVERT JUMPDEST POP PUSH1 0xA SLOAD PUSH1 0x1 PUSH1 0x1 PUSH1 0xA0 SHL SUB AND PUSH2 0x42F JUMP JUMPDEST CALLVALUE DUP1 ISZERO PUSH2 0x599 JUMPI PUSH1 0x0 DUP1 REVERT JUMPDEST POP PUSH2 0x282 PUSH2 0xFF3 JUMP JUMPDEST CALLVALUE DUP1 ISZERO PUSH2 0x5AE JUMPI PUSH1 0x0 DUP1 REVERT JUMPDEST POP PUSH2 0x562 PUSH2 0x5BD CALLDATASIZE PUSH1 0x4 PUSH2 0x1D22 JUMP JUMPDEST PUSH2 0x1002 JUMP JUMPDEST CALLVALUE DUP1 ISZERO PUSH2 0x5CE JUMPI PUSH1 0x0 DUP1 REVERT JUMPDEST POP PUSH2 0x2CF PUSH2 0x5DD CALLDATASIZE PUSH1 0x4 PUSH2 0x1CF8 JUMP JUMPDEST PUSH2 0x106C JUMP JUMPDEST CALLVALUE DUP1 ISZERO PUSH2 0x5EE JUMPI PUSH1 0x0 DUP1 REVERT JUMPDEST POP PUSH2 0x602 PUSH2 0x5FD CALLDATASIZE PUSH1 0x4 PUSH2 0x1D3D JUMP JUMPDEST PUSH2 0x1137 JUMP JUMPDEST PUSH1 0x40 MLOAD PUSH2 0x240 SWAP7 SWAP6 SWAP5 SWAP4 SWAP3 SWAP2 SWAP1 PUSH2 0x1E5B JUMP JUMPDEST CALLVALUE DUP1 ISZERO PUSH2 0x620 JUMPI PUSH1 0x0 DUP1 REVERT JUMPDEST POP PUSH2 0x282 PUSH2 0x62F CALLDATASIZE PUSH1 0x4 PUSH2 0x1D3D JUMP JUMPDEST PUSH2 0x1212 JUMP JUMPDEST CALLVALUE DUP1 ISZERO PUSH2 0x640 JUMPI PUSH1 0x0 DUP1 REVERT JUMPDEST POP PUSH2 0x2CF PUSH2 0x64F CALLDATASIZE PUSH1 0x4 PUSH2 0x1CF8 JUMP JUMPDEST PUSH2 0x12B2 JUMP JUMPDEST CALLVALUE DUP1 ISZERO PUSH2 0x660 JUMPI PUSH1 0x0 DUP1 REVERT JUMPDEST POP PUSH2 0x234 PUSH2 0x66F CALLDATASIZE PUSH1 0x4 PUSH2 0x1EB5 JUMP JUMPDEST PUSH2 0x1342 JUMP JUMPDEST CALLVALUE DUP1 ISZERO PUSH2 0x680 JUMPI PUSH1 0x0 DUP1 REVERT JUMPDEST POP PUSH2 0x2CF PUSH2 0x68F CALLDATASIZE PUSH1 0x4 PUSH2 0x1CF8 JUMP JUMPDEST PUSH2 0x13F5 JUMP JUMPDEST CALLVALUE DUP1 ISZERO PUSH2 0x6A0 JUMPI PUSH1 0x0 DUP1 REVERT JUMPDEST POP PUSH2 0x2CF PUSH2 0x6AF CALLDATASIZE PUSH1 0x4 PUSH2 0x1D22 JUMP JUMPDEST PUSH2 0x14B9 JUMP JUMPDEST CALLVALUE DUP1 ISZERO PUSH2 0x6C0 JUMPI PUSH1 0x0 DUP1 REVERT JUMPDEST POP PUSH2 0x234 PUSH2 0x6CF CALLDATASIZE PUSH1 0x4 PUSH2 0x1D3D JUMP JUMPDEST PUSH2 0x14F7 JUMP JUMPDEST CALLVALUE DUP1 ISZERO PUSH2 0x6E0 JUMPI PUSH1 0x0 DUP1 REVERT JUMPDEST POP PUSH2 0x2CF PUSH2 0x6EF CALLDATASIZE PUSH1 0x4 PUSH2 0x1F79 JUMP JUMPDEST PUSH2 0x1516 JUMP JUMPDEST PUSH1 0x0 PUSH1 0x1 PUSH1 0x1 PUSH1 0xE0 SHL SUB NOT DUP3 AND PUSH4 0xA511533D PUSH1 0xE0 SHL EQ DUP1 PUSH2 0x725 JUMPI POP PUSH1 0x1 PUSH1 0x1 PUSH1 0xE0 SHL SUB NOT DUP3 AND PUSH4 0x5B5E139F PUSH1 0xE0 SHL EQ JUMPDEST DUP1 PUSH2 0x740 JUMPI POP PUSH1 0x1 PUSH1 0x1 PUSH1 0xE0 SHL SUB NOT DUP3 AND PUSH4 0x2D57DEBD PUSH1 0xE0 SHL EQ JUMPDEST DUP1 PUSH2 0x75B JUMPI POP PUSH4 0x1FFC9A7 PUSH1 0xE0 SHL PUSH1 0x1 PUSH1 0x1 PUSH1 0xE0 SHL SUB NOT DUP4 AND EQ JUMPDEST SWAP3 SWAP2 POP POP JUMP JUMPDEST PUSH1 0x60 PUSH1 0x5 DUP1 SLOAD PUSH2 0x770 SWAP1 PUSH2 0x1F9C JUMP JUMPDEST DUP1 PUSH1 0x1F ADD PUSH1 0x20 DUP1 SWAP2 DIV MUL PUSH1 0x20 ADD PUSH1 0x40 MLOAD SWAP1 DUP2 ADD PUSH1 0x40 MSTORE DUP1 SWAP3 SWAP2 SWAP1 DUP2 DUP2 MSTORE PUSH1 0x20 ADD DUP3 DUP1 SLOAD PUSH2 0x79C SWAP1 PUSH2 0x1F9C JUMP JUMPDEST DUP1 ISZERO PUSH2 0x7E9 JUMPI DUP1 PUSH1 0x1F LT PUSH2 0x7BE JUMPI PUSH2 0x100 DUP1 DUP4 SLOAD DIV MUL DUP4 MSTORE SWAP2 PUSH1 0x20 ADD SWAP2 PUSH2 0x7E9 JUMP JUMPDEST DUP3 ADD SWAP2 SWAP1 PUSH1 0x0 MSTORE PUSH1 0x20 PUSH1 0x0 KECCAK256 SWAP1 JUMPDEST DUP2 SLOAD DUP2 MSTORE SWAP1 PUSH1 0x1 ADD SWAP1 PUSH1 0x20 ADD DUP1 DUP4 GT PUSH2 0x7CC JUMPI DUP3 SWAP1 SUB PUSH1 0x1F AND DUP3 ADD SWAP2 JUMPDEST POP POP POP POP POP SWAP1 POP SWAP1 JUMP JUMPDEST PUSH1 0x0 DUP3 DUP2 MSTORE PUSH1 0xD PUSH1 0x20 MSTORE PUSH1 0x40 DUP2 KECCAK256 PUSH1 0x1 ADD SLOAD DUP4 SWAP1 PUSH1 0x1 PUSH1 0x1 PUSH1 0xA0 SHL SUB AND CALLER EQ PUSH2 0x82F JUMPI PUSH1 0x40 MLOAD PUSH4 0xC69E7279 PUSH1 0xE0 SHL DUP2 MSTORE PUSH1 0x4 ADD PUSH1 0x40 MLOAD DUP1 SWAP2 SUB SWAP1 REVERT JUMPDEST POP POP PUSH1 0x0 SWAP2 DUP3 MSTORE PUSH1 0xE PUSH1 0x20 SWAP1 DUP2 MSTORE PUSH1 0x40 DUP1 DUP5 KECCAK256 PUSH1 0x1 PUSH1 0x1 PUSH1 0xA0 SHL SUB SWAP6 SWAP1 SWAP6 AND DUP5 MSTORE SWAP4 SWAP1 MSTORE SWAP2 SWAP1 KECCAK256 DUP1 SLOAD PUSH1 0xFF NOT AND SWAP2 ISZERO ISZERO SWAP2 SWAP1 SWAP2 OR SWAP1 SSTORE PUSH1 0x1 SWAP1 JUMP JUMPDEST PUSH1 0x9 SLOAD PUSH1 0x1 PUSH1 0x1 PUSH1 0xA0 SHL SUB AND CALLER EQ PUSH2 0x8D8 JUMPI PUSH1 0x40 MLOAD PUSH3 0x461BCD PUSH1 0xE5 SHL DUP2 MSTORE PUSH1 0x20 PUSH1 0x4 DUP3 ADD MSTORE PUSH1 0x26 PUSH1 0x24 DUP3 ADD MSTORE PUSH32 0x4F6E6C79207468652063726561746F722063616E207365742074686520746F6B PUSH1 0x44 DUP3 ADD MSTORE PUSH6 0x656E20555249 PUSH1 0xD0 SHL PUSH1 0x64 DUP3 ADD MSTORE PUSH1 0x84 ADD JUMPDEST PUSH1 0x40 MLOAD DUP1 SWAP2 SUB SWAP1 REVERT JUMPDEST PUSH1 0x0 DUP3 DUP2 MSTORE PUSH1 0x1 PUSH1 0x20 MSTORE PUSH1 0x40 SWAP1 KECCAK256 PUSH2 0x8F0 DUP3 DUP3 PUSH2 0x201D JUMP JUMPDEST POP POP POP JUMP JUMPDEST PUSH1 0x0 PUSH2 0x8FF PUSH2 0x15BA JUMP JUMPDEST PUSH1 0xB DUP1 SLOAD SWAP1 PUSH1 0x0 PUSH2 0x90F DUP4 PUSH2 0x20F1 JUMP JUMPDEST SWAP2 SWAP1 POP SSTORE POP PUSH1 0x40 MLOAD DUP1 PUSH1 0xC0 ADD PUSH1 0x40 MSTORE DUP1 DUP9 DUP2 MSTORE PUSH1 0x20 ADD DUP8 PUSH1 0x1 PUSH1 0x1 PUSH1 0xA0 SHL SUB AND DUP2 MSTORE PUSH1 0x20 ADD DUP7 DUP2 MSTORE PUSH1 0x20 ADD DUP6 PUSH1 0x1 PUSH1 0x1 PUSH1 0x40 SHL SUB AND DUP2 MSTORE PUSH1 0x20 ADD DUP5 PUSH1 0x4 DUP2 GT ISZERO PUSH2 0x95B JUMPI PUSH2 0x95B PUSH2 0x1E23 JUMP JUMPDEST DUP2 MSTORE DUP4 ISZERO ISZERO PUSH1 0x20 SWAP2 DUP3 ADD MSTORE PUSH1 0xB SLOAD PUSH1 0x0 SWAP1 DUP2 MSTORE PUSH1 0xD SWAP1 SWAP2 MSTORE PUSH1 0x40 SWAP1 KECCAK256 DUP2 MLOAD DUP2 SWAP1 PUSH2 0x985 SWAP1 DUP3 PUSH2 0x201D JUMP JUMPDEST POP PUSH1 0x20 DUP3 ADD MLOAD PUSH1 0x1 DUP3 ADD DUP1 SLOAD PUSH1 0x1 PUSH1 0x1 PUSH1 0xA0 SHL SUB SWAP1 SWAP3 AND PUSH1 0x1 PUSH1 0x1 PUSH1 0xA0 SHL SUB NOT SWAP1 SWAP3 AND SWAP2 SWAP1 SWAP2 OR SWAP1 SSTORE PUSH1 0x40 DUP3 ADD MLOAD PUSH1 0x2 DUP3 ADD SSTORE PUSH1 0x60 DUP3 ADD MLOAD PUSH1 0x3 DUP3 ADD DUP1 SLOAD PUSH1 0x1 PUSH1 0x1 PUSH1 0x40 SHL SUB SWAP1 SWAP3 AND PUSH8 0xFFFFFFFFFFFFFFFF NOT DUP4 AND DUP2 OR DUP3 SSTORE PUSH1 0x80 DUP6 ADD MLOAD SWAP3 PUSH9 0xFFFFFFFFFFFFFFFFFF NOT AND OR PUSH1 0x1 PUSH1 0x40 SHL DUP4 PUSH1 0x4 DUP2 GT ISZERO PUSH2 0xA08 JUMPI PUSH2 0xA08 PUSH2 0x1E23 JUMP JUMPDEST MUL OR SWAP1 SSTORE POP PUSH1 0xA0 DUP3 ADD MLOAD DUP2 PUSH1 0x3 ADD PUSH1 0x9 PUSH2 0x100 EXP DUP2 SLOAD DUP2 PUSH1 0xFF MUL NOT AND SWAP1 DUP4 ISZERO ISZERO MUL OR SWAP1 SSTORE POP SWAP1 POP POP DUP6 PUSH1 0x1 PUSH1 0x1 PUSH1 0xA0 SHL SUB AND PUSH32 0x28345B1271C32202A14D2A477BCA4D93555559E75E1E17AC3F690A13ED71881B DUP9 DUP8 PUSH1 0xB SLOAD DUP9 DUP9 DUP9 PUSH1 0x40 MLOAD PUSH2 0xA75 SWAP7 SWAP6 SWAP5 SWAP4 SWAP3 SWAP2 SWAP1 PUSH2 0x210A JUMP JUMPDEST PUSH1 0x40 MLOAD DUP1 SWAP2 SUB SWAP1 LOG2 POP PUSH1 0xB SLOAD SWAP7 SWAP6 POP POP POP POP POP POP JUMP JUMPDEST PUSH1 0x0 DUP3 DUP2 MSTORE PUSH1 0xD PUSH1 0x20 MSTORE PUSH1 0x40 SWAP1 KECCAK256 PUSH1 0x1 ADD SLOAD DUP3 SWAP1 PUSH1 0x1 PUSH1 0x1 PUSH1 0xA0 SHL SUB AND CALLER EQ PUSH2 0xAC7 JUMPI PUSH1 0x40 MLOAD PUSH4 0xC69E7279 PUSH1 0xE0 SHL DUP2 MSTORE PUSH1 0x4 ADD PUSH1 0x40 MLOAD DUP1 SWAP2 SUB SWAP1 REVERT JUMPDEST DUP3 PUSH1 0xB SLOAD DUP2 GT ISZERO PUSH2 0xAEB JUMPI PUSH1 0x40 MLOAD PUSH4 0x8C2CB5FB PUSH1 0xE0 SHL DUP2 MSTORE PUSH1 0x4 ADD PUSH1 0x40 MLOAD DUP1 SWAP2 SUB SWAP1 REVERT JUMPDEST POP POP PUSH1 0x0 SWAP2 DUP3 MSTORE PUSH1 0xD PUSH1 0x20 MSTORE PUSH1 0x40 SWAP1 SWAP2 KECCAK256 PUSH1 0x3 ADD DUP1 SLOAD SWAP2 ISZERO ISZERO PUSH1 0x1 PUSH1 0x48 SHL MUL PUSH10 0xFF000000000000000000 NOT SWAP1 SWAP3 AND SWAP2 SWAP1 SWAP2 OR SWAP1 SSTORE JUMP JUMPDEST PUSH1 0x0 DUP3 DUP2 MSTORE PUSH1 0xD PUSH1 0x20 MSTORE PUSH1 0x40 SWAP1 KECCAK256 PUSH1 0x1 ADD SLOAD DUP3 SWAP1 PUSH1 0x1 PUSH1 0x1 PUSH1 0xA0 SHL SUB AND CALLER EQ PUSH2 0xB5D JUMPI PUSH1 0x40 MLOAD PUSH4 0xC69E7279 PUSH1 0xE0 SHL DUP2 MSTORE PUSH1 0x4 ADD PUSH1 0x40 MLOAD DUP1 SWAP2 SUB SWAP1 REVERT JUMPDEST DUP3 PUSH1 0xB SLOAD DUP2 GT ISZERO PUSH2 0xB81 JUMPI PUSH1 0x40 MLOAD PUSH4 0x8C2CB5FB PUSH1 0xE0 SHL DUP2 MSTORE PUSH1 0x4 ADD PUSH1 0x40 MLOAD DUP1 SWAP2 SUB SWAP1 REVERT JUMPDEST POP POP PUSH1 0x0 SWAP2 DUP3 MSTORE PUSH1 0xD PUSH1 0x20 MSTORE PUSH1 0x40 SWAP1 SWAP2 KECCAK256 PUSH1 0x2 ADD SSTORE JUMP JUMPDEST PUSH1 0x1 PUSH1 0x1 PUSH1 0xA0 SHL SUB DUP3 AND PUSH1 0x0 SWAP1 DUP2 MSTORE PUSH1 0x2 PUSH1 0x20 MSTORE PUSH1 0x40 DUP2 KECCAK256 DUP1 SLOAD DUP4 LT PUSH2 0xBF7 JUMPI PUSH1 0x40 MLOAD PUSH3 0x461BCD PUSH1 0xE5 SHL DUP2 MSTORE PUSH1 0x20 PUSH1 0x4 DUP3 ADD MSTORE PUSH1 0x14 PUSH1 0x24 DUP3 ADD MSTORE PUSH20 0x151BDAD95B88191BD95CC81B9BDD08195E1A5CDD PUSH1 0x62 SHL PUSH1 0x44 DUP3 ADD MSTORE PUSH1 0x64 ADD PUSH2 0x8CF JUMP JUMPDEST DUP1 DUP4 DUP2 SLOAD DUP2 LT PUSH2 0xC09 JUMPI PUSH2 0xC09 PUSH2 0x2147 JUMP JUMPDEST SWAP1 PUSH1 0x0 MSTORE PUSH1 0x20 PUSH1 0x0 KECCAK256 ADD SLOAD SWAP2 POP POP SWAP3 SWAP2 POP POP JUMP JUMPDEST PUSH1 0xC PUSH1 0x20 MSTORE DUP2 PUSH1 0x0 MSTORE PUSH1 0x40 PUSH1 0x0 KECCAK256 DUP2 DUP2 SLOAD DUP2 LT PUSH2 0xC39 JUMPI PUSH1 0x0 DUP1 REVERT JUMPDEST SWAP1 PUSH1 0x0 MSTORE PUSH1 0x20 PUSH1 0x0 KECCAK256 ADD PUSH1 0x0 SWAP2 POP SWAP2 POP POP SLOAD DUP2 JUMP JUMPDEST PUSH1 0x0 DUP2 DUP2 MSTORE PUSH1 0xD PUSH1 0x20 MSTORE PUSH1 0x40 SWAP1 KECCAK256 PUSH1 0x1 ADD SLOAD DUP2 SWAP1 PUSH1 0x1 PUSH1 0x1 PUSH1 0xA0 SHL SUB AND CALLER EQ PUSH2 0xC8A JUMPI PUSH1 0x40 MLOAD PUSH4 0xC69E7279 PUSH1 0xE0 SHL DUP2 MSTORE PUSH1 0x4 ADD PUSH1 0x40 MLOAD DUP1 SWAP2 SUB SWAP1 REVERT JUMPDEST PUSH1 0x0 DUP3 DUP2 MSTORE PUSH1 0xD PUSH1 0x20 MSTORE PUSH1 0x40 SWAP1 KECCAK256 PUSH1 0x3 ADD SLOAD DUP3 SWAP1 PUSH1 0x1 PUSH1 0x48 SHL SWAP1 DIV PUSH1 0xFF AND PUSH2 0xCC5 JUMPI PUSH1 0x40 MLOAD PUSH4 0xBD897D7 PUSH1 0xE4 SHL DUP2 MSTORE PUSH1 0x4 ADD PUSH1 0x40 MLOAD DUP1 SWAP2 SUB SWAP1 REVERT JUMPDEST PUSH1 0x3 PUSH1 0x0 DUP5 DUP2 MSTORE PUSH1 0xD PUSH1 0x20 MSTORE PUSH1 0x40 SWAP1 KECCAK256 PUSH1 0x3 ADD SLOAD PUSH1 0x1 PUSH1 0x40 SHL SWAP1 DIV PUSH1 0xFF AND PUSH1 0x4 DUP2 GT ISZERO PUSH2 0xCF4 JUMPI PUSH2 0xCF4 PUSH2 0x1E23 JUMP JUMPDEST EQ PUSH2 0xD12 JUMPI PUSH1 0x40 MLOAD PUSH4 0x18AEA049 PUSH1 0xE3 SHL DUP2 MSTORE PUSH1 0x4 ADD PUSH1 0x40 MLOAD DUP1 SWAP2 SUB SWAP1 REVERT JUMPDEST PUSH1 0x0 DUP4 DUP2 MSTORE PUSH1 0xD PUSH1 0x20 MSTORE PUSH1 0x40 SWAP1 KECCAK256 PUSH1 0x2 ADD SLOAD CALLVALUE EQ PUSH2 0xD43 JUMPI PUSH1 0x40 MLOAD PUSH4 0x155C70FF PUSH1 0xE0 SHL DUP2 MSTORE PUSH1 0x4 ADD PUSH1 0x40 MLOAD DUP1 SWAP2 SUB SWAP1 REVERT JUMPDEST PUSH2 0xD4D DUP5 DUP5 PUSH2 0x15E7 JUMP JUMPDEST POP POP POP POP JUMP JUMPDEST PUSH1 0x0 DUP2 DUP2 MSTORE PUSH1 0xD PUSH1 0x20 MSTORE PUSH1 0x40 SWAP1 KECCAK256 PUSH1 0x1 ADD SLOAD DUP2 SWAP1 PUSH1 0x1 PUSH1 0x1 PUSH1 0xA0 SHL SUB AND CALLER EQ PUSH2 0xD8F JUMPI PUSH1 0x40 MLOAD PUSH4 0xC69E7279 PUSH1 0xE0 SHL DUP2 MSTORE PUSH1 0x4 ADD PUSH1 0x40 MLOAD DUP1 SWAP2 SUB SWAP1 REVERT JUMPDEST DUP2 PUSH1 0xB SLOAD DUP2 GT ISZERO PUSH2 0xDB3 JUMPI PUSH1 0x40 MLOAD PUSH4 0x8C2CB5FB PUSH1 0xE0 SHL DUP2 MSTORE PUSH1 0x4 ADD PUSH1 0x40 MLOAD DUP1 SWAP2 SUB SWAP1 REVERT JUMPDEST PUSH1 0x0 DUP4 DUP2 MSTORE PUSH1 0xD PUSH1 0x20 MSTORE PUSH1 0x40 SWAP1 KECCAK256 PUSH2 0xDCB DUP6 DUP3 PUSH2 0x201D JUMP JUMPDEST POP POP POP POP POP JUMP JUMPDEST PUSH1 0x0 PUSH2 0xDDD DUP3 PUSH2 0x1772 JUMP JUMPDEST PUSH1 0x1 ADD SLOAD PUSH1 0x1 PUSH1 0x1 PUSH1 0xA0 SHL SUB AND SWAP3 SWAP2 POP POP JUMP JUMPDEST PUSH2 0xDF8 PUSH2 0x15BA JUMP JUMPDEST DUP1 PUSH1 0xB SLOAD DUP2 GT ISZERO PUSH2 0xE1C JUMPI PUSH1 0x40 MLOAD PUSH4 0x8C2CB5FB PUSH1 0xE0 SHL DUP2 MSTORE PUSH1 0x4 ADD PUSH1 0x40 MLOAD DUP1 SWAP2 SUB SWAP1 REVERT JUMPDEST POP PUSH1 0x0 SWAP1 DUP2 MSTORE PUSH1 0xD PUSH1 0x20 MSTORE PUSH1 0x40 SWAP1 KECCAK256 PUSH1 0x1 ADD DUP1 SLOAD PUSH1 0x1 PUSH1 0x1 PUSH1 0xA0 SHL SUB NOT AND PUSH1 0x1 PUSH1 0x1 PUSH1 0xA0 SHL SUB SWAP3 SWAP1 SWAP3 AND SWAP2 SWAP1 SWAP2 OR SWAP1 SSTORE JUMP JUMPDEST PUSH2 0xE56 PUSH2 0x15BA JUMP JUMPDEST PUSH2 0xE60 PUSH1 0x0 PUSH2 0x17D1 JUMP JUMPDEST JUMP JUMPDEST PUSH1 0x0 DUP2 DUP2 MSTORE PUSH1 0xD PUSH1 0x20 MSTORE PUSH1 0x40 SWAP1 KECCAK256 PUSH1 0x3 ADD SLOAD DUP2 SWAP1 PUSH1 0x1 PUSH1 0x48 SHL SWAP1 DIV PUSH1 0xFF AND PUSH2 0xE9D JUMPI PUSH1 0x40 MLOAD PUSH4 0xBD897D7 PUSH1 0xE4 SHL DUP2 MSTORE PUSH1 0x4 ADD PUSH1 0x40 MLOAD DUP1 SWAP2 SUB SWAP1 REVERT JUMPDEST PUSH1 0x0 DUP1 DUP4 DUP2 MSTORE PUSH1 0xD PUSH1 0x20 MSTORE PUSH1 0x40 SWAP1 KECCAK256 PUSH1 0x3 ADD SLOAD PUSH1 0x1 PUSH1 0x40 SHL SWAP1 DIV PUSH1 0xFF AND PUSH1 0x4 DUP2 GT ISZERO PUSH2 0xECB JUMPI PUSH2 0xECB PUSH2 0x1E23 JUMP JUMPDEST EQ PUSH2 0xEE9 JUMPI PUSH1 0x40 MLOAD PUSH4 0x408D2FD PUSH1 0xE1 SHL DUP2 MSTORE PUSH1 0x4 ADD PUSH1 0x40 MLOAD DUP1 SWAP2 SUB SWAP1 REVERT JUMPDEST PUSH2 0x8F0 DUP4 DUP4 PUSH2 0x15E7 JUMP JUMPDEST PUSH1 0x0 DUP3 DUP2 MSTORE PUSH1 0xD PUSH1 0x20 MSTORE PUSH1 0x40 SWAP1 KECCAK256 PUSH1 0x1 ADD SLOAD DUP3 SWAP1 PUSH1 0x1 PUSH1 0x1 PUSH1 0xA0 SHL SUB AND CALLER EQ PUSH2 0xF2F JUMPI PUSH1 0x40 MLOAD PUSH4 0xC69E7279 PUSH1 0xE0 SHL DUP2 MSTORE PUSH1 0x4 ADD PUSH1 0x40 MLOAD DUP1 SWAP2 SUB SWAP1 REVERT JUMPDEST DUP3 PUSH1 0xB SLOAD DUP2 GT ISZERO PUSH2 0xF53 JUMPI PUSH1 0x40 MLOAD PUSH4 0x8C2CB5FB PUSH1 0xE0 SHL DUP2 MSTORE PUSH1 0x4 ADD PUSH1 0x40 MLOAD DUP1 SWAP2 SUB SWAP1 REVERT JUMPDEST POP POP PUSH1 0x0 SWAP2 DUP3 MSTORE PUSH1 0xD PUSH1 0x20 MSTORE PUSH1 0x40 SWAP1 SWAP2 KECCAK256 PUSH1 0x3 ADD DUP1 SLOAD PUSH8 0xFFFFFFFFFFFFFFFF NOT AND PUSH1 0x1 PUSH1 0x1 PUSH1 0x40 SHL SUB SWAP1 SWAP3 AND SWAP2 SWAP1 SWAP2 OR SWAP1 SSTORE JUMP JUMPDEST PUSH1 0x1 PUSH1 0x1 PUSH1 0xA0 SHL SUB DUP2 AND PUSH1 0x0 SWAP1 DUP2 MSTORE PUSH1 0x2 PUSH1 0x20 SWAP1 DUP2 MSTORE PUSH1 0x40 SWAP2 DUP3 SWAP1 KECCAK256 DUP1 SLOAD DUP4 MLOAD DUP2 DUP5 MUL DUP2 ADD DUP5 ADD SWAP1 SWAP5 MSTORE DUP1 DUP5 MSTORE PUSH1 0x60 SWAP4 SWAP3 DUP4 ADD DUP3 DUP3 DUP1 ISZERO PUSH2 0xFE7 JUMPI PUSH1 0x20 MUL DUP3 ADD SWAP2 SWAP1 PUSH1 0x0 MSTORE PUSH1 0x20 PUSH1 0x0 KECCAK256 SWAP1 JUMPDEST DUP2 SLOAD DUP2 MSTORE PUSH1 0x20 ADD SWAP1 PUSH1 0x1 ADD SWAP1 DUP1 DUP4 GT PUSH2 0xFD3 JUMPI JUMPDEST POP POP POP POP POP SWAP1 POP SWAP2 SWAP1 POP JUMP JUMPDEST PUSH1 0x60 PUSH1 0x6 DUP1 SLOAD PUSH2 0x770 SWAP1 PUSH2 0x1F9C JUMP JUMPDEST PUSH1 0x1 PUSH1 0x1 PUSH1 0xA0 SHL SUB DUP2 AND PUSH1 0x0 SWAP1 DUP2 MSTORE PUSH1 0xC PUSH1 0x20 SWAP1 DUP2 MSTORE PUSH1 0x40 SWAP2 DUP3 SWAP1 KECCAK256 DUP1 SLOAD DUP4 MLOAD DUP2 DUP5 MUL DUP2 ADD DUP5 ADD SWAP1 SWAP5 MSTORE DUP1 DUP5 MSTORE PUSH1 0x60 SWAP4 SWAP3 DUP4 ADD DUP3 DUP3 DUP1 ISZERO PUSH2 0xFE7 JUMPI PUSH1 0x20 MUL DUP3 ADD SWAP2 SWAP1 PUSH1 0x0 MSTORE PUSH1 0x20 PUSH1 0x0 KECCAK256 SWAP1 DUP2 SLOAD DUP2 MSTORE PUSH1 0x20 ADD SWAP1 PUSH1 0x1 ADD SWAP1 DUP1 DUP4 GT PUSH2 0xFD3 JUMPI POP POP POP POP POP SWAP1 POP SWAP2 SWAP1 POP JUMP JUMPDEST PUSH1 0x0 DUP2 DUP2 MSTORE PUSH1 0xD PUSH1 0x20 MSTORE PUSH1 0x40 SWAP1 KECCAK256 PUSH1 0x3 ADD SLOAD DUP2 SWAP1 PUSH1 0x1 PUSH1 0x48 SHL SWAP1 DIV PUSH1 0xFF AND PUSH2 0x10A7 JUMPI PUSH1 0x40 MLOAD PUSH4 0xBD897D7 PUSH1 0xE4 SHL DUP2 MSTORE PUSH1 0x4 ADD PUSH1 0x40 MLOAD DUP1 SWAP2 SUB SWAP1 REVERT JUMPDEST PUSH1 0x4 PUSH1 0x0 DUP4 DUP2 MSTORE PUSH1 0xD PUSH1 0x20 MSTORE PUSH1 0x40 SWAP1 KECCAK256 PUSH1 0x3 ADD SLOAD PUSH1 0x1 PUSH1 0x40 SHL SWAP1 DIV PUSH1 0xFF AND PUSH1 0x4 DUP2 GT ISZERO PUSH2 0x10D6 JUMPI PUSH2 0x10D6 PUSH2 0x1E23 JUMP JUMPDEST EQ PUSH2 0x10F4 JUMPI PUSH1 0x40 MLOAD PUSH4 0xD21787B5 PUSH1 0xE0 SHL DUP2 MSTORE PUSH1 0x4 ADD PUSH1 0x40 MLOAD DUP1 SWAP2 SUB SWAP1 REVERT JUMPDEST PUSH1 0x0 DUP3 DUP2 MSTORE PUSH1 0xE PUSH1 0x20 SWAP1 DUP2 MSTORE PUSH1 0x40 DUP1 DUP4 KECCAK256 PUSH1 0x1 PUSH1 0x1 PUSH1 0xA0 SHL SUB DUP8 AND DUP5 MSTORE SWAP1 SWAP2 MSTORE SWAP1 KECCAK256 SLOAD PUSH1 0xFF AND PUSH2 0xEE9 JUMPI PUSH1 0x40 MLOAD PUSH4 0xD2447005 PUSH1 0xE0 SHL DUP2 MSTORE PUSH1 0x4 ADD PUSH1 0x40 MLOAD DUP1 SWAP2 SUB SWAP1 REVERT JUMPDEST PUSH1 0xD PUSH1 0x20 MSTORE PUSH1 0x0 SWAP1 DUP2 MSTORE PUSH1 0x40 SWAP1 KECCAK256 DUP1 SLOAD DUP2 SWAP1 PUSH2 0x1152 SWAP1 PUSH2 0x1F9C JUMP JUMPDEST DUP1 PUSH1 0x1F ADD PUSH1 0x20 DUP1 SWAP2 DIV MUL PUSH1 0x20 ADD PUSH1 0x40 MLOAD SWAP1 DUP2 ADD PUSH1 0x40 MSTORE DUP1 SWAP3 SWAP2 SWAP1 DUP2 DUP2 MSTORE PUSH1 0x20 ADD DUP3 DUP1 SLOAD PUSH2 0x117E SWAP1 PUSH2 0x1F9C JUMP JUMPDEST DUP1 ISZERO PUSH2 0x11CB JUMPI DUP1 PUSH1 0x1F LT PUSH2 0x11A0 JUMPI PUSH2 0x100 DUP1 DUP4 SLOAD DIV MUL DUP4 MSTORE SWAP2 PUSH1 0x20 ADD SWAP2 PUSH2 0x11CB JUMP JUMPDEST DUP3 ADD SWAP2 SWAP1 PUSH1 0x0 MSTORE PUSH1 0x20 PUSH1 0x0 KECCAK256 SWAP1 JUMPDEST DUP2 SLOAD DUP2 MSTORE SWAP1 PUSH1 0x1 ADD SWAP1 PUSH1 0x20 ADD DUP1 DUP4 GT PUSH2 0x11AE JUMPI DUP3 SWAP1 SUB PUSH1 0x1F AND DUP3 ADD SWAP2 JUMPDEST POP POP POP PUSH1 0x1 DUP5 ADD SLOAD PUSH1 0x2 DUP6 ADD SLOAD PUSH1 0x3 SWAP1 SWAP6 ADD SLOAD SWAP4 SWAP5 PUSH1 0x1 PUSH1 0x1 PUSH1 0xA0 SHL SUB SWAP1 SWAP2 AND SWAP4 SWAP1 SWAP3 POP PUSH1 0x1 PUSH1 0x1 PUSH1 0x40 SHL SUB DUP2 AND SWAP2 POP PUSH1 0xFF PUSH1 0x1 PUSH1 0x40 SHL DUP3 DIV DUP2 AND SWAP2 PUSH1 0x1 PUSH1 0x48 SHL SWAP1 DIV AND DUP7 JUMP JUMPDEST PUSH1 0x60 PUSH2 0x121D DUP3 PUSH2 0x1772 JUMP JUMPDEST POP PUSH1 0x0 DUP3 DUP2 MSTORE PUSH1 0x1 PUSH1 0x20 MSTORE PUSH1 0x40 SWAP1 KECCAK256 DUP1 SLOAD PUSH2 0x1237 SWAP1 PUSH2 0x1F9C JUMP JUMPDEST DUP1 PUSH1 0x1F ADD PUSH1 0x20 DUP1 SWAP2 DIV MUL PUSH1 0x20 ADD PUSH1 0x40 MLOAD SWAP1 DUP2 ADD PUSH1 0x40 MSTORE DUP1 SWAP3 SWAP2 SWAP1 DUP2 DUP2 MSTORE PUSH1 0x20 ADD DUP3 DUP1 SLOAD PUSH2 0x1263 SWAP1 PUSH2 0x1F9C JUMP JUMPDEST DUP1 ISZERO PUSH2 0xFE7 JUMPI DUP1 PUSH1 0x1F LT PUSH2 0x1285 JUMPI PUSH2 0x100 DUP1 DUP4 SLOAD DIV MUL DUP4 MSTORE SWAP2 PUSH1 0x20 ADD SWAP2 PUSH2 0xFE7 JUMP JUMPDEST DUP3 ADD SWAP2 SWAP1 PUSH1 0x0 MSTORE PUSH1 0x20 PUSH1 0x0 KECCAK256 SWAP1 JUMPDEST DUP2 SLOAD DUP2 MSTORE SWAP1 PUSH1 0x1 ADD SWAP1 PUSH1 0x20 ADD DUP1 DUP4 GT PUSH2 0x1293 JUMPI POP SWAP4 SWAP7 SWAP6 POP POP POP POP POP POP JUMP JUMPDEST PUSH2 0x12BA PUSH2 0x15BA JUMP JUMPDEST PUSH1 0x0 DUP2 DUP2 MSTORE PUSH1 0xD PUSH1 0x20 MSTORE PUSH1 0x40 SWAP1 KECCAK256 PUSH1 0x3 ADD SLOAD DUP2 SWAP1 PUSH1 0x1 PUSH1 0x48 SHL SWAP1 DIV PUSH1 0xFF AND PUSH2 0x12F5 JUMPI PUSH1 0x40 MLOAD PUSH4 0xBD897D7 PUSH1 0xE4 SHL DUP2 MSTORE PUSH1 0x4 ADD PUSH1 0x40 MLOAD DUP1 SWAP2 SUB SWAP1 REVERT JUMPDEST PUSH1 0x1 PUSH1 0x0 DUP4 DUP2 MSTORE PUSH1 0xD PUSH1 0x20 MSTORE PUSH1 0x40 SWAP1 KECCAK256 PUSH1 0x3 ADD SLOAD PUSH1 0x1 PUSH1 0x40 SHL SWAP1 DIV PUSH1 0xFF AND PUSH1 0x4 DUP2 GT ISZERO PUSH2 0x1324 JUMPI PUSH2 0x1324 PUSH2 0x1E23 JUMP JUMPDEST EQ PUSH2 0xEE9 JUMPI PUSH1 0x40 MLOAD PUSH4 0x79BA471B PUSH1 0xE1 SHL DUP2 MSTORE PUSH1 0x4 ADD PUSH1 0x40 MLOAD DUP1 SWAP2 SUB SWAP1 REVERT JUMPDEST PUSH1 0x0 DUP3 DUP2 MSTORE PUSH1 0xD PUSH1 0x20 MSTORE PUSH1 0x40 DUP2 KECCAK256 PUSH1 0x1 ADD SLOAD DUP4 SWAP1 PUSH1 0x1 PUSH1 0x1 PUSH1 0xA0 SHL SUB AND CALLER EQ PUSH2 0x137E JUMPI PUSH1 0x40 MLOAD PUSH4 0xC69E7279 PUSH1 0xE0 SHL DUP2 MSTORE PUSH1 0x4 ADD PUSH1 0x40 MLOAD DUP1 SWAP2 SUB SWAP1 REVERT JUMPDEST PUSH1 0x0 JUMPDEST DUP6 MLOAD DUP2 LT ISZERO PUSH2 0x13E9 JUMPI PUSH1 0x0 DUP6 DUP2 MSTORE PUSH1 0xE PUSH1 0x20 MSTORE PUSH1 0x40 DUP2 KECCAK256 DUP8 MLOAD DUP7 SWAP3 SWAP1 DUP10 SWAP1 DUP6 SWAP1 DUP2 LT PUSH2 0x13AF JUMPI PUSH2 0x13AF PUSH2 0x2147 JUMP JUMPDEST PUSH1 0x20 SWAP1 DUP2 MUL SWAP2 SWAP1 SWAP2 ADD DUP2 ADD MLOAD PUSH1 0x1 PUSH1 0x1 PUSH1 0xA0 SHL SUB AND DUP3 MSTORE DUP2 ADD SWAP2 SWAP1 SWAP2 MSTORE PUSH1 0x40 ADD PUSH1 0x0 KECCAK256 DUP1 SLOAD PUSH1 0xFF NOT AND SWAP2 ISZERO ISZERO SWAP2 SWAP1 SWAP2 OR SWAP1 SSTORE PUSH1 0x1 ADD PUSH2 0x1381 JUMP JUMPDEST POP PUSH1 0x1 SWAP6 SWAP5 POP POP POP POP POP JUMP JUMPDEST PUSH1 0x0 DUP2 DUP2 MSTORE PUSH1 0xD PUSH1 0x20 MSTORE PUSH1 0x40 SWAP1 KECCAK256 PUSH1 0x1 ADD SLOAD DUP2 SWAP1 PUSH1 0x1 PUSH1 0x1 PUSH1 0xA0 SHL SUB AND CALLER EQ PUSH2 0x1431 JUMPI PUSH1 0x40 MLOAD PUSH4 0xC69E7279 PUSH1 0xE0 SHL DUP2 MSTORE PUSH1 0x4 ADD PUSH1 0x40 MLOAD DUP1 SWAP2 SUB SWAP1 REVERT JUMPDEST PUSH1 0x0 DUP3 DUP2 MSTORE PUSH1 0xD PUSH1 0x20 MSTORE PUSH1 0x40 SWAP1 KECCAK256 PUSH1 0x3 ADD SLOAD DUP3 SWAP1 PUSH1 0x1 PUSH1 0x48 SHL SWAP1 DIV PUSH1 0xFF AND PUSH2 0x146C JUMPI PUSH1 0x40 MLOAD PUSH4 0xBD897D7 PUSH1 0xE4 SHL DUP2 MSTORE PUSH1 0x4 ADD PUSH1 0x40 MLOAD DUP1 SWAP2 SUB SWAP1 REVERT JUMPDEST PUSH1 0x2 PUSH1 0x0 DUP5 DUP2 MSTORE PUSH1 0xD PUSH1 0x20 MSTORE PUSH1 0x40 SWAP1 KECCAK256 PUSH1 0x3 ADD SLOAD PUSH1 0x1 PUSH1 0x40 SHL SWAP1 DIV PUSH1 0xFF AND PUSH1 0x4 DUP2 GT ISZERO PUSH2 0x149B JUMPI PUSH2 0x149B PUSH2 0x1E23 JUMP JUMPDEST EQ PUSH2 0xD43 JUMPI PUSH1 0x40 MLOAD PUSH4 0x1DD17E6D PUSH1 0xE3 SHL DUP2 MSTORE PUSH1 0x4 ADD PUSH1 0x40 MLOAD DUP1 SWAP2 SUB SWAP1 REVERT JUMPDEST PUSH2 0x14C1 PUSH2 0x15BA JUMP JUMPDEST PUSH1 0x1 PUSH1 0x1 PUSH1 0xA0 SHL SUB DUP2 AND PUSH2 0x14EB JUMPI PUSH1 0x40 MLOAD PUSH4 0x1E4FBDF7 PUSH1 0xE0 SHL DUP2 MSTORE PUSH1 0x0 PUSH1 0x4 DUP3 ADD MSTORE PUSH1 0x24 ADD PUSH2 0x8CF JUMP JUMPDEST PUSH2 0x14F4 DUP2 PUSH2 0x17D1 JUMP JUMPDEST POP JUMP JUMPDEST PUSH1 0x0 PUSH2 0x1502 DUP3 PUSH2 0x1772 JUMP JUMPDEST PUSH1 0x1 ADD SLOAD PUSH1 0x1 PUSH1 0xA0 SHL SWAP1 DIV PUSH1 0xFF AND SWAP3 SWAP2 POP POP JUMP JUMPDEST PUSH1 0x0 DUP3 DUP2 MSTORE PUSH1 0xD PUSH1 0x20 MSTORE PUSH1 0x40 SWAP1 KECCAK256 PUSH1 0x1 ADD SLOAD DUP3 SWAP1 PUSH1 0x1 PUSH1 0x1 PUSH1 0xA0 SHL SUB AND CALLER EQ PUSH2 0x1552 JUMPI PUSH1 0x40 MLOAD PUSH4 0xC69E7279 PUSH1 0xE0 SHL DUP2 MSTORE PUSH1 0x4 ADD PUSH1 0x40 MLOAD DUP1 SWAP2 SUB SWAP1 REVERT JUMPDEST DUP3 PUSH1 0xB SLOAD DUP2 GT ISZERO PUSH2 0x1576 JUMPI PUSH1 0x40 MLOAD PUSH4 0x8C2CB5FB PUSH1 0xE0 SHL DUP2 MSTORE PUSH1 0x4 ADD PUSH1 0x40 MLOAD DUP1 SWAP2 SUB SWAP1 REVERT JUMPDEST PUSH1 0x0 DUP5 DUP2 MSTORE PUSH1 0xD PUSH1 0x20 MSTORE PUSH1 0x40 SWAP1 KECCAK256 PUSH1 0x3 ADD DUP1 SLOAD DUP5 SWAP2 SWAP1 PUSH9 0xFF0000000000000000 NOT AND PUSH1 0x1 PUSH1 0x40 SHL DUP4 PUSH1 0x4 DUP2 GT ISZERO PUSH2 0x15AF JUMPI PUSH2 0x15AF PUSH2 0x1E23 JUMP JUMPDEST MUL OR SWAP1 SSTORE POP POP POP POP POP JUMP JUMPDEST PUSH1 0xA SLOAD PUSH1 0x1 PUSH1 0x1 PUSH1 0xA0 SHL SUB AND CALLER EQ PUSH2 0xE60 JUMPI PUSH1 0x40 MLOAD PUSH4 0x118CDAA7 PUSH1 0xE0 SHL DUP2 MSTORE CALLER PUSH1 0x4 DUP3 ADD MSTORE PUSH1 0x24 ADD PUSH2 0x8CF JUMP JUMPDEST PUSH1 0xB SLOAD DUP2 GT ISZERO PUSH2 0x160A JUMPI PUSH1 0x40 MLOAD PUSH4 0x8C2CB5FB PUSH1 0xE0 SHL DUP2 MSTORE PUSH1 0x4 ADD PUSH1 0x40 MLOAD DUP1 SWAP2 SUB SWAP1 REVERT JUMPDEST PUSH1 0x0 DUP2 DUP2 MSTORE PUSH1 0xD PUSH1 0x20 SWAP1 DUP2 MSTORE PUSH1 0x40 DUP1 DUP4 KECCAK256 PUSH1 0x3 ADD SLOAD PUSH1 0x1 PUSH1 0x1 PUSH1 0xA0 SHL SUB DUP7 AND DUP5 MSTORE PUSH1 0xC SWAP1 SWAP3 MSTORE SWAP1 SWAP2 KECCAK256 SLOAD PUSH1 0x1 PUSH1 0x1 PUSH1 0x40 SHL SUB SWAP1 SWAP2 AND GT PUSH2 0x165D JUMPI PUSH1 0x40 MLOAD PUSH4 0x5D0EFCB1 PUSH1 0xE0 SHL DUP2 MSTORE PUSH1 0x4 ADD PUSH1 0x40 MLOAD DUP1 SWAP2 SUB SWAP1 REVERT JUMPDEST PUSH1 0x0 PUSH2 0x1668 DUP4 PUSH2 0x1823 JUMP JUMPDEST PUSH1 0x1 PUSH1 0x1 PUSH1 0xA0 SHL SUB DUP5 AND PUSH1 0x0 SWAP1 DUP2 MSTORE PUSH1 0xC PUSH1 0x20 SWAP1 DUP2 MSTORE PUSH1 0x40 DUP1 DUP4 KECCAK256 DUP1 SLOAD PUSH1 0x1 DUP2 ADD DUP3 SSTORE SWAP1 DUP5 MSTORE DUP3 DUP5 KECCAK256 ADD DUP5 SWAP1 SSTORE DUP6 DUP4 MSTORE PUSH1 0xD SWAP1 SWAP2 MSTORE SWAP1 KECCAK256 DUP1 SLOAD SWAP2 SWAP3 POP PUSH2 0x1737 SWAP2 DUP4 SWAP2 SWAP1 PUSH2 0x16B4 SWAP1 PUSH2 0x1F9C JUMP JUMPDEST DUP1 PUSH1 0x1F ADD PUSH1 0x20 DUP1 SWAP2 DIV MUL PUSH1 0x20 ADD PUSH1 0x40 MLOAD SWAP1 DUP2 ADD PUSH1 0x40 MSTORE DUP1 SWAP3 SWAP2 SWAP1 DUP2 DUP2 MSTORE PUSH1 0x20 ADD DUP3 DUP1 SLOAD PUSH2 0x16E0 SWAP1 PUSH2 0x1F9C JUMP JUMPDEST DUP1 ISZERO PUSH2 0x172D JUMPI DUP1 PUSH1 0x1F LT PUSH2 0x1702 JUMPI PUSH2 0x100 DUP1 DUP4 SLOAD DIV MUL DUP4 MSTORE SWAP2 PUSH1 0x20 ADD SWAP2 PUSH2 0x172D JUMP JUMPDEST DUP3 ADD SWAP2 SWAP1 PUSH1 0x0 MSTORE PUSH1 0x20 PUSH1 0x0 KECCAK256 SWAP1 JUMPDEST DUP2 SLOAD DUP2 MSTORE SWAP1 PUSH1 0x1 ADD SWAP1 PUSH1 0x20 ADD DUP1 DUP4 GT PUSH2 0x1710 JUMPI DUP3 SWAP1 SUB PUSH1 0x1F AND DUP3 ADD SWAP2 JUMPDEST POP POP POP POP POP PUSH2 0x86A JUMP JUMPDEST PUSH1 0x40 MLOAD DUP2 SWAP1 PUSH1 0x1 PUSH1 0x1 PUSH1 0xA0 SHL SUB DUP6 AND SWAP1 PUSH32 0xB9144C96C86541F6FA89C9F2F02495CCCF4B08CD6643E26D34EE00AA586558A8 SWAP1 PUSH1 0x0 SWAP1 LOG3 POP POP POP JUMP JUMPDEST PUSH1 0x0 DUP2 DUP2 MSTORE PUSH1 0x20 DUP2 SWAP1 MSTORE PUSH1 0x40 DUP2 KECCAK256 PUSH1 0x1 DUP2 ADD SLOAD PUSH1 0x1 PUSH1 0x1 PUSH1 0xA0 SHL SUB AND PUSH2 0x75B JUMPI PUSH1 0x40 MLOAD PUSH3 0x461BCD PUSH1 0xE5 SHL DUP2 MSTORE PUSH1 0x20 PUSH1 0x4 DUP3 ADD MSTORE PUSH1 0x14 PUSH1 0x24 DUP3 ADD MSTORE PUSH20 0x151BDAD95B88191BD95CC81B9BDD08195E1A5CDD PUSH1 0x62 SHL PUSH1 0x44 DUP3 ADD MSTORE PUSH1 0x64 ADD PUSH2 0x8CF JUMP JUMPDEST PUSH1 0xA DUP1 SLOAD PUSH1 0x1 PUSH1 0x1 PUSH1 0xA0 SHL SUB DUP4 DUP2 AND PUSH1 0x1 PUSH1 0x1 PUSH1 0xA0 SHL SUB NOT DUP4 AND DUP2 OR SWAP1 SWAP4 SSTORE PUSH1 0x40 MLOAD SWAP2 AND SWAP2 SWAP1 DUP3 SWAP1 PUSH32 0x8BE0079C531659141344CD1FD0A4F28419497F9722A3DAAFE3B4186F6B6457E0 SWAP1 PUSH1 0x0 SWAP1 LOG3 POP POP JUMP JUMPDEST PUSH1 0x7 SLOAD PUSH2 0x1832 DUP3 DUP3 PUSH1 0x1 PUSH2 0x1892 JUMP JUMPDEST PUSH1 0x40 DUP1 MLOAD PUSH1 0x1 PUSH1 0x1 PUSH1 0xA0 SHL SUB DUP5 AND DUP2 MSTORE PUSH1 0x20 DUP2 ADD DUP4 SWAP1 MSTORE PUSH32 0x30385C845B448A36257A6A1716E6AD2E1BC2CBE333CDE1E69FE849AD6511ADFE SWAP2 ADD PUSH1 0x40 MLOAD DUP1 SWAP2 SUB SWAP1 LOG1 PUSH1 0x1 PUSH1 0x7 PUSH1 0x0 DUP3 DUP3 SLOAD PUSH2 0x1887 SWAP2 SWAP1 PUSH2 0x215D JUMP JUMPDEST SWAP1 SWAP2 SSTORE POP SWAP1 SWAP3 SWAP2 POP POP JUMP JUMPDEST PUSH1 0x0 DUP3 DUP2 MSTORE PUSH1 0x20 DUP2 SWAP1 MSTORE PUSH1 0x40 SWAP1 KECCAK256 PUSH1 0x1 ADD SLOAD PUSH1 0x1 PUSH1 0x1 PUSH1 0xA0 SHL SUB AND ISZERO PUSH2 0x18FA JUMPI PUSH1 0x40 MLOAD PUSH3 0x461BCD PUSH1 0xE5 SHL DUP2 MSTORE PUSH1 0x20 PUSH1 0x4 DUP3 ADD MSTORE PUSH1 0x1D PUSH1 0x24 DUP3 ADD MSTORE PUSH32 0x43616E6E6F74206D696E7420616E2061737369676E656420746F6B656E000000 PUSH1 0x44 DUP3 ADD MSTORE PUSH1 0x64 ADD PUSH2 0x8CF JUMP JUMPDEST PUSH1 0x1 PUSH1 0x1 PUSH1 0xA0 SHL SUB DUP4 AND PUSH1 0x0 SWAP1 DUP2 MSTORE PUSH1 0x2 PUSH1 0x20 MSTORE PUSH1 0x40 DUP2 KECCAK256 SLOAD SWAP1 SUB PUSH2 0x1932 JUMPI PUSH1 0x1 PUSH1 0x8 PUSH1 0x0 DUP3 DUP3 SLOAD PUSH2 0x192C SWAP2 SWAP1 PUSH2 0x215D JUMP JUMPDEST SWAP1 SWAP2 SSTORE POP POP JUMPDEST PUSH1 0x40 DUP1 MLOAD PUSH1 0x60 DUP2 ADD DUP3 MSTORE CALLER DUP2 MSTORE PUSH1 0x1 PUSH1 0x1 PUSH1 0xA0 SHL SUB DUP6 DUP2 AND PUSH1 0x20 DUP1 DUP5 ADD DUP3 DUP2 MSTORE DUP7 ISZERO DUP1 ISZERO DUP7 DUP9 ADD SWAP1 DUP2 MSTORE PUSH1 0x0 DUP11 DUP2 MSTORE DUP1 DUP6 MSTORE DUP9 DUP2 KECCAK256 SWAP8 MLOAD DUP9 SLOAD SWAP1 DUP9 AND PUSH1 0x1 PUSH1 0x1 PUSH1 0xA0 SHL SUB NOT SWAP1 SWAP2 AND OR DUP9 SSTORE SWAP3 MLOAD PUSH1 0x1 SWAP8 DUP9 ADD DUP1 SLOAD SWAP3 MLOAD ISZERO ISZERO PUSH1 0x1 PUSH1 0xA0 SHL MUL PUSH1 0x1 PUSH1 0x1 PUSH1 0xA8 SHL SUB NOT SWAP1 SWAP4 AND SWAP2 SWAP1 SWAP8 AND OR OR SWAP1 SWAP5 SSTORE SWAP2 DUP3 MSTORE PUSH1 0x2 DUP1 DUP3 MSTORE DUP6 DUP4 KECCAK256 DUP1 SLOAD PUSH1 0x3 DUP5 MSTORE DUP8 DUP6 KECCAK256 DUP11 DUP7 MSTORE DUP5 MSTORE SWAP7 DUP5 KECCAK256 DUP8 SWAP1 SSTORE SWAP1 DUP3 MSTORE SWAP4 DUP6 ADD DUP5 SSTORE SWAP3 DUP2 MSTORE SWAP2 SWAP1 SWAP2 KECCAK256 SWAP1 SWAP2 ADD DUP4 SWAP1 SSTORE PUSH2 0x8F0 JUMPI PUSH1 0x1 PUSH1 0x1 PUSH1 0xA0 SHL SUB DUP4 AND PUSH1 0x0 SWAP1 DUP2 MSTORE PUSH1 0x4 PUSH1 0x20 MSTORE PUSH1 0x40 DUP2 KECCAK256 DUP1 SLOAD PUSH1 0x1 SWAP3 SWAP1 PUSH2 0x1A06 SWAP1 DUP5 SWAP1 PUSH2 0x215D JUMP JUMPDEST SWAP1 SWAP2 SSTORE POP POP POP POP POP JUMP JUMPDEST PUSH1 0x0 PUSH1 0x20 DUP3 DUP5 SUB SLT ISZERO PUSH2 0x1A22 JUMPI PUSH1 0x0 DUP1 REVERT JUMPDEST DUP2 CALLDATALOAD PUSH1 0x1 PUSH1 0x1 PUSH1 0xE0 SHL SUB NOT DUP2 AND DUP2 EQ PUSH2 0x1A3A JUMPI PUSH1 0x0 DUP1 REVERT JUMPDEST SWAP4 SWAP3 POP POP POP JUMP JUMPDEST PUSH1 0x0 DUP2 MLOAD DUP1 DUP5 MSTORE PUSH1 0x0 JUMPDEST DUP2 DUP2 LT ISZERO PUSH2 0x1A67 JUMPI PUSH1 0x20 DUP2 DUP6 ADD DUP2 ADD MLOAD DUP7 DUP4 ADD DUP3 ADD MSTORE ADD PUSH2 0x1A4B JUMP JUMPDEST POP PUSH1 0x0 PUSH1 0x20 DUP3 DUP7 ADD ADD MSTORE PUSH1 0x20 PUSH1 0x1F NOT PUSH1 0x1F DUP4 ADD AND DUP6 ADD ADD SWAP2 POP POP SWAP3 SWAP2 POP POP JUMP JUMPDEST PUSH1 0x20 DUP2 MSTORE PUSH1 0x0 PUSH2 0x1A3A PUSH1 0x20 DUP4 ADD DUP5 PUSH2 0x1A41 JUMP JUMPDEST DUP1 CALLDATALOAD PUSH1 0x1 PUSH1 0x1 PUSH1 0xA0 SHL SUB DUP2 AND DUP2 EQ PUSH2 0x1AB1 JUMPI PUSH1 0x0 DUP1 REVERT JUMPDEST SWAP2 SWAP1 POP JUMP JUMPDEST DUP1 CALLDATALOAD DUP1 ISZERO ISZERO DUP2 EQ PUSH2 0x1AB1 JUMPI PUSH1 0x0 DUP1 REVERT JUMPDEST PUSH1 0x0 DUP1 PUSH1 0x0 PUSH1 0x60 DUP5 DUP7 SUB SLT ISZERO PUSH2 0x1ADB JUMPI PUSH1 0x0 DUP1 REVERT JUMPDEST PUSH2 0x1AE4 DUP5 PUSH2 0x1A9A JUMP JUMPDEST SWAP3 POP PUSH1 0x20 DUP5 ADD CALLDATALOAD SWAP2 POP PUSH2 0x1AF9 PUSH1 0x40 DUP6 ADD PUSH2 0x1AB6 JUMP JUMPDEST SWAP1 POP SWAP3 POP SWAP3 POP SWAP3 JUMP JUMPDEST PUSH4 0x4E487B71 PUSH1 0xE0 SHL PUSH1 0x0 MSTORE PUSH1 0x41 PUSH1 0x4 MSTORE PUSH1 0x24 PUSH1 0x0 REVERT JUMPDEST PUSH1 0x40 MLOAD PUSH1 0x1F DUP3 ADD PUSH1 0x1F NOT AND DUP2 ADD PUSH1 0x1 PUSH1 0x1 PUSH1 0x40 SHL SUB DUP2 GT DUP3 DUP3 LT OR ISZERO PUSH2 0x1B40 JUMPI PUSH2 0x1B40 PUSH2 0x1B02 JUMP JUMPDEST PUSH1 0x40 MSTORE SWAP2 SWAP1 POP JUMP JUMPDEST PUSH1 0x0 DUP3 PUSH1 0x1F DUP4 ADD SLT PUSH2 0x1B59 JUMPI PUSH1 0x0 DUP1 REVERT JUMPDEST DUP2 CALLDATALOAD PUSH1 0x1 PUSH1 0x1 PUSH1 0x40 SHL SUB DUP2 GT ISZERO PUSH2 0x1B72 JUMPI PUSH2 0x1B72 PUSH2 0x1B02 JUMP JUMPDEST PUSH2 0x1B85 PUSH1 0x1F DUP3 ADD PUSH1 0x1F NOT AND PUSH1 0x20 ADD PUSH2 0x1B18 JUMP JUMPDEST DUP2 DUP2 MSTORE DUP5 PUSH1 0x20 DUP4 DUP7 ADD ADD GT ISZERO PUSH2 0x1B9A JUMPI PUSH1 0x0 DUP1 REVERT JUMPDEST DUP2 PUSH1 0x20 DUP6 ADD PUSH1 0x20 DUP4 ADD CALLDATACOPY PUSH1 0x0 SWAP2 DUP2 ADD PUSH1 0x20 ADD SWAP2 SWAP1 SWAP2 MSTORE SWAP4 SWAP3 POP POP POP JUMP JUMPDEST PUSH1 0x0 DUP1 PUSH1 0x40 DUP4 DUP6 SUB SLT ISZERO PUSH2 0x1BCA JUMPI PUSH1 0x0 DUP1 REVERT JUMPDEST DUP3 CALLDATALOAD SWAP2 POP PUSH1 0x20 DUP4 ADD CALLDATALOAD PUSH1 0x1 PUSH1 0x1 PUSH1 0x40 SHL SUB DUP2 GT ISZERO PUSH2 0x1BE7 JUMPI PUSH1 0x0 DUP1 REVERT JUMPDEST PUSH2 0x1BF3 DUP6 DUP3 DUP7 ADD PUSH2 0x1B48 JUMP JUMPDEST SWAP2 POP POP SWAP3 POP SWAP3 SWAP1 POP JUMP JUMPDEST DUP1 CALLDATALOAD PUSH1 0x1 PUSH1 0x1 PUSH1 0x40 SHL SUB DUP2 AND DUP2 EQ PUSH2 0x1AB1 JUMPI PUSH1 0x0 DUP1 REVERT JUMPDEST DUP1 CALLDATALOAD PUSH1 0x5 DUP2 LT PUSH2 0x1AB1 JUMPI PUSH1 0x0 DUP1 REVERT JUMPDEST PUSH1 0x0 DUP1 PUSH1 0x0 DUP1 PUSH1 0x0 DUP1 PUSH1 0xC0 DUP8 DUP10 SUB SLT ISZERO PUSH2 0x1C3C JUMPI PUSH1 0x0 DUP1 REVERT JUMPDEST DUP7 CALLDATALOAD PUSH1 0x1 PUSH1 0x1 PUSH1 0x40 SHL SUB DUP2 GT ISZERO PUSH2 0x1C52 JUMPI PUSH1 0x0 DUP1 REVERT JUMPDEST PUSH2 0x1C5E DUP10 DUP3 DUP11 ADD PUSH2 0x1B48 JUMP JUMPDEST SWAP7 POP POP PUSH2 0x1C6D PUSH1 0x20 DUP9 ADD PUSH2 0x1A9A JUMP JUMPDEST SWAP5 POP PUSH1 0x40 DUP8 ADD CALLDATALOAD SWAP4 POP PUSH2 0x1C82 PUSH1 0x60 DUP9 ADD PUSH2 0x1BFD JUMP JUMPDEST SWAP3 POP PUSH2 0x1C90 PUSH1 0x80 DUP9 ADD PUSH2 0x1C14 JUMP JUMPDEST SWAP2 POP PUSH2 0x1C9E PUSH1 0xA0 DUP9 ADD PUSH2 0x1AB6 JUMP JUMPDEST SWAP1 POP SWAP3 SWAP6 POP SWAP3 SWAP6 POP SWAP3 SWAP6 JUMP JUMPDEST PUSH1 0x0 DUP1 PUSH1 0x40 DUP4 DUP6 SUB SLT ISZERO PUSH2 0x1CBD JUMPI PUSH1 0x0 DUP1 REVERT JUMPDEST DUP3 CALLDATALOAD SWAP2 POP PUSH2 0x1CCD PUSH1 0x20 DUP5 ADD PUSH2 0x1AB6 JUMP JUMPDEST SWAP1 POP SWAP3 POP SWAP3 SWAP1 POP JUMP JUMPDEST PUSH1 0x0 DUP1 PUSH1 0x40 DUP4 DUP6 SUB SLT ISZERO PUSH2 0x1CE9 JUMPI PUSH1 0x0 DUP1 REVERT JUMPDEST POP POP DUP1 CALLDATALOAD SWAP3 PUSH1 0x20 SWAP1 SWAP2 ADD CALLDATALOAD SWAP2 POP JUMP JUMPDEST PUSH1 0x0 DUP1 PUSH1 0x40 DUP4 DUP6 SUB SLT ISZERO PUSH2 0x1D0B JUMPI PUSH1 0x0 DUP1 REVERT JUMPDEST PUSH2 0x1D14 DUP4 PUSH2 0x1A9A JUMP JUMPDEST SWAP5 PUSH1 0x20 SWAP4 SWAP1 SWAP4 ADD CALLDATALOAD SWAP4 POP POP POP JUMP JUMPDEST PUSH1 0x0 PUSH1 0x20 DUP3 DUP5 SUB SLT ISZERO PUSH2 0x1D34 JUMPI PUSH1 0x0 DUP1 REVERT JUMPDEST PUSH2 0x1A3A DUP3 PUSH2 0x1A9A JUMP JUMPDEST PUSH1 0x0 PUSH1 0x20 DUP3 DUP5 SUB SLT ISZERO PUSH2 0x1D4F JUMPI PUSH1 0x0 DUP1 REVERT JUMPDEST POP CALLDATALOAD SWAP2 SWAP1 POP JUMP JUMPDEST PUSH1 0x0 DUP1 PUSH1 0x40 DUP4 DUP6 SUB SLT ISZERO PUSH2 0x1D69 JUMPI PUSH1 0x0 DUP1 REVERT JUMPDEST DUP3 CALLDATALOAD PUSH1 0x1 PUSH1 0x1 PUSH1 0x40 SHL SUB DUP2 GT ISZERO PUSH2 0x1D7F JUMPI PUSH1 0x0 DUP1 REVERT JUMPDEST PUSH2 0x1D8B DUP6 DUP3 DUP7 ADD PUSH2 0x1B48 JUMP JUMPDEST SWAP6 PUSH1 0x20 SWAP5 SWAP1 SWAP5 ADD CALLDATALOAD SWAP5 POP POP POP POP JUMP JUMPDEST PUSH1 0x0 DUP1 PUSH1 0x40 DUP4 DUP6 SUB SLT ISZERO PUSH2 0x1DAD JUMPI PUSH1 0x0 DUP1 REVERT JUMPDEST DUP3 CALLDATALOAD SWAP2 POP PUSH2 0x1CCD PUSH1 0x20 DUP5 ADD PUSH2 0x1BFD JUMP JUMPDEST PUSH1 0x0 DUP1 PUSH1 0x40 DUP4 DUP6 SUB SLT ISZERO PUSH2 0x1DD0 JUMPI PUSH1 0x0 DUP1 REVERT JUMPDEST DUP3 CALLDATALOAD SWAP2 POP PUSH2 0x1CCD PUSH1 0x20 DUP5 ADD PUSH2 0x1A9A JUMP JUMPDEST PUSH1 0x20 DUP1 DUP3 MSTORE DUP3 MLOAD DUP3 DUP3 ADD DUP2 SWAP1 MSTORE PUSH1 0x0 SWAP2 DUP5 ADD SWAP1 PUSH1 0x40 DUP5 ADD SWAP1 DUP4 JUMPDEST DUP2 DUP2 LT ISZERO PUSH2 0x1E18 JUMPI DUP4 MLOAD DUP4 MSTORE PUSH1 0x20 SWAP4 DUP5 ADD SWAP4 SWAP1 SWAP3 ADD SWAP2 PUSH1 0x1 ADD PUSH2 0x1DFA JUMP JUMPDEST POP SWAP1 SWAP6 SWAP5 POP POP POP POP POP JUMP JUMPDEST PUSH4 0x4E487B71 PUSH1 0xE0 SHL PUSH1 0x0 MSTORE PUSH1 0x21 PUSH1 0x4 MSTORE PUSH1 0x24 PUSH1 0x0 REVERT JUMPDEST PUSH1 0x5 DUP2 LT PUSH2 0x1E57 JUMPI PUSH4 0x4E487B71 PUSH1 0xE0 SHL PUSH1 0x0 MSTORE PUSH1 0x21 PUSH1 0x4 MSTORE PUSH1 0x24 PUSH1 0x0 REVERT JUMPDEST SWAP1 MSTORE JUMP JUMPDEST PUSH1 0xC0 DUP2 MSTORE PUSH1 0x0 PUSH2 0x1E6E PUSH1 0xC0 DUP4 ADD DUP10 PUSH2 0x1A41 JUMP JUMPDEST PUSH1 0x1 PUSH1 0x1 PUSH1 0xA0 SHL SUB DUP9 AND PUSH1 0x20 DUP5 ADD MSTORE PUSH1 0x40 DUP4 ADD DUP8 SWAP1 MSTORE PUSH1 0x1 PUSH1 0x1 PUSH1 0x40 SHL SUB DUP7 AND PUSH1 0x60 DUP5 ADD MSTORE SWAP1 POP PUSH2 0x1EA2 PUSH1 0x80 DUP4 ADD DUP6 PUSH2 0x1E39 JUMP JUMPDEST DUP3 ISZERO ISZERO PUSH1 0xA0 DUP4 ADD MSTORE SWAP8 SWAP7 POP POP POP POP POP POP POP JUMP JUMPDEST PUSH1 0x0 DUP1 PUSH1 0x0 PUSH1 0x60 DUP5 DUP7 SUB SLT ISZERO PUSH2 0x1ECA JUMPI PUSH1 0x0 DUP1 REVERT JUMPDEST DUP4 CALLDATALOAD PUSH1 0x1 PUSH1 0x1 PUSH1 0x40 SHL SUB DUP2 GT ISZERO PUSH2 0x1EE0 JUMPI PUSH1 0x0 DUP1 REVERT JUMPDEST DUP5 ADD PUSH1 0x1F DUP2 ADD DUP7 SGT PUSH2 0x1EF1 JUMPI PUSH1 0x0 DUP1 REVERT JUMPDEST DUP1 CALLDATALOAD PUSH1 0x1 PUSH1 0x1 PUSH1 0x40 SHL SUB DUP2 GT ISZERO PUSH2 0x1F0A JUMPI PUSH2 0x1F0A PUSH2 0x1B02 JUMP JUMPDEST DUP1 PUSH1 0x5 SHL PUSH2 0x1F1A PUSH1 0x20 DUP3 ADD PUSH2 0x1B18 JUMP JUMPDEST SWAP2 DUP3 MSTORE PUSH1 0x20 DUP2 DUP5 ADD DUP2 ADD SWAP3 SWAP1 DUP2 ADD SWAP1 DUP10 DUP5 GT ISZERO PUSH2 0x1F36 JUMPI PUSH1 0x0 DUP1 REVERT JUMPDEST PUSH1 0x20 DUP6 ADD SWAP5 POP JUMPDEST DUP4 DUP6 LT ISZERO PUSH2 0x1F5F JUMPI PUSH2 0x1F4E DUP6 PUSH2 0x1A9A JUMP JUMPDEST DUP3 MSTORE PUSH1 0x20 SWAP5 DUP6 ADD SWAP5 SWAP1 SWAP2 ADD SWAP1 PUSH2 0x1F3D JUMP JUMPDEST SWAP7 POP POP POP POP PUSH1 0x20 DUP6 ADD CALLDATALOAD SWAP3 POP PUSH2 0x1AF9 SWAP1 POP PUSH1 0x40 DUP6 ADD PUSH2 0x1AB6 JUMP JUMPDEST PUSH1 0x0 DUP1 PUSH1 0x40 DUP4 DUP6 SUB SLT ISZERO PUSH2 0x1F8C JUMPI PUSH1 0x0 DUP1 REVERT JUMPDEST DUP3 CALLDATALOAD SWAP2 POP PUSH2 0x1CCD PUSH1 0x20 DUP5 ADD PUSH2 0x1C14 JUMP JUMPDEST PUSH1 0x1 DUP2 DUP2 SHR SWAP1 DUP3 AND DUP1 PUSH2 0x1FB0 JUMPI PUSH1 0x7F DUP3 AND SWAP2 POP JUMPDEST PUSH1 0x20 DUP3 LT DUP2 SUB PUSH2 0x1FD0 JUMPI PUSH4 0x4E487B71 PUSH1 0xE0 SHL PUSH1 0x0 MSTORE PUSH1 0x22 PUSH1 0x4 MSTORE PUSH1 0x24 PUSH1 0x0 REVERT JUMPDEST POP SWAP2 SWAP1 POP JUMP JUMPDEST PUSH1 0x1F DUP3 GT ISZERO PUSH2 0x8F0 JUMPI DUP1 PUSH1 0x0 MSTORE PUSH1 0x20 PUSH1 0x0 KECCAK256 PUSH1 0x1F DUP5 ADD PUSH1 0x5 SHR DUP2 ADD PUSH1 0x20 DUP6 LT ISZERO PUSH2 0x1FFD JUMPI POP DUP1 JUMPDEST PUSH1 0x1F DUP5 ADD PUSH1 0x5 SHR DUP3 ADD SWAP2 POP JUMPDEST DUP2 DUP2 LT ISZERO PUSH2 0xDCB JUMPI PUSH1 0x0 DUP2 SSTORE PUSH1 0x1 ADD PUSH2 0x2009 JUMP JUMPDEST DUP2 MLOAD PUSH1 0x1 PUSH1 0x1 PUSH1 0x40 SHL SUB DUP2 GT ISZERO PUSH2 0x2036 JUMPI PUSH2 0x2036 PUSH2 0x1B02 JUMP JUMPDEST PUSH2 0x204A DUP2 PUSH2 0x2044 DUP5 SLOAD PUSH2 0x1F9C JUMP JUMPDEST DUP5 PUSH2 0x1FD6 JUMP JUMPDEST PUSH1 0x20 PUSH1 0x1F DUP3 GT PUSH1 0x1 DUP2 EQ PUSH2 0x207E JUMPI PUSH1 0x0 DUP4 ISZERO PUSH2 0x2066 JUMPI POP DUP5 DUP3 ADD MLOAD JUMPDEST PUSH1 0x0 NOT PUSH1 0x3 DUP6 SWAP1 SHL SHR NOT AND PUSH1 0x1 DUP5 SWAP1 SHL OR DUP5 SSTORE PUSH2 0xDCB JUMP JUMPDEST PUSH1 0x0 DUP5 DUP2 MSTORE PUSH1 0x20 DUP2 KECCAK256 PUSH1 0x1F NOT DUP6 AND SWAP2 JUMPDEST DUP3 DUP2 LT ISZERO PUSH2 0x20AE JUMPI DUP8 DUP6 ADD MLOAD DUP3 SSTORE PUSH1 0x20 SWAP5 DUP6 ADD SWAP5 PUSH1 0x1 SWAP1 SWAP3 ADD SWAP2 ADD PUSH2 0x208E JUMP JUMPDEST POP DUP5 DUP3 LT ISZERO PUSH2 0x20CC JUMPI DUP7 DUP5 ADD MLOAD PUSH1 0x0 NOT PUSH1 0x3 DUP8 SWAP1 SHL PUSH1 0xF8 AND SHR NOT AND DUP2 SSTORE JUMPDEST POP POP POP POP PUSH1 0x1 SWAP1 DUP2 SHL ADD SWAP1 SSTORE POP JUMP JUMPDEST PUSH4 0x4E487B71 PUSH1 0xE0 SHL PUSH1 0x0 MSTORE PUSH1 0x11 PUSH1 0x4 MSTORE PUSH1 0x24 PUSH1 0x0 REVERT JUMPDEST PUSH1 0x0 PUSH1 0x1 DUP3 ADD PUSH2 0x2103 JUMPI PUSH2 0x2103 PUSH2 0x20DB JUMP JUMPDEST POP PUSH1 0x1 ADD SWAP1 JUMP JUMPDEST PUSH1 0xC0 DUP2 MSTORE PUSH1 0x0 PUSH2 0x211D PUSH1 0xC0 DUP4 ADD DUP10 PUSH2 0x1A41 JUMP JUMPDEST SWAP1 POP DUP7 PUSH1 0x20 DUP4 ADD MSTORE DUP6 PUSH1 0x40 DUP4 ADD MSTORE PUSH1 0x1 PUSH1 0x1 PUSH1 0x40 SHL SUB DUP6 AND PUSH1 0x60 DUP4 ADD MSTORE PUSH2 0x1EA2 PUSH1 0x80 DUP4 ADD DUP6 PUSH2 0x1E39 JUMP JUMPDEST PUSH4 0x4E487B71 PUSH1 0xE0 SHL PUSH1 0x0 MSTORE PUSH1 0x32 PUSH1 0x4 MSTORE PUSH1 0x24 PUSH1 0x0 REVERT JUMPDEST DUP1 DUP3 ADD DUP1 DUP3 GT ISZERO PUSH2 0x75B JUMPI PUSH2 0x75B PUSH2 0x20DB JUMP INVALID LOG2 PUSH5 0x6970667358 0x22 SLT KECCAK256 0x22 MUL 0xCF 0xAB GASLIMIT MLOAD PUSH29 0xF7EE196F5B9FE7C22F996F0323522DEA16973E1E73B2DB70AB64736F6C PUSH4 0x4300081C STOP CALLER "},"methodIdentifiers":{"balanceOf(address)":"70a08231","emittedCount()":"26019c18","getUserIDs(address)":"98b06f07","hasValid(address)":"43945512","holdersCount()":"6b4ed21b","isValid(uint256)":"f577a500","isWhitelisted(uint256,address)":"7d22c35c","mintPaidToken(address,uint256)":"5484dabb","mintPrivateToken(address,uint256)":"d88f5b89","mintPublicToken(address,uint256)":"71bae2cb","mintServiceToken(address,uint256)":"ef9ec2f3","mintWhitelistedToken(address,uint256)":"a4e3bab9","name()":"06fdde03","owner()":"8da5cb5b","ownerOf(uint256)":"6352211e","registerServiceToken(string,address,uint256,uint64,uint8,bool)":"18dce595","renounceOwnership()":"715018a6","serviceCount()":"06237526","services(uint256)":"c22c4f43","setTokenURI(uint256,string)":"162094c4","supportsInterface(bytes4)":"01ffc9a7","symbol()":"95d89b41","tokenByIndex(uint256)":"4f6ccce7","tokenIds(address,uint256)":"3de419e9","tokenOfOwnerByIndex(address,uint256)":"2f745c59","tokenURI(uint256)":"c87b56dd","tokensOfOwner(address)":"8462151c","transferOwnership(address)":"f2fde38b","updatServiceActiveStatus(uint256,bool)":"27e031b1","updatServiceManager(address,uint256)":"6e096341","updatServicePrice(uint256,uint256)":"285c69ce","updatServiceStatus(uint256,uint8)":"f82c4954","updatServiceTokenLimit(uint256,uint64)":"771996a9","updatServiceURI(string,uint256)":"577c917f","updateWhitelist(address,uint256,bool)":"08405e74","updateWhitelistBatch(address[],uint256,bool)":"ee2786bc"}}}}}