{"contracts/JPSGuard.sol":{"JPSGuard":{"abi":[{"inputs":[{"internalType":"string","name":"_uri","type":"string"}],"stateMutability":"nonpayable","type":"constructor"},{"inputs":[],"name":"JPSGuard_InactiveToken","type":"error"},{"inputs":[],"name":"JPSGuard_InsufficientFundsSent","type":"error"},{"inputs":[],"name":"JPSGuard_InvalidServiceID","type":"error"},{"inputs":[],"name":"JPSGuard_InvalidTokenId","type":"error"},{"inputs":[],"name":"JPSGuard_NotManager","type":"error"},{"inputs":[],"name":"JPSGuard_NotTokenOwner","type":"error"},{"inputs":[],"name":"JPSGuard_NotWhitelisted","type":"error"},{"inputs":[],"name":"JPSGuard_NotWhitelistedToken","type":"error"},{"inputs":[],"name":"JPSGuard_TokenLimitExceeded","type":"error"},{"inputs":[{"internalType":"address","name":"owner","type":"address"}],"name":"OwnableInvalidOwner","type":"error"},{"inputs":[{"internalType":"address","name":"account","type":"address"}],"name":"OwnableUnauthorizedAccount","type":"error"},{"anonymous":false,"inputs":[{"indexed":false,"internalType":"address","name":"owner","type":"address"},{"indexed":false,"internalType":"uint256","name":"tokenId","type":"uint256"}],"name":"Minted","type":"event"},{"anonymous":false,"inputs":[{"indexed":true,"internalType":"address","name":"previousOwner","type":"address"},{"indexed":true,"internalType":"address","name":"newOwner","type":"address"}],"name":"OwnershipTransferred","type":"event"},{"anonymous":false,"inputs":[{"indexed":false,"internalType":"address","name":"owner","type":"address"},{"indexed":false,"internalType":"uint256","name":"tokenId","type":"uint256"}],"name":"Revoked","type":"event"},{"anonymous":false,"inputs":[{"indexed":false,"internalType":"string","name":"uri","type":"string"},{"indexed":true,"internalType":"address","name":"manager","type":"address"},{"indexed":false,"internalType":"uint256","name":"price","type":"uint256"},{"indexed":true,"internalType":"uint256","name":"serviceID","type":"uint256"},{"indexed":true,"internalType":"uint64","name":"remainingTokens","type":"uint64"},{"indexed":false,"internalType":"enum JPSGuard.ServiceStatus","name":"status","type":"uint8"},{"indexed":false,"internalType":"bool","name":"isLimitedToken","type":"bool"},{"indexed":false,"internalType":"bool","name":"isPrivate","type":"bool"}],"name":"ServiceRegistered","type":"event"},{"anonymous":false,"inputs":[{"indexed":true,"internalType":"address","name":"_owner","type":"address"},{"indexed":true,"internalType":"uint256","name":"_tokenId","type":"uint256"}],"name":"TokenMinted","type":"event"},{"inputs":[{"internalType":"address","name":"owner","type":"address"}],"name":"balanceOf","outputs":[{"internalType":"uint256","name":"","type":"uint256"}],"stateMutability":"view","type":"function"},{"inputs":[],"name":"emittedCount","outputs":[{"internalType":"uint256","name":"","type":"uint256"}],"stateMutability":"view","type":"function"},{"inputs":[{"internalType":"address","name":"_user","type":"address"}],"name":"fetchUserIDs","outputs":[{"internalType":"uint256[]","name":"","type":"uint256[]"}],"stateMutability":"view","type":"function"},{"inputs":[{"internalType":"address","name":"owner","type":"address"}],"name":"hasValid","outputs":[{"internalType":"bool","name":"","type":"bool"}],"stateMutability":"view","type":"function"},{"inputs":[],"name":"holdersCount","outputs":[{"internalType":"uint256","name":"","type":"uint256"}],"stateMutability":"view","type":"function"},{"inputs":[{"internalType":"uint256","name":"tokenId","type":"uint256"}],"name":"isValid","outputs":[{"internalType":"bool","name":"","type":"bool"}],"stateMutability":"view","type":"function"},{"inputs":[{"internalType":"uint256","name":"","type":"uint256"},{"internalType":"address","name":"","type":"address"}],"name":"isWhitelisted","outputs":[{"internalType":"bool","name":"","type":"bool"}],"stateMutability":"view","type":"function"},{"inputs":[{"internalType":"address","name":"_user","type":"address"},{"internalType":"uint256","name":"_serviceId","type":"uint256"}],"name":"mintPaidToken","outputs":[],"stateMutability":"payable","type":"function"},{"inputs":[{"internalType":"address","name":"_user","type":"address"},{"internalType":"uint256","name":"_serviceId","type":"uint256"}],"name":"mintPrivateToken","outputs":[],"stateMutability":"nonpayable","type":"function"},{"inputs":[{"internalType":"address","name":"_user","type":"address"},{"internalType":"uint256","name":"_serviceId","type":"uint256"}],"name":"mintPublicToken","outputs":[],"stateMutability":"nonpayable","type":"function"},{"inputs":[{"internalType":"address","name":"_user","type":"address"},{"internalType":"uint256","name":"_serviceId","type":"uint256"}],"name":"mintServiceToken","outputs":[],"stateMutability":"nonpayable","type":"function"},{"inputs":[{"internalType":"address","name":"_user","type":"address"},{"internalType":"uint256","name":"_serviceId","type":"uint256"}],"name":"mintWhitelistedToken","outputs":[],"stateMutability":"nonpayable","type":"function"},{"inputs":[],"name":"name","outputs":[{"internalType":"string","name":"","type":"string"}],"stateMutability":"view","type":"function"},{"inputs":[],"name":"owner","outputs":[{"internalType":"address","name":"","type":"address"}],"stateMutability":"view","type":"function"},{"inputs":[{"internalType":"uint256","name":"tokenId","type":"uint256"}],"name":"ownerOf","outputs":[{"internalType":"address","name":"","type":"address"}],"stateMutability":"view","type":"function"},{"inputs":[{"internalType":"string","name":"_uri","type":"string"},{"internalType":"address","name":"_manager","type":"address"},{"internalType":"uint256","name":"_price","type":"uint256"},{"internalType":"uint64","name":"_tokenCount","type":"uint64"},{"internalType":"enum JPSGuard.ServiceStatus","name":"_status","type":"uint8"},{"internalType":"bool","name":"_isLimitedToken","type":"bool"},{"internalType":"bool","name":"_active","type":"bool"}],"name":"registerServiceToken","outputs":[{"internalType":"uint256","name":"","type":"uint256"}],"stateMutability":"nonpayable","type":"function"},{"inputs":[],"name":"renounceOwnership","outputs":[],"stateMutability":"nonpayable","type":"function"},{"inputs":[{"internalType":"address","name":"_user","type":"address"},{"internalType":"uint256","name":"_tokenId","type":"uint256"}],"name":"revokeToken","outputs":[],"stateMutability":"nonpayable","type":"function"},{"inputs":[],"name":"serviceCount","outputs":[{"internalType":"uint256","name":"","type":"uint256"}],"stateMutability":"view","type":"function"},{"inputs":[{"internalType":"uint256","name":"","type":"uint256"}],"name":"serviceIds","outputs":[{"internalType":"uint256","name":"","type":"uint256"}],"stateMutability":"view","type":"function"},{"inputs":[{"internalType":"uint256","name":"","type":"uint256"}],"name":"services","outputs":[{"internalType":"string","name":"uri","type":"string"},{"internalType":"address","name":"manager","type":"address"},{"internalType":"uint256","name":"price","type":"uint256"},{"internalType":"uint64","name":"remainingTokens","type":"uint64"},{"internalType":"enum JPSGuard.ServiceStatus","name":"status","type":"uint8"},{"internalType":"bool","name":"isLimitedToken","type":"bool"},{"internalType":"bool","name":"active","type":"bool"}],"stateMutability":"view","type":"function"},{"inputs":[{"internalType":"uint256","name":"_serviceId","type":"uint256"},{"internalType":"bool","name":"_active","type":"bool"}],"name":"setServiceActive","outputs":[],"stateMutability":"nonpayable","type":"function"},{"inputs":[{"internalType":"address","name":"_manager","type":"address"},{"internalType":"uint256","name":"_serviceId","type":"uint256"}],"name":"setServiceManager","outputs":[],"stateMutability":"nonpayable","type":"function"},{"inputs":[{"internalType":"uint256","name":"_serviceId","type":"uint256"},{"internalType":"uint256","name":"_price","type":"uint256"}],"name":"setServicePrice","outputs":[],"stateMutability":"nonpayable","type":"function"},{"inputs":[{"internalType":"uint256","name":"_serviceId","type":"uint256"},{"internalType":"enum JPSGuard.ServiceStatus","name":"_status","type":"uint8"}],"name":"setServiceStatus","outputs":[],"stateMutability":"nonpayable","type":"function"},{"inputs":[{"internalType":"uint256","name":"_serviceId","type":"uint256"},{"internalType":"uint64","name":"_tokenCount","type":"uint64"}],"name":"setServiceTokenLimit","outputs":[],"stateMutability":"nonpayable","type":"function"},{"inputs":[{"internalType":"string","name":"_uri","type":"string"},{"internalType":"uint256","name":"_serviceId","type":"uint256"}],"name":"setServiceURI","outputs":[],"stateMutability":"nonpayable","type":"function"},{"inputs":[{"internalType":"uint256","name":"tokenId","type":"uint256"},{"internalType":"string","name":"tokenUri","type":"string"}],"name":"setTokenURI","outputs":[],"stateMutability":"nonpayable","type":"function"},{"inputs":[{"internalType":"address","name":"_user","type":"address"},{"internalType":"uint256","name":"_serviceId","type":"uint256"},{"internalType":"bool","name":"_status","type":"bool"}],"name":"setWhitelist","outputs":[{"internalType":"bool","name":"","type":"bool"}],"stateMutability":"nonpayable","type":"function"},{"inputs":[{"internalType":"address[]","name":"_users","type":"address[]"},{"internalType":"uint256","name":"_serviceId","type":"uint256"},{"internalType":"bool","name":"_status","type":"bool"}],"name":"setWhitelistBatch","outputs":[{"internalType":"bool","name":"","type":"bool"}],"stateMutability":"nonpayable","type":"function"},{"inputs":[{"internalType":"bytes4","name":"interfaceId","type":"bytes4"}],"name":"supportsInterface","outputs":[{"internalType":"bool","name":"","type":"bool"}],"stateMutability":"view","type":"function"},{"inputs":[],"name":"symbol","outputs":[{"internalType":"string","name":"","type":"string"}],"stateMutability":"view","type":"function"},{"inputs":[{"internalType":"uint256","name":"index","type":"uint256"}],"name":"tokenByIndex","outputs":[{"internalType":"uint256","name":"","type":"uint256"}],"stateMutability":"view","type":"function"},{"inputs":[{"internalType":"address","name":"","type":"address"},{"internalType":"uint256","name":"","type":"uint256"}],"name":"tokenIds","outputs":[{"internalType":"uint256","name":"","type":"uint256"}],"stateMutability":"view","type":"function"},{"inputs":[{"internalType":"address","name":"owner","type":"address"},{"internalType":"uint256","name":"index","type":"uint256"}],"name":"tokenOfOwnerByIndex","outputs":[{"internalType":"uint256","name":"","type":"uint256"}],"stateMutability":"view","type":"function"},{"inputs":[{"internalType":"uint256","name":"tokenId","type":"uint256"}],"name":"tokenURI","outputs":[{"internalType":"string","name":"","type":"string"}],"stateMutability":"view","type":"function"},{"inputs":[{"internalType":"address","name":"owner","type":"address"}],"name":"tokensOfOwner","outputs":[{"internalType":"uint256[]","name":"tokens","type":"uint256[]"}],"stateMutability":"view","type":"function"},{"inputs":[{"internalType":"address","name":"newOwner","type":"address"}],"name":"transferOwnership","outputs":[],"stateMutability":"nonpayable","type":"function"}],"evm":{"bytecode":{"linkReferences":{},"object":"608060405234801561001057600080fd5b50604051612b46380380612b4683398101604081905261002f91610389565b33604051806040016040528060038152602001624a505360e81b8152506040518060400160405280601081526020016f12940814dd1858dad95c8811dd585c9960821b815250816005908161008491906104c4565b50600661009182826104c4565b5050600980546001600160a01b03191633179055506001600160a01b0381166100d557604051631e4fbdf760e01b8152600060048201526024015b60405180910390fd5b6100de816100f7565b506100f0813360008080806001610149565b505061062f565b600a80546001600160a01b038381166001600160a01b0319831681179093556040519116919082907f8be0079c531659141344cd1fd0a4f28419497f9722a3daafe3b4186f6b6457e090600090a35050565b6000610153610320565b600b805490600061016383610582565b91905055506040518060e00160405280898152602001886001600160a01b03168152602001878152602001866001600160401b031681526020018560048111156101af576101af6105a9565b8152841515602080830191909152841515604092830152600b546000908152600d90915220815181906101e290826104c4565b5060208201516001820180546001600160a01b039092166001600160a01b03199092169190911790556040820151600282015560608201516003820180546001600160401b039092166001600160401b03198316811782556080850151926001600160481b0319161768010000000000000000836004811115610267576102676105a9565b021790555060a08201516003909101805460c09093015115156a01000000000000000000000260ff60501b199215156901000000000000000000029290921661ffff60481b1990931692909217179055600b546040516001600160401b03871691906001600160a01b038a16907f4903e9c3826c1a365f9c5b6193e9e708b4269472495fff7ba4b271d74907fcde90610309908d908c908b908b908b906105bf565b60405180910390a450600b54979650505050505050565b600a546001600160a01b0316331461034d5760405163118cdaa760e01b81523360048201526024016100cc565b565b634e487b7160e01b600052604160045260246000fd5b60005b83811015610380578181015183820152602001610368565b50506000910152565b60006020828403121561039b57600080fd5b81516001600160401b038111156103b157600080fd5b8201601f810184136103c257600080fd5b80516001600160401b038111156103db576103db61034f565b604051601f8201601f19908116603f011681016001600160401b03811182821017156104095761040961034f565b60405281815282820160200186101561042157600080fd5b610432826020830160208601610365565b95945050505050565b600181811c9082168061044f57607f821691505b60208210810361046f57634e487b7160e01b600052602260045260246000fd5b50919050565b601f8211156104bf57806000526020600020601f840160051c8101602085101561049c5750805b601f840160051c820191505b818110156104bc57600081556001016104a8565b50505b505050565b81516001600160401b038111156104dd576104dd61034f565b6104f1816104eb845461043b565b84610475565b6020601f821160018114610525576000831561050d5750848201515b600019600385901b1c1916600184901b1784556104bc565b600084815260208120601f198516915b828110156105555787850151825560209485019460019092019101610535565b50848210156105735786840151600019600387901b60f8161c191681555b50505050600190811b01905550565b6000600182016105a257634e487b7160e01b600052601160045260246000fd5b5060010190565b634e487b7160e01b600052602160045260246000fd5b60a08152600086518060a08401526105de8160c0850160208b01610365565b60208301879052601f01601f1916820160c00190506005851061061157634e487b7160e01b600052602160045260246000fd5b60408201949094529115156060830152151560809091015292915050565b6125088061063e6000396000f3fe6080604052600436106102255760003560e01c806371bae2cb11610123578063c22c4f43116100ab578063ef9ec2f31161006f578063ef9ec2f3146106b8578063f2fde38b146106d8578063f577a500146106f8578063f6d2c01314610718578063f79216281461073857600080fd5b8063c22c4f4314610605578063c51d9e4e14610638578063c87b56dd14610658578063d7a39c3a14610678578063d88f5b891461069857600080fd5b80638da5cb5b116100f25780638da5cb5b1461057257806395d89b41146105905780639daead81146105a5578063a4e3bab9146105c5578063aa8e7402146105e557600080fd5b806371bae2cb146104ca5780637d22c35c146104ea578063804ef86c146105255780638462151c1461054557600080fd5b80633de419e9116101b15780636352211e116101755780636352211e1461040557806369d269331461043d5780636b4ed21b1461046a57806370a082311461047f578063715018a6146104b557600080fd5b80633de419e91461035c578063439455121461037c5780634f6ccce7146103b45780635484dabb146103d25780635c3d7869146103e557600080fd5b806317e59329116101f857806317e59329146102c757806326019c18146102e757806329bd58b4146102fc5780632f745c591461031c5780633d687d081461033c57600080fd5b806301ffc9a71461022a578063062375261461025f57806306fdde0314610283578063162094c4146102a5575b600080fd5b34801561023657600080fd5b5061024a610245366004611d2d565b610758565b60405190151581526020015b60405180910390f35b34801561026b57600080fd5b50610275600b5481565b604051908152602001610256565b34801561028f57600080fd5b506102986107c5565b6040516102569190611da4565b3480156102b157600080fd5b506102c56102c0366004611e6c565b610857565b005b3480156102d357600080fd5b506102c56102e2366004611ece565b6108e2565b3480156102f357600080fd5b50600754610275565b34801561030857600080fd5b506102c5610317366004611f11565b610976565b34801561032857600080fd5b50610275610337366004611f11565b610a28565b34801561034857600080fd5b506102c5610357366004611f4a565b610aad565b34801561036857600080fd5b50610275610377366004611f11565b610b51565b34801561038857600080fd5b5061024a610397366004611f6d565b6001600160a01b0316600090815260046020526040902054151590565b3480156103c057600080fd5b506102756103cf366004611f88565b90565b6102c56103e0366004611f11565b610b82565b3480156103f157600080fd5b506102c5610400366004611fa1565b610cbe565b34801561041157600080fd5b50610425610420366004611f88565b610d36565b6040516001600160a01b039091168152602001610256565b34801561044957600080fd5b50610275610458366004611f88565b600e6020526000908152604090205481565b34801561047657600080fd5b50600854610275565b34801561048b57600080fd5b5061027561049a366004611f6d565b6001600160a01b031660009081526002602052604090205490565b3480156104c157600080fd5b506102c5610d54565b3480156104d657600080fd5b506102c56104e5366004611f11565b610d68565b3480156104f657600080fd5b5061024a610505366004611fe5565b600f60209081526000928352604080842090915290825290205460ff1681565b34801561053157600080fd5b5061024a610540366004612018565b610e35565b34801561055157600080fd5b50610565610560366004611f6d565b610ed1565b6040516102569190612054565b34801561057e57600080fd5b50600a546001600160a01b0316610425565b34801561059c57600080fd5b50610298610f3d565b3480156105b157600080fd5b506102c56105c0366004612097565b610f4c565b3480156105d157600080fd5b506102c56105e0366004611f11565b610fc3565b3480156105f157600080fd5b506102c56106003660046120b9565b6110c3565b34801561061157600080fd5b50610625610620366004611f88565b611153565b6040516102569796959493929190612114565b34801561064457600080fd5b5061024a610653366004612175565b611239565b34801561066457600080fd5b50610298610673366004611f88565b611311565b34801561068457600080fd5b50610275610693366004612239565b6113b1565b3480156106a457600080fd5b506102c56106b3366004611f11565b61157f565b3480156106c457600080fd5b506102c56106d3366004611f11565b6115ad565b3480156106e457600080fd5b506102c56106f3366004611f6d565b6116a6565b34801561070457600080fd5b5061024a610713366004611f88565b6116e4565b34801561072457600080fd5b506102c5610733366004611f11565b611703565b34801561074457600080fd5b50610565610753366004611f6d565b611761565b60006001600160e01b0319821663a511533d60e01b148061078957506001600160e01b03198216635b5e139f60e01b145b806107a457506001600160e01b03198216632d57debd60e01b145b806107bf57506301ffc9a760e01b6001600160e01b03198316145b92915050565b6060600580546107d4906122d2565b80601f0160208091040260200160405190810160405280929190818152602001828054610800906122d2565b801561084d5780601f106108225761010080835404028352916020019161084d565b820191906000526020600020905b81548152906001019060200180831161083057829003601f168201915b5050505050905090565b6009546001600160a01b031633146108c55760405162461bcd60e51b815260206004820152602660248201527f4f6e6c79207468652063726561746f722063616e207365742074686520746f6b604482015265656e2055524960d01b60648201526084015b60405180910390fd5b60008281526001602052604090206108dd8282612353565b505050565b6000828152600d602052604090206001015482906001600160a01b0316331461091e5760405163c69e727960e01b815260040160405180910390fd5b82600b5481111561094257604051638c2cb5fb60e01b815260040160405180910390fd5b50506000918252600d6020526040909120600301805467ffffffffffffffff19166001600160401b03909216919091179055565b6000818152600e6020908152604080832054808452600d909252909120600101546001600160a01b031633146109bf5760405163c69e727960e01b815260040160405180910390fd5b6109c8826116e4565b6109e557604051634fcd7f0b60e01b815260040160405180910390fd5b826001600160a01b03166109f883610d36565b6001600160a01b031614610a1f576040516358af21f160e11b815260040160405180910390fd5b6108dd826117cb565b6001600160a01b038216600090815260026020526040812080548310610a875760405162461bcd60e51b8152602060048201526014602482015273151bdad95b88191bd95cc81b9bdd08195e1a5cdd60621b60448201526064016108bc565b808381548110610a9957610a99612411565b906000526020600020015491505092915050565b6000828152600d602052604090206001015482906001600160a01b03163314610ae95760405163c69e727960e01b815260040160405180910390fd5b82600b54811115610b0d57604051638c2cb5fb60e01b815260040160405180910390fd5b6000848152600d60205260409020600301805484919068ff00000000000000001916600160401b836004811115610b4657610b466120dc565b021790555050505050565b600c6020528160005260406000208181548110610b6d57600080fd5b90600052602060002001600091509150505481565b6000818152600d602052604090206001015481906001600160a01b03163314610bbe5760405163c69e727960e01b815260040160405180910390fd5b816003600b54821115610be457604051638c2cb5fb60e01b815260040160405180910390fd5b6000828152600d60205260409020600101546001600160a01b03163314610c1e5760405163c69e727960e01b815260040160405180910390fd5b806004811115610c3057610c306120dc565b6000838152600d6020526040902060030154600160401b900460ff166004811115610c5d57610c5d6120dc565b14610c7b57604051634fcd7f0b60e01b815260040160405180910390fd5b6000848152600d6020526040902060020154341015610cad57604051636495458560e01b815260040160405180910390fd5b610cb785856118e7565b5050505050565b6000818152600d602052604090206001015481906001600160a01b03163314610cfa5760405163c69e727960e01b815260040160405180910390fd5b81600b54811115610d1e57604051638c2cb5fb60e01b815260040160405180910390fd5b6000838152600d60205260409020610cb78582612353565b6000610d4182611a62565b600101546001600160a01b031692915050565b610d5c611ac1565b610d666000611aee565b565b806000600b54821115610d8e57604051638c2cb5fb60e01b815260040160405180910390fd5b6000828152600d60205260409020600101546001600160a01b03163314610dc85760405163c69e727960e01b815260040160405180910390fd5b806004811115610dda57610dda6120dc565b6000838152600d6020526040902060030154600160401b900460ff166004811115610e0757610e076120dc565b14610e2557604051634fcd7f0b60e01b815260040160405180910390fd5b610e2f84846118e7565b50505050565b6000828152600d602052604081206001015483906001600160a01b03163314610e715760405163c69e727960e01b815260040160405180910390fd5b83600b54811115610e9557604051638c2cb5fb60e01b815260040160405180910390fd5b5050506000918252600f602090815260408084206001600160a01b03959095168452939052919020805460ff1916911515919091179055600190565b6001600160a01b038116600090815260026020908152604091829020805483518184028101840190945280845260609392830182828015610f3157602002820191906000526020600020905b815481526020019060010190808311610f1d575b50505050509050919050565b6060600680546107d4906122d2565b6000828152600d602052604090206001015482906001600160a01b03163314610f885760405163c69e727960e01b815260040160405180910390fd5b82600b54811115610fac57604051638c2cb5fb60e01b815260040160405180910390fd5b50506000918252600d602052604090912060020155565b806004600b54821115610fe957604051638c2cb5fb60e01b815260040160405180910390fd5b6000828152600d60205260409020600101546001600160a01b031633146110235760405163c69e727960e01b815260040160405180910390fd5b806004811115611035576110356120dc565b6000838152600d6020526040902060030154600160401b900460ff166004811115611062576110626120dc565b1461108057604051634fcd7f0b60e01b815260040160405180910390fd5b6000838152600f602090815260408083206001600160a01b038816845290915290205460ff16610e255760405163bd9044c360e01b815260040160405180910390fd5b6000828152600d602052604090206001015482906001600160a01b031633146110ff5760405163c69e727960e01b815260040160405180910390fd5b82600b5481111561112357604051638c2cb5fb60e01b815260040160405180910390fd5b50506000918252600d60205260409091206003018054911515600160501b0260ff60501b19909216919091179055565b600d6020526000908152604090208054819061116e906122d2565b80601f016020809104026020016040519081016040528092919081815260200182805461119a906122d2565b80156111e75780601f106111bc576101008083540402835291602001916111e7565b820191906000526020600020905b8154815290600101906020018083116111ca57829003601f168201915b5050506001840154600285015460039095015493946001600160a01b03909116939092506001600160401b038116915060ff600160401b8204811691600160481b8104821691600160501b9091041687565b6000828152600d602052604081206001015483906001600160a01b031633146112755760405163c69e727960e01b815260040160405180910390fd5b83600b5481111561129957604051638c2cb5fb60e01b815260040160405180910390fd5b60005b8651811015611304576000868152600f6020526040812088518792908a90859081106112ca576112ca612411565b6020908102919091018101516001600160a01b03168252810191909152604001600020805460ff191691151591909117905560010161129c565b5060019695505050505050565b606061131c82611a62565b5060008281526001602052604090208054611336906122d2565b80601f0160208091040260200160405190810160405280929190818152602001828054611362906122d2565b8015610f315780601f1061138457610100808354040283529160200191610f31565b820191906000526020600020905b8154815290600101906020018083116113925750939695505050505050565b60006113bb611ac1565b600b80549060006113cb8361243d565b91905055506040518060e00160405280898152602001886001600160a01b03168152602001878152602001866001600160401b03168152602001856004811115611417576114176120dc565b8152841515602080830191909152841515604092830152600b546000908152600d909152208151819061144a9082612353565b5060208201516001820180546001600160a01b039092166001600160a01b03199092169190911790556040820151600282015560608201516003820180546001600160401b0390921667ffffffffffffffff1983168117825560808501519268ffffffffffffffffff191617600160401b8360048111156114cd576114cd6120dc565b021790555060a08201516003909101805460c0909301511515600160501b0260ff60501b19921515600160481b02929092166affff0000000000000000001990931692909217179055600b546040516001600160401b03871691906001600160a01b038a16907f4903e9c3826c1a365f9c5b6193e9e708b4269472495fff7ba4b271d74907fcde90611568908d908c908b908b908b90612456565b60405180910390a450600b54979650505050505050565b611587611ac1565b806001600b54821115610d8e57604051638c2cb5fb60e01b815260040160405180910390fd5b6000818152600d602052604090206001015481906001600160a01b031633146115e95760405163c69e727960e01b815260040160405180910390fd5b816002600b5482111561160f57604051638c2cb5fb60e01b815260040160405180910390fd5b6000828152600d60205260409020600101546001600160a01b031633146116495760405163c69e727960e01b815260040160405180910390fd5b80600481111561165b5761165b6120dc565b6000838152600d6020526040902060030154600160401b900460ff166004811115611688576116886120dc565b14610cad57604051634fcd7f0b60e01b815260040160405180910390fd5b6116ae611ac1565b6001600160a01b0381166116d857604051631e4fbdf760e01b8152600060048201526024016108bc565b6116e181611aee565b50565b60006116ef82611a62565b60010154600160a01b900460ff1692915050565b61170b611ac1565b80600b5481111561172f57604051638c2cb5fb60e01b815260040160405180910390fd5b506000908152600d6020526040902060010180546001600160a01b0319166001600160a01b0392909216919091179055565b6001600160a01b0381166000908152600c6020908152604091829020805483518184028101840190945280845260609392830182828015610f315760200282019190600052602060002090815481526020019060010190808311610f1d5750505050509050919050565b60006117d682611a62565b6001810154909150600160a01b900460ff166118345760405162461bcd60e51b815260206004820152601860248201527f546f6b656e20697320616c726561647920696e76616c6964000000000000000060448201526064016108bc565b60018101805460ff60a01b1981169091556001600160a01b031660009081526004602052604090205461186957611869612496565b6001818101546001600160a01b0316600090815260046020526040812080549091906118969084906124ac565b90915550506001810154604080516001600160a01b039092168252602082018490527f713b90881ad62c4fa8ab6bd9197fa86481fc0c11b2edba60026514281b2dbac4910160405180910390a15050565b6000818152600d6020526040902060030154600160481b900460ff1615611940576000818152600d60205260409020600301546001600160401b031661194057604051635d0efcb160e01b815260040160405180910390fd5b600061194b83611b40565b6001600160a01b0384166000908152600c60209081526040808320805460018101825590845282842001849055838352600e8252808320869055858352600d90915290208054919250611a27918391906119a4906122d2565b80601f01602080910402602001604051908101604052809291908181526020018280546119d0906122d2565b8015611a1d5780601f106119f257610100808354040283529160200191611a1d565b820191906000526020600020905b815481529060010190602001808311611a0057829003601f168201915b5050505050610857565b60405181906001600160a01b038516907fb9144c96c86541f6fa89c9f2f02495cccf4b08cd6643e26d34ee00aa586558a890600090a3505050565b600081815260208190526040812060018101546001600160a01b03166107bf5760405162461bcd60e51b8152602060048201526014602482015273151bdad95b88191bd95cc81b9bdd08195e1a5cdd60621b60448201526064016108bc565b600a546001600160a01b03163314610d665760405163118cdaa760e01b81523360048201526024016108bc565b600a80546001600160a01b038381166001600160a01b0319831681179093556040519116919082907f8be0079c531659141344cd1fd0a4f28419497f9722a3daafe3b4186f6b6457e090600090a35050565b600754611b4f82826001611baf565b604080516001600160a01b0384168152602081018390527f30385c845b448a36257a6a1716e6ad2e1bc2cbe333cde1e69fe849ad6511adfe910160405180910390a1600160076000828254611ba491906124bf565b909155509092915050565b6000828152602081905260409020600101546001600160a01b031615611c175760405162461bcd60e51b815260206004820152601d60248201527f43616e6e6f74206d696e7420616e2061737369676e656420746f6b656e00000060448201526064016108bc565b6001600160a01b0383166000908152600260205260408120549003611c4f57600160086000828254611c4991906124bf565b90915550505b604080516060810182523381526001600160a01b0385811660208084018281528615801586880190815260008a8152808552888120975188549088166001600160a01b031990911617885592516001978801805492511515600160a01b026001600160a81b031990931691909716171790945591825260028082528583208054600384528785208a865284529684208790559082529385018455928152919091209091018390556108dd576001600160a01b0383166000908152600460205260408120805460019290611d239084906124bf565b9091555050505050565b600060208284031215611d3f57600080fd5b81356001600160e01b031981168114611d5757600080fd5b9392505050565b6000815180845260005b81811015611d8457602081850181015186830182015201611d68565b506000602082860101526020601f19601f83011685010191505092915050565b602081526000611d576020830184611d5e565b634e487b7160e01b600052604160045260246000fd5b604051601f8201601f191681016001600160401b0381118282101715611df557611df5611db7565b604052919050565b600082601f830112611e0e57600080fd5b81356001600160401b03811115611e2757611e27611db7565b611e3a601f8201601f1916602001611dcd565b818152846020838601011115611e4f57600080fd5b816020850160208301376000918101602001919091529392505050565b60008060408385031215611e7f57600080fd5b8235915060208301356001600160401b03811115611e9c57600080fd5b611ea885828601611dfd565b9150509250929050565b80356001600160401b0381168114611ec957600080fd5b919050565b60008060408385031215611ee157600080fd5b82359150611ef160208401611eb2565b90509250929050565b80356001600160a01b0381168114611ec957600080fd5b60008060408385031215611f2457600080fd5b611f2d83611efa565b946020939093013593505050565b803560058110611ec957600080fd5b60008060408385031215611f5d57600080fd5b82359150611ef160208401611f3b565b600060208284031215611f7f57600080fd5b611d5782611efa565b600060208284031215611f9a57600080fd5b5035919050565b60008060408385031215611fb457600080fd5b82356001600160401b03811115611fca57600080fd5b611fd685828601611dfd565b95602094909401359450505050565b60008060408385031215611ff857600080fd5b82359150611ef160208401611efa565b80358015158114611ec957600080fd5b60008060006060848603121561202d57600080fd5b61203684611efa565b92506020840135915061204b60408501612008565b90509250925092565b602080825282518282018190526000918401906040840190835b8181101561208c57835183526020938401939092019160010161206e565b509095945050505050565b600080604083850312156120aa57600080fd5b50508035926020909101359150565b600080604083850312156120cc57600080fd5b82359150611ef160208401612008565b634e487b7160e01b600052602160045260246000fd5b6005811061211057634e487b7160e01b600052602160045260246000fd5b9052565b60e08152600061212760e083018a611d5e565b6001600160a01b0389166020840152604083018890526001600160401b0387166060840152905061215b60808301866120f2565b92151560a082015290151560c09091015295945050505050565b60008060006060848603121561218a57600080fd5b83356001600160401b038111156121a057600080fd5b8401601f810186136121b157600080fd5b80356001600160401b038111156121ca576121ca611db7565b8060051b6121da60208201611dcd565b918252602081840181019290810190898411156121f657600080fd5b6020850194505b8385101561221f5761220e85611efa565b8252602094850194909101906121fd565b96505050506020850135925061204b905060408501612008565b600080600080600080600060e0888a03121561225457600080fd5b87356001600160401b0381111561226a57600080fd5b6122768a828b01611dfd565b97505061228560208901611efa565b95506040880135945061229a60608901611eb2565b93506122a860808901611f3b565b92506122b660a08901612008565b91506122c460c08901612008565b905092959891949750929550565b600181811c908216806122e657607f821691505b60208210810361230657634e487b7160e01b600052602260045260246000fd5b50919050565b601f8211156108dd57806000526020600020601f840160051c810160208510156123335750805b601f840160051c820191505b81811015610cb7576000815560010161233f565b81516001600160401b0381111561236c5761236c611db7565b6123808161237a84546122d2565b8461230c565b6020601f8211600181146123b4576000831561239c5750848201515b600019600385901b1c1916600184901b178455610cb7565b600084815260208120601f198516915b828110156123e457878501518255602094850194600190920191016123c4565b50848210156124025786840151600019600387901b60f8161c191681555b50505050600190811b01905550565b634e487b7160e01b600052603260045260246000fd5b634e487b7160e01b600052601160045260246000fd5b60006001820161244f5761244f612427565b5060010190565b60a08152600061246960a0830188611d5e565b905085602083015261247e60408301866120f2565b92151560608201529015156080909101529392505050565b634e487b7160e01b600052600160045260246000fd5b818103818111156107bf576107bf612427565b808201808211156107bf576107bf61242756fea2646970667358221220c52e40b7a75831f8c62e8794f191c5bc941d8ab8e20dee9aba87923c60d4ee4764736f6c634300081c0033","opcodes":"PUSH1 0x80 PUSH1 0x40 MSTORE CALLVALUE DUP1 ISZERO PUSH2 0x10 JUMPI PUSH1 0x0 DUP1 REVERT JUMPDEST POP PUSH1 0x40 MLOAD PUSH2 0x2B46 CODESIZE SUB DUP1 PUSH2 0x2B46 DUP4 CODECOPY DUP2 ADD PUSH1 0x40 DUP2 SWAP1 MSTORE PUSH2 0x2F SWAP2 PUSH2 0x389 JUMP JUMPDEST CALLER PUSH1 0x40 MLOAD DUP1 PUSH1 0x40 ADD PUSH1 0x40 MSTORE DUP1 PUSH1 0x3 DUP2 MSTORE PUSH1 0x20 ADD PUSH3 0x4A5053 PUSH1 0xE8 SHL DUP2 MSTORE POP PUSH1 0x40 MLOAD DUP1 PUSH1 0x40 ADD PUSH1 0x40 MSTORE DUP1 PUSH1 0x10 DUP2 MSTORE PUSH1 0x20 ADD PUSH16 0x12940814DD1858DAD95C8811DD585C99 PUSH1 0x82 SHL DUP2 MSTORE POP DUP2 PUSH1 0x5 SWAP1 DUP2 PUSH2 0x84 SWAP2 SWAP1 PUSH2 0x4C4 JUMP JUMPDEST POP PUSH1 0x6 PUSH2 0x91 DUP3 DUP3 PUSH2 0x4C4 JUMP JUMPDEST POP POP PUSH1 0x9 DUP1 SLOAD PUSH1 0x1 PUSH1 0x1 PUSH1 0xA0 SHL SUB NOT AND CALLER OR SWAP1 SSTORE POP PUSH1 0x1 PUSH1 0x1 PUSH1 0xA0 SHL SUB DUP2 AND PUSH2 0xD5 JUMPI PUSH1 0x40 MLOAD PUSH4 0x1E4FBDF7 PUSH1 0xE0 SHL DUP2 MSTORE PUSH1 0x0 PUSH1 0x4 DUP3 ADD MSTORE PUSH1 0x24 ADD JUMPDEST PUSH1 0x40 MLOAD DUP1 SWAP2 SUB SWAP1 REVERT JUMPDEST PUSH2 0xDE DUP2 PUSH2 0xF7 JUMP JUMPDEST POP PUSH2 0xF0 DUP2 CALLER PUSH1 0x0 DUP1 DUP1 DUP1 PUSH1 0x1 PUSH2 0x149 JUMP JUMPDEST POP POP PUSH2 0x62F JUMP JUMPDEST PUSH1 0xA DUP1 SLOAD PUSH1 0x1 PUSH1 0x1 PUSH1 0xA0 SHL SUB DUP4 DUP2 AND PUSH1 0x1 PUSH1 0x1 PUSH1 0xA0 SHL SUB NOT DUP4 AND DUP2 OR SWAP1 SWAP4 SSTORE PUSH1 0x40 MLOAD SWAP2 AND SWAP2 SWAP1 DUP3 SWAP1 PUSH32 0x8BE0079C531659141344CD1FD0A4F28419497F9722A3DAAFE3B4186F6B6457E0 SWAP1 PUSH1 0x0 SWAP1 LOG3 POP POP JUMP JUMPDEST PUSH1 0x0 PUSH2 0x153 PUSH2 0x320 JUMP JUMPDEST PUSH1 0xB DUP1 SLOAD SWAP1 PUSH1 0x0 PUSH2 0x163 DUP4 PUSH2 0x582 JUMP JUMPDEST SWAP2 SWAP1 POP SSTORE POP PUSH1 0x40 MLOAD DUP1 PUSH1 0xE0 ADD PUSH1 0x40 MSTORE DUP1 DUP10 DUP2 MSTORE PUSH1 0x20 ADD DUP9 PUSH1 0x1 PUSH1 0x1 PUSH1 0xA0 SHL SUB AND DUP2 MSTORE PUSH1 0x20 ADD DUP8 DUP2 MSTORE PUSH1 0x20 ADD DUP7 PUSH1 0x1 PUSH1 0x1 PUSH1 0x40 SHL SUB AND DUP2 MSTORE PUSH1 0x20 ADD DUP6 PUSH1 0x4 DUP2 GT ISZERO PUSH2 0x1AF JUMPI PUSH2 0x1AF PUSH2 0x5A9 JUMP JUMPDEST DUP2 MSTORE DUP5 ISZERO ISZERO PUSH1 0x20 DUP1 DUP4 ADD SWAP2 SWAP1 SWAP2 MSTORE DUP5 ISZERO ISZERO PUSH1 0x40 SWAP3 DUP4 ADD MSTORE PUSH1 0xB SLOAD PUSH1 0x0 SWAP1 DUP2 MSTORE PUSH1 0xD SWAP1 SWAP2 MSTORE KECCAK256 DUP2 MLOAD DUP2 SWAP1 PUSH2 0x1E2 SWAP1 DUP3 PUSH2 0x4C4 JUMP JUMPDEST POP PUSH1 0x20 DUP3 ADD MLOAD PUSH1 0x1 DUP3 ADD DUP1 SLOAD PUSH1 0x1 PUSH1 0x1 PUSH1 0xA0 SHL SUB SWAP1 SWAP3 AND PUSH1 0x1 PUSH1 0x1 PUSH1 0xA0 SHL SUB NOT SWAP1 SWAP3 AND SWAP2 SWAP1 SWAP2 OR SWAP1 SSTORE PUSH1 0x40 DUP3 ADD MLOAD PUSH1 0x2 DUP3 ADD SSTORE PUSH1 0x60 DUP3 ADD MLOAD PUSH1 0x3 DUP3 ADD DUP1 SLOAD PUSH1 0x1 PUSH1 0x1 PUSH1 0x40 SHL SUB SWAP1 SWAP3 AND PUSH1 0x1 PUSH1 0x1 PUSH1 0x40 SHL SUB NOT DUP4 AND DUP2 OR DUP3 SSTORE PUSH1 0x80 DUP6 ADD MLOAD SWAP3 PUSH1 0x1 PUSH1 0x1 PUSH1 0x48 SHL SUB NOT AND OR PUSH9 0x10000000000000000 DUP4 PUSH1 0x4 DUP2 GT ISZERO PUSH2 0x267 JUMPI PUSH2 0x267 PUSH2 0x5A9 JUMP JUMPDEST MUL OR SWAP1 SSTORE POP PUSH1 0xA0 DUP3 ADD MLOAD PUSH1 0x3 SWAP1 SWAP2 ADD DUP1 SLOAD PUSH1 0xC0 SWAP1 SWAP4 ADD MLOAD ISZERO ISZERO PUSH11 0x100000000000000000000 MUL PUSH1 0xFF PUSH1 0x50 SHL NOT SWAP3 ISZERO ISZERO PUSH10 0x1000000000000000000 MUL SWAP3 SWAP1 SWAP3 AND PUSH2 0xFFFF PUSH1 0x48 SHL NOT SWAP1 SWAP4 AND SWAP3 SWAP1 SWAP3 OR OR SWAP1 SSTORE PUSH1 0xB SLOAD PUSH1 0x40 MLOAD PUSH1 0x1 PUSH1 0x1 PUSH1 0x40 SHL SUB DUP8 AND SWAP2 SWAP1 PUSH1 0x1 PUSH1 0x1 PUSH1 0xA0 SHL SUB DUP11 AND SWAP1 PUSH32 0x4903E9C3826C1A365F9C5B6193E9E708B4269472495FFF7BA4B271D74907FCDE SWAP1 PUSH2 0x309 SWAP1 DUP14 SWAP1 DUP13 SWAP1 DUP12 SWAP1 DUP12 SWAP1 DUP12 SWAP1 PUSH2 0x5BF JUMP JUMPDEST PUSH1 0x40 MLOAD DUP1 SWAP2 SUB SWAP1 LOG4 POP PUSH1 0xB SLOAD SWAP8 SWAP7 POP POP POP POP POP POP POP JUMP JUMPDEST PUSH1 0xA SLOAD PUSH1 0x1 PUSH1 0x1 PUSH1 0xA0 SHL SUB AND CALLER EQ PUSH2 0x34D JUMPI PUSH1 0x40 MLOAD PUSH4 0x118CDAA7 PUSH1 0xE0 SHL DUP2 MSTORE CALLER PUSH1 0x4 DUP3 ADD MSTORE PUSH1 0x24 ADD PUSH2 0xCC JUMP JUMPDEST JUMP JUMPDEST PUSH4 0x4E487B71 PUSH1 0xE0 SHL PUSH1 0x0 MSTORE PUSH1 0x41 PUSH1 0x4 MSTORE PUSH1 0x24 PUSH1 0x0 REVERT JUMPDEST PUSH1 0x0 JUMPDEST DUP4 DUP2 LT ISZERO PUSH2 0x380 JUMPI DUP2 DUP2 ADD MLOAD DUP4 DUP3 ADD MSTORE PUSH1 0x20 ADD PUSH2 0x368 JUMP JUMPDEST POP POP PUSH1 0x0 SWAP2 ADD MSTORE JUMP JUMPDEST PUSH1 0x0 PUSH1 0x20 DUP3 DUP5 SUB SLT ISZERO PUSH2 0x39B JUMPI PUSH1 0x0 DUP1 REVERT JUMPDEST DUP2 MLOAD PUSH1 0x1 PUSH1 0x1 PUSH1 0x40 SHL SUB DUP2 GT ISZERO PUSH2 0x3B1 JUMPI PUSH1 0x0 DUP1 REVERT JUMPDEST DUP3 ADD PUSH1 0x1F DUP2 ADD DUP5 SGT PUSH2 0x3C2 JUMPI PUSH1 0x0 DUP1 REVERT JUMPDEST DUP1 MLOAD PUSH1 0x1 PUSH1 0x1 PUSH1 0x40 SHL SUB DUP2 GT ISZERO PUSH2 0x3DB JUMPI PUSH2 0x3DB PUSH2 0x34F JUMP JUMPDEST PUSH1 0x40 MLOAD PUSH1 0x1F DUP3 ADD PUSH1 0x1F NOT SWAP1 DUP2 AND PUSH1 0x3F ADD AND DUP2 ADD PUSH1 0x1 PUSH1 0x1 PUSH1 0x40 SHL SUB DUP2 GT DUP3 DUP3 LT OR ISZERO PUSH2 0x409 JUMPI PUSH2 0x409 PUSH2 0x34F JUMP JUMPDEST PUSH1 0x40 MSTORE DUP2 DUP2 MSTORE DUP3 DUP3 ADD PUSH1 0x20 ADD DUP7 LT ISZERO PUSH2 0x421 JUMPI PUSH1 0x0 DUP1 REVERT JUMPDEST PUSH2 0x432 DUP3 PUSH1 0x20 DUP4 ADD PUSH1 0x20 DUP7 ADD PUSH2 0x365 JUMP JUMPDEST SWAP6 SWAP5 POP POP POP POP POP JUMP JUMPDEST PUSH1 0x1 DUP2 DUP2 SHR SWAP1 DUP3 AND DUP1 PUSH2 0x44F JUMPI PUSH1 0x7F DUP3 AND SWAP2 POP JUMPDEST PUSH1 0x20 DUP3 LT DUP2 SUB PUSH2 0x46F JUMPI PUSH4 0x4E487B71 PUSH1 0xE0 SHL PUSH1 0x0 MSTORE PUSH1 0x22 PUSH1 0x4 MSTORE PUSH1 0x24 PUSH1 0x0 REVERT JUMPDEST POP SWAP2 SWAP1 POP JUMP JUMPDEST PUSH1 0x1F DUP3 GT ISZERO PUSH2 0x4BF JUMPI DUP1 PUSH1 0x0 MSTORE PUSH1 0x20 PUSH1 0x0 KECCAK256 PUSH1 0x1F DUP5 ADD PUSH1 0x5 SHR DUP2 ADD PUSH1 0x20 DUP6 LT ISZERO PUSH2 0x49C JUMPI POP DUP1 JUMPDEST PUSH1 0x1F DUP5 ADD PUSH1 0x5 SHR DUP3 ADD SWAP2 POP JUMPDEST DUP2 DUP2 LT ISZERO PUSH2 0x4BC JUMPI PUSH1 0x0 DUP2 SSTORE PUSH1 0x1 ADD PUSH2 0x4A8 JUMP JUMPDEST POP POP JUMPDEST POP POP POP JUMP JUMPDEST DUP2 MLOAD PUSH1 0x1 PUSH1 0x1 PUSH1 0x40 SHL SUB DUP2 GT ISZERO PUSH2 0x4DD JUMPI PUSH2 0x4DD PUSH2 0x34F JUMP JUMPDEST PUSH2 0x4F1 DUP2 PUSH2 0x4EB DUP5 SLOAD PUSH2 0x43B JUMP JUMPDEST DUP5 PUSH2 0x475 JUMP JUMPDEST PUSH1 0x20 PUSH1 0x1F DUP3 GT PUSH1 0x1 DUP2 EQ PUSH2 0x525 JUMPI PUSH1 0x0 DUP4 ISZERO PUSH2 0x50D JUMPI POP DUP5 DUP3 ADD MLOAD JUMPDEST PUSH1 0x0 NOT PUSH1 0x3 DUP6 SWAP1 SHL SHR NOT AND PUSH1 0x1 DUP5 SWAP1 SHL OR DUP5 SSTORE PUSH2 0x4BC JUMP JUMPDEST PUSH1 0x0 DUP5 DUP2 MSTORE PUSH1 0x20 DUP2 KECCAK256 PUSH1 0x1F NOT DUP6 AND SWAP2 JUMPDEST DUP3 DUP2 LT ISZERO PUSH2 0x555 JUMPI DUP8 DUP6 ADD MLOAD DUP3 SSTORE PUSH1 0x20 SWAP5 DUP6 ADD SWAP5 PUSH1 0x1 SWAP1 SWAP3 ADD SWAP2 ADD PUSH2 0x535 JUMP JUMPDEST POP DUP5 DUP3 LT ISZERO PUSH2 0x573 JUMPI DUP7 DUP5 ADD MLOAD PUSH1 0x0 NOT PUSH1 0x3 DUP8 SWAP1 SHL PUSH1 0xF8 AND SHR NOT AND DUP2 SSTORE JUMPDEST POP POP POP POP PUSH1 0x1 SWAP1 DUP2 SHL ADD SWAP1 SSTORE POP JUMP JUMPDEST PUSH1 0x0 PUSH1 0x1 DUP3 ADD PUSH2 0x5A2 JUMPI PUSH4 0x4E487B71 PUSH1 0xE0 SHL PUSH1 0x0 MSTORE PUSH1 0x11 PUSH1 0x4 MSTORE PUSH1 0x24 PUSH1 0x0 REVERT JUMPDEST POP PUSH1 0x1 ADD SWAP1 JUMP JUMPDEST PUSH4 0x4E487B71 PUSH1 0xE0 SHL PUSH1 0x0 MSTORE PUSH1 0x21 PUSH1 0x4 MSTORE PUSH1 0x24 PUSH1 0x0 REVERT JUMPDEST PUSH1 0xA0 DUP2 MSTORE PUSH1 0x0 DUP7 MLOAD DUP1 PUSH1 0xA0 DUP5 ADD MSTORE PUSH2 0x5DE DUP2 PUSH1 0xC0 DUP6 ADD PUSH1 0x20 DUP12 ADD PUSH2 0x365 JUMP JUMPDEST PUSH1 0x20 DUP4 ADD DUP8 SWAP1 MSTORE PUSH1 0x1F ADD PUSH1 0x1F NOT AND DUP3 ADD PUSH1 0xC0 ADD SWAP1 POP PUSH1 0x5 DUP6 LT PUSH2 0x611 JUMPI PUSH4 0x4E487B71 PUSH1 0xE0 SHL PUSH1 0x0 MSTORE PUSH1 0x21 PUSH1 0x4 MSTORE PUSH1 0x24 PUSH1 0x0 REVERT JUMPDEST PUSH1 0x40 DUP3 ADD SWAP5 SWAP1 SWAP5 MSTORE SWAP2 ISZERO ISZERO PUSH1 0x60 DUP4 ADD MSTORE ISZERO ISZERO PUSH1 0x80 SWAP1 SWAP2 ADD MSTORE SWAP3 SWAP2 POP POP JUMP JUMPDEST PUSH2 0x2508 DUP1 PUSH2 0x63E PUSH1 0x0 CODECOPY PUSH1 0x0 RETURN INVALID PUSH1 0x80 PUSH1 0x40 MSTORE PUSH1 0x4 CALLDATASIZE LT PUSH2 0x225 JUMPI PUSH1 0x0 CALLDATALOAD PUSH1 0xE0 SHR DUP1 PUSH4 0x71BAE2CB GT PUSH2 0x123 JUMPI DUP1 PUSH4 0xC22C4F43 GT PUSH2 0xAB JUMPI DUP1 PUSH4 0xEF9EC2F3 GT PUSH2 0x6F JUMPI DUP1 PUSH4 0xEF9EC2F3 EQ PUSH2 0x6B8 JUMPI DUP1 PUSH4 0xF2FDE38B EQ PUSH2 0x6D8 JUMPI DUP1 PUSH4 0xF577A500 EQ PUSH2 0x6F8 JUMPI DUP1 PUSH4 0xF6D2C013 EQ PUSH2 0x718 JUMPI DUP1 PUSH4 0xF7921628 EQ PUSH2 0x738 JUMPI PUSH1 0x0 DUP1 REVERT JUMPDEST DUP1 PUSH4 0xC22C4F43 EQ PUSH2 0x605 JUMPI DUP1 PUSH4 0xC51D9E4E EQ PUSH2 0x638 JUMPI DUP1 PUSH4 0xC87B56DD EQ PUSH2 0x658 JUMPI DUP1 PUSH4 0xD7A39C3A EQ PUSH2 0x678 JUMPI DUP1 PUSH4 0xD88F5B89 EQ PUSH2 0x698 JUMPI PUSH1 0x0 DUP1 REVERT JUMPDEST DUP1 PUSH4 0x8DA5CB5B GT PUSH2 0xF2 JUMPI DUP1 PUSH4 0x8DA5CB5B EQ PUSH2 0x572 JUMPI DUP1 PUSH4 0x95D89B41 EQ PUSH2 0x590 JUMPI DUP1 PUSH4 0x9DAEAD81 EQ PUSH2 0x5A5 JUMPI DUP1 PUSH4 0xA4E3BAB9 EQ PUSH2 0x5C5 JUMPI DUP1 PUSH4 0xAA8E7402 EQ PUSH2 0x5E5 JUMPI PUSH1 0x0 DUP1 REVERT JUMPDEST DUP1 PUSH4 0x71BAE2CB EQ PUSH2 0x4CA JUMPI DUP1 PUSH4 0x7D22C35C EQ PUSH2 0x4EA JUMPI DUP1 PUSH4 0x804EF86C EQ PUSH2 0x525 JUMPI DUP1 PUSH4 0x8462151C EQ PUSH2 0x545 JUMPI PUSH1 0x0 DUP1 REVERT JUMPDEST DUP1 PUSH4 0x3DE419E9 GT PUSH2 0x1B1 JUMPI DUP1 PUSH4 0x6352211E GT PUSH2 0x175 JUMPI DUP1 PUSH4 0x6352211E EQ PUSH2 0x405 JUMPI DUP1 PUSH4 0x69D26933 EQ PUSH2 0x43D JUMPI DUP1 PUSH4 0x6B4ED21B EQ PUSH2 0x46A JUMPI DUP1 PUSH4 0x70A08231 EQ PUSH2 0x47F JUMPI DUP1 PUSH4 0x715018A6 EQ PUSH2 0x4B5 JUMPI PUSH1 0x0 DUP1 REVERT JUMPDEST DUP1 PUSH4 0x3DE419E9 EQ PUSH2 0x35C JUMPI DUP1 PUSH4 0x43945512 EQ PUSH2 0x37C JUMPI DUP1 PUSH4 0x4F6CCCE7 EQ PUSH2 0x3B4 JUMPI DUP1 PUSH4 0x5484DABB EQ PUSH2 0x3D2 JUMPI DUP1 PUSH4 0x5C3D7869 EQ PUSH2 0x3E5 JUMPI PUSH1 0x0 DUP1 REVERT JUMPDEST DUP1 PUSH4 0x17E59329 GT PUSH2 0x1F8 JUMPI DUP1 PUSH4 0x17E59329 EQ PUSH2 0x2C7 JUMPI DUP1 PUSH4 0x26019C18 EQ PUSH2 0x2E7 JUMPI DUP1 PUSH4 0x29BD58B4 EQ PUSH2 0x2FC JUMPI DUP1 PUSH4 0x2F745C59 EQ PUSH2 0x31C JUMPI DUP1 PUSH4 0x3D687D08 EQ PUSH2 0x33C JUMPI PUSH1 0x0 DUP1 REVERT JUMPDEST DUP1 PUSH4 0x1FFC9A7 EQ PUSH2 0x22A JUMPI DUP1 PUSH4 0x6237526 EQ PUSH2 0x25F JUMPI DUP1 PUSH4 0x6FDDE03 EQ PUSH2 0x283 JUMPI DUP1 PUSH4 0x162094C4 EQ PUSH2 0x2A5 JUMPI JUMPDEST PUSH1 0x0 DUP1 REVERT JUMPDEST CALLVALUE DUP1 ISZERO PUSH2 0x236 JUMPI PUSH1 0x0 DUP1 REVERT JUMPDEST POP PUSH2 0x24A PUSH2 0x245 CALLDATASIZE PUSH1 0x4 PUSH2 0x1D2D JUMP JUMPDEST PUSH2 0x758 JUMP JUMPDEST PUSH1 0x40 MLOAD SWAP1 ISZERO ISZERO DUP2 MSTORE PUSH1 0x20 ADD JUMPDEST PUSH1 0x40 MLOAD DUP1 SWAP2 SUB SWAP1 RETURN JUMPDEST CALLVALUE DUP1 ISZERO PUSH2 0x26B JUMPI PUSH1 0x0 DUP1 REVERT JUMPDEST POP PUSH2 0x275 PUSH1 0xB SLOAD DUP2 JUMP JUMPDEST PUSH1 0x40 MLOAD SWAP1 DUP2 MSTORE PUSH1 0x20 ADD PUSH2 0x256 JUMP JUMPDEST CALLVALUE DUP1 ISZERO PUSH2 0x28F JUMPI PUSH1 0x0 DUP1 REVERT JUMPDEST POP PUSH2 0x298 PUSH2 0x7C5 JUMP JUMPDEST PUSH1 0x40 MLOAD PUSH2 0x256 SWAP2 SWAP1 PUSH2 0x1DA4 JUMP JUMPDEST CALLVALUE DUP1 ISZERO PUSH2 0x2B1 JUMPI PUSH1 0x0 DUP1 REVERT JUMPDEST POP PUSH2 0x2C5 PUSH2 0x2C0 CALLDATASIZE PUSH1 0x4 PUSH2 0x1E6C JUMP JUMPDEST PUSH2 0x857 JUMP JUMPDEST STOP JUMPDEST CALLVALUE DUP1 ISZERO PUSH2 0x2D3 JUMPI PUSH1 0x0 DUP1 REVERT JUMPDEST POP PUSH2 0x2C5 PUSH2 0x2E2 CALLDATASIZE PUSH1 0x4 PUSH2 0x1ECE JUMP JUMPDEST PUSH2 0x8E2 JUMP JUMPDEST CALLVALUE DUP1 ISZERO PUSH2 0x2F3 JUMPI PUSH1 0x0 DUP1 REVERT JUMPDEST POP PUSH1 0x7 SLOAD PUSH2 0x275 JUMP JUMPDEST CALLVALUE DUP1 ISZERO PUSH2 0x308 JUMPI PUSH1 0x0 DUP1 REVERT JUMPDEST POP PUSH2 0x2C5 PUSH2 0x317 CALLDATASIZE PUSH1 0x4 PUSH2 0x1F11 JUMP JUMPDEST PUSH2 0x976 JUMP JUMPDEST CALLVALUE DUP1 ISZERO PUSH2 0x328 JUMPI PUSH1 0x0 DUP1 REVERT JUMPDEST POP PUSH2 0x275 PUSH2 0x337 CALLDATASIZE PUSH1 0x4 PUSH2 0x1F11 JUMP JUMPDEST PUSH2 0xA28 JUMP JUMPDEST CALLVALUE DUP1 ISZERO PUSH2 0x348 JUMPI PUSH1 0x0 DUP1 REVERT JUMPDEST POP PUSH2 0x2C5 PUSH2 0x357 CALLDATASIZE PUSH1 0x4 PUSH2 0x1F4A JUMP JUMPDEST PUSH2 0xAAD JUMP JUMPDEST CALLVALUE DUP1 ISZERO PUSH2 0x368 JUMPI PUSH1 0x0 DUP1 REVERT JUMPDEST POP PUSH2 0x275 PUSH2 0x377 CALLDATASIZE PUSH1 0x4 PUSH2 0x1F11 JUMP JUMPDEST PUSH2 0xB51 JUMP JUMPDEST CALLVALUE DUP1 ISZERO PUSH2 0x388 JUMPI PUSH1 0x0 DUP1 REVERT JUMPDEST POP PUSH2 0x24A PUSH2 0x397 CALLDATASIZE PUSH1 0x4 PUSH2 0x1F6D JUMP JUMPDEST PUSH1 0x1 PUSH1 0x1 PUSH1 0xA0 SHL SUB AND PUSH1 0x0 SWAP1 DUP2 MSTORE PUSH1 0x4 PUSH1 0x20 MSTORE PUSH1 0x40 SWAP1 KECCAK256 SLOAD ISZERO ISZERO SWAP1 JUMP JUMPDEST CALLVALUE DUP1 ISZERO PUSH2 0x3C0 JUMPI PUSH1 0x0 DUP1 REVERT JUMPDEST POP PUSH2 0x275 PUSH2 0x3CF CALLDATASIZE PUSH1 0x4 PUSH2 0x1F88 JUMP JUMPDEST SWAP1 JUMP JUMPDEST PUSH2 0x2C5 PUSH2 0x3E0 CALLDATASIZE PUSH1 0x4 PUSH2 0x1F11 JUMP JUMPDEST PUSH2 0xB82 JUMP JUMPDEST CALLVALUE DUP1 ISZERO PUSH2 0x3F1 JUMPI PUSH1 0x0 DUP1 REVERT JUMPDEST POP PUSH2 0x2C5 PUSH2 0x400 CALLDATASIZE PUSH1 0x4 PUSH2 0x1FA1 JUMP JUMPDEST PUSH2 0xCBE JUMP JUMPDEST CALLVALUE DUP1 ISZERO PUSH2 0x411 JUMPI PUSH1 0x0 DUP1 REVERT JUMPDEST POP PUSH2 0x425 PUSH2 0x420 CALLDATASIZE PUSH1 0x4 PUSH2 0x1F88 JUMP JUMPDEST PUSH2 0xD36 JUMP JUMPDEST PUSH1 0x40 MLOAD PUSH1 0x1 PUSH1 0x1 PUSH1 0xA0 SHL SUB SWAP1 SWAP2 AND DUP2 MSTORE PUSH1 0x20 ADD PUSH2 0x256 JUMP JUMPDEST CALLVALUE DUP1 ISZERO PUSH2 0x449 JUMPI PUSH1 0x0 DUP1 REVERT JUMPDEST POP PUSH2 0x275 PUSH2 0x458 CALLDATASIZE PUSH1 0x4 PUSH2 0x1F88 JUMP JUMPDEST PUSH1 0xE PUSH1 0x20 MSTORE PUSH1 0x0 SWAP1 DUP2 MSTORE PUSH1 0x40 SWAP1 KECCAK256 SLOAD DUP2 JUMP JUMPDEST CALLVALUE DUP1 ISZERO PUSH2 0x476 JUMPI PUSH1 0x0 DUP1 REVERT JUMPDEST POP PUSH1 0x8 SLOAD PUSH2 0x275 JUMP JUMPDEST CALLVALUE DUP1 ISZERO PUSH2 0x48B JUMPI PUSH1 0x0 DUP1 REVERT JUMPDEST POP PUSH2 0x275 PUSH2 0x49A CALLDATASIZE PUSH1 0x4 PUSH2 0x1F6D JUMP JUMPDEST PUSH1 0x1 PUSH1 0x1 PUSH1 0xA0 SHL SUB AND PUSH1 0x0 SWAP1 DUP2 MSTORE PUSH1 0x2 PUSH1 0x20 MSTORE PUSH1 0x40 SWAP1 KECCAK256 SLOAD SWAP1 JUMP JUMPDEST CALLVALUE DUP1 ISZERO PUSH2 0x4C1 JUMPI PUSH1 0x0 DUP1 REVERT JUMPDEST POP PUSH2 0x2C5 PUSH2 0xD54 JUMP JUMPDEST CALLVALUE DUP1 ISZERO PUSH2 0x4D6 JUMPI PUSH1 0x0 DUP1 REVERT JUMPDEST POP PUSH2 0x2C5 PUSH2 0x4E5 CALLDATASIZE PUSH1 0x4 PUSH2 0x1F11 JUMP JUMPDEST PUSH2 0xD68 JUMP JUMPDEST CALLVALUE DUP1 ISZERO PUSH2 0x4F6 JUMPI PUSH1 0x0 DUP1 REVERT JUMPDEST POP PUSH2 0x24A PUSH2 0x505 CALLDATASIZE PUSH1 0x4 PUSH2 0x1FE5 JUMP JUMPDEST PUSH1 0xF PUSH1 0x20 SWAP1 DUP2 MSTORE PUSH1 0x0 SWAP3 DUP4 MSTORE PUSH1 0x40 DUP1 DUP5 KECCAK256 SWAP1 SWAP2 MSTORE SWAP1 DUP3 MSTORE SWAP1 KECCAK256 SLOAD PUSH1 0xFF AND DUP2 JUMP JUMPDEST CALLVALUE DUP1 ISZERO PUSH2 0x531 JUMPI PUSH1 0x0 DUP1 REVERT JUMPDEST POP PUSH2 0x24A PUSH2 0x540 CALLDATASIZE PUSH1 0x4 PUSH2 0x2018 JUMP JUMPDEST PUSH2 0xE35 JUMP JUMPDEST CALLVALUE DUP1 ISZERO PUSH2 0x551 JUMPI PUSH1 0x0 DUP1 REVERT JUMPDEST POP PUSH2 0x565 PUSH2 0x560 CALLDATASIZE PUSH1 0x4 PUSH2 0x1F6D JUMP JUMPDEST PUSH2 0xED1 JUMP JUMPDEST PUSH1 0x40 MLOAD PUSH2 0x256 SWAP2 SWAP1 PUSH2 0x2054 JUMP JUMPDEST CALLVALUE DUP1 ISZERO PUSH2 0x57E JUMPI PUSH1 0x0 DUP1 REVERT JUMPDEST POP PUSH1 0xA SLOAD PUSH1 0x1 PUSH1 0x1 PUSH1 0xA0 SHL SUB AND PUSH2 0x425 JUMP JUMPDEST CALLVALUE DUP1 ISZERO PUSH2 0x59C JUMPI PUSH1 0x0 DUP1 REVERT JUMPDEST POP PUSH2 0x298 PUSH2 0xF3D JUMP JUMPDEST CALLVALUE DUP1 ISZERO PUSH2 0x5B1 JUMPI PUSH1 0x0 DUP1 REVERT JUMPDEST POP PUSH2 0x2C5 PUSH2 0x5C0 CALLDATASIZE PUSH1 0x4 PUSH2 0x2097 JUMP JUMPDEST PUSH2 0xF4C JUMP JUMPDEST CALLVALUE DUP1 ISZERO PUSH2 0x5D1 JUMPI PUSH1 0x0 DUP1 REVERT JUMPDEST POP PUSH2 0x2C5 PUSH2 0x5E0 CALLDATASIZE PUSH1 0x4 PUSH2 0x1F11 JUMP JUMPDEST PUSH2 0xFC3 JUMP JUMPDEST CALLVALUE DUP1 ISZERO PUSH2 0x5F1 JUMPI PUSH1 0x0 DUP1 REVERT JUMPDEST POP PUSH2 0x2C5 PUSH2 0x600 CALLDATASIZE PUSH1 0x4 PUSH2 0x20B9 JUMP JUMPDEST PUSH2 0x10C3 JUMP JUMPDEST CALLVALUE DUP1 ISZERO PUSH2 0x611 JUMPI PUSH1 0x0 DUP1 REVERT JUMPDEST POP PUSH2 0x625 PUSH2 0x620 CALLDATASIZE PUSH1 0x4 PUSH2 0x1F88 JUMP JUMPDEST PUSH2 0x1153 JUMP JUMPDEST PUSH1 0x40 MLOAD PUSH2 0x256 SWAP8 SWAP7 SWAP6 SWAP5 SWAP4 SWAP3 SWAP2 SWAP1 PUSH2 0x2114 JUMP JUMPDEST CALLVALUE DUP1 ISZERO PUSH2 0x644 JUMPI PUSH1 0x0 DUP1 REVERT JUMPDEST POP PUSH2 0x24A PUSH2 0x653 CALLDATASIZE PUSH1 0x4 PUSH2 0x2175 JUMP JUMPDEST PUSH2 0x1239 JUMP JUMPDEST CALLVALUE DUP1 ISZERO PUSH2 0x664 JUMPI PUSH1 0x0 DUP1 REVERT JUMPDEST POP PUSH2 0x298 PUSH2 0x673 CALLDATASIZE PUSH1 0x4 PUSH2 0x1F88 JUMP JUMPDEST PUSH2 0x1311 JUMP JUMPDEST CALLVALUE DUP1 ISZERO PUSH2 0x684 JUMPI PUSH1 0x0 DUP1 REVERT JUMPDEST POP PUSH2 0x275 PUSH2 0x693 CALLDATASIZE PUSH1 0x4 PUSH2 0x2239 JUMP JUMPDEST PUSH2 0x13B1 JUMP JUMPDEST CALLVALUE DUP1 ISZERO PUSH2 0x6A4 JUMPI PUSH1 0x0 DUP1 REVERT JUMPDEST POP PUSH2 0x2C5 PUSH2 0x6B3 CALLDATASIZE PUSH1 0x4 PUSH2 0x1F11 JUMP JUMPDEST PUSH2 0x157F JUMP JUMPDEST CALLVALUE DUP1 ISZERO PUSH2 0x6C4 JUMPI PUSH1 0x0 DUP1 REVERT JUMPDEST POP PUSH2 0x2C5 PUSH2 0x6D3 CALLDATASIZE PUSH1 0x4 PUSH2 0x1F11 JUMP JUMPDEST PUSH2 0x15AD JUMP JUMPDEST CALLVALUE DUP1 ISZERO PUSH2 0x6E4 JUMPI PUSH1 0x0 DUP1 REVERT JUMPDEST POP PUSH2 0x2C5 PUSH2 0x6F3 CALLDATASIZE PUSH1 0x4 PUSH2 0x1F6D JUMP JUMPDEST PUSH2 0x16A6 JUMP JUMPDEST CALLVALUE DUP1 ISZERO PUSH2 0x704 JUMPI PUSH1 0x0 DUP1 REVERT JUMPDEST POP PUSH2 0x24A PUSH2 0x713 CALLDATASIZE PUSH1 0x4 PUSH2 0x1F88 JUMP JUMPDEST PUSH2 0x16E4 JUMP JUMPDEST CALLVALUE DUP1 ISZERO PUSH2 0x724 JUMPI PUSH1 0x0 DUP1 REVERT JUMPDEST POP PUSH2 0x2C5 PUSH2 0x733 CALLDATASIZE PUSH1 0x4 PUSH2 0x1F11 JUMP JUMPDEST PUSH2 0x1703 JUMP JUMPDEST CALLVALUE DUP1 ISZERO PUSH2 0x744 JUMPI PUSH1 0x0 DUP1 REVERT JUMPDEST POP PUSH2 0x565 PUSH2 0x753 CALLDATASIZE PUSH1 0x4 PUSH2 0x1F6D JUMP JUMPDEST PUSH2 0x1761 JUMP JUMPDEST PUSH1 0x0 PUSH1 0x1 PUSH1 0x1 PUSH1 0xE0 SHL SUB NOT DUP3 AND PUSH4 0xA511533D PUSH1 0xE0 SHL EQ DUP1 PUSH2 0x789 JUMPI POP PUSH1 0x1 PUSH1 0x1 PUSH1 0xE0 SHL SUB NOT DUP3 AND PUSH4 0x5B5E139F PUSH1 0xE0 SHL EQ JUMPDEST DUP1 PUSH2 0x7A4 JUMPI POP PUSH1 0x1 PUSH1 0x1 PUSH1 0xE0 SHL SUB NOT DUP3 AND PUSH4 0x2D57DEBD PUSH1 0xE0 SHL EQ JUMPDEST DUP1 PUSH2 0x7BF JUMPI POP PUSH4 0x1FFC9A7 PUSH1 0xE0 SHL PUSH1 0x1 PUSH1 0x1 PUSH1 0xE0 SHL SUB NOT DUP4 AND EQ JUMPDEST SWAP3 SWAP2 POP POP JUMP JUMPDEST PUSH1 0x60 PUSH1 0x5 DUP1 SLOAD PUSH2 0x7D4 SWAP1 PUSH2 0x22D2 JUMP JUMPDEST DUP1 PUSH1 0x1F ADD PUSH1 0x20 DUP1 SWAP2 DIV MUL PUSH1 0x20 ADD PUSH1 0x40 MLOAD SWAP1 DUP2 ADD PUSH1 0x40 MSTORE DUP1 SWAP3 SWAP2 SWAP1 DUP2 DUP2 MSTORE PUSH1 0x20 ADD DUP3 DUP1 SLOAD PUSH2 0x800 SWAP1 PUSH2 0x22D2 JUMP JUMPDEST DUP1 ISZERO PUSH2 0x84D JUMPI DUP1 PUSH1 0x1F LT PUSH2 0x822 JUMPI PUSH2 0x100 DUP1 DUP4 SLOAD DIV MUL DUP4 MSTORE SWAP2 PUSH1 0x20 ADD SWAP2 PUSH2 0x84D JUMP JUMPDEST DUP3 ADD SWAP2 SWAP1 PUSH1 0x0 MSTORE PUSH1 0x20 PUSH1 0x0 KECCAK256 SWAP1 JUMPDEST DUP2 SLOAD DUP2 MSTORE SWAP1 PUSH1 0x1 ADD SWAP1 PUSH1 0x20 ADD DUP1 DUP4 GT PUSH2 0x830 JUMPI DUP3 SWAP1 SUB PUSH1 0x1F AND DUP3 ADD SWAP2 JUMPDEST POP POP POP POP POP SWAP1 POP SWAP1 JUMP JUMPDEST PUSH1 0x9 SLOAD PUSH1 0x1 PUSH1 0x1 PUSH1 0xA0 SHL SUB AND CALLER EQ PUSH2 0x8C5 JUMPI PUSH1 0x40 MLOAD PUSH3 0x461BCD PUSH1 0xE5 SHL DUP2 MSTORE PUSH1 0x20 PUSH1 0x4 DUP3 ADD MSTORE PUSH1 0x26 PUSH1 0x24 DUP3 ADD MSTORE PUSH32 0x4F6E6C79207468652063726561746F722063616E207365742074686520746F6B PUSH1 0x44 DUP3 ADD MSTORE PUSH6 0x656E20555249 PUSH1 0xD0 SHL PUSH1 0x64 DUP3 ADD MSTORE PUSH1 0x84 ADD JUMPDEST PUSH1 0x40 MLOAD DUP1 SWAP2 SUB SWAP1 REVERT JUMPDEST PUSH1 0x0 DUP3 DUP2 MSTORE PUSH1 0x1 PUSH1 0x20 MSTORE PUSH1 0x40 SWAP1 KECCAK256 PUSH2 0x8DD DUP3 DUP3 PUSH2 0x2353 JUMP JUMPDEST POP POP POP JUMP JUMPDEST PUSH1 0x0 DUP3 DUP2 MSTORE PUSH1 0xD PUSH1 0x20 MSTORE PUSH1 0x40 SWAP1 KECCAK256 PUSH1 0x1 ADD SLOAD DUP3 SWAP1 PUSH1 0x1 PUSH1 0x1 PUSH1 0xA0 SHL SUB AND CALLER EQ PUSH2 0x91E JUMPI PUSH1 0x40 MLOAD PUSH4 0xC69E7279 PUSH1 0xE0 SHL DUP2 MSTORE PUSH1 0x4 ADD PUSH1 0x40 MLOAD DUP1 SWAP2 SUB SWAP1 REVERT JUMPDEST DUP3 PUSH1 0xB SLOAD DUP2 GT ISZERO PUSH2 0x942 JUMPI PUSH1 0x40 MLOAD PUSH4 0x8C2CB5FB PUSH1 0xE0 SHL DUP2 MSTORE PUSH1 0x4 ADD PUSH1 0x40 MLOAD DUP1 SWAP2 SUB SWAP1 REVERT JUMPDEST POP POP PUSH1 0x0 SWAP2 DUP3 MSTORE PUSH1 0xD PUSH1 0x20 MSTORE PUSH1 0x40 SWAP1 SWAP2 KECCAK256 PUSH1 0x3 ADD DUP1 SLOAD PUSH8 0xFFFFFFFFFFFFFFFF NOT AND PUSH1 0x1 PUSH1 0x1 PUSH1 0x40 SHL SUB SWAP1 SWAP3 AND SWAP2 SWAP1 SWAP2 OR SWAP1 SSTORE JUMP JUMPDEST PUSH1 0x0 DUP2 DUP2 MSTORE PUSH1 0xE PUSH1 0x20 SWAP1 DUP2 MSTORE PUSH1 0x40 DUP1 DUP4 KECCAK256 SLOAD DUP1 DUP5 MSTORE PUSH1 0xD SWAP1 SWAP3 MSTORE SWAP1 SWAP2 KECCAK256 PUSH1 0x1 ADD SLOAD PUSH1 0x1 PUSH1 0x1 PUSH1 0xA0 SHL SUB AND CALLER EQ PUSH2 0x9BF JUMPI PUSH1 0x40 MLOAD PUSH4 0xC69E7279 PUSH1 0xE0 SHL DUP2 MSTORE PUSH1 0x4 ADD PUSH1 0x40 MLOAD DUP1 SWAP2 SUB SWAP1 REVERT JUMPDEST PUSH2 0x9C8 DUP3 PUSH2 0x16E4 JUMP JUMPDEST PUSH2 0x9E5 JUMPI PUSH1 0x40 MLOAD PUSH4 0x4FCD7F0B PUSH1 0xE0 SHL DUP2 MSTORE PUSH1 0x4 ADD PUSH1 0x40 MLOAD DUP1 SWAP2 SUB SWAP1 REVERT JUMPDEST DUP3 PUSH1 0x1 PUSH1 0x1 PUSH1 0xA0 SHL SUB AND PUSH2 0x9F8 DUP4 PUSH2 0xD36 JUMP JUMPDEST PUSH1 0x1 PUSH1 0x1 PUSH1 0xA0 SHL SUB AND EQ PUSH2 0xA1F JUMPI PUSH1 0x40 MLOAD PUSH4 0x58AF21F1 PUSH1 0xE1 SHL DUP2 MSTORE PUSH1 0x4 ADD PUSH1 0x40 MLOAD DUP1 SWAP2 SUB SWAP1 REVERT JUMPDEST PUSH2 0x8DD DUP3 PUSH2 0x17CB JUMP JUMPDEST PUSH1 0x1 PUSH1 0x1 PUSH1 0xA0 SHL SUB DUP3 AND PUSH1 0x0 SWAP1 DUP2 MSTORE PUSH1 0x2 PUSH1 0x20 MSTORE PUSH1 0x40 DUP2 KECCAK256 DUP1 SLOAD DUP4 LT PUSH2 0xA87 JUMPI PUSH1 0x40 MLOAD PUSH3 0x461BCD PUSH1 0xE5 SHL DUP2 MSTORE PUSH1 0x20 PUSH1 0x4 DUP3 ADD MSTORE PUSH1 0x14 PUSH1 0x24 DUP3 ADD MSTORE PUSH20 0x151BDAD95B88191BD95CC81B9BDD08195E1A5CDD PUSH1 0x62 SHL PUSH1 0x44 DUP3 ADD MSTORE PUSH1 0x64 ADD PUSH2 0x8BC JUMP JUMPDEST DUP1 DUP4 DUP2 SLOAD DUP2 LT PUSH2 0xA99 JUMPI PUSH2 0xA99 PUSH2 0x2411 JUMP JUMPDEST SWAP1 PUSH1 0x0 MSTORE PUSH1 0x20 PUSH1 0x0 KECCAK256 ADD SLOAD SWAP2 POP POP SWAP3 SWAP2 POP POP JUMP JUMPDEST PUSH1 0x0 DUP3 DUP2 MSTORE PUSH1 0xD PUSH1 0x20 MSTORE PUSH1 0x40 SWAP1 KECCAK256 PUSH1 0x1 ADD SLOAD DUP3 SWAP1 PUSH1 0x1 PUSH1 0x1 PUSH1 0xA0 SHL SUB AND CALLER EQ PUSH2 0xAE9 JUMPI PUSH1 0x40 MLOAD PUSH4 0xC69E7279 PUSH1 0xE0 SHL DUP2 MSTORE PUSH1 0x4 ADD PUSH1 0x40 MLOAD DUP1 SWAP2 SUB SWAP1 REVERT JUMPDEST DUP3 PUSH1 0xB SLOAD DUP2 GT ISZERO PUSH2 0xB0D JUMPI PUSH1 0x40 MLOAD PUSH4 0x8C2CB5FB PUSH1 0xE0 SHL DUP2 MSTORE PUSH1 0x4 ADD PUSH1 0x40 MLOAD DUP1 SWAP2 SUB SWAP1 REVERT JUMPDEST PUSH1 0x0 DUP5 DUP2 MSTORE PUSH1 0xD PUSH1 0x20 MSTORE PUSH1 0x40 SWAP1 KECCAK256 PUSH1 0x3 ADD DUP1 SLOAD DUP5 SWAP2 SWAP1 PUSH9 0xFF0000000000000000 NOT AND PUSH1 0x1 PUSH1 0x40 SHL DUP4 PUSH1 0x4 DUP2 GT ISZERO PUSH2 0xB46 JUMPI PUSH2 0xB46 PUSH2 0x20DC JUMP JUMPDEST MUL OR SWAP1 SSTORE POP POP POP POP POP JUMP JUMPDEST PUSH1 0xC PUSH1 0x20 MSTORE DUP2 PUSH1 0x0 MSTORE PUSH1 0x40 PUSH1 0x0 KECCAK256 DUP2 DUP2 SLOAD DUP2 LT PUSH2 0xB6D JUMPI PUSH1 0x0 DUP1 REVERT JUMPDEST SWAP1 PUSH1 0x0 MSTORE PUSH1 0x20 PUSH1 0x0 KECCAK256 ADD PUSH1 0x0 SWAP2 POP SWAP2 POP POP SLOAD DUP2 JUMP JUMPDEST PUSH1 0x0 DUP2 DUP2 MSTORE PUSH1 0xD PUSH1 0x20 MSTORE PUSH1 0x40 SWAP1 KECCAK256 PUSH1 0x1 ADD SLOAD DUP2 SWAP1 PUSH1 0x1 PUSH1 0x1 PUSH1 0xA0 SHL SUB AND CALLER EQ PUSH2 0xBBE JUMPI PUSH1 0x40 MLOAD PUSH4 0xC69E7279 PUSH1 0xE0 SHL DUP2 MSTORE PUSH1 0x4 ADD PUSH1 0x40 MLOAD DUP1 SWAP2 SUB SWAP1 REVERT JUMPDEST DUP2 PUSH1 0x3 PUSH1 0xB SLOAD DUP3 GT ISZERO PUSH2 0xBE4 JUMPI PUSH1 0x40 MLOAD PUSH4 0x8C2CB5FB PUSH1 0xE0 SHL DUP2 MSTORE PUSH1 0x4 ADD PUSH1 0x40 MLOAD DUP1 SWAP2 SUB SWAP1 REVERT JUMPDEST PUSH1 0x0 DUP3 DUP2 MSTORE PUSH1 0xD PUSH1 0x20 MSTORE PUSH1 0x40 SWAP1 KECCAK256 PUSH1 0x1 ADD SLOAD PUSH1 0x1 PUSH1 0x1 PUSH1 0xA0 SHL SUB AND CALLER EQ PUSH2 0xC1E JUMPI PUSH1 0x40 MLOAD PUSH4 0xC69E7279 PUSH1 0xE0 SHL DUP2 MSTORE PUSH1 0x4 ADD PUSH1 0x40 MLOAD DUP1 SWAP2 SUB SWAP1 REVERT JUMPDEST DUP1 PUSH1 0x4 DUP2 GT ISZERO PUSH2 0xC30 JUMPI PUSH2 0xC30 PUSH2 0x20DC JUMP JUMPDEST PUSH1 0x0 DUP4 DUP2 MSTORE PUSH1 0xD PUSH1 0x20 MSTORE PUSH1 0x40 SWAP1 KECCAK256 PUSH1 0x3 ADD SLOAD PUSH1 0x1 PUSH1 0x40 SHL SWAP1 DIV PUSH1 0xFF AND PUSH1 0x4 DUP2 GT ISZERO PUSH2 0xC5D JUMPI PUSH2 0xC5D PUSH2 0x20DC JUMP JUMPDEST EQ PUSH2 0xC7B JUMPI PUSH1 0x40 MLOAD PUSH4 0x4FCD7F0B PUSH1 0xE0 SHL DUP2 MSTORE PUSH1 0x4 ADD PUSH1 0x40 MLOAD DUP1 SWAP2 SUB SWAP1 REVERT JUMPDEST PUSH1 0x0 DUP5 DUP2 MSTORE PUSH1 0xD PUSH1 0x20 MSTORE PUSH1 0x40 SWAP1 KECCAK256 PUSH1 0x2 ADD SLOAD CALLVALUE LT ISZERO PUSH2 0xCAD JUMPI PUSH1 0x40 MLOAD PUSH4 0x64954585 PUSH1 0xE0 SHL DUP2 MSTORE PUSH1 0x4 ADD PUSH1 0x40 MLOAD DUP1 SWAP2 SUB SWAP1 REVERT JUMPDEST PUSH2 0xCB7 DUP6 DUP6 PUSH2 0x18E7 JUMP JUMPDEST POP POP POP POP POP JUMP JUMPDEST PUSH1 0x0 DUP2 DUP2 MSTORE PUSH1 0xD PUSH1 0x20 MSTORE PUSH1 0x40 SWAP1 KECCAK256 PUSH1 0x1 ADD SLOAD DUP2 SWAP1 PUSH1 0x1 PUSH1 0x1 PUSH1 0xA0 SHL SUB AND CALLER EQ PUSH2 0xCFA JUMPI PUSH1 0x40 MLOAD PUSH4 0xC69E7279 PUSH1 0xE0 SHL DUP2 MSTORE PUSH1 0x4 ADD PUSH1 0x40 MLOAD DUP1 SWAP2 SUB SWAP1 REVERT JUMPDEST DUP2 PUSH1 0xB SLOAD DUP2 GT ISZERO PUSH2 0xD1E JUMPI PUSH1 0x40 MLOAD PUSH4 0x8C2CB5FB PUSH1 0xE0 SHL DUP2 MSTORE PUSH1 0x4 ADD PUSH1 0x40 MLOAD DUP1 SWAP2 SUB SWAP1 REVERT JUMPDEST PUSH1 0x0 DUP4 DUP2 MSTORE PUSH1 0xD PUSH1 0x20 MSTORE PUSH1 0x40 SWAP1 KECCAK256 PUSH2 0xCB7 DUP6 DUP3 PUSH2 0x2353 JUMP JUMPDEST PUSH1 0x0 PUSH2 0xD41 DUP3 PUSH2 0x1A62 JUMP JUMPDEST PUSH1 0x1 ADD SLOAD PUSH1 0x1 PUSH1 0x1 PUSH1 0xA0 SHL SUB AND SWAP3 SWAP2 POP POP JUMP JUMPDEST PUSH2 0xD5C PUSH2 0x1AC1 JUMP JUMPDEST PUSH2 0xD66 PUSH1 0x0 PUSH2 0x1AEE JUMP JUMPDEST JUMP JUMPDEST DUP1 PUSH1 0x0 PUSH1 0xB SLOAD DUP3 GT ISZERO PUSH2 0xD8E JUMPI PUSH1 0x40 MLOAD PUSH4 0x8C2CB5FB PUSH1 0xE0 SHL DUP2 MSTORE PUSH1 0x4 ADD PUSH1 0x40 MLOAD DUP1 SWAP2 SUB SWAP1 REVERT JUMPDEST PUSH1 0x0 DUP3 DUP2 MSTORE PUSH1 0xD PUSH1 0x20 MSTORE PUSH1 0x40 SWAP1 KECCAK256 PUSH1 0x1 ADD SLOAD PUSH1 0x1 PUSH1 0x1 PUSH1 0xA0 SHL SUB AND CALLER EQ PUSH2 0xDC8 JUMPI PUSH1 0x40 MLOAD PUSH4 0xC69E7279 PUSH1 0xE0 SHL DUP2 MSTORE PUSH1 0x4 ADD PUSH1 0x40 MLOAD DUP1 SWAP2 SUB SWAP1 REVERT JUMPDEST DUP1 PUSH1 0x4 DUP2 GT ISZERO PUSH2 0xDDA JUMPI PUSH2 0xDDA PUSH2 0x20DC JUMP JUMPDEST PUSH1 0x0 DUP4 DUP2 MSTORE PUSH1 0xD PUSH1 0x20 MSTORE PUSH1 0x40 SWAP1 KECCAK256 PUSH1 0x3 ADD SLOAD PUSH1 0x1 PUSH1 0x40 SHL SWAP1 DIV PUSH1 0xFF AND PUSH1 0x4 DUP2 GT ISZERO PUSH2 0xE07 JUMPI PUSH2 0xE07 PUSH2 0x20DC JUMP JUMPDEST EQ PUSH2 0xE25 JUMPI PUSH1 0x40 MLOAD PUSH4 0x4FCD7F0B PUSH1 0xE0 SHL DUP2 MSTORE PUSH1 0x4 ADD PUSH1 0x40 MLOAD DUP1 SWAP2 SUB SWAP1 REVERT JUMPDEST PUSH2 0xE2F DUP5 DUP5 PUSH2 0x18E7 JUMP JUMPDEST POP POP POP POP JUMP JUMPDEST PUSH1 0x0 DUP3 DUP2 MSTORE PUSH1 0xD PUSH1 0x20 MSTORE PUSH1 0x40 DUP2 KECCAK256 PUSH1 0x1 ADD SLOAD DUP4 SWAP1 PUSH1 0x1 PUSH1 0x1 PUSH1 0xA0 SHL SUB AND CALLER EQ PUSH2 0xE71 JUMPI PUSH1 0x40 MLOAD PUSH4 0xC69E7279 PUSH1 0xE0 SHL DUP2 MSTORE PUSH1 0x4 ADD PUSH1 0x40 MLOAD DUP1 SWAP2 SUB SWAP1 REVERT JUMPDEST DUP4 PUSH1 0xB SLOAD DUP2 GT ISZERO PUSH2 0xE95 JUMPI PUSH1 0x40 MLOAD PUSH4 0x8C2CB5FB PUSH1 0xE0 SHL DUP2 MSTORE PUSH1 0x4 ADD PUSH1 0x40 MLOAD DUP1 SWAP2 SUB SWAP1 REVERT JUMPDEST POP POP POP PUSH1 0x0 SWAP2 DUP3 MSTORE PUSH1 0xF PUSH1 0x20 SWAP1 DUP2 MSTORE PUSH1 0x40 DUP1 DUP5 KECCAK256 PUSH1 0x1 PUSH1 0x1 PUSH1 0xA0 SHL SUB SWAP6 SWAP1 SWAP6 AND DUP5 MSTORE SWAP4 SWAP1 MSTORE SWAP2 SWAP1 KECCAK256 DUP1 SLOAD PUSH1 0xFF NOT AND SWAP2 ISZERO ISZERO SWAP2 SWAP1 SWAP2 OR SWAP1 SSTORE PUSH1 0x1 SWAP1 JUMP JUMPDEST PUSH1 0x1 PUSH1 0x1 PUSH1 0xA0 SHL SUB DUP2 AND PUSH1 0x0 SWAP1 DUP2 MSTORE PUSH1 0x2 PUSH1 0x20 SWAP1 DUP2 MSTORE PUSH1 0x40 SWAP2 DUP3 SWAP1 KECCAK256 DUP1 SLOAD DUP4 MLOAD DUP2 DUP5 MUL DUP2 ADD DUP5 ADD SWAP1 SWAP5 MSTORE DUP1 DUP5 MSTORE PUSH1 0x60 SWAP4 SWAP3 DUP4 ADD DUP3 DUP3 DUP1 ISZERO PUSH2 0xF31 JUMPI PUSH1 0x20 MUL DUP3 ADD SWAP2 SWAP1 PUSH1 0x0 MSTORE PUSH1 0x20 PUSH1 0x0 KECCAK256 SWAP1 JUMPDEST DUP2 SLOAD DUP2 MSTORE PUSH1 0x20 ADD SWAP1 PUSH1 0x1 ADD SWAP1 DUP1 DUP4 GT PUSH2 0xF1D JUMPI JUMPDEST POP POP POP POP POP SWAP1 POP SWAP2 SWAP1 POP JUMP JUMPDEST PUSH1 0x60 PUSH1 0x6 DUP1 SLOAD PUSH2 0x7D4 SWAP1 PUSH2 0x22D2 JUMP JUMPDEST PUSH1 0x0 DUP3 DUP2 MSTORE PUSH1 0xD PUSH1 0x20 MSTORE PUSH1 0x40 SWAP1 KECCAK256 PUSH1 0x1 ADD SLOAD DUP3 SWAP1 PUSH1 0x1 PUSH1 0x1 PUSH1 0xA0 SHL SUB AND CALLER EQ PUSH2 0xF88 JUMPI PUSH1 0x40 MLOAD PUSH4 0xC69E7279 PUSH1 0xE0 SHL DUP2 MSTORE PUSH1 0x4 ADD PUSH1 0x40 MLOAD DUP1 SWAP2 SUB SWAP1 REVERT JUMPDEST DUP3 PUSH1 0xB SLOAD DUP2 GT ISZERO PUSH2 0xFAC JUMPI PUSH1 0x40 MLOAD PUSH4 0x8C2CB5FB PUSH1 0xE0 SHL DUP2 MSTORE PUSH1 0x4 ADD PUSH1 0x40 MLOAD DUP1 SWAP2 SUB SWAP1 REVERT JUMPDEST POP POP PUSH1 0x0 SWAP2 DUP3 MSTORE PUSH1 0xD PUSH1 0x20 MSTORE PUSH1 0x40 SWAP1 SWAP2 KECCAK256 PUSH1 0x2 ADD SSTORE JUMP JUMPDEST DUP1 PUSH1 0x4 PUSH1 0xB SLOAD DUP3 GT ISZERO PUSH2 0xFE9 JUMPI PUSH1 0x40 MLOAD PUSH4 0x8C2CB5FB PUSH1 0xE0 SHL DUP2 MSTORE PUSH1 0x4 ADD PUSH1 0x40 MLOAD DUP1 SWAP2 SUB SWAP1 REVERT JUMPDEST PUSH1 0x0 DUP3 DUP2 MSTORE PUSH1 0xD PUSH1 0x20 MSTORE PUSH1 0x40 SWAP1 KECCAK256 PUSH1 0x1 ADD SLOAD PUSH1 0x1 PUSH1 0x1 PUSH1 0xA0 SHL SUB AND CALLER EQ PUSH2 0x1023 JUMPI PUSH1 0x40 MLOAD PUSH4 0xC69E7279 PUSH1 0xE0 SHL DUP2 MSTORE PUSH1 0x4 ADD PUSH1 0x40 MLOAD DUP1 SWAP2 SUB SWAP1 REVERT JUMPDEST DUP1 PUSH1 0x4 DUP2 GT ISZERO PUSH2 0x1035 JUMPI PUSH2 0x1035 PUSH2 0x20DC JUMP JUMPDEST PUSH1 0x0 DUP4 DUP2 MSTORE PUSH1 0xD PUSH1 0x20 MSTORE PUSH1 0x40 SWAP1 KECCAK256 PUSH1 0x3 ADD SLOAD PUSH1 0x1 PUSH1 0x40 SHL SWAP1 DIV PUSH1 0xFF AND PUSH1 0x4 DUP2 GT ISZERO PUSH2 0x1062 JUMPI PUSH2 0x1062 PUSH2 0x20DC JUMP JUMPDEST EQ PUSH2 0x1080 JUMPI PUSH1 0x40 MLOAD PUSH4 0x4FCD7F0B PUSH1 0xE0 SHL DUP2 MSTORE PUSH1 0x4 ADD PUSH1 0x40 MLOAD DUP1 SWAP2 SUB SWAP1 REVERT JUMPDEST PUSH1 0x0 DUP4 DUP2 MSTORE PUSH1 0xF PUSH1 0x20 SWAP1 DUP2 MSTORE PUSH1 0x40 DUP1 DUP4 KECCAK256 PUSH1 0x1 PUSH1 0x1 PUSH1 0xA0 SHL SUB DUP9 AND DUP5 MSTORE SWAP1 SWAP2 MSTORE SWAP1 KECCAK256 SLOAD PUSH1 0xFF AND PUSH2 0xE25 JUMPI PUSH1 0x40 MLOAD PUSH4 0xBD9044C3 PUSH1 0xE0 SHL DUP2 MSTORE PUSH1 0x4 ADD PUSH1 0x40 MLOAD DUP1 SWAP2 SUB SWAP1 REVERT JUMPDEST PUSH1 0x0 DUP3 DUP2 MSTORE PUSH1 0xD PUSH1 0x20 MSTORE PUSH1 0x40 SWAP1 KECCAK256 PUSH1 0x1 ADD SLOAD DUP3 SWAP1 PUSH1 0x1 PUSH1 0x1 PUSH1 0xA0 SHL SUB AND CALLER EQ PUSH2 0x10FF JUMPI PUSH1 0x40 MLOAD PUSH4 0xC69E7279 PUSH1 0xE0 SHL DUP2 MSTORE PUSH1 0x4 ADD PUSH1 0x40 MLOAD DUP1 SWAP2 SUB SWAP1 REVERT JUMPDEST DUP3 PUSH1 0xB SLOAD DUP2 GT ISZERO PUSH2 0x1123 JUMPI PUSH1 0x40 MLOAD PUSH4 0x8C2CB5FB PUSH1 0xE0 SHL DUP2 MSTORE PUSH1 0x4 ADD PUSH1 0x40 MLOAD DUP1 SWAP2 SUB SWAP1 REVERT JUMPDEST POP POP PUSH1 0x0 SWAP2 DUP3 MSTORE PUSH1 0xD PUSH1 0x20 MSTORE PUSH1 0x40 SWAP1 SWAP2 KECCAK256 PUSH1 0x3 ADD DUP1 SLOAD SWAP2 ISZERO ISZERO PUSH1 0x1 PUSH1 0x50 SHL MUL PUSH1 0xFF PUSH1 0x50 SHL NOT SWAP1 SWAP3 AND SWAP2 SWAP1 SWAP2 OR SWAP1 SSTORE JUMP JUMPDEST PUSH1 0xD PUSH1 0x20 MSTORE PUSH1 0x0 SWAP1 DUP2 MSTORE PUSH1 0x40 SWAP1 KECCAK256 DUP1 SLOAD DUP2 SWAP1 PUSH2 0x116E SWAP1 PUSH2 0x22D2 JUMP JUMPDEST DUP1 PUSH1 0x1F ADD PUSH1 0x20 DUP1 SWAP2 DIV MUL PUSH1 0x20 ADD PUSH1 0x40 MLOAD SWAP1 DUP2 ADD PUSH1 0x40 MSTORE DUP1 SWAP3 SWAP2 SWAP1 DUP2 DUP2 MSTORE PUSH1 0x20 ADD DUP3 DUP1 SLOAD PUSH2 0x119A SWAP1 PUSH2 0x22D2 JUMP JUMPDEST DUP1 ISZERO PUSH2 0x11E7 JUMPI DUP1 PUSH1 0x1F LT PUSH2 0x11BC JUMPI PUSH2 0x100 DUP1 DUP4 SLOAD DIV MUL DUP4 MSTORE SWAP2 PUSH1 0x20 ADD SWAP2 PUSH2 0x11E7 JUMP JUMPDEST DUP3 ADD SWAP2 SWAP1 PUSH1 0x0 MSTORE PUSH1 0x20 PUSH1 0x0 KECCAK256 SWAP1 JUMPDEST DUP2 SLOAD DUP2 MSTORE SWAP1 PUSH1 0x1 ADD SWAP1 PUSH1 0x20 ADD DUP1 DUP4 GT PUSH2 0x11CA JUMPI DUP3 SWAP1 SUB PUSH1 0x1F AND DUP3 ADD SWAP2 JUMPDEST POP POP POP PUSH1 0x1 DUP5 ADD SLOAD PUSH1 0x2 DUP6 ADD SLOAD PUSH1 0x3 SWAP1 SWAP6 ADD SLOAD SWAP4 SWAP5 PUSH1 0x1 PUSH1 0x1 PUSH1 0xA0 SHL SUB SWAP1 SWAP2 AND SWAP4 SWAP1 SWAP3 POP PUSH1 0x1 PUSH1 0x1 PUSH1 0x40 SHL SUB DUP2 AND SWAP2 POP PUSH1 0xFF PUSH1 0x1 PUSH1 0x40 SHL DUP3 DIV DUP2 AND SWAP2 PUSH1 0x1 PUSH1 0x48 SHL DUP2 DIV DUP3 AND SWAP2 PUSH1 0x1 PUSH1 0x50 SHL SWAP1 SWAP2 DIV AND DUP8 JUMP JUMPDEST PUSH1 0x0 DUP3 DUP2 MSTORE PUSH1 0xD PUSH1 0x20 MSTORE PUSH1 0x40 DUP2 KECCAK256 PUSH1 0x1 ADD SLOAD DUP4 SWAP1 PUSH1 0x1 PUSH1 0x1 PUSH1 0xA0 SHL SUB AND CALLER EQ PUSH2 0x1275 JUMPI PUSH1 0x40 MLOAD PUSH4 0xC69E7279 PUSH1 0xE0 SHL DUP2 MSTORE PUSH1 0x4 ADD PUSH1 0x40 MLOAD DUP1 SWAP2 SUB SWAP1 REVERT JUMPDEST DUP4 PUSH1 0xB SLOAD DUP2 GT ISZERO PUSH2 0x1299 JUMPI PUSH1 0x40 MLOAD PUSH4 0x8C2CB5FB PUSH1 0xE0 SHL DUP2 MSTORE PUSH1 0x4 ADD PUSH1 0x40 MLOAD DUP1 SWAP2 SUB SWAP1 REVERT JUMPDEST PUSH1 0x0 JUMPDEST DUP7 MLOAD DUP2 LT ISZERO PUSH2 0x1304 JUMPI PUSH1 0x0 DUP7 DUP2 MSTORE PUSH1 0xF PUSH1 0x20 MSTORE PUSH1 0x40 DUP2 KECCAK256 DUP9 MLOAD DUP8 SWAP3 SWAP1 DUP11 SWAP1 DUP6 SWAP1 DUP2 LT PUSH2 0x12CA JUMPI PUSH2 0x12CA PUSH2 0x2411 JUMP JUMPDEST PUSH1 0x20 SWAP1 DUP2 MUL SWAP2 SWAP1 SWAP2 ADD DUP2 ADD MLOAD PUSH1 0x1 PUSH1 0x1 PUSH1 0xA0 SHL SUB AND DUP3 MSTORE DUP2 ADD SWAP2 SWAP1 SWAP2 MSTORE PUSH1 0x40 ADD PUSH1 0x0 KECCAK256 DUP1 SLOAD PUSH1 0xFF NOT AND SWAP2 ISZERO ISZERO SWAP2 SWAP1 SWAP2 OR SWAP1 SSTORE PUSH1 0x1 ADD PUSH2 0x129C JUMP JUMPDEST POP PUSH1 0x1 SWAP7 SWAP6 POP POP POP POP POP POP JUMP JUMPDEST PUSH1 0x60 PUSH2 0x131C DUP3 PUSH2 0x1A62 JUMP JUMPDEST POP PUSH1 0x0 DUP3 DUP2 MSTORE PUSH1 0x1 PUSH1 0x20 MSTORE PUSH1 0x40 SWAP1 KECCAK256 DUP1 SLOAD PUSH2 0x1336 SWAP1 PUSH2 0x22D2 JUMP JUMPDEST DUP1 PUSH1 0x1F ADD PUSH1 0x20 DUP1 SWAP2 DIV MUL PUSH1 0x20 ADD PUSH1 0x40 MLOAD SWAP1 DUP2 ADD PUSH1 0x40 MSTORE DUP1 SWAP3 SWAP2 SWAP1 DUP2 DUP2 MSTORE PUSH1 0x20 ADD DUP3 DUP1 SLOAD PUSH2 0x1362 SWAP1 PUSH2 0x22D2 JUMP JUMPDEST DUP1 ISZERO PUSH2 0xF31 JUMPI DUP1 PUSH1 0x1F LT PUSH2 0x1384 JUMPI PUSH2 0x100 DUP1 DUP4 SLOAD DIV MUL DUP4 MSTORE SWAP2 PUSH1 0x20 ADD SWAP2 PUSH2 0xF31 JUMP JUMPDEST DUP3 ADD SWAP2 SWAP1 PUSH1 0x0 MSTORE PUSH1 0x20 PUSH1 0x0 KECCAK256 SWAP1 JUMPDEST DUP2 SLOAD DUP2 MSTORE SWAP1 PUSH1 0x1 ADD SWAP1 PUSH1 0x20 ADD DUP1 DUP4 GT PUSH2 0x1392 JUMPI POP SWAP4 SWAP7 SWAP6 POP POP POP POP POP POP JUMP JUMPDEST PUSH1 0x0 PUSH2 0x13BB PUSH2 0x1AC1 JUMP JUMPDEST PUSH1 0xB DUP1 SLOAD SWAP1 PUSH1 0x0 PUSH2 0x13CB DUP4 PUSH2 0x243D JUMP JUMPDEST SWAP2 SWAP1 POP SSTORE POP PUSH1 0x40 MLOAD DUP1 PUSH1 0xE0 ADD PUSH1 0x40 MSTORE DUP1 DUP10 DUP2 MSTORE PUSH1 0x20 ADD DUP9 PUSH1 0x1 PUSH1 0x1 PUSH1 0xA0 SHL SUB AND DUP2 MSTORE PUSH1 0x20 ADD DUP8 DUP2 MSTORE PUSH1 0x20 ADD DUP7 PUSH1 0x1 PUSH1 0x1 PUSH1 0x40 SHL SUB AND DUP2 MSTORE PUSH1 0x20 ADD DUP6 PUSH1 0x4 DUP2 GT ISZERO PUSH2 0x1417 JUMPI PUSH2 0x1417 PUSH2 0x20DC JUMP JUMPDEST DUP2 MSTORE DUP5 ISZERO ISZERO PUSH1 0x20 DUP1 DUP4 ADD SWAP2 SWAP1 SWAP2 MSTORE DUP5 ISZERO ISZERO PUSH1 0x40 SWAP3 DUP4 ADD MSTORE PUSH1 0xB SLOAD PUSH1 0x0 SWAP1 DUP2 MSTORE PUSH1 0xD SWAP1 SWAP2 MSTORE KECCAK256 DUP2 MLOAD DUP2 SWAP1 PUSH2 0x144A SWAP1 DUP3 PUSH2 0x2353 JUMP JUMPDEST POP PUSH1 0x20 DUP3 ADD MLOAD PUSH1 0x1 DUP3 ADD DUP1 SLOAD PUSH1 0x1 PUSH1 0x1 PUSH1 0xA0 SHL SUB SWAP1 SWAP3 AND PUSH1 0x1 PUSH1 0x1 PUSH1 0xA0 SHL SUB NOT SWAP1 SWAP3 AND SWAP2 SWAP1 SWAP2 OR SWAP1 SSTORE PUSH1 0x40 DUP3 ADD MLOAD PUSH1 0x2 DUP3 ADD SSTORE PUSH1 0x60 DUP3 ADD MLOAD PUSH1 0x3 DUP3 ADD DUP1 SLOAD PUSH1 0x1 PUSH1 0x1 PUSH1 0x40 SHL SUB SWAP1 SWAP3 AND PUSH8 0xFFFFFFFFFFFFFFFF NOT DUP4 AND DUP2 OR DUP3 SSTORE PUSH1 0x80 DUP6 ADD MLOAD SWAP3 PUSH9 0xFFFFFFFFFFFFFFFFFF NOT AND OR PUSH1 0x1 PUSH1 0x40 SHL DUP4 PUSH1 0x4 DUP2 GT ISZERO PUSH2 0x14CD JUMPI PUSH2 0x14CD PUSH2 0x20DC JUMP JUMPDEST MUL OR SWAP1 SSTORE POP PUSH1 0xA0 DUP3 ADD MLOAD PUSH1 0x3 SWAP1 SWAP2 ADD DUP1 SLOAD PUSH1 0xC0 SWAP1 SWAP4 ADD MLOAD ISZERO ISZERO PUSH1 0x1 PUSH1 0x50 SHL MUL PUSH1 0xFF PUSH1 0x50 SHL NOT SWAP3 ISZERO ISZERO PUSH1 0x1 PUSH1 0x48 SHL MUL SWAP3 SWAP1 SWAP3 AND PUSH11 0xFFFF000000000000000000 NOT SWAP1 SWAP4 AND SWAP3 SWAP1 SWAP3 OR OR SWAP1 SSTORE PUSH1 0xB SLOAD PUSH1 0x40 MLOAD PUSH1 0x1 PUSH1 0x1 PUSH1 0x40 SHL SUB DUP8 AND SWAP2 SWAP1 PUSH1 0x1 PUSH1 0x1 PUSH1 0xA0 SHL SUB DUP11 AND SWAP1 PUSH32 0x4903E9C3826C1A365F9C5B6193E9E708B4269472495FFF7BA4B271D74907FCDE SWAP1 PUSH2 0x1568 SWAP1 DUP14 SWAP1 DUP13 SWAP1 DUP12 SWAP1 DUP12 SWAP1 DUP12 SWAP1 PUSH2 0x2456 JUMP JUMPDEST PUSH1 0x40 MLOAD DUP1 SWAP2 SUB SWAP1 LOG4 POP PUSH1 0xB SLOAD SWAP8 SWAP7 POP POP POP POP POP POP POP JUMP JUMPDEST PUSH2 0x1587 PUSH2 0x1AC1 JUMP JUMPDEST DUP1 PUSH1 0x1 PUSH1 0xB SLOAD DUP3 GT ISZERO PUSH2 0xD8E JUMPI PUSH1 0x40 MLOAD PUSH4 0x8C2CB5FB PUSH1 0xE0 SHL DUP2 MSTORE PUSH1 0x4 ADD PUSH1 0x40 MLOAD DUP1 SWAP2 SUB SWAP1 REVERT JUMPDEST PUSH1 0x0 DUP2 DUP2 MSTORE PUSH1 0xD PUSH1 0x20 MSTORE PUSH1 0x40 SWAP1 KECCAK256 PUSH1 0x1 ADD SLOAD DUP2 SWAP1 PUSH1 0x1 PUSH1 0x1 PUSH1 0xA0 SHL SUB AND CALLER EQ PUSH2 0x15E9 JUMPI PUSH1 0x40 MLOAD PUSH4 0xC69E7279 PUSH1 0xE0 SHL DUP2 MSTORE PUSH1 0x4 ADD PUSH1 0x40 MLOAD DUP1 SWAP2 SUB SWAP1 REVERT JUMPDEST DUP2 PUSH1 0x2 PUSH1 0xB SLOAD DUP3 GT ISZERO PUSH2 0x160F JUMPI PUSH1 0x40 MLOAD PUSH4 0x8C2CB5FB PUSH1 0xE0 SHL DUP2 MSTORE PUSH1 0x4 ADD PUSH1 0x40 MLOAD DUP1 SWAP2 SUB SWAP1 REVERT JUMPDEST PUSH1 0x0 DUP3 DUP2 MSTORE PUSH1 0xD PUSH1 0x20 MSTORE PUSH1 0x40 SWAP1 KECCAK256 PUSH1 0x1 ADD SLOAD PUSH1 0x1 PUSH1 0x1 PUSH1 0xA0 SHL SUB AND CALLER EQ PUSH2 0x1649 JUMPI PUSH1 0x40 MLOAD PUSH4 0xC69E7279 PUSH1 0xE0 SHL DUP2 MSTORE PUSH1 0x4 ADD PUSH1 0x40 MLOAD DUP1 SWAP2 SUB SWAP1 REVERT JUMPDEST DUP1 PUSH1 0x4 DUP2 GT ISZERO PUSH2 0x165B JUMPI PUSH2 0x165B PUSH2 0x20DC JUMP JUMPDEST PUSH1 0x0 DUP4 DUP2 MSTORE PUSH1 0xD PUSH1 0x20 MSTORE PUSH1 0x40 SWAP1 KECCAK256 PUSH1 0x3 ADD SLOAD PUSH1 0x1 PUSH1 0x40 SHL SWAP1 DIV PUSH1 0xFF AND PUSH1 0x4 DUP2 GT ISZERO PUSH2 0x1688 JUMPI PUSH2 0x1688 PUSH2 0x20DC JUMP JUMPDEST EQ PUSH2 0xCAD JUMPI PUSH1 0x40 MLOAD PUSH4 0x4FCD7F0B PUSH1 0xE0 SHL DUP2 MSTORE PUSH1 0x4 ADD PUSH1 0x40 MLOAD DUP1 SWAP2 SUB SWAP1 REVERT JUMPDEST PUSH2 0x16AE PUSH2 0x1AC1 JUMP JUMPDEST PUSH1 0x1 PUSH1 0x1 PUSH1 0xA0 SHL SUB DUP2 AND PUSH2 0x16D8 JUMPI PUSH1 0x40 MLOAD PUSH4 0x1E4FBDF7 PUSH1 0xE0 SHL DUP2 MSTORE PUSH1 0x0 PUSH1 0x4 DUP3 ADD MSTORE PUSH1 0x24 ADD PUSH2 0x8BC JUMP JUMPDEST PUSH2 0x16E1 DUP2 PUSH2 0x1AEE JUMP JUMPDEST POP JUMP JUMPDEST PUSH1 0x0 PUSH2 0x16EF DUP3 PUSH2 0x1A62 JUMP JUMPDEST PUSH1 0x1 ADD SLOAD PUSH1 0x1 PUSH1 0xA0 SHL SWAP1 DIV PUSH1 0xFF AND SWAP3 SWAP2 POP POP JUMP JUMPDEST PUSH2 0x170B PUSH2 0x1AC1 JUMP JUMPDEST DUP1 PUSH1 0xB SLOAD DUP2 GT ISZERO PUSH2 0x172F JUMPI PUSH1 0x40 MLOAD PUSH4 0x8C2CB5FB PUSH1 0xE0 SHL DUP2 MSTORE PUSH1 0x4 ADD PUSH1 0x40 MLOAD DUP1 SWAP2 SUB SWAP1 REVERT JUMPDEST POP PUSH1 0x0 SWAP1 DUP2 MSTORE PUSH1 0xD PUSH1 0x20 MSTORE PUSH1 0x40 SWAP1 KECCAK256 PUSH1 0x1 ADD DUP1 SLOAD PUSH1 0x1 PUSH1 0x1 PUSH1 0xA0 SHL SUB NOT AND PUSH1 0x1 PUSH1 0x1 PUSH1 0xA0 SHL SUB SWAP3 SWAP1 SWAP3 AND SWAP2 SWAP1 SWAP2 OR SWAP1 SSTORE JUMP JUMPDEST PUSH1 0x1 PUSH1 0x1 PUSH1 0xA0 SHL SUB DUP2 AND PUSH1 0x0 SWAP1 DUP2 MSTORE PUSH1 0xC PUSH1 0x20 SWAP1 DUP2 MSTORE PUSH1 0x40 SWAP2 DUP3 SWAP1 KECCAK256 DUP1 SLOAD DUP4 MLOAD DUP2 DUP5 MUL DUP2 ADD DUP5 ADD SWAP1 SWAP5 MSTORE DUP1 DUP5 MSTORE PUSH1 0x60 SWAP4 SWAP3 DUP4 ADD DUP3 DUP3 DUP1 ISZERO PUSH2 0xF31 JUMPI PUSH1 0x20 MUL DUP3 ADD SWAP2 SWAP1 PUSH1 0x0 MSTORE PUSH1 0x20 PUSH1 0x0 KECCAK256 SWAP1 DUP2 SLOAD DUP2 MSTORE PUSH1 0x20 ADD SWAP1 PUSH1 0x1 ADD SWAP1 DUP1 DUP4 GT PUSH2 0xF1D JUMPI POP POP POP POP POP SWAP1 POP SWAP2 SWAP1 POP JUMP JUMPDEST PUSH1 0x0 PUSH2 0x17D6 DUP3 PUSH2 0x1A62 JUMP JUMPDEST PUSH1 0x1 DUP2 ADD SLOAD SWAP1 SWAP2 POP PUSH1 0x1 PUSH1 0xA0 SHL SWAP1 DIV PUSH1 0xFF AND PUSH2 0x1834 JUMPI PUSH1 0x40 MLOAD PUSH3 0x461BCD PUSH1 0xE5 SHL DUP2 MSTORE PUSH1 0x20 PUSH1 0x4 DUP3 ADD MSTORE PUSH1 0x18 PUSH1 0x24 DUP3 ADD MSTORE PUSH32 0x546F6B656E20697320616C726561647920696E76616C69640000000000000000 PUSH1 0x44 DUP3 ADD MSTORE PUSH1 0x64 ADD PUSH2 0x8BC JUMP JUMPDEST PUSH1 0x1 DUP2 ADD DUP1 SLOAD PUSH1 0xFF PUSH1 0xA0 SHL NOT DUP2 AND SWAP1 SWAP2 SSTORE PUSH1 0x1 PUSH1 0x1 PUSH1 0xA0 SHL SUB AND PUSH1 0x0 SWAP1 DUP2 MSTORE PUSH1 0x4 PUSH1 0x20 MSTORE PUSH1 0x40 SWAP1 KECCAK256 SLOAD PUSH2 0x1869 JUMPI PUSH2 0x1869 PUSH2 0x2496 JUMP JUMPDEST PUSH1 0x1 DUP2 DUP2 ADD SLOAD PUSH1 0x1 PUSH1 0x1 PUSH1 0xA0 SHL SUB AND PUSH1 0x0 SWAP1 DUP2 MSTORE PUSH1 0x4 PUSH1 0x20 MSTORE PUSH1 0x40 DUP2 KECCAK256 DUP1 SLOAD SWAP1 SWAP2 SWAP1 PUSH2 0x1896 SWAP1 DUP5 SWAP1 PUSH2 0x24AC JUMP JUMPDEST SWAP1 SWAP2 SSTORE POP POP PUSH1 0x1 DUP2 ADD SLOAD PUSH1 0x40 DUP1 MLOAD PUSH1 0x1 PUSH1 0x1 PUSH1 0xA0 SHL SUB SWAP1 SWAP3 AND DUP3 MSTORE PUSH1 0x20 DUP3 ADD DUP5 SWAP1 MSTORE PUSH32 0x713B90881AD62C4FA8AB6BD9197FA86481FC0C11B2EDBA60026514281B2DBAC4 SWAP2 ADD PUSH1 0x40 MLOAD DUP1 SWAP2 SUB SWAP1 LOG1 POP POP JUMP JUMPDEST PUSH1 0x0 DUP2 DUP2 MSTORE PUSH1 0xD PUSH1 0x20 MSTORE PUSH1 0x40 SWAP1 KECCAK256 PUSH1 0x3 ADD SLOAD PUSH1 0x1 PUSH1 0x48 SHL SWAP1 DIV PUSH1 0xFF AND ISZERO PUSH2 0x1940 JUMPI PUSH1 0x0 DUP2 DUP2 MSTORE PUSH1 0xD PUSH1 0x20 MSTORE PUSH1 0x40 SWAP1 KECCAK256 PUSH1 0x3 ADD SLOAD PUSH1 0x1 PUSH1 0x1 PUSH1 0x40 SHL SUB AND PUSH2 0x1940 JUMPI PUSH1 0x40 MLOAD PUSH4 0x5D0EFCB1 PUSH1 0xE0 SHL DUP2 MSTORE PUSH1 0x4 ADD PUSH1 0x40 MLOAD DUP1 SWAP2 SUB SWAP1 REVERT JUMPDEST PUSH1 0x0 PUSH2 0x194B DUP4 PUSH2 0x1B40 JUMP JUMPDEST PUSH1 0x1 PUSH1 0x1 PUSH1 0xA0 SHL SUB DUP5 AND PUSH1 0x0 SWAP1 DUP2 MSTORE PUSH1 0xC PUSH1 0x20 SWAP1 DUP2 MSTORE PUSH1 0x40 DUP1 DUP4 KECCAK256 DUP1 SLOAD PUSH1 0x1 DUP2 ADD DUP3 SSTORE SWAP1 DUP5 MSTORE DUP3 DUP5 KECCAK256 ADD DUP5 SWAP1 SSTORE DUP4 DUP4 MSTORE PUSH1 0xE DUP3 MSTORE DUP1 DUP4 KECCAK256 DUP7 SWAP1 SSTORE DUP6 DUP4 MSTORE PUSH1 0xD SWAP1 SWAP2 MSTORE SWAP1 KECCAK256 DUP1 SLOAD SWAP2 SWAP3 POP PUSH2 0x1A27 SWAP2 DUP4 SWAP2 SWAP1 PUSH2 0x19A4 SWAP1 PUSH2 0x22D2 JUMP JUMPDEST DUP1 PUSH1 0x1F ADD PUSH1 0x20 DUP1 SWAP2 DIV MUL PUSH1 0x20 ADD PUSH1 0x40 MLOAD SWAP1 DUP2 ADD PUSH1 0x40 MSTORE DUP1 SWAP3 SWAP2 SWAP1 DUP2 DUP2 MSTORE PUSH1 0x20 ADD DUP3 DUP1 SLOAD PUSH2 0x19D0 SWAP1 PUSH2 0x22D2 JUMP JUMPDEST DUP1 ISZERO PUSH2 0x1A1D JUMPI DUP1 PUSH1 0x1F LT PUSH2 0x19F2 JUMPI PUSH2 0x100 DUP1 DUP4 SLOAD DIV MUL DUP4 MSTORE SWAP2 PUSH1 0x20 ADD SWAP2 PUSH2 0x1A1D JUMP JUMPDEST DUP3 ADD SWAP2 SWAP1 PUSH1 0x0 MSTORE PUSH1 0x20 PUSH1 0x0 KECCAK256 SWAP1 JUMPDEST DUP2 SLOAD DUP2 MSTORE SWAP1 PUSH1 0x1 ADD SWAP1 PUSH1 0x20 ADD DUP1 DUP4 GT PUSH2 0x1A00 JUMPI DUP3 SWAP1 SUB PUSH1 0x1F AND DUP3 ADD SWAP2 JUMPDEST POP POP POP POP POP PUSH2 0x857 JUMP JUMPDEST PUSH1 0x40 MLOAD DUP2 SWAP1 PUSH1 0x1 PUSH1 0x1 PUSH1 0xA0 SHL SUB DUP6 AND SWAP1 PUSH32 0xB9144C96C86541F6FA89C9F2F02495CCCF4B08CD6643E26D34EE00AA586558A8 SWAP1 PUSH1 0x0 SWAP1 LOG3 POP POP POP JUMP JUMPDEST PUSH1 0x0 DUP2 DUP2 MSTORE PUSH1 0x20 DUP2 SWAP1 MSTORE PUSH1 0x40 DUP2 KECCAK256 PUSH1 0x1 DUP2 ADD SLOAD PUSH1 0x1 PUSH1 0x1 PUSH1 0xA0 SHL SUB AND PUSH2 0x7BF JUMPI PUSH1 0x40 MLOAD PUSH3 0x461BCD PUSH1 0xE5 SHL DUP2 MSTORE PUSH1 0x20 PUSH1 0x4 DUP3 ADD MSTORE PUSH1 0x14 PUSH1 0x24 DUP3 ADD MSTORE PUSH20 0x151BDAD95B88191BD95CC81B9BDD08195E1A5CDD PUSH1 0x62 SHL PUSH1 0x44 DUP3 ADD MSTORE PUSH1 0x64 ADD PUSH2 0x8BC JUMP JUMPDEST PUSH1 0xA SLOAD PUSH1 0x1 PUSH1 0x1 PUSH1 0xA0 SHL SUB AND CALLER EQ PUSH2 0xD66 JUMPI PUSH1 0x40 MLOAD PUSH4 0x118CDAA7 PUSH1 0xE0 SHL DUP2 MSTORE CALLER PUSH1 0x4 DUP3 ADD MSTORE PUSH1 0x24 ADD PUSH2 0x8BC JUMP JUMPDEST PUSH1 0xA DUP1 SLOAD PUSH1 0x1 PUSH1 0x1 PUSH1 0xA0 SHL SUB DUP4 DUP2 AND PUSH1 0x1 PUSH1 0x1 PUSH1 0xA0 SHL SUB NOT DUP4 AND DUP2 OR SWAP1 SWAP4 SSTORE PUSH1 0x40 MLOAD SWAP2 AND SWAP2 SWAP1 DUP3 SWAP1 PUSH32 0x8BE0079C531659141344CD1FD0A4F28419497F9722A3DAAFE3B4186F6B6457E0 SWAP1 PUSH1 0x0 SWAP1 LOG3 POP POP JUMP JUMPDEST PUSH1 0x7 SLOAD PUSH2 0x1B4F DUP3 DUP3 PUSH1 0x1 PUSH2 0x1BAF JUMP JUMPDEST PUSH1 0x40 DUP1 MLOAD PUSH1 0x1 PUSH1 0x1 PUSH1 0xA0 SHL SUB DUP5 AND DUP2 MSTORE PUSH1 0x20 DUP2 ADD DUP4 SWAP1 MSTORE PUSH32 0x30385C845B448A36257A6A1716E6AD2E1BC2CBE333CDE1E69FE849AD6511ADFE SWAP2 ADD PUSH1 0x40 MLOAD DUP1 SWAP2 SUB SWAP1 LOG1 PUSH1 0x1 PUSH1 0x7 PUSH1 0x0 DUP3 DUP3 SLOAD PUSH2 0x1BA4 SWAP2 SWAP1 PUSH2 0x24BF JUMP JUMPDEST SWAP1 SWAP2 SSTORE POP SWAP1 SWAP3 SWAP2 POP POP JUMP JUMPDEST PUSH1 0x0 DUP3 DUP2 MSTORE PUSH1 0x20 DUP2 SWAP1 MSTORE PUSH1 0x40 SWAP1 KECCAK256 PUSH1 0x1 ADD SLOAD PUSH1 0x1 PUSH1 0x1 PUSH1 0xA0 SHL SUB AND ISZERO PUSH2 0x1C17 JUMPI PUSH1 0x40 MLOAD PUSH3 0x461BCD PUSH1 0xE5 SHL DUP2 MSTORE PUSH1 0x20 PUSH1 0x4 DUP3 ADD MSTORE PUSH1 0x1D PUSH1 0x24 DUP3 ADD MSTORE PUSH32 0x43616E6E6F74206D696E7420616E2061737369676E656420746F6B656E000000 PUSH1 0x44 DUP3 ADD MSTORE PUSH1 0x64 ADD PUSH2 0x8BC JUMP JUMPDEST PUSH1 0x1 PUSH1 0x1 PUSH1 0xA0 SHL SUB DUP4 AND PUSH1 0x0 SWAP1 DUP2 MSTORE PUSH1 0x2 PUSH1 0x20 MSTORE PUSH1 0x40 DUP2 KECCAK256 SLOAD SWAP1 SUB PUSH2 0x1C4F JUMPI PUSH1 0x1 PUSH1 0x8 PUSH1 0x0 DUP3 DUP3 SLOAD PUSH2 0x1C49 SWAP2 SWAP1 PUSH2 0x24BF JUMP JUMPDEST SWAP1 SWAP2 SSTORE POP POP JUMPDEST PUSH1 0x40 DUP1 MLOAD PUSH1 0x60 DUP2 ADD DUP3 MSTORE CALLER DUP2 MSTORE PUSH1 0x1 PUSH1 0x1 PUSH1 0xA0 SHL SUB DUP6 DUP2 AND PUSH1 0x20 DUP1 DUP5 ADD DUP3 DUP2 MSTORE DUP7 ISZERO DUP1 ISZERO DUP7 DUP9 ADD SWAP1 DUP2 MSTORE PUSH1 0x0 DUP11 DUP2 MSTORE DUP1 DUP6 MSTORE DUP9 DUP2 KECCAK256 SWAP8 MLOAD DUP9 SLOAD SWAP1 DUP9 AND PUSH1 0x1 PUSH1 0x1 PUSH1 0xA0 SHL SUB NOT SWAP1 SWAP2 AND OR DUP9 SSTORE SWAP3 MLOAD PUSH1 0x1 SWAP8 DUP9 ADD DUP1 SLOAD SWAP3 MLOAD ISZERO ISZERO PUSH1 0x1 PUSH1 0xA0 SHL MUL PUSH1 0x1 PUSH1 0x1 PUSH1 0xA8 SHL SUB NOT SWAP1 SWAP4 AND SWAP2 SWAP1 SWAP8 AND OR OR SWAP1 SWAP5 SSTORE SWAP2 DUP3 MSTORE PUSH1 0x2 DUP1 DUP3 MSTORE DUP6 DUP4 KECCAK256 DUP1 SLOAD PUSH1 0x3 DUP5 MSTORE DUP8 DUP6 KECCAK256 DUP11 DUP7 MSTORE DUP5 MSTORE SWAP7 DUP5 KECCAK256 DUP8 SWAP1 SSTORE SWAP1 DUP3 MSTORE SWAP4 DUP6 ADD DUP5 SSTORE SWAP3 DUP2 MSTORE SWAP2 SWAP1 SWAP2 KECCAK256 SWAP1 SWAP2 ADD DUP4 SWAP1 SSTORE PUSH2 0x8DD JUMPI PUSH1 0x1 PUSH1 0x1 PUSH1 0xA0 SHL SUB DUP4 AND PUSH1 0x0 SWAP1 DUP2 MSTORE PUSH1 0x4 PUSH1 0x20 MSTORE PUSH1 0x40 DUP2 KECCAK256 DUP1 SLOAD PUSH1 0x1 SWAP3 SWAP1 PUSH2 0x1D23 SWAP1 DUP5 SWAP1 PUSH2 0x24BF JUMP JUMPDEST SWAP1 SWAP2 SSTORE POP POP POP POP POP JUMP JUMPDEST PUSH1 0x0 PUSH1 0x20 DUP3 DUP5 SUB SLT ISZERO PUSH2 0x1D3F JUMPI PUSH1 0x0 DUP1 REVERT JUMPDEST DUP2 CALLDATALOAD PUSH1 0x1 PUSH1 0x1 PUSH1 0xE0 SHL SUB NOT DUP2 AND DUP2 EQ PUSH2 0x1D57 JUMPI PUSH1 0x0 DUP1 REVERT JUMPDEST SWAP4 SWAP3 POP POP POP JUMP JUMPDEST PUSH1 0x0 DUP2 MLOAD DUP1 DUP5 MSTORE PUSH1 0x0 JUMPDEST DUP2 DUP2 LT ISZERO PUSH2 0x1D84 JUMPI PUSH1 0x20 DUP2 DUP6 ADD DUP2 ADD MLOAD DUP7 DUP4 ADD DUP3 ADD MSTORE ADD PUSH2 0x1D68 JUMP JUMPDEST POP PUSH1 0x0 PUSH1 0x20 DUP3 DUP7 ADD ADD MSTORE PUSH1 0x20 PUSH1 0x1F NOT PUSH1 0x1F DUP4 ADD AND DUP6 ADD ADD SWAP2 POP POP SWAP3 SWAP2 POP POP JUMP JUMPDEST PUSH1 0x20 DUP2 MSTORE PUSH1 0x0 PUSH2 0x1D57 PUSH1 0x20 DUP4 ADD DUP5 PUSH2 0x1D5E JUMP JUMPDEST PUSH4 0x4E487B71 PUSH1 0xE0 SHL PUSH1 0x0 MSTORE PUSH1 0x41 PUSH1 0x4 MSTORE PUSH1 0x24 PUSH1 0x0 REVERT JUMPDEST PUSH1 0x40 MLOAD PUSH1 0x1F DUP3 ADD PUSH1 0x1F NOT AND DUP2 ADD PUSH1 0x1 PUSH1 0x1 PUSH1 0x40 SHL SUB DUP2 GT DUP3 DUP3 LT OR ISZERO PUSH2 0x1DF5 JUMPI PUSH2 0x1DF5 PUSH2 0x1DB7 JUMP JUMPDEST PUSH1 0x40 MSTORE SWAP2 SWAP1 POP JUMP JUMPDEST PUSH1 0x0 DUP3 PUSH1 0x1F DUP4 ADD SLT PUSH2 0x1E0E JUMPI PUSH1 0x0 DUP1 REVERT JUMPDEST DUP2 CALLDATALOAD PUSH1 0x1 PUSH1 0x1 PUSH1 0x40 SHL SUB DUP2 GT ISZERO PUSH2 0x1E27 JUMPI PUSH2 0x1E27 PUSH2 0x1DB7 JUMP JUMPDEST PUSH2 0x1E3A PUSH1 0x1F DUP3 ADD PUSH1 0x1F NOT AND PUSH1 0x20 ADD PUSH2 0x1DCD JUMP JUMPDEST DUP2 DUP2 MSTORE DUP5 PUSH1 0x20 DUP4 DUP7 ADD ADD GT ISZERO PUSH2 0x1E4F JUMPI PUSH1 0x0 DUP1 REVERT JUMPDEST DUP2 PUSH1 0x20 DUP6 ADD PUSH1 0x20 DUP4 ADD CALLDATACOPY PUSH1 0x0 SWAP2 DUP2 ADD PUSH1 0x20 ADD SWAP2 SWAP1 SWAP2 MSTORE SWAP4 SWAP3 POP POP POP JUMP JUMPDEST PUSH1 0x0 DUP1 PUSH1 0x40 DUP4 DUP6 SUB SLT ISZERO PUSH2 0x1E7F JUMPI PUSH1 0x0 DUP1 REVERT JUMPDEST DUP3 CALLDATALOAD SWAP2 POP PUSH1 0x20 DUP4 ADD CALLDATALOAD PUSH1 0x1 PUSH1 0x1 PUSH1 0x40 SHL SUB DUP2 GT ISZERO PUSH2 0x1E9C JUMPI PUSH1 0x0 DUP1 REVERT JUMPDEST PUSH2 0x1EA8 DUP6 DUP3 DUP7 ADD PUSH2 0x1DFD JUMP JUMPDEST SWAP2 POP POP SWAP3 POP SWAP3 SWAP1 POP JUMP JUMPDEST DUP1 CALLDATALOAD PUSH1 0x1 PUSH1 0x1 PUSH1 0x40 SHL SUB DUP2 AND DUP2 EQ PUSH2 0x1EC9 JUMPI PUSH1 0x0 DUP1 REVERT JUMPDEST SWAP2 SWAP1 POP JUMP JUMPDEST PUSH1 0x0 DUP1 PUSH1 0x40 DUP4 DUP6 SUB SLT ISZERO PUSH2 0x1EE1 JUMPI PUSH1 0x0 DUP1 REVERT JUMPDEST DUP3 CALLDATALOAD SWAP2 POP PUSH2 0x1EF1 PUSH1 0x20 DUP5 ADD PUSH2 0x1EB2 JUMP JUMPDEST SWAP1 POP SWAP3 POP SWAP3 SWAP1 POP JUMP JUMPDEST DUP1 CALLDATALOAD PUSH1 0x1 PUSH1 0x1 PUSH1 0xA0 SHL SUB DUP2 AND DUP2 EQ PUSH2 0x1EC9 JUMPI PUSH1 0x0 DUP1 REVERT JUMPDEST PUSH1 0x0 DUP1 PUSH1 0x40 DUP4 DUP6 SUB SLT ISZERO PUSH2 0x1F24 JUMPI PUSH1 0x0 DUP1 REVERT JUMPDEST PUSH2 0x1F2D DUP4 PUSH2 0x1EFA JUMP JUMPDEST SWAP5 PUSH1 0x20 SWAP4 SWAP1 SWAP4 ADD CALLDATALOAD SWAP4 POP POP POP JUMP JUMPDEST DUP1 CALLDATALOAD PUSH1 0x5 DUP2 LT PUSH2 0x1EC9 JUMPI PUSH1 0x0 DUP1 REVERT JUMPDEST PUSH1 0x0 DUP1 PUSH1 0x40 DUP4 DUP6 SUB SLT ISZERO PUSH2 0x1F5D JUMPI PUSH1 0x0 DUP1 REVERT JUMPDEST DUP3 CALLDATALOAD SWAP2 POP PUSH2 0x1EF1 PUSH1 0x20 DUP5 ADD PUSH2 0x1F3B JUMP JUMPDEST PUSH1 0x0 PUSH1 0x20 DUP3 DUP5 SUB SLT ISZERO PUSH2 0x1F7F JUMPI PUSH1 0x0 DUP1 REVERT JUMPDEST PUSH2 0x1D57 DUP3 PUSH2 0x1EFA JUMP JUMPDEST PUSH1 0x0 PUSH1 0x20 DUP3 DUP5 SUB SLT ISZERO PUSH2 0x1F9A JUMPI PUSH1 0x0 DUP1 REVERT JUMPDEST POP CALLDATALOAD SWAP2 SWAP1 POP JUMP JUMPDEST PUSH1 0x0 DUP1 PUSH1 0x40 DUP4 DUP6 SUB SLT ISZERO PUSH2 0x1FB4 JUMPI PUSH1 0x0 DUP1 REVERT JUMPDEST DUP3 CALLDATALOAD PUSH1 0x1 PUSH1 0x1 PUSH1 0x40 SHL SUB DUP2 GT ISZERO PUSH2 0x1FCA JUMPI PUSH1 0x0 DUP1 REVERT JUMPDEST PUSH2 0x1FD6 DUP6 DUP3 DUP7 ADD PUSH2 0x1DFD JUMP JUMPDEST SWAP6 PUSH1 0x20 SWAP5 SWAP1 SWAP5 ADD CALLDATALOAD SWAP5 POP POP POP POP JUMP JUMPDEST PUSH1 0x0 DUP1 PUSH1 0x40 DUP4 DUP6 SUB SLT ISZERO PUSH2 0x1FF8 JUMPI PUSH1 0x0 DUP1 REVERT JUMPDEST DUP3 CALLDATALOAD SWAP2 POP PUSH2 0x1EF1 PUSH1 0x20 DUP5 ADD PUSH2 0x1EFA JUMP JUMPDEST DUP1 CALLDATALOAD DUP1 ISZERO ISZERO DUP2 EQ PUSH2 0x1EC9 JUMPI PUSH1 0x0 DUP1 REVERT JUMPDEST PUSH1 0x0 DUP1 PUSH1 0x0 PUSH1 0x60 DUP5 DUP7 SUB SLT ISZERO PUSH2 0x202D JUMPI PUSH1 0x0 DUP1 REVERT JUMPDEST PUSH2 0x2036 DUP5 PUSH2 0x1EFA JUMP JUMPDEST SWAP3 POP PUSH1 0x20 DUP5 ADD CALLDATALOAD SWAP2 POP PUSH2 0x204B PUSH1 0x40 DUP6 ADD PUSH2 0x2008 JUMP JUMPDEST SWAP1 POP SWAP3 POP SWAP3 POP SWAP3 JUMP JUMPDEST PUSH1 0x20 DUP1 DUP3 MSTORE DUP3 MLOAD DUP3 DUP3 ADD DUP2 SWAP1 MSTORE PUSH1 0x0 SWAP2 DUP5 ADD SWAP1 PUSH1 0x40 DUP5 ADD SWAP1 DUP4 JUMPDEST DUP2 DUP2 LT ISZERO PUSH2 0x208C JUMPI DUP4 MLOAD DUP4 MSTORE PUSH1 0x20 SWAP4 DUP5 ADD SWAP4 SWAP1 SWAP3 ADD SWAP2 PUSH1 0x1 ADD PUSH2 0x206E JUMP JUMPDEST POP SWAP1 SWAP6 SWAP5 POP POP POP POP POP JUMP JUMPDEST PUSH1 0x0 DUP1 PUSH1 0x40 DUP4 DUP6 SUB SLT ISZERO PUSH2 0x20AA JUMPI PUSH1 0x0 DUP1 REVERT JUMPDEST POP POP DUP1 CALLDATALOAD SWAP3 PUSH1 0x20 SWAP1 SWAP2 ADD CALLDATALOAD SWAP2 POP JUMP JUMPDEST PUSH1 0x0 DUP1 PUSH1 0x40 DUP4 DUP6 SUB SLT ISZERO PUSH2 0x20CC JUMPI PUSH1 0x0 DUP1 REVERT JUMPDEST DUP3 CALLDATALOAD SWAP2 POP PUSH2 0x1EF1 PUSH1 0x20 DUP5 ADD PUSH2 0x2008 JUMP JUMPDEST PUSH4 0x4E487B71 PUSH1 0xE0 SHL PUSH1 0x0 MSTORE PUSH1 0x21 PUSH1 0x4 MSTORE PUSH1 0x24 PUSH1 0x0 REVERT JUMPDEST PUSH1 0x5 DUP2 LT PUSH2 0x2110 JUMPI PUSH4 0x4E487B71 PUSH1 0xE0 SHL PUSH1 0x0 MSTORE PUSH1 0x21 PUSH1 0x4 MSTORE PUSH1 0x24 PUSH1 0x0 REVERT JUMPDEST SWAP1 MSTORE JUMP JUMPDEST PUSH1 0xE0 DUP2 MSTORE PUSH1 0x0 PUSH2 0x2127 PUSH1 0xE0 DUP4 ADD DUP11 PUSH2 0x1D5E JUMP JUMPDEST PUSH1 0x1 PUSH1 0x1 PUSH1 0xA0 SHL SUB DUP10 AND PUSH1 0x20 DUP5 ADD MSTORE PUSH1 0x40 DUP4 ADD DUP9 SWAP1 MSTORE PUSH1 0x1 PUSH1 0x1 PUSH1 0x40 SHL SUB DUP8 AND PUSH1 0x60 DUP5 ADD MSTORE SWAP1 POP PUSH2 0x215B PUSH1 0x80 DUP4 ADD DUP7 PUSH2 0x20F2 JUMP JUMPDEST SWAP3 ISZERO ISZERO PUSH1 0xA0 DUP3 ADD MSTORE SWAP1 ISZERO ISZERO PUSH1 0xC0 SWAP1 SWAP2 ADD MSTORE SWAP6 SWAP5 POP POP POP POP POP JUMP JUMPDEST PUSH1 0x0 DUP1 PUSH1 0x0 PUSH1 0x60 DUP5 DUP7 SUB SLT ISZERO PUSH2 0x218A JUMPI PUSH1 0x0 DUP1 REVERT JUMPDEST DUP4 CALLDATALOAD PUSH1 0x1 PUSH1 0x1 PUSH1 0x40 SHL SUB DUP2 GT ISZERO PUSH2 0x21A0 JUMPI PUSH1 0x0 DUP1 REVERT JUMPDEST DUP5 ADD PUSH1 0x1F DUP2 ADD DUP7 SGT PUSH2 0x21B1 JUMPI PUSH1 0x0 DUP1 REVERT JUMPDEST DUP1 CALLDATALOAD PUSH1 0x1 PUSH1 0x1 PUSH1 0x40 SHL SUB DUP2 GT ISZERO PUSH2 0x21CA JUMPI PUSH2 0x21CA PUSH2 0x1DB7 JUMP JUMPDEST DUP1 PUSH1 0x5 SHL PUSH2 0x21DA PUSH1 0x20 DUP3 ADD PUSH2 0x1DCD JUMP JUMPDEST SWAP2 DUP3 MSTORE PUSH1 0x20 DUP2 DUP5 ADD DUP2 ADD SWAP3 SWAP1 DUP2 ADD SWAP1 DUP10 DUP5 GT ISZERO PUSH2 0x21F6 JUMPI PUSH1 0x0 DUP1 REVERT JUMPDEST PUSH1 0x20 DUP6 ADD SWAP5 POP JUMPDEST DUP4 DUP6 LT ISZERO PUSH2 0x221F JUMPI PUSH2 0x220E DUP6 PUSH2 0x1EFA JUMP JUMPDEST DUP3 MSTORE PUSH1 0x20 SWAP5 DUP6 ADD SWAP5 SWAP1 SWAP2 ADD SWAP1 PUSH2 0x21FD JUMP JUMPDEST SWAP7 POP POP POP POP PUSH1 0x20 DUP6 ADD CALLDATALOAD SWAP3 POP PUSH2 0x204B SWAP1 POP PUSH1 0x40 DUP6 ADD PUSH2 0x2008 JUMP JUMPDEST PUSH1 0x0 DUP1 PUSH1 0x0 DUP1 PUSH1 0x0 DUP1 PUSH1 0x0 PUSH1 0xE0 DUP9 DUP11 SUB SLT ISZERO PUSH2 0x2254 JUMPI PUSH1 0x0 DUP1 REVERT JUMPDEST DUP8 CALLDATALOAD PUSH1 0x1 PUSH1 0x1 PUSH1 0x40 SHL SUB DUP2 GT ISZERO PUSH2 0x226A JUMPI PUSH1 0x0 DUP1 REVERT JUMPDEST PUSH2 0x2276 DUP11 DUP3 DUP12 ADD PUSH2 0x1DFD JUMP JUMPDEST SWAP8 POP POP PUSH2 0x2285 PUSH1 0x20 DUP10 ADD PUSH2 0x1EFA JUMP JUMPDEST SWAP6 POP PUSH1 0x40 DUP9 ADD CALLDATALOAD SWAP5 POP PUSH2 0x229A PUSH1 0x60 DUP10 ADD PUSH2 0x1EB2 JUMP JUMPDEST SWAP4 POP PUSH2 0x22A8 PUSH1 0x80 DUP10 ADD PUSH2 0x1F3B JUMP JUMPDEST SWAP3 POP PUSH2 0x22B6 PUSH1 0xA0 DUP10 ADD PUSH2 0x2008 JUMP JUMPDEST SWAP2 POP PUSH2 0x22C4 PUSH1 0xC0 DUP10 ADD PUSH2 0x2008 JUMP JUMPDEST SWAP1 POP SWAP3 SWAP6 SWAP9 SWAP2 SWAP5 SWAP8 POP SWAP3 SWAP6 POP JUMP JUMPDEST PUSH1 0x1 DUP2 DUP2 SHR SWAP1 DUP3 AND DUP1 PUSH2 0x22E6 JUMPI PUSH1 0x7F DUP3 AND SWAP2 POP JUMPDEST PUSH1 0x20 DUP3 LT DUP2 SUB PUSH2 0x2306 JUMPI PUSH4 0x4E487B71 PUSH1 0xE0 SHL PUSH1 0x0 MSTORE PUSH1 0x22 PUSH1 0x4 MSTORE PUSH1 0x24 PUSH1 0x0 REVERT JUMPDEST POP SWAP2 SWAP1 POP JUMP JUMPDEST PUSH1 0x1F DUP3 GT ISZERO PUSH2 0x8DD JUMPI DUP1 PUSH1 0x0 MSTORE PUSH1 0x20 PUSH1 0x0 KECCAK256 PUSH1 0x1F DUP5 ADD PUSH1 0x5 SHR DUP2 ADD PUSH1 0x20 DUP6 LT ISZERO PUSH2 0x2333 JUMPI POP DUP1 JUMPDEST PUSH1 0x1F DUP5 ADD PUSH1 0x5 SHR DUP3 ADD SWAP2 POP JUMPDEST DUP2 DUP2 LT ISZERO PUSH2 0xCB7 JUMPI PUSH1 0x0 DUP2 SSTORE PUSH1 0x1 ADD PUSH2 0x233F JUMP JUMPDEST DUP2 MLOAD PUSH1 0x1 PUSH1 0x1 PUSH1 0x40 SHL SUB DUP2 GT ISZERO PUSH2 0x236C JUMPI PUSH2 0x236C PUSH2 0x1DB7 JUMP JUMPDEST PUSH2 0x2380 DUP2 PUSH2 0x237A DUP5 SLOAD PUSH2 0x22D2 JUMP JUMPDEST DUP5 PUSH2 0x230C JUMP JUMPDEST PUSH1 0x20 PUSH1 0x1F DUP3 GT PUSH1 0x1 DUP2 EQ PUSH2 0x23B4 JUMPI PUSH1 0x0 DUP4 ISZERO PUSH2 0x239C JUMPI POP DUP5 DUP3 ADD MLOAD JUMPDEST PUSH1 0x0 NOT PUSH1 0x3 DUP6 SWAP1 SHL SHR NOT AND PUSH1 0x1 DUP5 SWAP1 SHL OR DUP5 SSTORE PUSH2 0xCB7 JUMP JUMPDEST PUSH1 0x0 DUP5 DUP2 MSTORE PUSH1 0x20 DUP2 KECCAK256 PUSH1 0x1F NOT DUP6 AND SWAP2 JUMPDEST DUP3 DUP2 LT ISZERO PUSH2 0x23E4 JUMPI DUP8 DUP6 ADD MLOAD DUP3 SSTORE PUSH1 0x20 SWAP5 DUP6 ADD SWAP5 PUSH1 0x1 SWAP1 SWAP3 ADD SWAP2 ADD PUSH2 0x23C4 JUMP JUMPDEST POP DUP5 DUP3 LT ISZERO PUSH2 0x2402 JUMPI DUP7 DUP5 ADD MLOAD PUSH1 0x0 NOT PUSH1 0x3 DUP8 SWAP1 SHL PUSH1 0xF8 AND SHR NOT AND DUP2 SSTORE JUMPDEST POP POP POP POP PUSH1 0x1 SWAP1 DUP2 SHL ADD SWAP1 SSTORE POP JUMP JUMPDEST PUSH4 0x4E487B71 PUSH1 0xE0 SHL PUSH1 0x0 MSTORE PUSH1 0x32 PUSH1 0x4 MSTORE PUSH1 0x24 PUSH1 0x0 REVERT JUMPDEST PUSH4 0x4E487B71 PUSH1 0xE0 SHL PUSH1 0x0 MSTORE PUSH1 0x11 PUSH1 0x4 MSTORE PUSH1 0x24 PUSH1 0x0 REVERT JUMPDEST PUSH1 0x0 PUSH1 0x1 DUP3 ADD PUSH2 0x244F JUMPI PUSH2 0x244F PUSH2 0x2427 JUMP JUMPDEST POP PUSH1 0x1 ADD SWAP1 JUMP JUMPDEST PUSH1 0xA0 DUP2 MSTORE PUSH1 0x0 PUSH2 0x2469 PUSH1 0xA0 DUP4 ADD DUP9 PUSH2 0x1D5E JUMP JUMPDEST SWAP1 POP DUP6 PUSH1 0x20 DUP4 ADD MSTORE PUSH2 0x247E PUSH1 0x40 DUP4 ADD DUP7 PUSH2 0x20F2 JUMP JUMPDEST SWAP3 ISZERO ISZERO PUSH1 0x60 DUP3 ADD MSTORE SWAP1 ISZERO ISZERO PUSH1 0x80 SWAP1 SWAP2 ADD MSTORE SWAP4 SWAP3 POP POP POP JUMP JUMPDEST PUSH4 0x4E487B71 PUSH1 0xE0 SHL PUSH1 0x0 MSTORE PUSH1 0x1 PUSH1 0x4 MSTORE PUSH1 0x24 PUSH1 0x0 REVERT JUMPDEST DUP2 DUP2 SUB DUP2 DUP2 GT ISZERO PUSH2 0x7BF JUMPI PUSH2 0x7BF PUSH2 0x2427 JUMP JUMPDEST DUP1 DUP3 ADD DUP1 DUP3 GT ISZERO PUSH2 0x7BF JUMPI PUSH2 0x7BF PUSH2 0x2427 JUMP INVALID LOG2 PUSH5 0x6970667358 0x22 SLT KECCAK256 0xC5 0x2E BLOCKHASH 0xB7 0xA7 PC BALANCE 0xF8 0xC6 0x2E DUP8 SWAP5 CALL SWAP2 0xC5 0xBC SWAP5 SAR DUP11 0xB8 0xE2 0xD 0xEE SWAP11 0xBA DUP8 SWAP3 EXTCODECOPY PUSH1 0xD4 0xEE SELFBALANCE PUSH5 0x736F6C6343 STOP ADDMOD SHR STOP CALLER "},"methodIdentifiers":{"balanceOf(address)":"70a08231","emittedCount()":"26019c18","fetchUserIDs(address)":"f7921628","hasValid(address)":"43945512","holdersCount()":"6b4ed21b","isValid(uint256)":"f577a500","isWhitelisted(uint256,address)":"7d22c35c","mintPaidToken(address,uint256)":"5484dabb","mintPrivateToken(address,uint256)":"d88f5b89","mintPublicToken(address,uint256)":"71bae2cb","mintServiceToken(address,uint256)":"ef9ec2f3","mintWhitelistedToken(address,uint256)":"a4e3bab9","name()":"06fdde03","owner()":"8da5cb5b","ownerOf(uint256)":"6352211e","registerServiceToken(string,address,uint256,uint64,uint8,bool,bool)":"d7a39c3a","renounceOwnership()":"715018a6","revokeToken(address,uint256)":"29bd58b4","serviceCount()":"06237526","serviceIds(uint256)":"69d26933","services(uint256)":"c22c4f43","setServiceActive(uint256,bool)":"aa8e7402","setServiceManager(address,uint256)":"f6d2c013","setServicePrice(uint256,uint256)":"9daead81","setServiceStatus(uint256,uint8)":"3d687d08","setServiceTokenLimit(uint256,uint64)":"17e59329","setServiceURI(string,uint256)":"5c3d7869","setTokenURI(uint256,string)":"162094c4","setWhitelist(address,uint256,bool)":"804ef86c","setWhitelistBatch(address[],uint256,bool)":"c51d9e4e","supportsInterface(bytes4)":"01ffc9a7","symbol()":"95d89b41","tokenByIndex(uint256)":"4f6ccce7","tokenIds(address,uint256)":"3de419e9","tokenOfOwnerByIndex(address,uint256)":"2f745c59","tokenURI(uint256)":"c87b56dd","tokensOfOwner(address)":"8462151c","transferOwnership(address)":"f2fde38b"}}}}}