{"contracts/JPSGuard.sol":{"JPSGuard":{"abi":[{"inputs":[{"internalType":"string","name":"_uri","type":"string"}],"stateMutability":"nonpayable","type":"constructor"},{"inputs":[],"name":"JPSGuard_InactiveToken","type":"error"},{"inputs":[],"name":"JPSGuard_InsufficientFundsSent","type":"error"},{"inputs":[],"name":"JPSGuard_InvalidServiceID","type":"error"},{"inputs":[],"name":"JPSGuard_InvalidTokenId","type":"error"},{"inputs":[],"name":"JPSGuard_NotManager","type":"error"},{"inputs":[],"name":"JPSGuard_NotWhitelisted","type":"error"},{"inputs":[],"name":"JPSGuard_NotWhitelistedToken","type":"error"},{"inputs":[],"name":"JPSGuard_TokenLimitExceeded","type":"error"},{"inputs":[{"internalType":"address","name":"owner","type":"address"}],"name":"OwnableInvalidOwner","type":"error"},{"inputs":[{"internalType":"address","name":"account","type":"address"}],"name":"OwnableUnauthorizedAccount","type":"error"},{"anonymous":false,"inputs":[{"indexed":false,"internalType":"address","name":"owner","type":"address"},{"indexed":false,"internalType":"uint256","name":"tokenId","type":"uint256"}],"name":"Minted","type":"event"},{"anonymous":false,"inputs":[{"indexed":true,"internalType":"address","name":"previousOwner","type":"address"},{"indexed":true,"internalType":"address","name":"newOwner","type":"address"}],"name":"OwnershipTransferred","type":"event"},{"anonymous":false,"inputs":[{"indexed":false,"internalType":"address","name":"owner","type":"address"},{"indexed":false,"internalType":"uint256","name":"tokenId","type":"uint256"}],"name":"Revoked","type":"event"},{"anonymous":false,"inputs":[{"indexed":false,"internalType":"string","name":"uri","type":"string"},{"indexed":true,"internalType":"address","name":"manager","type":"address"},{"indexed":false,"internalType":"uint256","name":"price","type":"uint256"},{"indexed":false,"internalType":"uint256","name":"serviceId","type":"uint256"},{"indexed":false,"internalType":"uint64","name":"tokenLimit","type":"uint64"},{"indexed":false,"internalType":"enum JPSGuard.ServiceStatus","name":"status","type":"uint8"},{"indexed":false,"internalType":"bool","name":"isPrivate","type":"bool"}],"name":"ServiceRegistered","type":"event"},{"anonymous":false,"inputs":[{"indexed":true,"internalType":"address","name":"_owner","type":"address"},{"indexed":true,"internalType":"uint256","name":"_tokenId","type":"uint256"}],"name":"TokenMinted","type":"event"},{"inputs":[{"internalType":"address","name":"owner","type":"address"}],"name":"balanceOf","outputs":[{"internalType":"uint256","name":"","type":"uint256"}],"stateMutability":"view","type":"function"},{"inputs":[],"name":"emittedCount","outputs":[{"internalType":"uint256","name":"","type":"uint256"}],"stateMutability":"view","type":"function"},{"inputs":[{"internalType":"address","name":"_user","type":"address"}],"name":"getUserIDs","outputs":[{"internalType":"uint256[]","name":"","type":"uint256[]"}],"stateMutability":"view","type":"function"},{"inputs":[{"internalType":"address","name":"owner","type":"address"}],"name":"hasValid","outputs":[{"internalType":"bool","name":"","type":"bool"}],"stateMutability":"view","type":"function"},{"inputs":[],"name":"holdersCount","outputs":[{"internalType":"uint256","name":"","type":"uint256"}],"stateMutability":"view","type":"function"},{"inputs":[{"internalType":"uint256","name":"tokenId","type":"uint256"}],"name":"isValid","outputs":[{"internalType":"bool","name":"","type":"bool"}],"stateMutability":"view","type":"function"},{"inputs":[{"internalType":"uint256","name":"","type":"uint256"},{"internalType":"address","name":"","type":"address"}],"name":"isWhitelisted","outputs":[{"internalType":"bool","name":"","type":"bool"}],"stateMutability":"view","type":"function"},{"inputs":[{"internalType":"address","name":"_user","type":"address"},{"internalType":"uint256","name":"_serviceId","type":"uint256"}],"name":"mintPaidToken","outputs":[],"stateMutability":"payable","type":"function"},{"inputs":[{"internalType":"address","name":"_user","type":"address"},{"internalType":"uint256","name":"_serviceId","type":"uint256"}],"name":"mintPrivateToken","outputs":[],"stateMutability":"nonpayable","type":"function"},{"inputs":[{"internalType":"address","name":"_user","type":"address"},{"internalType":"uint256","name":"_serviceId","type":"uint256"}],"name":"mintPublicToken","outputs":[],"stateMutability":"nonpayable","type":"function"},{"inputs":[{"internalType":"address","name":"_user","type":"address"},{"internalType":"uint256","name":"_serviceId","type":"uint256"}],"name":"mintServiceToken","outputs":[],"stateMutability":"nonpayable","type":"function"},{"inputs":[{"internalType":"address","name":"_user","type":"address"},{"internalType":"uint256","name":"_serviceId","type":"uint256"}],"name":"mintWhitelistedToken","outputs":[],"stateMutability":"nonpayable","type":"function"},{"inputs":[],"name":"name","outputs":[{"internalType":"string","name":"","type":"string"}],"stateMutability":"view","type":"function"},{"inputs":[],"name":"owner","outputs":[{"internalType":"address","name":"","type":"address"}],"stateMutability":"view","type":"function"},{"inputs":[{"internalType":"uint256","name":"tokenId","type":"uint256"}],"name":"ownerOf","outputs":[{"internalType":"address","name":"","type":"address"}],"stateMutability":"view","type":"function"},{"inputs":[{"internalType":"string","name":"_uri","type":"string"},{"internalType":"address","name":"_manager","type":"address"},{"internalType":"uint256","name":"_price","type":"uint256"},{"internalType":"uint64","name":"_tokenLimit","type":"uint64"},{"internalType":"enum JPSGuard.ServiceStatus","name":"_status","type":"uint8"},{"internalType":"bool","name":"_active","type":"bool"}],"name":"registerServiceToken","outputs":[{"internalType":"uint256","name":"","type":"uint256"}],"stateMutability":"nonpayable","type":"function"},{"inputs":[],"name":"renounceOwnership","outputs":[],"stateMutability":"nonpayable","type":"function"},{"inputs":[],"name":"serviceCount","outputs":[{"internalType":"uint256","name":"","type":"uint256"}],"stateMutability":"view","type":"function"},{"inputs":[{"internalType":"uint256","name":"","type":"uint256"}],"name":"services","outputs":[{"internalType":"string","name":"uri","type":"string"},{"internalType":"address","name":"manager","type":"address"},{"internalType":"uint256","name":"price","type":"uint256"},{"internalType":"uint64","name":"tokenLimit","type":"uint64"},{"internalType":"enum JPSGuard.ServiceStatus","name":"status","type":"uint8"},{"internalType":"bool","name":"active","type":"bool"}],"stateMutability":"view","type":"function"},{"inputs":[{"internalType":"uint256","name":"tokenId","type":"uint256"},{"internalType":"string","name":"tokenUri","type":"string"}],"name":"setTokenURI","outputs":[],"stateMutability":"nonpayable","type":"function"},{"inputs":[{"internalType":"bytes4","name":"interfaceId","type":"bytes4"}],"name":"supportsInterface","outputs":[{"internalType":"bool","name":"","type":"bool"}],"stateMutability":"view","type":"function"},{"inputs":[],"name":"symbol","outputs":[{"internalType":"string","name":"","type":"string"}],"stateMutability":"view","type":"function"},{"inputs":[{"internalType":"uint256","name":"index","type":"uint256"}],"name":"tokenByIndex","outputs":[{"internalType":"uint256","name":"","type":"uint256"}],"stateMutability":"view","type":"function"},{"inputs":[{"internalType":"address","name":"","type":"address"},{"internalType":"uint256","name":"","type":"uint256"}],"name":"tokenIds","outputs":[{"internalType":"uint256","name":"","type":"uint256"}],"stateMutability":"view","type":"function"},{"inputs":[{"internalType":"address","name":"owner","type":"address"},{"internalType":"uint256","name":"index","type":"uint256"}],"name":"tokenOfOwnerByIndex","outputs":[{"internalType":"uint256","name":"","type":"uint256"}],"stateMutability":"view","type":"function"},{"inputs":[{"internalType":"uint256","name":"tokenId","type":"uint256"}],"name":"tokenURI","outputs":[{"internalType":"string","name":"","type":"string"}],"stateMutability":"view","type":"function"},{"inputs":[{"internalType":"address","name":"owner","type":"address"}],"name":"tokensOfOwner","outputs":[{"internalType":"uint256[]","name":"tokens","type":"uint256[]"}],"stateMutability":"view","type":"function"},{"inputs":[{"internalType":"address","name":"newOwner","type":"address"}],"name":"transferOwnership","outputs":[],"stateMutability":"nonpayable","type":"function"},{"inputs":[{"internalType":"uint256","name":"_serviceId","type":"uint256"},{"internalType":"bool","name":"_active","type":"bool"}],"name":"updateServiceActiveStatus","outputs":[],"stateMutability":"nonpayable","type":"function"},{"inputs":[{"internalType":"address","name":"_manager","type":"address"},{"internalType":"uint256","name":"_serviceId","type":"uint256"}],"name":"updateServiceManager","outputs":[],"stateMutability":"nonpayable","type":"function"},{"inputs":[{"internalType":"uint256","name":"_serviceId","type":"uint256"},{"internalType":"uint256","name":"_price","type":"uint256"}],"name":"updateServicePrice","outputs":[],"stateMutability":"nonpayable","type":"function"},{"inputs":[{"internalType":"uint256","name":"_serviceId","type":"uint256"},{"internalType":"enum JPSGuard.ServiceStatus","name":"_status","type":"uint8"}],"name":"updateServiceStatus","outputs":[],"stateMutability":"nonpayable","type":"function"},{"inputs":[{"internalType":"uint256","name":"_serviceId","type":"uint256"},{"internalType":"uint64","name":"_tokenLimit","type":"uint64"}],"name":"updateServiceTokenLimit","outputs":[],"stateMutability":"nonpayable","type":"function"},{"inputs":[{"internalType":"string","name":"_uri","type":"string"},{"internalType":"uint256","name":"_serviceId","type":"uint256"}],"name":"updateServiceURI","outputs":[],"stateMutability":"nonpayable","type":"function"},{"inputs":[{"internalType":"address","name":"_user","type":"address"},{"internalType":"uint256","name":"_serviceId","type":"uint256"},{"internalType":"bool","name":"_status","type":"bool"}],"name":"updateWhitelist","outputs":[{"internalType":"bool","name":"","type":"bool"}],"stateMutability":"nonpayable","type":"function"},{"inputs":[{"internalType":"address[]","name":"_users","type":"address[]"},{"internalType":"uint256","name":"_serviceId","type":"uint256"},{"internalType":"bool","name":"_status","type":"bool"}],"name":"updateWhitelistBatch","outputs":[{"internalType":"bool","name":"","type":"bool"}],"stateMutability":"nonpayable","type":"function"}],"evm":{"bytecode":{"linkReferences":{},"object":"608060405234801561001057600080fd5b5060405161285d38038061285d83398101604081905261002f91610350565b33604051806040016040528060038152602001624a505360e81b8152506040518060400160405280601081526020016f12940814dd1858dad95c8811dd585c9960821b8152508160059081610084919061048b565b506006610091828261048b565b5050600980546001600160a01b03191633179055506001600160a01b0381166100d557604051631e4fbdf760e01b8152600060048201526024015b60405180910390fd5b6100de816100fd565b506100f6813360006001600160401b0381600161014f565b505061060d565b600a80546001600160a01b038381166001600160a01b0319831681179093556040519116919082907f8be0079c531659141344cd1fd0a4f28419497f9722a3daafe3b4186f6b6457e090600090a35050565b60006101596102e7565b600b805490600061016983610549565b91905055506040518060c00160405280888152602001876001600160a01b03168152602001868152602001856001600160401b031681526020018460048111156101b5576101b5610570565b8152831515602091820152600b546000908152600d90915260409020815181906101df908261048b565b5060208201516001820180546001600160a01b039092166001600160a01b03199092169190911790556040820151600282015560608201516003820180546001600160401b039092166001600160401b03198316811782556080850151926001600160481b031916176801000000000000000083600481111561026457610264610570565b021790555060a08201518160030160096101000a81548160ff021916908315150217905550905050856001600160a01b03167f28345b1271c32202a14d2a477bca4d93555559e75e1e17ac3f690a13ed71881b8887600b548888886040516102d196959493929190610586565b60405180910390a250600b549695505050505050565b600a546001600160a01b031633146103145760405163118cdaa760e01b81523360048201526024016100cc565b565b634e487b7160e01b600052604160045260246000fd5b60005b8381101561034757818101518382015260200161032f565b50506000910152565b60006020828403121561036257600080fd5b81516001600160401b0381111561037857600080fd5b8201601f8101841361038957600080fd5b80516001600160401b038111156103a2576103a2610316565b604051601f8201601f19908116603f011681016001600160401b03811182821017156103d0576103d0610316565b6040528181528282016020018610156103e857600080fd5b6103f982602083016020860161032c565b95945050505050565b600181811c9082168061041657607f821691505b60208210810361043657634e487b7160e01b600052602260045260246000fd5b50919050565b601f82111561048657806000526020600020601f840160051c810160208510156104635750805b601f840160051c820191505b81811015610483576000815560010161046f565b50505b505050565b81516001600160401b038111156104a4576104a4610316565b6104b8816104b28454610402565b8461043c565b6020601f8211600181146104ec57600083156104d45750848201515b600019600385901b1c1916600184901b178455610483565b600084815260208120601f198516915b8281101561051c57878501518255602094850194600190920191016104fc565b508482101561053a5786840151600019600387901b60f8161c191681555b50505050600190811b01905550565b60006001820161056957634e487b7160e01b600052601160045260246000fd5b5060010190565b634e487b7160e01b600052602160045260246000fd5b60c08152600087518060c08401526105a58160e0850160208c0161032c565b60208301889052604083018790526001600160401b0386166060840152601f01601f1916820160e0019050600584106105ee57634e487b7160e01b600052602160045260246000fd5b83608083015261060260a083018415159052565b979650505050505050565b6122418061061c6000396000f3fe60806040526004361061020f5760003560e01c806370a08231116101185780639fd80934116100a0578063d88f5b891161006f578063d88f5b8914610654578063ee2786bc14610674578063ef9ec2f314610694578063f2fde38b146106b4578063f577a500146106d457600080fd5b80639fd80934146105c2578063a4e3bab9146105e2578063c22c4f4314610602578063c87b56dd1461063457600080fd5b80638462151c116100e75780638462151c146105225780638da5cb5b1461054f57806395d89b411461056d578063987168c01461058257806398b06f07146105a257600080fd5b806370a082311461047c578063715018a6146104b257806371bae2cb146104c75780637d22c35c146104e757600080fd5b80633de419e91161019b5780635484dabb1161016a5780635484dabb146103dc5780635c5514d0146103ef57806360423fa21461040f5780636352211e1461042f5780636b4ed21b1461046757600080fd5b80633de419e9146103465780634394551214610366578063478839161461039e5780634f6ccce7146103be57600080fd5b806308405e74116101e257806308405e74146102b1578063162094c4146102d157806318dce595146102f157806326019c18146103115780632f745c591461032657600080fd5b806301ffc9a714610214578063062375261461024957806306fdde031461026d57806308322acb1461028f575b600080fd5b34801561022057600080fd5b5061023461022f366004611aab565b6106f4565b60405190151581526020015b60405180910390f35b34801561025557600080fd5b5061025f600b5481565b604051908152602001610240565b34801561027957600080fd5b50610282610761565b6040516102409190611b22565b34801561029b57600080fd5b506102af6102aa366004611b51565b6107f3565b005b3480156102bd57600080fd5b506102346102cc366004611ba4565b610887565b3480156102dd57600080fd5b506102af6102ec366004611c95565b610923565b3480156102fd57600080fd5b5061025f61030c366004611cea565b6109ae565b34801561031d57600080fd5b5060075461025f565b34801561033257600080fd5b5061025f610341366004611d71565b610b44565b34801561035257600080fd5b5061025f610361366004611d71565b610bc9565b34801561037257600080fd5b50610234610381366004611d9b565b6001600160a01b0316600090815260046020526040902054151590565b3480156103aa57600080fd5b506102af6103b9366004611db6565b610bfa565b3480156103ca57600080fd5b5061025f6103d9366004611dfa565b90565b6102af6103ea366004611d71565b610c79565b3480156103fb57600080fd5b506102af61040a366004611e13565b610dae565b34801561041b57600080fd5b506102af61042a366004611e36565b610e44565b34801561043b57600080fd5b5061044f61044a366004611dfa565b610ee8565b6040516001600160a01b039091168152602001610240565b34801561047357600080fd5b5060085461025f565b34801561048857600080fd5b5061025f610497366004611d9b565b6001600160a01b031660009081526002602052604090205490565b3480156104be57600080fd5b506102af610f06565b3480156104d357600080fd5b506102af6104e2366004611d71565b610f1a565b3480156104f357600080fd5b50610234610502366004611e59565b600e60209081526000928352604080842090915290825290205460ff1681565b34801561052e57600080fd5b5061054261053d366004611d9b565b610fe7565b6040516102409190611e7c565b34801561055b57600080fd5b50600a546001600160a01b031661044f565b34801561057957600080fd5b50610282611053565b34801561058e57600080fd5b506102af61059d366004611d71565b611062565b3480156105ae57600080fd5b506105426105bd366004611d9b565b6110c0565b3480156105ce57600080fd5b506102af6105dd366004611ebf565b61112a565b3480156105ee57600080fd5b506102af6105fd366004611d71565b6111a1565b34801561060e57600080fd5b5061062261061d366004611dfa565b6112a1565b60405161024096959493929190611f19565b34801561064057600080fd5b5061028261064f366004611dfa565b61137c565b34801561066057600080fd5b506102af61066f366004611d71565b61141c565b34801561068057600080fd5b5061023461068f366004611f73565b61144a565b3480156106a057600080fd5b506102af6106af366004611d71565b611522565b3480156106c057600080fd5b506102af6106cf366004611d9b565b61161b565b3480156106e057600080fd5b506102346106ef366004611dfa565b611659565b60006001600160e01b0319821663a511533d60e01b148061072557506001600160e01b03198216635b5e139f60e01b145b8061074057506001600160e01b03198216632d57debd60e01b145b8061075b57506301ffc9a760e01b6001600160e01b03198316145b92915050565b60606005805461077090612037565b80601f016020809104026020016040519081016040528092919081815260200182805461079c90612037565b80156107e95780601f106107be576101008083540402835291602001916107e9565b820191906000526020600020905b8154815290600101906020018083116107cc57829003601f168201915b5050505050905090565b6000828152600d602052604090206001015482906001600160a01b0316331461082f5760405163c69e727960e01b815260040160405180910390fd5b82600b5481111561085357604051638c2cb5fb60e01b815260040160405180910390fd5b50506000918252600d6020526040909120600301805467ffffffffffffffff19166001600160401b03909216919091179055565b6000828152600d602052604081206001015483906001600160a01b031633146108c35760405163c69e727960e01b815260040160405180910390fd5b83600b548111156108e757604051638c2cb5fb60e01b815260040160405180910390fd5b5050506000918252600e602090815260408084206001600160a01b03959095168452939052919020805460ff1916911515919091179055600190565b6009546001600160a01b031633146109915760405162461bcd60e51b815260206004820152602660248201527f4f6e6c79207468652063726561746f722063616e207365742074686520746f6b604482015265656e2055524960d01b60648201526084015b60405180910390fd5b60008281526001602052604090206109a982826120b8565b505050565b60006109b8611678565b600b80549060006109c88361218c565b91905055506040518060c00160405280888152602001876001600160a01b03168152602001868152602001856001600160401b03168152602001846004811115610a1457610a14611ee1565b8152831515602091820152600b546000908152600d9091526040902081518190610a3e90826120b8565b5060208201516001820180546001600160a01b039092166001600160a01b03199092169190911790556040820151600282015560608201516003820180546001600160401b0390921667ffffffffffffffff1983168117825560808501519268ffffffffffffffffff191617600160401b836004811115610ac157610ac1611ee1565b021790555060a08201518160030160096101000a81548160ff021916908315150217905550905050856001600160a01b03167f28345b1271c32202a14d2a477bca4d93555559e75e1e17ac3f690a13ed71881b8887600b54888888604051610b2e969594939291906121a5565b60405180910390a250600b549695505050505050565b6001600160a01b038216600090815260026020526040812080548310610ba35760405162461bcd60e51b8152602060048201526014602482015273151bdad95b88191bd95cc81b9bdd08195e1a5cdd60621b6044820152606401610988565b808381548110610bb557610bb56121e2565b906000526020600020015491505092915050565b600c6020528160005260406000208181548110610be557600080fd5b90600052602060002001600091509150505481565b6000818152600d602052604090206001015481906001600160a01b03163314610c365760405163c69e727960e01b815260040160405180910390fd5b81600b54811115610c5a57604051638c2cb5fb60e01b815260040160405180910390fd5b6000838152600d60205260409020610c7285826120b8565b5050505050565b6000818152600d602052604090206001015481906001600160a01b03163314610cb55760405163c69e727960e01b815260040160405180910390fd5b816003600b54821115610cdb57604051638c2cb5fb60e01b815260040160405180910390fd5b6000828152600d60205260409020600101546001600160a01b03163314610d155760405163c69e727960e01b815260040160405180910390fd5b806004811115610d2757610d27611ee1565b6000838152600d6020526040902060030154600160401b900460ff166004811115610d5457610d54611ee1565b14610d7257604051634fcd7f0b60e01b815260040160405180910390fd5b6000848152600d6020526040902060020154341015610da457604051636495458560e01b815260040160405180910390fd5b610c7285856116a5565b6000828152600d602052604090206001015482906001600160a01b03163314610dea5760405163c69e727960e01b815260040160405180910390fd5b82600b54811115610e0e57604051638c2cb5fb60e01b815260040160405180910390fd5b50506000918252600d60205260409091206003018054911515600160481b0269ff00000000000000000019909216919091179055565b6000828152600d602052604090206001015482906001600160a01b03163314610e805760405163c69e727960e01b815260040160405180910390fd5b82600b54811115610ea457604051638c2cb5fb60e01b815260040160405180910390fd5b6000848152600d60205260409020600301805484919068ff00000000000000001916600160401b836004811115610edd57610edd611ee1565b021790555050505050565b6000610ef38261180d565b600101546001600160a01b031692915050565b610f0e611678565b610f18600061186c565b565b806000600b54821115610f4057604051638c2cb5fb60e01b815260040160405180910390fd5b6000828152600d60205260409020600101546001600160a01b03163314610f7a5760405163c69e727960e01b815260040160405180910390fd5b806004811115610f8c57610f8c611ee1565b6000838152600d6020526040902060030154600160401b900460ff166004811115610fb957610fb9611ee1565b14610fd757604051634fcd7f0b60e01b815260040160405180910390fd5b610fe184846116a5565b50505050565b6001600160a01b03811660009081526002602090815260409182902080548351818402810184019094528084526060939283018282801561104757602002820191906000526020600020905b815481526020019060010190808311611033575b50505050509050919050565b60606006805461077090612037565b61106a611678565b80600b5481111561108e57604051638c2cb5fb60e01b815260040160405180910390fd5b506000908152600d6020526040902060010180546001600160a01b0319166001600160a01b0392909216919091179055565b6001600160a01b0381166000908152600c602090815260409182902080548351818402810184019094528084526060939283018282801561104757602002820191906000526020600020908154815260200190600101908083116110335750505050509050919050565b6000828152600d602052604090206001015482906001600160a01b031633146111665760405163c69e727960e01b815260040160405180910390fd5b82600b5481111561118a57604051638c2cb5fb60e01b815260040160405180910390fd5b50506000918252600d602052604090912060020155565b806004600b548211156111c757604051638c2cb5fb60e01b815260040160405180910390fd5b6000828152600d60205260409020600101546001600160a01b031633146112015760405163c69e727960e01b815260040160405180910390fd5b80600481111561121357611213611ee1565b6000838152600d6020526040902060030154600160401b900460ff16600481111561124057611240611ee1565b1461125e57604051634fcd7f0b60e01b815260040160405180910390fd5b6000838152600e602090815260408083206001600160a01b038816845290915290205460ff16610fd75760405163bd9044c360e01b815260040160405180910390fd5b600d602052600090815260409020805481906112bc90612037565b80601f01602080910402602001604051908101604052809291908181526020018280546112e890612037565b80156113355780601f1061130a57610100808354040283529160200191611335565b820191906000526020600020905b81548152906001019060200180831161131857829003601f168201915b5050506001840154600285015460039095015493946001600160a01b03909116939092506001600160401b038116915060ff600160401b8204811691600160481b90041686565b60606113878261180d565b50600082815260016020526040902080546113a190612037565b80601f01602080910402602001604051908101604052809291908181526020018280546113cd90612037565b80156110475780601f106113ef57610100808354040283529160200191611047565b820191906000526020600020905b8154815290600101906020018083116113fd5750939695505050505050565b611424611678565b806001600b54821115610f4057604051638c2cb5fb60e01b815260040160405180910390fd5b6000828152600d602052604081206001015483906001600160a01b031633146114865760405163c69e727960e01b815260040160405180910390fd5b83600b548111156114aa57604051638c2cb5fb60e01b815260040160405180910390fd5b60005b8651811015611515576000868152600e6020526040812088518792908a90859081106114db576114db6121e2565b6020908102919091018101516001600160a01b03168252810191909152604001600020805460ff19169115159190911790556001016114ad565b5060019695505050505050565b6000818152600d602052604090206001015481906001600160a01b0316331461155e5760405163c69e727960e01b815260040160405180910390fd5b816002600b5482111561158457604051638c2cb5fb60e01b815260040160405180910390fd5b6000828152600d60205260409020600101546001600160a01b031633146115be5760405163c69e727960e01b815260040160405180910390fd5b8060048111156115d0576115d0611ee1565b6000838152600d6020526040902060030154600160401b900460ff1660048111156115fd576115fd611ee1565b14610da457604051634fcd7f0b60e01b815260040160405180910390fd5b611623611678565b6001600160a01b03811661164d57604051631e4fbdf760e01b815260006004820152602401610988565b6116568161186c565b50565b60006116648261180d565b60010154600160a01b900460ff1692915050565b600a546001600160a01b03163314610f185760405163118cdaa760e01b8152336004820152602401610988565b6000818152600d60209081526040808320600301546001600160a01b0386168452600c909252909120546001600160401b03909116116116f857604051635d0efcb160e01b815260040160405180910390fd5b6000611703836118be565b6001600160a01b0384166000908152600c60209081526040808320805460018101825590845282842001849055858352600d909152902080549192506117d29183919061174f90612037565b80601f016020809104026020016040519081016040528092919081815260200182805461177b90612037565b80156117c85780601f1061179d576101008083540402835291602001916117c8565b820191906000526020600020905b8154815290600101906020018083116117ab57829003601f168201915b5050505050610923565b60405181906001600160a01b038516907fb9144c96c86541f6fa89c9f2f02495cccf4b08cd6643e26d34ee00aa586558a890600090a3505050565b600081815260208190526040812060018101546001600160a01b031661075b5760405162461bcd60e51b8152602060048201526014602482015273151bdad95b88191bd95cc81b9bdd08195e1a5cdd60621b6044820152606401610988565b600a80546001600160a01b038381166001600160a01b0319831681179093556040519116919082907f8be0079c531659141344cd1fd0a4f28419497f9722a3daafe3b4186f6b6457e090600090a35050565b6007546118cd8282600161192d565b604080516001600160a01b0384168152602081018390527f30385c845b448a36257a6a1716e6ad2e1bc2cbe333cde1e69fe849ad6511adfe910160405180910390a160016007600082825461192291906121f8565b909155509092915050565b6000828152602081905260409020600101546001600160a01b0316156119955760405162461bcd60e51b815260206004820152601d60248201527f43616e6e6f74206d696e7420616e2061737369676e656420746f6b656e0000006044820152606401610988565b6001600160a01b03831660009081526002602052604081205490036119cd576001600860008282546119c791906121f8565b90915550505b604080516060810182523381526001600160a01b0385811660208084018281528615801586880190815260008a8152808552888120975188549088166001600160a01b031990911617885592516001978801805492511515600160a01b026001600160a81b031990931691909716171790945591825260028082528583208054600384528785208a865284529684208790559082529385018455928152919091209091018390556109a9576001600160a01b0383166000908152600460205260408120805460019290611aa19084906121f8565b9091555050505050565b600060208284031215611abd57600080fd5b81356001600160e01b031981168114611ad557600080fd5b9392505050565b6000815180845260005b81811015611b0257602081850181015186830182015201611ae6565b506000602082860101526020601f19601f83011685010191505092915050565b602081526000611ad56020830184611adc565b80356001600160401b0381168114611b4c57600080fd5b919050565b60008060408385031215611b6457600080fd5b82359150611b7460208401611b35565b90509250929050565b80356001600160a01b0381168114611b4c57600080fd5b80358015158114611b4c57600080fd5b600080600060608486031215611bb957600080fd5b611bc284611b7d565b925060208401359150611bd760408501611b94565b90509250925092565b634e487b7160e01b600052604160045260246000fd5b604051601f8201601f191681016001600160401b0381118282101715611c1e57611c1e611be0565b604052919050565b600082601f830112611c3757600080fd5b81356001600160401b03811115611c5057611c50611be0565b611c63601f8201601f1916602001611bf6565b818152846020838601011115611c7857600080fd5b816020850160208301376000918101602001919091529392505050565b60008060408385031215611ca857600080fd5b8235915060208301356001600160401b03811115611cc557600080fd5b611cd185828601611c26565b9150509250929050565b803560058110611b4c57600080fd5b60008060008060008060c08789031215611d0357600080fd5b86356001600160401b03811115611d1957600080fd5b611d2589828a01611c26565b965050611d3460208801611b7d565b945060408701359350611d4960608801611b35565b9250611d5760808801611cdb565b9150611d6560a08801611b94565b90509295509295509295565b60008060408385031215611d8457600080fd5b611d8d83611b7d565b946020939093013593505050565b600060208284031215611dad57600080fd5b611ad582611b7d565b60008060408385031215611dc957600080fd5b82356001600160401b03811115611ddf57600080fd5b611deb85828601611c26565b95602094909401359450505050565b600060208284031215611e0c57600080fd5b5035919050565b60008060408385031215611e2657600080fd5b82359150611b7460208401611b94565b60008060408385031215611e4957600080fd5b82359150611b7460208401611cdb565b60008060408385031215611e6c57600080fd5b82359150611b7460208401611b7d565b602080825282518282018190526000918401906040840190835b81811015611eb4578351835260209384019390920191600101611e96565b509095945050505050565b60008060408385031215611ed257600080fd5b50508035926020909101359150565b634e487b7160e01b600052602160045260246000fd5b60058110611f1557634e487b7160e01b600052602160045260246000fd5b9052565b60c081526000611f2c60c0830189611adc565b6001600160a01b0388166020840152604083018790526001600160401b03861660608401529050611f606080830185611ef7565b82151560a0830152979650505050505050565b600080600060608486031215611f8857600080fd5b83356001600160401b03811115611f9e57600080fd5b8401601f81018613611faf57600080fd5b80356001600160401b03811115611fc857611fc8611be0565b8060051b611fd860208201611bf6565b91825260208184018101929081019089841115611ff457600080fd5b6020850194505b8385101561201d5761200c85611b7d565b825260209485019490910190611ffb565b965050505060208501359250611bd7905060408501611b94565b600181811c9082168061204b57607f821691505b60208210810361206b57634e487b7160e01b600052602260045260246000fd5b50919050565b601f8211156109a957806000526020600020601f840160051c810160208510156120985750805b601f840160051c820191505b81811015610c7257600081556001016120a4565b81516001600160401b038111156120d1576120d1611be0565b6120e5816120df8454612037565b84612071565b6020601f82116001811461211957600083156121015750848201515b600019600385901b1c1916600184901b178455610c72565b600084815260208120601f198516915b828110156121495787850151825560209485019460019092019101612129565b50848210156121675786840151600019600387901b60f8161c191681555b50505050600190811b01905550565b634e487b7160e01b600052601160045260246000fd5b60006001820161219e5761219e612176565b5060010190565b60c0815260006121b860c0830189611adc565b90508660208301528560408301526001600160401b0385166060830152611f606080830185611ef7565b634e487b7160e01b600052603260045260246000fd5b8082018082111561075b5761075b61217656fea2646970667358221220fcd27b28c482cfb3db36e45a1d3114acd3ffa675d9951f8728cd3e4adf5d4f9464736f6c634300081c0033","opcodes":"PUSH1 0x80 PUSH1 0x40 MSTORE CALLVALUE DUP1 ISZERO PUSH2 0x10 JUMPI PUSH1 0x0 DUP1 REVERT JUMPDEST POP PUSH1 0x40 MLOAD PUSH2 0x285D CODESIZE SUB DUP1 PUSH2 0x285D DUP4 CODECOPY DUP2 ADD PUSH1 0x40 DUP2 SWAP1 MSTORE PUSH2 0x2F SWAP2 PUSH2 0x350 JUMP JUMPDEST CALLER PUSH1 0x40 MLOAD DUP1 PUSH1 0x40 ADD PUSH1 0x40 MSTORE DUP1 PUSH1 0x3 DUP2 MSTORE PUSH1 0x20 ADD PUSH3 0x4A5053 PUSH1 0xE8 SHL DUP2 MSTORE POP PUSH1 0x40 MLOAD DUP1 PUSH1 0x40 ADD PUSH1 0x40 MSTORE DUP1 PUSH1 0x10 DUP2 MSTORE PUSH1 0x20 ADD PUSH16 0x12940814DD1858DAD95C8811DD585C99 PUSH1 0x82 SHL DUP2 MSTORE POP DUP2 PUSH1 0x5 SWAP1 DUP2 PUSH2 0x84 SWAP2 SWAP1 PUSH2 0x48B JUMP JUMPDEST POP PUSH1 0x6 PUSH2 0x91 DUP3 DUP3 PUSH2 0x48B JUMP JUMPDEST POP POP PUSH1 0x9 DUP1 SLOAD PUSH1 0x1 PUSH1 0x1 PUSH1 0xA0 SHL SUB NOT AND CALLER OR SWAP1 SSTORE POP PUSH1 0x1 PUSH1 0x1 PUSH1 0xA0 SHL SUB DUP2 AND PUSH2 0xD5 JUMPI PUSH1 0x40 MLOAD PUSH4 0x1E4FBDF7 PUSH1 0xE0 SHL DUP2 MSTORE PUSH1 0x0 PUSH1 0x4 DUP3 ADD MSTORE PUSH1 0x24 ADD JUMPDEST PUSH1 0x40 MLOAD DUP1 SWAP2 SUB SWAP1 REVERT JUMPDEST PUSH2 0xDE DUP2 PUSH2 0xFD JUMP JUMPDEST POP PUSH2 0xF6 DUP2 CALLER PUSH1 0x0 PUSH1 0x1 PUSH1 0x1 PUSH1 0x40 SHL SUB DUP2 PUSH1 0x1 PUSH2 0x14F JUMP JUMPDEST POP POP PUSH2 0x60D JUMP JUMPDEST PUSH1 0xA DUP1 SLOAD PUSH1 0x1 PUSH1 0x1 PUSH1 0xA0 SHL SUB DUP4 DUP2 AND PUSH1 0x1 PUSH1 0x1 PUSH1 0xA0 SHL SUB NOT DUP4 AND DUP2 OR SWAP1 SWAP4 SSTORE PUSH1 0x40 MLOAD SWAP2 AND SWAP2 SWAP1 DUP3 SWAP1 PUSH32 0x8BE0079C531659141344CD1FD0A4F28419497F9722A3DAAFE3B4186F6B6457E0 SWAP1 PUSH1 0x0 SWAP1 LOG3 POP POP JUMP JUMPDEST PUSH1 0x0 PUSH2 0x159 PUSH2 0x2E7 JUMP JUMPDEST PUSH1 0xB DUP1 SLOAD SWAP1 PUSH1 0x0 PUSH2 0x169 DUP4 PUSH2 0x549 JUMP JUMPDEST SWAP2 SWAP1 POP SSTORE POP PUSH1 0x40 MLOAD DUP1 PUSH1 0xC0 ADD PUSH1 0x40 MSTORE DUP1 DUP9 DUP2 MSTORE PUSH1 0x20 ADD DUP8 PUSH1 0x1 PUSH1 0x1 PUSH1 0xA0 SHL SUB AND DUP2 MSTORE PUSH1 0x20 ADD DUP7 DUP2 MSTORE PUSH1 0x20 ADD DUP6 PUSH1 0x1 PUSH1 0x1 PUSH1 0x40 SHL SUB AND DUP2 MSTORE PUSH1 0x20 ADD DUP5 PUSH1 0x4 DUP2 GT ISZERO PUSH2 0x1B5 JUMPI PUSH2 0x1B5 PUSH2 0x570 JUMP JUMPDEST DUP2 MSTORE DUP4 ISZERO ISZERO PUSH1 0x20 SWAP2 DUP3 ADD MSTORE PUSH1 0xB SLOAD PUSH1 0x0 SWAP1 DUP2 MSTORE PUSH1 0xD SWAP1 SWAP2 MSTORE PUSH1 0x40 SWAP1 KECCAK256 DUP2 MLOAD DUP2 SWAP1 PUSH2 0x1DF SWAP1 DUP3 PUSH2 0x48B JUMP JUMPDEST POP PUSH1 0x20 DUP3 ADD MLOAD PUSH1 0x1 DUP3 ADD DUP1 SLOAD PUSH1 0x1 PUSH1 0x1 PUSH1 0xA0 SHL SUB SWAP1 SWAP3 AND PUSH1 0x1 PUSH1 0x1 PUSH1 0xA0 SHL SUB NOT SWAP1 SWAP3 AND SWAP2 SWAP1 SWAP2 OR SWAP1 SSTORE PUSH1 0x40 DUP3 ADD MLOAD PUSH1 0x2 DUP3 ADD SSTORE PUSH1 0x60 DUP3 ADD MLOAD PUSH1 0x3 DUP3 ADD DUP1 SLOAD PUSH1 0x1 PUSH1 0x1 PUSH1 0x40 SHL SUB SWAP1 SWAP3 AND PUSH1 0x1 PUSH1 0x1 PUSH1 0x40 SHL SUB NOT DUP4 AND DUP2 OR DUP3 SSTORE PUSH1 0x80 DUP6 ADD MLOAD SWAP3 PUSH1 0x1 PUSH1 0x1 PUSH1 0x48 SHL SUB NOT AND OR PUSH9 0x10000000000000000 DUP4 PUSH1 0x4 DUP2 GT ISZERO PUSH2 0x264 JUMPI PUSH2 0x264 PUSH2 0x570 JUMP JUMPDEST MUL OR SWAP1 SSTORE POP PUSH1 0xA0 DUP3 ADD MLOAD DUP2 PUSH1 0x3 ADD PUSH1 0x9 PUSH2 0x100 EXP DUP2 SLOAD DUP2 PUSH1 0xFF MUL NOT AND SWAP1 DUP4 ISZERO ISZERO MUL OR SWAP1 SSTORE POP SWAP1 POP POP DUP6 PUSH1 0x1 PUSH1 0x1 PUSH1 0xA0 SHL SUB AND PUSH32 0x28345B1271C32202A14D2A477BCA4D93555559E75E1E17AC3F690A13ED71881B DUP9 DUP8 PUSH1 0xB SLOAD DUP9 DUP9 DUP9 PUSH1 0x40 MLOAD PUSH2 0x2D1 SWAP7 SWAP6 SWAP5 SWAP4 SWAP3 SWAP2 SWAP1 PUSH2 0x586 JUMP JUMPDEST PUSH1 0x40 MLOAD DUP1 SWAP2 SUB SWAP1 LOG2 POP PUSH1 0xB SLOAD SWAP7 SWAP6 POP POP POP POP POP POP JUMP JUMPDEST PUSH1 0xA SLOAD PUSH1 0x1 PUSH1 0x1 PUSH1 0xA0 SHL SUB AND CALLER EQ PUSH2 0x314 JUMPI PUSH1 0x40 MLOAD PUSH4 0x118CDAA7 PUSH1 0xE0 SHL DUP2 MSTORE CALLER PUSH1 0x4 DUP3 ADD MSTORE PUSH1 0x24 ADD PUSH2 0xCC JUMP JUMPDEST JUMP JUMPDEST PUSH4 0x4E487B71 PUSH1 0xE0 SHL PUSH1 0x0 MSTORE PUSH1 0x41 PUSH1 0x4 MSTORE PUSH1 0x24 PUSH1 0x0 REVERT JUMPDEST PUSH1 0x0 JUMPDEST DUP4 DUP2 LT ISZERO PUSH2 0x347 JUMPI DUP2 DUP2 ADD MLOAD DUP4 DUP3 ADD MSTORE PUSH1 0x20 ADD PUSH2 0x32F JUMP JUMPDEST POP POP PUSH1 0x0 SWAP2 ADD MSTORE JUMP JUMPDEST PUSH1 0x0 PUSH1 0x20 DUP3 DUP5 SUB SLT ISZERO PUSH2 0x362 JUMPI PUSH1 0x0 DUP1 REVERT JUMPDEST DUP2 MLOAD PUSH1 0x1 PUSH1 0x1 PUSH1 0x40 SHL SUB DUP2 GT ISZERO PUSH2 0x378 JUMPI PUSH1 0x0 DUP1 REVERT JUMPDEST DUP3 ADD PUSH1 0x1F DUP2 ADD DUP5 SGT PUSH2 0x389 JUMPI PUSH1 0x0 DUP1 REVERT JUMPDEST DUP1 MLOAD PUSH1 0x1 PUSH1 0x1 PUSH1 0x40 SHL SUB DUP2 GT ISZERO PUSH2 0x3A2 JUMPI PUSH2 0x3A2 PUSH2 0x316 JUMP JUMPDEST PUSH1 0x40 MLOAD PUSH1 0x1F DUP3 ADD PUSH1 0x1F NOT SWAP1 DUP2 AND PUSH1 0x3F ADD AND DUP2 ADD PUSH1 0x1 PUSH1 0x1 PUSH1 0x40 SHL SUB DUP2 GT DUP3 DUP3 LT OR ISZERO PUSH2 0x3D0 JUMPI PUSH2 0x3D0 PUSH2 0x316 JUMP JUMPDEST PUSH1 0x40 MSTORE DUP2 DUP2 MSTORE DUP3 DUP3 ADD PUSH1 0x20 ADD DUP7 LT ISZERO PUSH2 0x3E8 JUMPI PUSH1 0x0 DUP1 REVERT JUMPDEST PUSH2 0x3F9 DUP3 PUSH1 0x20 DUP4 ADD PUSH1 0x20 DUP7 ADD PUSH2 0x32C JUMP JUMPDEST SWAP6 SWAP5 POP POP POP POP POP JUMP JUMPDEST PUSH1 0x1 DUP2 DUP2 SHR SWAP1 DUP3 AND DUP1 PUSH2 0x416 JUMPI PUSH1 0x7F DUP3 AND SWAP2 POP JUMPDEST PUSH1 0x20 DUP3 LT DUP2 SUB PUSH2 0x436 JUMPI PUSH4 0x4E487B71 PUSH1 0xE0 SHL PUSH1 0x0 MSTORE PUSH1 0x22 PUSH1 0x4 MSTORE PUSH1 0x24 PUSH1 0x0 REVERT JUMPDEST POP SWAP2 SWAP1 POP JUMP JUMPDEST PUSH1 0x1F DUP3 GT ISZERO PUSH2 0x486 JUMPI DUP1 PUSH1 0x0 MSTORE PUSH1 0x20 PUSH1 0x0 KECCAK256 PUSH1 0x1F DUP5 ADD PUSH1 0x5 SHR DUP2 ADD PUSH1 0x20 DUP6 LT ISZERO PUSH2 0x463 JUMPI POP DUP1 JUMPDEST PUSH1 0x1F DUP5 ADD PUSH1 0x5 SHR DUP3 ADD SWAP2 POP JUMPDEST DUP2 DUP2 LT ISZERO PUSH2 0x483 JUMPI PUSH1 0x0 DUP2 SSTORE PUSH1 0x1 ADD PUSH2 0x46F JUMP JUMPDEST POP POP JUMPDEST POP POP POP JUMP JUMPDEST DUP2 MLOAD PUSH1 0x1 PUSH1 0x1 PUSH1 0x40 SHL SUB DUP2 GT ISZERO PUSH2 0x4A4 JUMPI PUSH2 0x4A4 PUSH2 0x316 JUMP JUMPDEST PUSH2 0x4B8 DUP2 PUSH2 0x4B2 DUP5 SLOAD PUSH2 0x402 JUMP JUMPDEST DUP5 PUSH2 0x43C JUMP JUMPDEST PUSH1 0x20 PUSH1 0x1F DUP3 GT PUSH1 0x1 DUP2 EQ PUSH2 0x4EC JUMPI PUSH1 0x0 DUP4 ISZERO PUSH2 0x4D4 JUMPI POP DUP5 DUP3 ADD MLOAD JUMPDEST PUSH1 0x0 NOT PUSH1 0x3 DUP6 SWAP1 SHL SHR NOT AND PUSH1 0x1 DUP5 SWAP1 SHL OR DUP5 SSTORE PUSH2 0x483 JUMP JUMPDEST PUSH1 0x0 DUP5 DUP2 MSTORE PUSH1 0x20 DUP2 KECCAK256 PUSH1 0x1F NOT DUP6 AND SWAP2 JUMPDEST DUP3 DUP2 LT ISZERO PUSH2 0x51C JUMPI DUP8 DUP6 ADD MLOAD DUP3 SSTORE PUSH1 0x20 SWAP5 DUP6 ADD SWAP5 PUSH1 0x1 SWAP1 SWAP3 ADD SWAP2 ADD PUSH2 0x4FC JUMP JUMPDEST POP DUP5 DUP3 LT ISZERO PUSH2 0x53A JUMPI DUP7 DUP5 ADD MLOAD PUSH1 0x0 NOT PUSH1 0x3 DUP8 SWAP1 SHL PUSH1 0xF8 AND SHR NOT AND DUP2 SSTORE JUMPDEST POP POP POP POP PUSH1 0x1 SWAP1 DUP2 SHL ADD SWAP1 SSTORE POP JUMP JUMPDEST PUSH1 0x0 PUSH1 0x1 DUP3 ADD PUSH2 0x569 JUMPI PUSH4 0x4E487B71 PUSH1 0xE0 SHL PUSH1 0x0 MSTORE PUSH1 0x11 PUSH1 0x4 MSTORE PUSH1 0x24 PUSH1 0x0 REVERT JUMPDEST POP PUSH1 0x1 ADD SWAP1 JUMP JUMPDEST PUSH4 0x4E487B71 PUSH1 0xE0 SHL PUSH1 0x0 MSTORE PUSH1 0x21 PUSH1 0x4 MSTORE PUSH1 0x24 PUSH1 0x0 REVERT JUMPDEST PUSH1 0xC0 DUP2 MSTORE PUSH1 0x0 DUP8 MLOAD DUP1 PUSH1 0xC0 DUP5 ADD MSTORE PUSH2 0x5A5 DUP2 PUSH1 0xE0 DUP6 ADD PUSH1 0x20 DUP13 ADD PUSH2 0x32C JUMP JUMPDEST PUSH1 0x20 DUP4 ADD DUP9 SWAP1 MSTORE PUSH1 0x40 DUP4 ADD DUP8 SWAP1 MSTORE PUSH1 0x1 PUSH1 0x1 PUSH1 0x40 SHL SUB DUP7 AND PUSH1 0x60 DUP5 ADD MSTORE PUSH1 0x1F ADD PUSH1 0x1F NOT AND DUP3 ADD PUSH1 0xE0 ADD SWAP1 POP PUSH1 0x5 DUP5 LT PUSH2 0x5EE JUMPI PUSH4 0x4E487B71 PUSH1 0xE0 SHL PUSH1 0x0 MSTORE PUSH1 0x21 PUSH1 0x4 MSTORE PUSH1 0x24 PUSH1 0x0 REVERT JUMPDEST DUP4 PUSH1 0x80 DUP4 ADD MSTORE PUSH2 0x602 PUSH1 0xA0 DUP4 ADD DUP5 ISZERO ISZERO SWAP1 MSTORE JUMP JUMPDEST SWAP8 SWAP7 POP POP POP POP POP POP POP JUMP JUMPDEST PUSH2 0x2241 DUP1 PUSH2 0x61C PUSH1 0x0 CODECOPY PUSH1 0x0 RETURN INVALID PUSH1 0x80 PUSH1 0x40 MSTORE PUSH1 0x4 CALLDATASIZE LT PUSH2 0x20F JUMPI PUSH1 0x0 CALLDATALOAD PUSH1 0xE0 SHR DUP1 PUSH4 0x70A08231 GT PUSH2 0x118 JUMPI DUP1 PUSH4 0x9FD80934 GT PUSH2 0xA0 JUMPI DUP1 PUSH4 0xD88F5B89 GT PUSH2 0x6F JUMPI DUP1 PUSH4 0xD88F5B89 EQ PUSH2 0x654 JUMPI DUP1 PUSH4 0xEE2786BC EQ PUSH2 0x674 JUMPI DUP1 PUSH4 0xEF9EC2F3 EQ PUSH2 0x694 JUMPI DUP1 PUSH4 0xF2FDE38B EQ PUSH2 0x6B4 JUMPI DUP1 PUSH4 0xF577A500 EQ PUSH2 0x6D4 JUMPI PUSH1 0x0 DUP1 REVERT JUMPDEST DUP1 PUSH4 0x9FD80934 EQ PUSH2 0x5C2 JUMPI DUP1 PUSH4 0xA4E3BAB9 EQ PUSH2 0x5E2 JUMPI DUP1 PUSH4 0xC22C4F43 EQ PUSH2 0x602 JUMPI DUP1 PUSH4 0xC87B56DD EQ PUSH2 0x634 JUMPI PUSH1 0x0 DUP1 REVERT JUMPDEST DUP1 PUSH4 0x8462151C GT PUSH2 0xE7 JUMPI DUP1 PUSH4 0x8462151C EQ PUSH2 0x522 JUMPI DUP1 PUSH4 0x8DA5CB5B EQ PUSH2 0x54F JUMPI DUP1 PUSH4 0x95D89B41 EQ PUSH2 0x56D JUMPI DUP1 PUSH4 0x987168C0 EQ PUSH2 0x582 JUMPI DUP1 PUSH4 0x98B06F07 EQ PUSH2 0x5A2 JUMPI PUSH1 0x0 DUP1 REVERT JUMPDEST DUP1 PUSH4 0x70A08231 EQ PUSH2 0x47C JUMPI DUP1 PUSH4 0x715018A6 EQ PUSH2 0x4B2 JUMPI DUP1 PUSH4 0x71BAE2CB EQ PUSH2 0x4C7 JUMPI DUP1 PUSH4 0x7D22C35C EQ PUSH2 0x4E7 JUMPI PUSH1 0x0 DUP1 REVERT JUMPDEST DUP1 PUSH4 0x3DE419E9 GT PUSH2 0x19B JUMPI DUP1 PUSH4 0x5484DABB GT PUSH2 0x16A JUMPI DUP1 PUSH4 0x5484DABB EQ PUSH2 0x3DC JUMPI DUP1 PUSH4 0x5C5514D0 EQ PUSH2 0x3EF JUMPI DUP1 PUSH4 0x60423FA2 EQ PUSH2 0x40F JUMPI DUP1 PUSH4 0x6352211E EQ PUSH2 0x42F JUMPI DUP1 PUSH4 0x6B4ED21B EQ PUSH2 0x467 JUMPI PUSH1 0x0 DUP1 REVERT JUMPDEST DUP1 PUSH4 0x3DE419E9 EQ PUSH2 0x346 JUMPI DUP1 PUSH4 0x43945512 EQ PUSH2 0x366 JUMPI DUP1 PUSH4 0x47883916 EQ PUSH2 0x39E JUMPI DUP1 PUSH4 0x4F6CCCE7 EQ PUSH2 0x3BE JUMPI PUSH1 0x0 DUP1 REVERT JUMPDEST DUP1 PUSH4 0x8405E74 GT PUSH2 0x1E2 JUMPI DUP1 PUSH4 0x8405E74 EQ PUSH2 0x2B1 JUMPI DUP1 PUSH4 0x162094C4 EQ PUSH2 0x2D1 JUMPI DUP1 PUSH4 0x18DCE595 EQ PUSH2 0x2F1 JUMPI DUP1 PUSH4 0x26019C18 EQ PUSH2 0x311 JUMPI DUP1 PUSH4 0x2F745C59 EQ PUSH2 0x326 JUMPI PUSH1 0x0 DUP1 REVERT JUMPDEST DUP1 PUSH4 0x1FFC9A7 EQ PUSH2 0x214 JUMPI DUP1 PUSH4 0x6237526 EQ PUSH2 0x249 JUMPI DUP1 PUSH4 0x6FDDE03 EQ PUSH2 0x26D JUMPI DUP1 PUSH4 0x8322ACB EQ PUSH2 0x28F JUMPI JUMPDEST PUSH1 0x0 DUP1 REVERT JUMPDEST CALLVALUE DUP1 ISZERO PUSH2 0x220 JUMPI PUSH1 0x0 DUP1 REVERT JUMPDEST POP PUSH2 0x234 PUSH2 0x22F CALLDATASIZE PUSH1 0x4 PUSH2 0x1AAB JUMP JUMPDEST PUSH2 0x6F4 JUMP JUMPDEST PUSH1 0x40 MLOAD SWAP1 ISZERO ISZERO DUP2 MSTORE PUSH1 0x20 ADD JUMPDEST PUSH1 0x40 MLOAD DUP1 SWAP2 SUB SWAP1 RETURN JUMPDEST CALLVALUE DUP1 ISZERO PUSH2 0x255 JUMPI PUSH1 0x0 DUP1 REVERT JUMPDEST POP PUSH2 0x25F PUSH1 0xB SLOAD DUP2 JUMP JUMPDEST PUSH1 0x40 MLOAD SWAP1 DUP2 MSTORE PUSH1 0x20 ADD PUSH2 0x240 JUMP JUMPDEST CALLVALUE DUP1 ISZERO PUSH2 0x279 JUMPI PUSH1 0x0 DUP1 REVERT JUMPDEST POP PUSH2 0x282 PUSH2 0x761 JUMP JUMPDEST PUSH1 0x40 MLOAD PUSH2 0x240 SWAP2 SWAP1 PUSH2 0x1B22 JUMP JUMPDEST CALLVALUE DUP1 ISZERO PUSH2 0x29B JUMPI PUSH1 0x0 DUP1 REVERT JUMPDEST POP PUSH2 0x2AF PUSH2 0x2AA CALLDATASIZE PUSH1 0x4 PUSH2 0x1B51 JUMP JUMPDEST PUSH2 0x7F3 JUMP JUMPDEST STOP JUMPDEST CALLVALUE DUP1 ISZERO PUSH2 0x2BD JUMPI PUSH1 0x0 DUP1 REVERT JUMPDEST POP PUSH2 0x234 PUSH2 0x2CC CALLDATASIZE PUSH1 0x4 PUSH2 0x1BA4 JUMP JUMPDEST PUSH2 0x887 JUMP JUMPDEST CALLVALUE DUP1 ISZERO PUSH2 0x2DD JUMPI PUSH1 0x0 DUP1 REVERT JUMPDEST POP PUSH2 0x2AF PUSH2 0x2EC CALLDATASIZE PUSH1 0x4 PUSH2 0x1C95 JUMP JUMPDEST PUSH2 0x923 JUMP JUMPDEST CALLVALUE DUP1 ISZERO PUSH2 0x2FD JUMPI PUSH1 0x0 DUP1 REVERT JUMPDEST POP PUSH2 0x25F PUSH2 0x30C CALLDATASIZE PUSH1 0x4 PUSH2 0x1CEA JUMP JUMPDEST PUSH2 0x9AE JUMP JUMPDEST CALLVALUE DUP1 ISZERO PUSH2 0x31D JUMPI PUSH1 0x0 DUP1 REVERT JUMPDEST POP PUSH1 0x7 SLOAD PUSH2 0x25F JUMP JUMPDEST CALLVALUE DUP1 ISZERO PUSH2 0x332 JUMPI PUSH1 0x0 DUP1 REVERT JUMPDEST POP PUSH2 0x25F PUSH2 0x341 CALLDATASIZE PUSH1 0x4 PUSH2 0x1D71 JUMP JUMPDEST PUSH2 0xB44 JUMP JUMPDEST CALLVALUE DUP1 ISZERO PUSH2 0x352 JUMPI PUSH1 0x0 DUP1 REVERT JUMPDEST POP PUSH2 0x25F PUSH2 0x361 CALLDATASIZE PUSH1 0x4 PUSH2 0x1D71 JUMP JUMPDEST PUSH2 0xBC9 JUMP JUMPDEST CALLVALUE DUP1 ISZERO PUSH2 0x372 JUMPI PUSH1 0x0 DUP1 REVERT JUMPDEST POP PUSH2 0x234 PUSH2 0x381 CALLDATASIZE PUSH1 0x4 PUSH2 0x1D9B JUMP JUMPDEST PUSH1 0x1 PUSH1 0x1 PUSH1 0xA0 SHL SUB AND PUSH1 0x0 SWAP1 DUP2 MSTORE PUSH1 0x4 PUSH1 0x20 MSTORE PUSH1 0x40 SWAP1 KECCAK256 SLOAD ISZERO ISZERO SWAP1 JUMP JUMPDEST CALLVALUE DUP1 ISZERO PUSH2 0x3AA JUMPI PUSH1 0x0 DUP1 REVERT JUMPDEST POP PUSH2 0x2AF PUSH2 0x3B9 CALLDATASIZE PUSH1 0x4 PUSH2 0x1DB6 JUMP JUMPDEST PUSH2 0xBFA JUMP JUMPDEST CALLVALUE DUP1 ISZERO PUSH2 0x3CA JUMPI PUSH1 0x0 DUP1 REVERT JUMPDEST POP PUSH2 0x25F PUSH2 0x3D9 CALLDATASIZE PUSH1 0x4 PUSH2 0x1DFA JUMP JUMPDEST SWAP1 JUMP JUMPDEST PUSH2 0x2AF PUSH2 0x3EA CALLDATASIZE PUSH1 0x4 PUSH2 0x1D71 JUMP JUMPDEST PUSH2 0xC79 JUMP JUMPDEST CALLVALUE DUP1 ISZERO PUSH2 0x3FB JUMPI PUSH1 0x0 DUP1 REVERT JUMPDEST POP PUSH2 0x2AF PUSH2 0x40A CALLDATASIZE PUSH1 0x4 PUSH2 0x1E13 JUMP JUMPDEST PUSH2 0xDAE JUMP JUMPDEST CALLVALUE DUP1 ISZERO PUSH2 0x41B JUMPI PUSH1 0x0 DUP1 REVERT JUMPDEST POP PUSH2 0x2AF PUSH2 0x42A CALLDATASIZE PUSH1 0x4 PUSH2 0x1E36 JUMP JUMPDEST PUSH2 0xE44 JUMP JUMPDEST CALLVALUE DUP1 ISZERO PUSH2 0x43B JUMPI PUSH1 0x0 DUP1 REVERT JUMPDEST POP PUSH2 0x44F PUSH2 0x44A CALLDATASIZE PUSH1 0x4 PUSH2 0x1DFA JUMP JUMPDEST PUSH2 0xEE8 JUMP JUMPDEST PUSH1 0x40 MLOAD PUSH1 0x1 PUSH1 0x1 PUSH1 0xA0 SHL SUB SWAP1 SWAP2 AND DUP2 MSTORE PUSH1 0x20 ADD PUSH2 0x240 JUMP JUMPDEST CALLVALUE DUP1 ISZERO PUSH2 0x473 JUMPI PUSH1 0x0 DUP1 REVERT JUMPDEST POP PUSH1 0x8 SLOAD PUSH2 0x25F JUMP JUMPDEST CALLVALUE DUP1 ISZERO PUSH2 0x488 JUMPI PUSH1 0x0 DUP1 REVERT JUMPDEST POP PUSH2 0x25F PUSH2 0x497 CALLDATASIZE PUSH1 0x4 PUSH2 0x1D9B JUMP JUMPDEST PUSH1 0x1 PUSH1 0x1 PUSH1 0xA0 SHL SUB AND PUSH1 0x0 SWAP1 DUP2 MSTORE PUSH1 0x2 PUSH1 0x20 MSTORE PUSH1 0x40 SWAP1 KECCAK256 SLOAD SWAP1 JUMP JUMPDEST CALLVALUE DUP1 ISZERO PUSH2 0x4BE JUMPI PUSH1 0x0 DUP1 REVERT JUMPDEST POP PUSH2 0x2AF PUSH2 0xF06 JUMP JUMPDEST CALLVALUE DUP1 ISZERO PUSH2 0x4D3 JUMPI PUSH1 0x0 DUP1 REVERT JUMPDEST POP PUSH2 0x2AF PUSH2 0x4E2 CALLDATASIZE PUSH1 0x4 PUSH2 0x1D71 JUMP JUMPDEST PUSH2 0xF1A JUMP JUMPDEST CALLVALUE DUP1 ISZERO PUSH2 0x4F3 JUMPI PUSH1 0x0 DUP1 REVERT JUMPDEST POP PUSH2 0x234 PUSH2 0x502 CALLDATASIZE PUSH1 0x4 PUSH2 0x1E59 JUMP JUMPDEST PUSH1 0xE PUSH1 0x20 SWAP1 DUP2 MSTORE PUSH1 0x0 SWAP3 DUP4 MSTORE PUSH1 0x40 DUP1 DUP5 KECCAK256 SWAP1 SWAP2 MSTORE SWAP1 DUP3 MSTORE SWAP1 KECCAK256 SLOAD PUSH1 0xFF AND DUP2 JUMP JUMPDEST CALLVALUE DUP1 ISZERO PUSH2 0x52E JUMPI PUSH1 0x0 DUP1 REVERT JUMPDEST POP PUSH2 0x542 PUSH2 0x53D CALLDATASIZE PUSH1 0x4 PUSH2 0x1D9B JUMP JUMPDEST PUSH2 0xFE7 JUMP JUMPDEST PUSH1 0x40 MLOAD PUSH2 0x240 SWAP2 SWAP1 PUSH2 0x1E7C JUMP JUMPDEST CALLVALUE DUP1 ISZERO PUSH2 0x55B JUMPI PUSH1 0x0 DUP1 REVERT JUMPDEST POP PUSH1 0xA SLOAD PUSH1 0x1 PUSH1 0x1 PUSH1 0xA0 SHL SUB AND PUSH2 0x44F JUMP JUMPDEST CALLVALUE DUP1 ISZERO PUSH2 0x579 JUMPI PUSH1 0x0 DUP1 REVERT JUMPDEST POP PUSH2 0x282 PUSH2 0x1053 JUMP JUMPDEST CALLVALUE DUP1 ISZERO PUSH2 0x58E JUMPI PUSH1 0x0 DUP1 REVERT JUMPDEST POP PUSH2 0x2AF PUSH2 0x59D CALLDATASIZE PUSH1 0x4 PUSH2 0x1D71 JUMP JUMPDEST PUSH2 0x1062 JUMP JUMPDEST CALLVALUE DUP1 ISZERO PUSH2 0x5AE JUMPI PUSH1 0x0 DUP1 REVERT JUMPDEST POP PUSH2 0x542 PUSH2 0x5BD CALLDATASIZE PUSH1 0x4 PUSH2 0x1D9B JUMP JUMPDEST PUSH2 0x10C0 JUMP JUMPDEST CALLVALUE DUP1 ISZERO PUSH2 0x5CE JUMPI PUSH1 0x0 DUP1 REVERT JUMPDEST POP PUSH2 0x2AF PUSH2 0x5DD CALLDATASIZE PUSH1 0x4 PUSH2 0x1EBF JUMP JUMPDEST PUSH2 0x112A JUMP JUMPDEST CALLVALUE DUP1 ISZERO PUSH2 0x5EE JUMPI PUSH1 0x0 DUP1 REVERT JUMPDEST POP PUSH2 0x2AF PUSH2 0x5FD CALLDATASIZE PUSH1 0x4 PUSH2 0x1D71 JUMP JUMPDEST PUSH2 0x11A1 JUMP JUMPDEST CALLVALUE DUP1 ISZERO PUSH2 0x60E JUMPI PUSH1 0x0 DUP1 REVERT JUMPDEST POP PUSH2 0x622 PUSH2 0x61D CALLDATASIZE PUSH1 0x4 PUSH2 0x1DFA JUMP JUMPDEST PUSH2 0x12A1 JUMP JUMPDEST PUSH1 0x40 MLOAD PUSH2 0x240 SWAP7 SWAP6 SWAP5 SWAP4 SWAP3 SWAP2 SWAP1 PUSH2 0x1F19 JUMP JUMPDEST CALLVALUE DUP1 ISZERO PUSH2 0x640 JUMPI PUSH1 0x0 DUP1 REVERT JUMPDEST POP PUSH2 0x282 PUSH2 0x64F CALLDATASIZE PUSH1 0x4 PUSH2 0x1DFA JUMP JUMPDEST PUSH2 0x137C JUMP JUMPDEST CALLVALUE DUP1 ISZERO PUSH2 0x660 JUMPI PUSH1 0x0 DUP1 REVERT JUMPDEST POP PUSH2 0x2AF PUSH2 0x66F CALLDATASIZE PUSH1 0x4 PUSH2 0x1D71 JUMP JUMPDEST PUSH2 0x141C JUMP JUMPDEST CALLVALUE DUP1 ISZERO PUSH2 0x680 JUMPI PUSH1 0x0 DUP1 REVERT JUMPDEST POP PUSH2 0x234 PUSH2 0x68F CALLDATASIZE PUSH1 0x4 PUSH2 0x1F73 JUMP JUMPDEST PUSH2 0x144A JUMP JUMPDEST CALLVALUE DUP1 ISZERO PUSH2 0x6A0 JUMPI PUSH1 0x0 DUP1 REVERT JUMPDEST POP PUSH2 0x2AF PUSH2 0x6AF CALLDATASIZE PUSH1 0x4 PUSH2 0x1D71 JUMP JUMPDEST PUSH2 0x1522 JUMP JUMPDEST CALLVALUE DUP1 ISZERO PUSH2 0x6C0 JUMPI PUSH1 0x0 DUP1 REVERT JUMPDEST POP PUSH2 0x2AF PUSH2 0x6CF CALLDATASIZE PUSH1 0x4 PUSH2 0x1D9B JUMP JUMPDEST PUSH2 0x161B JUMP JUMPDEST CALLVALUE DUP1 ISZERO PUSH2 0x6E0 JUMPI PUSH1 0x0 DUP1 REVERT JUMPDEST POP PUSH2 0x234 PUSH2 0x6EF CALLDATASIZE PUSH1 0x4 PUSH2 0x1DFA JUMP JUMPDEST PUSH2 0x1659 JUMP JUMPDEST PUSH1 0x0 PUSH1 0x1 PUSH1 0x1 PUSH1 0xE0 SHL SUB NOT DUP3 AND PUSH4 0xA511533D PUSH1 0xE0 SHL EQ DUP1 PUSH2 0x725 JUMPI POP PUSH1 0x1 PUSH1 0x1 PUSH1 0xE0 SHL SUB NOT DUP3 AND PUSH4 0x5B5E139F PUSH1 0xE0 SHL EQ JUMPDEST DUP1 PUSH2 0x740 JUMPI POP PUSH1 0x1 PUSH1 0x1 PUSH1 0xE0 SHL SUB NOT DUP3 AND PUSH4 0x2D57DEBD PUSH1 0xE0 SHL EQ JUMPDEST DUP1 PUSH2 0x75B JUMPI POP PUSH4 0x1FFC9A7 PUSH1 0xE0 SHL PUSH1 0x1 PUSH1 0x1 PUSH1 0xE0 SHL SUB NOT DUP4 AND EQ JUMPDEST SWAP3 SWAP2 POP POP JUMP JUMPDEST PUSH1 0x60 PUSH1 0x5 DUP1 SLOAD PUSH2 0x770 SWAP1 PUSH2 0x2037 JUMP JUMPDEST DUP1 PUSH1 0x1F ADD PUSH1 0x20 DUP1 SWAP2 DIV MUL PUSH1 0x20 ADD PUSH1 0x40 MLOAD SWAP1 DUP2 ADD PUSH1 0x40 MSTORE DUP1 SWAP3 SWAP2 SWAP1 DUP2 DUP2 MSTORE PUSH1 0x20 ADD DUP3 DUP1 SLOAD PUSH2 0x79C SWAP1 PUSH2 0x2037 JUMP JUMPDEST DUP1 ISZERO PUSH2 0x7E9 JUMPI DUP1 PUSH1 0x1F LT PUSH2 0x7BE JUMPI PUSH2 0x100 DUP1 DUP4 SLOAD DIV MUL DUP4 MSTORE SWAP2 PUSH1 0x20 ADD SWAP2 PUSH2 0x7E9 JUMP JUMPDEST DUP3 ADD SWAP2 SWAP1 PUSH1 0x0 MSTORE PUSH1 0x20 PUSH1 0x0 KECCAK256 SWAP1 JUMPDEST DUP2 SLOAD DUP2 MSTORE SWAP1 PUSH1 0x1 ADD SWAP1 PUSH1 0x20 ADD DUP1 DUP4 GT PUSH2 0x7CC JUMPI DUP3 SWAP1 SUB PUSH1 0x1F AND DUP3 ADD SWAP2 JUMPDEST POP POP POP POP POP SWAP1 POP SWAP1 JUMP JUMPDEST PUSH1 0x0 DUP3 DUP2 MSTORE PUSH1 0xD PUSH1 0x20 MSTORE PUSH1 0x40 SWAP1 KECCAK256 PUSH1 0x1 ADD SLOAD DUP3 SWAP1 PUSH1 0x1 PUSH1 0x1 PUSH1 0xA0 SHL SUB AND CALLER EQ PUSH2 0x82F JUMPI PUSH1 0x40 MLOAD PUSH4 0xC69E7279 PUSH1 0xE0 SHL DUP2 MSTORE PUSH1 0x4 ADD PUSH1 0x40 MLOAD DUP1 SWAP2 SUB SWAP1 REVERT JUMPDEST DUP3 PUSH1 0xB SLOAD DUP2 GT ISZERO PUSH2 0x853 JUMPI PUSH1 0x40 MLOAD PUSH4 0x8C2CB5FB PUSH1 0xE0 SHL DUP2 MSTORE PUSH1 0x4 ADD PUSH1 0x40 MLOAD DUP1 SWAP2 SUB SWAP1 REVERT JUMPDEST POP POP PUSH1 0x0 SWAP2 DUP3 MSTORE PUSH1 0xD PUSH1 0x20 MSTORE PUSH1 0x40 SWAP1 SWAP2 KECCAK256 PUSH1 0x3 ADD DUP1 SLOAD PUSH8 0xFFFFFFFFFFFFFFFF NOT AND PUSH1 0x1 PUSH1 0x1 PUSH1 0x40 SHL SUB SWAP1 SWAP3 AND SWAP2 SWAP1 SWAP2 OR SWAP1 SSTORE JUMP JUMPDEST PUSH1 0x0 DUP3 DUP2 MSTORE PUSH1 0xD PUSH1 0x20 MSTORE PUSH1 0x40 DUP2 KECCAK256 PUSH1 0x1 ADD SLOAD DUP4 SWAP1 PUSH1 0x1 PUSH1 0x1 PUSH1 0xA0 SHL SUB AND CALLER EQ PUSH2 0x8C3 JUMPI PUSH1 0x40 MLOAD PUSH4 0xC69E7279 PUSH1 0xE0 SHL DUP2 MSTORE PUSH1 0x4 ADD PUSH1 0x40 MLOAD DUP1 SWAP2 SUB SWAP1 REVERT JUMPDEST DUP4 PUSH1 0xB SLOAD DUP2 GT ISZERO PUSH2 0x8E7 JUMPI PUSH1 0x40 MLOAD PUSH4 0x8C2CB5FB PUSH1 0xE0 SHL DUP2 MSTORE PUSH1 0x4 ADD PUSH1 0x40 MLOAD DUP1 SWAP2 SUB SWAP1 REVERT JUMPDEST POP POP POP PUSH1 0x0 SWAP2 DUP3 MSTORE PUSH1 0xE PUSH1 0x20 SWAP1 DUP2 MSTORE PUSH1 0x40 DUP1 DUP5 KECCAK256 PUSH1 0x1 PUSH1 0x1 PUSH1 0xA0 SHL SUB SWAP6 SWAP1 SWAP6 AND DUP5 MSTORE SWAP4 SWAP1 MSTORE SWAP2 SWAP1 KECCAK256 DUP1 SLOAD PUSH1 0xFF NOT AND SWAP2 ISZERO ISZERO SWAP2 SWAP1 SWAP2 OR SWAP1 SSTORE PUSH1 0x1 SWAP1 JUMP JUMPDEST PUSH1 0x9 SLOAD PUSH1 0x1 PUSH1 0x1 PUSH1 0xA0 SHL SUB AND CALLER EQ PUSH2 0x991 JUMPI PUSH1 0x40 MLOAD PUSH3 0x461BCD PUSH1 0xE5 SHL DUP2 MSTORE PUSH1 0x20 PUSH1 0x4 DUP3 ADD MSTORE PUSH1 0x26 PUSH1 0x24 DUP3 ADD MSTORE PUSH32 0x4F6E6C79207468652063726561746F722063616E207365742074686520746F6B PUSH1 0x44 DUP3 ADD MSTORE PUSH6 0x656E20555249 PUSH1 0xD0 SHL PUSH1 0x64 DUP3 ADD MSTORE PUSH1 0x84 ADD JUMPDEST PUSH1 0x40 MLOAD DUP1 SWAP2 SUB SWAP1 REVERT JUMPDEST PUSH1 0x0 DUP3 DUP2 MSTORE PUSH1 0x1 PUSH1 0x20 MSTORE PUSH1 0x40 SWAP1 KECCAK256 PUSH2 0x9A9 DUP3 DUP3 PUSH2 0x20B8 JUMP JUMPDEST POP POP POP JUMP JUMPDEST PUSH1 0x0 PUSH2 0x9B8 PUSH2 0x1678 JUMP JUMPDEST PUSH1 0xB DUP1 SLOAD SWAP1 PUSH1 0x0 PUSH2 0x9C8 DUP4 PUSH2 0x218C JUMP JUMPDEST SWAP2 SWAP1 POP SSTORE POP PUSH1 0x40 MLOAD DUP1 PUSH1 0xC0 ADD PUSH1 0x40 MSTORE DUP1 DUP9 DUP2 MSTORE PUSH1 0x20 ADD DUP8 PUSH1 0x1 PUSH1 0x1 PUSH1 0xA0 SHL SUB AND DUP2 MSTORE PUSH1 0x20 ADD DUP7 DUP2 MSTORE PUSH1 0x20 ADD DUP6 PUSH1 0x1 PUSH1 0x1 PUSH1 0x40 SHL SUB AND DUP2 MSTORE PUSH1 0x20 ADD DUP5 PUSH1 0x4 DUP2 GT ISZERO PUSH2 0xA14 JUMPI PUSH2 0xA14 PUSH2 0x1EE1 JUMP JUMPDEST DUP2 MSTORE DUP4 ISZERO ISZERO PUSH1 0x20 SWAP2 DUP3 ADD MSTORE PUSH1 0xB SLOAD PUSH1 0x0 SWAP1 DUP2 MSTORE PUSH1 0xD SWAP1 SWAP2 MSTORE PUSH1 0x40 SWAP1 KECCAK256 DUP2 MLOAD DUP2 SWAP1 PUSH2 0xA3E SWAP1 DUP3 PUSH2 0x20B8 JUMP JUMPDEST POP PUSH1 0x20 DUP3 ADD MLOAD PUSH1 0x1 DUP3 ADD DUP1 SLOAD PUSH1 0x1 PUSH1 0x1 PUSH1 0xA0 SHL SUB SWAP1 SWAP3 AND PUSH1 0x1 PUSH1 0x1 PUSH1 0xA0 SHL SUB NOT SWAP1 SWAP3 AND SWAP2 SWAP1 SWAP2 OR SWAP1 SSTORE PUSH1 0x40 DUP3 ADD MLOAD PUSH1 0x2 DUP3 ADD SSTORE PUSH1 0x60 DUP3 ADD MLOAD PUSH1 0x3 DUP3 ADD DUP1 SLOAD PUSH1 0x1 PUSH1 0x1 PUSH1 0x40 SHL SUB SWAP1 SWAP3 AND PUSH8 0xFFFFFFFFFFFFFFFF NOT DUP4 AND DUP2 OR DUP3 SSTORE PUSH1 0x80 DUP6 ADD MLOAD SWAP3 PUSH9 0xFFFFFFFFFFFFFFFFFF NOT AND OR PUSH1 0x1 PUSH1 0x40 SHL DUP4 PUSH1 0x4 DUP2 GT ISZERO PUSH2 0xAC1 JUMPI PUSH2 0xAC1 PUSH2 0x1EE1 JUMP JUMPDEST MUL OR SWAP1 SSTORE POP PUSH1 0xA0 DUP3 ADD MLOAD DUP2 PUSH1 0x3 ADD PUSH1 0x9 PUSH2 0x100 EXP DUP2 SLOAD DUP2 PUSH1 0xFF MUL NOT AND SWAP1 DUP4 ISZERO ISZERO MUL OR SWAP1 SSTORE POP SWAP1 POP POP DUP6 PUSH1 0x1 PUSH1 0x1 PUSH1 0xA0 SHL SUB AND PUSH32 0x28345B1271C32202A14D2A477BCA4D93555559E75E1E17AC3F690A13ED71881B DUP9 DUP8 PUSH1 0xB SLOAD DUP9 DUP9 DUP9 PUSH1 0x40 MLOAD PUSH2 0xB2E SWAP7 SWAP6 SWAP5 SWAP4 SWAP3 SWAP2 SWAP1 PUSH2 0x21A5 JUMP JUMPDEST PUSH1 0x40 MLOAD DUP1 SWAP2 SUB SWAP1 LOG2 POP PUSH1 0xB SLOAD SWAP7 SWAP6 POP POP POP POP POP POP JUMP JUMPDEST PUSH1 0x1 PUSH1 0x1 PUSH1 0xA0 SHL SUB DUP3 AND PUSH1 0x0 SWAP1 DUP2 MSTORE PUSH1 0x2 PUSH1 0x20 MSTORE PUSH1 0x40 DUP2 KECCAK256 DUP1 SLOAD DUP4 LT PUSH2 0xBA3 JUMPI PUSH1 0x40 MLOAD PUSH3 0x461BCD PUSH1 0xE5 SHL DUP2 MSTORE PUSH1 0x20 PUSH1 0x4 DUP3 ADD MSTORE PUSH1 0x14 PUSH1 0x24 DUP3 ADD MSTORE PUSH20 0x151BDAD95B88191BD95CC81B9BDD08195E1A5CDD PUSH1 0x62 SHL PUSH1 0x44 DUP3 ADD MSTORE PUSH1 0x64 ADD PUSH2 0x988 JUMP JUMPDEST DUP1 DUP4 DUP2 SLOAD DUP2 LT PUSH2 0xBB5 JUMPI PUSH2 0xBB5 PUSH2 0x21E2 JUMP JUMPDEST SWAP1 PUSH1 0x0 MSTORE PUSH1 0x20 PUSH1 0x0 KECCAK256 ADD SLOAD SWAP2 POP POP SWAP3 SWAP2 POP POP JUMP JUMPDEST PUSH1 0xC PUSH1 0x20 MSTORE DUP2 PUSH1 0x0 MSTORE PUSH1 0x40 PUSH1 0x0 KECCAK256 DUP2 DUP2 SLOAD DUP2 LT PUSH2 0xBE5 JUMPI PUSH1 0x0 DUP1 REVERT JUMPDEST SWAP1 PUSH1 0x0 MSTORE PUSH1 0x20 PUSH1 0x0 KECCAK256 ADD PUSH1 0x0 SWAP2 POP SWAP2 POP POP SLOAD DUP2 JUMP JUMPDEST PUSH1 0x0 DUP2 DUP2 MSTORE PUSH1 0xD PUSH1 0x20 MSTORE PUSH1 0x40 SWAP1 KECCAK256 PUSH1 0x1 ADD SLOAD DUP2 SWAP1 PUSH1 0x1 PUSH1 0x1 PUSH1 0xA0 SHL SUB AND CALLER EQ PUSH2 0xC36 JUMPI PUSH1 0x40 MLOAD PUSH4 0xC69E7279 PUSH1 0xE0 SHL DUP2 MSTORE PUSH1 0x4 ADD PUSH1 0x40 MLOAD DUP1 SWAP2 SUB SWAP1 REVERT JUMPDEST DUP2 PUSH1 0xB SLOAD DUP2 GT ISZERO PUSH2 0xC5A JUMPI PUSH1 0x40 MLOAD PUSH4 0x8C2CB5FB PUSH1 0xE0 SHL DUP2 MSTORE PUSH1 0x4 ADD PUSH1 0x40 MLOAD DUP1 SWAP2 SUB SWAP1 REVERT JUMPDEST PUSH1 0x0 DUP4 DUP2 MSTORE PUSH1 0xD PUSH1 0x20 MSTORE PUSH1 0x40 SWAP1 KECCAK256 PUSH2 0xC72 DUP6 DUP3 PUSH2 0x20B8 JUMP JUMPDEST POP POP POP POP POP JUMP JUMPDEST PUSH1 0x0 DUP2 DUP2 MSTORE PUSH1 0xD PUSH1 0x20 MSTORE PUSH1 0x40 SWAP1 KECCAK256 PUSH1 0x1 ADD SLOAD DUP2 SWAP1 PUSH1 0x1 PUSH1 0x1 PUSH1 0xA0 SHL SUB AND CALLER EQ PUSH2 0xCB5 JUMPI PUSH1 0x40 MLOAD PUSH4 0xC69E7279 PUSH1 0xE0 SHL DUP2 MSTORE PUSH1 0x4 ADD PUSH1 0x40 MLOAD DUP1 SWAP2 SUB SWAP1 REVERT JUMPDEST DUP2 PUSH1 0x3 PUSH1 0xB SLOAD DUP3 GT ISZERO PUSH2 0xCDB JUMPI PUSH1 0x40 MLOAD PUSH4 0x8C2CB5FB PUSH1 0xE0 SHL DUP2 MSTORE PUSH1 0x4 ADD PUSH1 0x40 MLOAD DUP1 SWAP2 SUB SWAP1 REVERT JUMPDEST PUSH1 0x0 DUP3 DUP2 MSTORE PUSH1 0xD PUSH1 0x20 MSTORE PUSH1 0x40 SWAP1 KECCAK256 PUSH1 0x1 ADD SLOAD PUSH1 0x1 PUSH1 0x1 PUSH1 0xA0 SHL SUB AND CALLER EQ PUSH2 0xD15 JUMPI PUSH1 0x40 MLOAD PUSH4 0xC69E7279 PUSH1 0xE0 SHL DUP2 MSTORE PUSH1 0x4 ADD PUSH1 0x40 MLOAD DUP1 SWAP2 SUB SWAP1 REVERT JUMPDEST DUP1 PUSH1 0x4 DUP2 GT ISZERO PUSH2 0xD27 JUMPI PUSH2 0xD27 PUSH2 0x1EE1 JUMP JUMPDEST PUSH1 0x0 DUP4 DUP2 MSTORE PUSH1 0xD PUSH1 0x20 MSTORE PUSH1 0x40 SWAP1 KECCAK256 PUSH1 0x3 ADD SLOAD PUSH1 0x1 PUSH1 0x40 SHL SWAP1 DIV PUSH1 0xFF AND PUSH1 0x4 DUP2 GT ISZERO PUSH2 0xD54 JUMPI PUSH2 0xD54 PUSH2 0x1EE1 JUMP JUMPDEST EQ PUSH2 0xD72 JUMPI PUSH1 0x40 MLOAD PUSH4 0x4FCD7F0B PUSH1 0xE0 SHL DUP2 MSTORE PUSH1 0x4 ADD PUSH1 0x40 MLOAD DUP1 SWAP2 SUB SWAP1 REVERT JUMPDEST PUSH1 0x0 DUP5 DUP2 MSTORE PUSH1 0xD PUSH1 0x20 MSTORE PUSH1 0x40 SWAP1 KECCAK256 PUSH1 0x2 ADD SLOAD CALLVALUE LT ISZERO PUSH2 0xDA4 JUMPI PUSH1 0x40 MLOAD PUSH4 0x64954585 PUSH1 0xE0 SHL DUP2 MSTORE PUSH1 0x4 ADD PUSH1 0x40 MLOAD DUP1 SWAP2 SUB SWAP1 REVERT JUMPDEST PUSH2 0xC72 DUP6 DUP6 PUSH2 0x16A5 JUMP JUMPDEST PUSH1 0x0 DUP3 DUP2 MSTORE PUSH1 0xD PUSH1 0x20 MSTORE PUSH1 0x40 SWAP1 KECCAK256 PUSH1 0x1 ADD SLOAD DUP3 SWAP1 PUSH1 0x1 PUSH1 0x1 PUSH1 0xA0 SHL SUB AND CALLER EQ PUSH2 0xDEA JUMPI PUSH1 0x40 MLOAD PUSH4 0xC69E7279 PUSH1 0xE0 SHL DUP2 MSTORE PUSH1 0x4 ADD PUSH1 0x40 MLOAD DUP1 SWAP2 SUB SWAP1 REVERT JUMPDEST DUP3 PUSH1 0xB SLOAD DUP2 GT ISZERO PUSH2 0xE0E JUMPI PUSH1 0x40 MLOAD PUSH4 0x8C2CB5FB PUSH1 0xE0 SHL DUP2 MSTORE PUSH1 0x4 ADD PUSH1 0x40 MLOAD DUP1 SWAP2 SUB SWAP1 REVERT JUMPDEST POP POP PUSH1 0x0 SWAP2 DUP3 MSTORE PUSH1 0xD PUSH1 0x20 MSTORE PUSH1 0x40 SWAP1 SWAP2 KECCAK256 PUSH1 0x3 ADD DUP1 SLOAD SWAP2 ISZERO ISZERO PUSH1 0x1 PUSH1 0x48 SHL MUL PUSH10 0xFF000000000000000000 NOT SWAP1 SWAP3 AND SWAP2 SWAP1 SWAP2 OR SWAP1 SSTORE JUMP JUMPDEST PUSH1 0x0 DUP3 DUP2 MSTORE PUSH1 0xD PUSH1 0x20 MSTORE PUSH1 0x40 SWAP1 KECCAK256 PUSH1 0x1 ADD SLOAD DUP3 SWAP1 PUSH1 0x1 PUSH1 0x1 PUSH1 0xA0 SHL SUB AND CALLER EQ PUSH2 0xE80 JUMPI PUSH1 0x40 MLOAD PUSH4 0xC69E7279 PUSH1 0xE0 SHL DUP2 MSTORE PUSH1 0x4 ADD PUSH1 0x40 MLOAD DUP1 SWAP2 SUB SWAP1 REVERT JUMPDEST DUP3 PUSH1 0xB SLOAD DUP2 GT ISZERO PUSH2 0xEA4 JUMPI PUSH1 0x40 MLOAD PUSH4 0x8C2CB5FB PUSH1 0xE0 SHL DUP2 MSTORE PUSH1 0x4 ADD PUSH1 0x40 MLOAD DUP1 SWAP2 SUB SWAP1 REVERT JUMPDEST PUSH1 0x0 DUP5 DUP2 MSTORE PUSH1 0xD PUSH1 0x20 MSTORE PUSH1 0x40 SWAP1 KECCAK256 PUSH1 0x3 ADD DUP1 SLOAD DUP5 SWAP2 SWAP1 PUSH9 0xFF0000000000000000 NOT AND PUSH1 0x1 PUSH1 0x40 SHL DUP4 PUSH1 0x4 DUP2 GT ISZERO PUSH2 0xEDD JUMPI PUSH2 0xEDD PUSH2 0x1EE1 JUMP JUMPDEST MUL OR SWAP1 SSTORE POP POP POP POP POP JUMP JUMPDEST PUSH1 0x0 PUSH2 0xEF3 DUP3 PUSH2 0x180D JUMP JUMPDEST PUSH1 0x1 ADD SLOAD PUSH1 0x1 PUSH1 0x1 PUSH1 0xA0 SHL SUB AND SWAP3 SWAP2 POP POP JUMP JUMPDEST PUSH2 0xF0E PUSH2 0x1678 JUMP JUMPDEST PUSH2 0xF18 PUSH1 0x0 PUSH2 0x186C JUMP JUMPDEST JUMP JUMPDEST DUP1 PUSH1 0x0 PUSH1 0xB SLOAD DUP3 GT ISZERO PUSH2 0xF40 JUMPI PUSH1 0x40 MLOAD PUSH4 0x8C2CB5FB PUSH1 0xE0 SHL DUP2 MSTORE PUSH1 0x4 ADD PUSH1 0x40 MLOAD DUP1 SWAP2 SUB SWAP1 REVERT JUMPDEST PUSH1 0x0 DUP3 DUP2 MSTORE PUSH1 0xD PUSH1 0x20 MSTORE PUSH1 0x40 SWAP1 KECCAK256 PUSH1 0x1 ADD SLOAD PUSH1 0x1 PUSH1 0x1 PUSH1 0xA0 SHL SUB AND CALLER EQ PUSH2 0xF7A JUMPI PUSH1 0x40 MLOAD PUSH4 0xC69E7279 PUSH1 0xE0 SHL DUP2 MSTORE PUSH1 0x4 ADD PUSH1 0x40 MLOAD DUP1 SWAP2 SUB SWAP1 REVERT JUMPDEST DUP1 PUSH1 0x4 DUP2 GT ISZERO PUSH2 0xF8C JUMPI PUSH2 0xF8C PUSH2 0x1EE1 JUMP JUMPDEST PUSH1 0x0 DUP4 DUP2 MSTORE PUSH1 0xD PUSH1 0x20 MSTORE PUSH1 0x40 SWAP1 KECCAK256 PUSH1 0x3 ADD SLOAD PUSH1 0x1 PUSH1 0x40 SHL SWAP1 DIV PUSH1 0xFF AND PUSH1 0x4 DUP2 GT ISZERO PUSH2 0xFB9 JUMPI PUSH2 0xFB9 PUSH2 0x1EE1 JUMP JUMPDEST EQ PUSH2 0xFD7 JUMPI PUSH1 0x40 MLOAD PUSH4 0x4FCD7F0B PUSH1 0xE0 SHL DUP2 MSTORE PUSH1 0x4 ADD PUSH1 0x40 MLOAD DUP1 SWAP2 SUB SWAP1 REVERT JUMPDEST PUSH2 0xFE1 DUP5 DUP5 PUSH2 0x16A5 JUMP JUMPDEST POP POP POP POP JUMP JUMPDEST PUSH1 0x1 PUSH1 0x1 PUSH1 0xA0 SHL SUB DUP2 AND PUSH1 0x0 SWAP1 DUP2 MSTORE PUSH1 0x2 PUSH1 0x20 SWAP1 DUP2 MSTORE PUSH1 0x40 SWAP2 DUP3 SWAP1 KECCAK256 DUP1 SLOAD DUP4 MLOAD DUP2 DUP5 MUL DUP2 ADD DUP5 ADD SWAP1 SWAP5 MSTORE DUP1 DUP5 MSTORE PUSH1 0x60 SWAP4 SWAP3 DUP4 ADD DUP3 DUP3 DUP1 ISZERO PUSH2 0x1047 JUMPI PUSH1 0x20 MUL DUP3 ADD SWAP2 SWAP1 PUSH1 0x0 MSTORE PUSH1 0x20 PUSH1 0x0 KECCAK256 SWAP1 JUMPDEST DUP2 SLOAD DUP2 MSTORE PUSH1 0x20 ADD SWAP1 PUSH1 0x1 ADD SWAP1 DUP1 DUP4 GT PUSH2 0x1033 JUMPI JUMPDEST POP POP POP POP POP SWAP1 POP SWAP2 SWAP1 POP JUMP JUMPDEST PUSH1 0x60 PUSH1 0x6 DUP1 SLOAD PUSH2 0x770 SWAP1 PUSH2 0x2037 JUMP JUMPDEST PUSH2 0x106A PUSH2 0x1678 JUMP JUMPDEST DUP1 PUSH1 0xB SLOAD DUP2 GT ISZERO PUSH2 0x108E JUMPI PUSH1 0x40 MLOAD PUSH4 0x8C2CB5FB PUSH1 0xE0 SHL DUP2 MSTORE PUSH1 0x4 ADD PUSH1 0x40 MLOAD DUP1 SWAP2 SUB SWAP1 REVERT JUMPDEST POP PUSH1 0x0 SWAP1 DUP2 MSTORE PUSH1 0xD PUSH1 0x20 MSTORE PUSH1 0x40 SWAP1 KECCAK256 PUSH1 0x1 ADD DUP1 SLOAD PUSH1 0x1 PUSH1 0x1 PUSH1 0xA0 SHL SUB NOT AND PUSH1 0x1 PUSH1 0x1 PUSH1 0xA0 SHL SUB SWAP3 SWAP1 SWAP3 AND SWAP2 SWAP1 SWAP2 OR SWAP1 SSTORE JUMP JUMPDEST PUSH1 0x1 PUSH1 0x1 PUSH1 0xA0 SHL SUB DUP2 AND PUSH1 0x0 SWAP1 DUP2 MSTORE PUSH1 0xC PUSH1 0x20 SWAP1 DUP2 MSTORE PUSH1 0x40 SWAP2 DUP3 SWAP1 KECCAK256 DUP1 SLOAD DUP4 MLOAD DUP2 DUP5 MUL DUP2 ADD DUP5 ADD SWAP1 SWAP5 MSTORE DUP1 DUP5 MSTORE PUSH1 0x60 SWAP4 SWAP3 DUP4 ADD DUP3 DUP3 DUP1 ISZERO PUSH2 0x1047 JUMPI PUSH1 0x20 MUL DUP3 ADD SWAP2 SWAP1 PUSH1 0x0 MSTORE PUSH1 0x20 PUSH1 0x0 KECCAK256 SWAP1 DUP2 SLOAD DUP2 MSTORE PUSH1 0x20 ADD SWAP1 PUSH1 0x1 ADD SWAP1 DUP1 DUP4 GT PUSH2 0x1033 JUMPI POP POP POP POP POP SWAP1 POP SWAP2 SWAP1 POP JUMP JUMPDEST PUSH1 0x0 DUP3 DUP2 MSTORE PUSH1 0xD PUSH1 0x20 MSTORE PUSH1 0x40 SWAP1 KECCAK256 PUSH1 0x1 ADD SLOAD DUP3 SWAP1 PUSH1 0x1 PUSH1 0x1 PUSH1 0xA0 SHL SUB AND CALLER EQ PUSH2 0x1166 JUMPI PUSH1 0x40 MLOAD PUSH4 0xC69E7279 PUSH1 0xE0 SHL DUP2 MSTORE PUSH1 0x4 ADD PUSH1 0x40 MLOAD DUP1 SWAP2 SUB SWAP1 REVERT JUMPDEST DUP3 PUSH1 0xB SLOAD DUP2 GT ISZERO PUSH2 0x118A JUMPI PUSH1 0x40 MLOAD PUSH4 0x8C2CB5FB PUSH1 0xE0 SHL DUP2 MSTORE PUSH1 0x4 ADD PUSH1 0x40 MLOAD DUP1 SWAP2 SUB SWAP1 REVERT JUMPDEST POP POP PUSH1 0x0 SWAP2 DUP3 MSTORE PUSH1 0xD PUSH1 0x20 MSTORE PUSH1 0x40 SWAP1 SWAP2 KECCAK256 PUSH1 0x2 ADD SSTORE JUMP JUMPDEST DUP1 PUSH1 0x4 PUSH1 0xB SLOAD DUP3 GT ISZERO PUSH2 0x11C7 JUMPI PUSH1 0x40 MLOAD PUSH4 0x8C2CB5FB PUSH1 0xE0 SHL DUP2 MSTORE PUSH1 0x4 ADD PUSH1 0x40 MLOAD DUP1 SWAP2 SUB SWAP1 REVERT JUMPDEST PUSH1 0x0 DUP3 DUP2 MSTORE PUSH1 0xD PUSH1 0x20 MSTORE PUSH1 0x40 SWAP1 KECCAK256 PUSH1 0x1 ADD SLOAD PUSH1 0x1 PUSH1 0x1 PUSH1 0xA0 SHL SUB AND CALLER EQ PUSH2 0x1201 JUMPI PUSH1 0x40 MLOAD PUSH4 0xC69E7279 PUSH1 0xE0 SHL DUP2 MSTORE PUSH1 0x4 ADD PUSH1 0x40 MLOAD DUP1 SWAP2 SUB SWAP1 REVERT JUMPDEST DUP1 PUSH1 0x4 DUP2 GT ISZERO PUSH2 0x1213 JUMPI PUSH2 0x1213 PUSH2 0x1EE1 JUMP JUMPDEST PUSH1 0x0 DUP4 DUP2 MSTORE PUSH1 0xD PUSH1 0x20 MSTORE PUSH1 0x40 SWAP1 KECCAK256 PUSH1 0x3 ADD SLOAD PUSH1 0x1 PUSH1 0x40 SHL SWAP1 DIV PUSH1 0xFF AND PUSH1 0x4 DUP2 GT ISZERO PUSH2 0x1240 JUMPI PUSH2 0x1240 PUSH2 0x1EE1 JUMP JUMPDEST EQ PUSH2 0x125E JUMPI PUSH1 0x40 MLOAD PUSH4 0x4FCD7F0B PUSH1 0xE0 SHL DUP2 MSTORE PUSH1 0x4 ADD PUSH1 0x40 MLOAD DUP1 SWAP2 SUB SWAP1 REVERT JUMPDEST PUSH1 0x0 DUP4 DUP2 MSTORE PUSH1 0xE PUSH1 0x20 SWAP1 DUP2 MSTORE PUSH1 0x40 DUP1 DUP4 KECCAK256 PUSH1 0x1 PUSH1 0x1 PUSH1 0xA0 SHL SUB DUP9 AND DUP5 MSTORE SWAP1 SWAP2 MSTORE SWAP1 KECCAK256 SLOAD PUSH1 0xFF AND PUSH2 0xFD7 JUMPI PUSH1 0x40 MLOAD PUSH4 0xBD9044C3 PUSH1 0xE0 SHL DUP2 MSTORE PUSH1 0x4 ADD PUSH1 0x40 MLOAD DUP1 SWAP2 SUB SWAP1 REVERT JUMPDEST PUSH1 0xD PUSH1 0x20 MSTORE PUSH1 0x0 SWAP1 DUP2 MSTORE PUSH1 0x40 SWAP1 KECCAK256 DUP1 SLOAD DUP2 SWAP1 PUSH2 0x12BC SWAP1 PUSH2 0x2037 JUMP JUMPDEST DUP1 PUSH1 0x1F ADD PUSH1 0x20 DUP1 SWAP2 DIV MUL PUSH1 0x20 ADD PUSH1 0x40 MLOAD SWAP1 DUP2 ADD PUSH1 0x40 MSTORE DUP1 SWAP3 SWAP2 SWAP1 DUP2 DUP2 MSTORE PUSH1 0x20 ADD DUP3 DUP1 SLOAD PUSH2 0x12E8 SWAP1 PUSH2 0x2037 JUMP JUMPDEST DUP1 ISZERO PUSH2 0x1335 JUMPI DUP1 PUSH1 0x1F LT PUSH2 0x130A JUMPI PUSH2 0x100 DUP1 DUP4 SLOAD DIV MUL DUP4 MSTORE SWAP2 PUSH1 0x20 ADD SWAP2 PUSH2 0x1335 JUMP JUMPDEST DUP3 ADD SWAP2 SWAP1 PUSH1 0x0 MSTORE PUSH1 0x20 PUSH1 0x0 KECCAK256 SWAP1 JUMPDEST DUP2 SLOAD DUP2 MSTORE SWAP1 PUSH1 0x1 ADD SWAP1 PUSH1 0x20 ADD DUP1 DUP4 GT PUSH2 0x1318 JUMPI DUP3 SWAP1 SUB PUSH1 0x1F AND DUP3 ADD SWAP2 JUMPDEST POP POP POP PUSH1 0x1 DUP5 ADD SLOAD PUSH1 0x2 DUP6 ADD SLOAD PUSH1 0x3 SWAP1 SWAP6 ADD SLOAD SWAP4 SWAP5 PUSH1 0x1 PUSH1 0x1 PUSH1 0xA0 SHL SUB SWAP1 SWAP2 AND SWAP4 SWAP1 SWAP3 POP PUSH1 0x1 PUSH1 0x1 PUSH1 0x40 SHL SUB DUP2 AND SWAP2 POP PUSH1 0xFF PUSH1 0x1 PUSH1 0x40 SHL DUP3 DIV DUP2 AND SWAP2 PUSH1 0x1 PUSH1 0x48 SHL SWAP1 DIV AND DUP7 JUMP JUMPDEST PUSH1 0x60 PUSH2 0x1387 DUP3 PUSH2 0x180D JUMP JUMPDEST POP PUSH1 0x0 DUP3 DUP2 MSTORE PUSH1 0x1 PUSH1 0x20 MSTORE PUSH1 0x40 SWAP1 KECCAK256 DUP1 SLOAD PUSH2 0x13A1 SWAP1 PUSH2 0x2037 JUMP JUMPDEST DUP1 PUSH1 0x1F ADD PUSH1 0x20 DUP1 SWAP2 DIV MUL PUSH1 0x20 ADD PUSH1 0x40 MLOAD SWAP1 DUP2 ADD PUSH1 0x40 MSTORE DUP1 SWAP3 SWAP2 SWAP1 DUP2 DUP2 MSTORE PUSH1 0x20 ADD DUP3 DUP1 SLOAD PUSH2 0x13CD SWAP1 PUSH2 0x2037 JUMP JUMPDEST DUP1 ISZERO PUSH2 0x1047 JUMPI DUP1 PUSH1 0x1F LT PUSH2 0x13EF JUMPI PUSH2 0x100 DUP1 DUP4 SLOAD DIV MUL DUP4 MSTORE SWAP2 PUSH1 0x20 ADD SWAP2 PUSH2 0x1047 JUMP JUMPDEST DUP3 ADD SWAP2 SWAP1 PUSH1 0x0 MSTORE PUSH1 0x20 PUSH1 0x0 KECCAK256 SWAP1 JUMPDEST DUP2 SLOAD DUP2 MSTORE SWAP1 PUSH1 0x1 ADD SWAP1 PUSH1 0x20 ADD DUP1 DUP4 GT PUSH2 0x13FD JUMPI POP SWAP4 SWAP7 SWAP6 POP POP POP POP POP POP JUMP JUMPDEST PUSH2 0x1424 PUSH2 0x1678 JUMP JUMPDEST DUP1 PUSH1 0x1 PUSH1 0xB SLOAD DUP3 GT ISZERO PUSH2 0xF40 JUMPI PUSH1 0x40 MLOAD PUSH4 0x8C2CB5FB PUSH1 0xE0 SHL DUP2 MSTORE PUSH1 0x4 ADD PUSH1 0x40 MLOAD DUP1 SWAP2 SUB SWAP1 REVERT JUMPDEST PUSH1 0x0 DUP3 DUP2 MSTORE PUSH1 0xD PUSH1 0x20 MSTORE PUSH1 0x40 DUP2 KECCAK256 PUSH1 0x1 ADD SLOAD DUP4 SWAP1 PUSH1 0x1 PUSH1 0x1 PUSH1 0xA0 SHL SUB AND CALLER EQ PUSH2 0x1486 JUMPI PUSH1 0x40 MLOAD PUSH4 0xC69E7279 PUSH1 0xE0 SHL DUP2 MSTORE PUSH1 0x4 ADD PUSH1 0x40 MLOAD DUP1 SWAP2 SUB SWAP1 REVERT JUMPDEST DUP4 PUSH1 0xB SLOAD DUP2 GT ISZERO PUSH2 0x14AA JUMPI PUSH1 0x40 MLOAD PUSH4 0x8C2CB5FB PUSH1 0xE0 SHL DUP2 MSTORE PUSH1 0x4 ADD PUSH1 0x40 MLOAD DUP1 SWAP2 SUB SWAP1 REVERT JUMPDEST PUSH1 0x0 JUMPDEST DUP7 MLOAD DUP2 LT ISZERO PUSH2 0x1515 JUMPI PUSH1 0x0 DUP7 DUP2 MSTORE PUSH1 0xE PUSH1 0x20 MSTORE PUSH1 0x40 DUP2 KECCAK256 DUP9 MLOAD DUP8 SWAP3 SWAP1 DUP11 SWAP1 DUP6 SWAP1 DUP2 LT PUSH2 0x14DB JUMPI PUSH2 0x14DB PUSH2 0x21E2 JUMP JUMPDEST PUSH1 0x20 SWAP1 DUP2 MUL SWAP2 SWAP1 SWAP2 ADD DUP2 ADD MLOAD PUSH1 0x1 PUSH1 0x1 PUSH1 0xA0 SHL SUB AND DUP3 MSTORE DUP2 ADD SWAP2 SWAP1 SWAP2 MSTORE PUSH1 0x40 ADD PUSH1 0x0 KECCAK256 DUP1 SLOAD PUSH1 0xFF NOT AND SWAP2 ISZERO ISZERO SWAP2 SWAP1 SWAP2 OR SWAP1 SSTORE PUSH1 0x1 ADD PUSH2 0x14AD JUMP JUMPDEST POP PUSH1 0x1 SWAP7 SWAP6 POP POP POP POP POP POP JUMP JUMPDEST PUSH1 0x0 DUP2 DUP2 MSTORE PUSH1 0xD PUSH1 0x20 MSTORE PUSH1 0x40 SWAP1 KECCAK256 PUSH1 0x1 ADD SLOAD DUP2 SWAP1 PUSH1 0x1 PUSH1 0x1 PUSH1 0xA0 SHL SUB AND CALLER EQ PUSH2 0x155E JUMPI PUSH1 0x40 MLOAD PUSH4 0xC69E7279 PUSH1 0xE0 SHL DUP2 MSTORE PUSH1 0x4 ADD PUSH1 0x40 MLOAD DUP1 SWAP2 SUB SWAP1 REVERT JUMPDEST DUP2 PUSH1 0x2 PUSH1 0xB SLOAD DUP3 GT ISZERO PUSH2 0x1584 JUMPI PUSH1 0x40 MLOAD PUSH4 0x8C2CB5FB PUSH1 0xE0 SHL DUP2 MSTORE PUSH1 0x4 ADD PUSH1 0x40 MLOAD DUP1 SWAP2 SUB SWAP1 REVERT JUMPDEST PUSH1 0x0 DUP3 DUP2 MSTORE PUSH1 0xD PUSH1 0x20 MSTORE PUSH1 0x40 SWAP1 KECCAK256 PUSH1 0x1 ADD SLOAD PUSH1 0x1 PUSH1 0x1 PUSH1 0xA0 SHL SUB AND CALLER EQ PUSH2 0x15BE JUMPI PUSH1 0x40 MLOAD PUSH4 0xC69E7279 PUSH1 0xE0 SHL DUP2 MSTORE PUSH1 0x4 ADD PUSH1 0x40 MLOAD DUP1 SWAP2 SUB SWAP1 REVERT JUMPDEST DUP1 PUSH1 0x4 DUP2 GT ISZERO PUSH2 0x15D0 JUMPI PUSH2 0x15D0 PUSH2 0x1EE1 JUMP JUMPDEST PUSH1 0x0 DUP4 DUP2 MSTORE PUSH1 0xD PUSH1 0x20 MSTORE PUSH1 0x40 SWAP1 KECCAK256 PUSH1 0x3 ADD SLOAD PUSH1 0x1 PUSH1 0x40 SHL SWAP1 DIV PUSH1 0xFF AND PUSH1 0x4 DUP2 GT ISZERO PUSH2 0x15FD JUMPI PUSH2 0x15FD PUSH2 0x1EE1 JUMP JUMPDEST EQ PUSH2 0xDA4 JUMPI PUSH1 0x40 MLOAD PUSH4 0x4FCD7F0B PUSH1 0xE0 SHL DUP2 MSTORE PUSH1 0x4 ADD PUSH1 0x40 MLOAD DUP1 SWAP2 SUB SWAP1 REVERT JUMPDEST PUSH2 0x1623 PUSH2 0x1678 JUMP JUMPDEST PUSH1 0x1 PUSH1 0x1 PUSH1 0xA0 SHL SUB DUP2 AND PUSH2 0x164D JUMPI PUSH1 0x40 MLOAD PUSH4 0x1E4FBDF7 PUSH1 0xE0 SHL DUP2 MSTORE PUSH1 0x0 PUSH1 0x4 DUP3 ADD MSTORE PUSH1 0x24 ADD PUSH2 0x988 JUMP JUMPDEST PUSH2 0x1656 DUP2 PUSH2 0x186C JUMP JUMPDEST POP JUMP JUMPDEST PUSH1 0x0 PUSH2 0x1664 DUP3 PUSH2 0x180D JUMP JUMPDEST PUSH1 0x1 ADD SLOAD PUSH1 0x1 PUSH1 0xA0 SHL SWAP1 DIV PUSH1 0xFF AND SWAP3 SWAP2 POP POP JUMP JUMPDEST PUSH1 0xA SLOAD PUSH1 0x1 PUSH1 0x1 PUSH1 0xA0 SHL SUB AND CALLER EQ PUSH2 0xF18 JUMPI PUSH1 0x40 MLOAD PUSH4 0x118CDAA7 PUSH1 0xE0 SHL DUP2 MSTORE CALLER PUSH1 0x4 DUP3 ADD MSTORE PUSH1 0x24 ADD PUSH2 0x988 JUMP JUMPDEST PUSH1 0x0 DUP2 DUP2 MSTORE PUSH1 0xD PUSH1 0x20 SWAP1 DUP2 MSTORE PUSH1 0x40 DUP1 DUP4 KECCAK256 PUSH1 0x3 ADD SLOAD PUSH1 0x1 PUSH1 0x1 PUSH1 0xA0 SHL SUB DUP7 AND DUP5 MSTORE PUSH1 0xC SWAP1 SWAP3 MSTORE SWAP1 SWAP2 KECCAK256 SLOAD PUSH1 0x1 PUSH1 0x1 PUSH1 0x40 SHL SUB SWAP1 SWAP2 AND GT PUSH2 0x16F8 JUMPI PUSH1 0x40 MLOAD PUSH4 0x5D0EFCB1 PUSH1 0xE0 SHL DUP2 MSTORE PUSH1 0x4 ADD PUSH1 0x40 MLOAD DUP1 SWAP2 SUB SWAP1 REVERT JUMPDEST PUSH1 0x0 PUSH2 0x1703 DUP4 PUSH2 0x18BE JUMP JUMPDEST PUSH1 0x1 PUSH1 0x1 PUSH1 0xA0 SHL SUB DUP5 AND PUSH1 0x0 SWAP1 DUP2 MSTORE PUSH1 0xC PUSH1 0x20 SWAP1 DUP2 MSTORE PUSH1 0x40 DUP1 DUP4 KECCAK256 DUP1 SLOAD PUSH1 0x1 DUP2 ADD DUP3 SSTORE SWAP1 DUP5 MSTORE DUP3 DUP5 KECCAK256 ADD DUP5 SWAP1 SSTORE DUP6 DUP4 MSTORE PUSH1 0xD SWAP1 SWAP2 MSTORE SWAP1 KECCAK256 DUP1 SLOAD SWAP2 SWAP3 POP PUSH2 0x17D2 SWAP2 DUP4 SWAP2 SWAP1 PUSH2 0x174F SWAP1 PUSH2 0x2037 JUMP JUMPDEST DUP1 PUSH1 0x1F ADD PUSH1 0x20 DUP1 SWAP2 DIV MUL PUSH1 0x20 ADD PUSH1 0x40 MLOAD SWAP1 DUP2 ADD PUSH1 0x40 MSTORE DUP1 SWAP3 SWAP2 SWAP1 DUP2 DUP2 MSTORE PUSH1 0x20 ADD DUP3 DUP1 SLOAD PUSH2 0x177B SWAP1 PUSH2 0x2037 JUMP JUMPDEST DUP1 ISZERO PUSH2 0x17C8 JUMPI DUP1 PUSH1 0x1F LT PUSH2 0x179D JUMPI PUSH2 0x100 DUP1 DUP4 SLOAD DIV MUL DUP4 MSTORE SWAP2 PUSH1 0x20 ADD SWAP2 PUSH2 0x17C8 JUMP JUMPDEST DUP3 ADD SWAP2 SWAP1 PUSH1 0x0 MSTORE PUSH1 0x20 PUSH1 0x0 KECCAK256 SWAP1 JUMPDEST DUP2 SLOAD DUP2 MSTORE SWAP1 PUSH1 0x1 ADD SWAP1 PUSH1 0x20 ADD DUP1 DUP4 GT PUSH2 0x17AB JUMPI DUP3 SWAP1 SUB PUSH1 0x1F AND DUP3 ADD SWAP2 JUMPDEST POP POP POP POP POP PUSH2 0x923 JUMP JUMPDEST PUSH1 0x40 MLOAD DUP2 SWAP1 PUSH1 0x1 PUSH1 0x1 PUSH1 0xA0 SHL SUB DUP6 AND SWAP1 PUSH32 0xB9144C96C86541F6FA89C9F2F02495CCCF4B08CD6643E26D34EE00AA586558A8 SWAP1 PUSH1 0x0 SWAP1 LOG3 POP POP POP JUMP JUMPDEST PUSH1 0x0 DUP2 DUP2 MSTORE PUSH1 0x20 DUP2 SWAP1 MSTORE PUSH1 0x40 DUP2 KECCAK256 PUSH1 0x1 DUP2 ADD SLOAD PUSH1 0x1 PUSH1 0x1 PUSH1 0xA0 SHL SUB AND PUSH2 0x75B JUMPI PUSH1 0x40 MLOAD PUSH3 0x461BCD PUSH1 0xE5 SHL DUP2 MSTORE PUSH1 0x20 PUSH1 0x4 DUP3 ADD MSTORE PUSH1 0x14 PUSH1 0x24 DUP3 ADD MSTORE PUSH20 0x151BDAD95B88191BD95CC81B9BDD08195E1A5CDD PUSH1 0x62 SHL PUSH1 0x44 DUP3 ADD MSTORE PUSH1 0x64 ADD PUSH2 0x988 JUMP JUMPDEST PUSH1 0xA DUP1 SLOAD PUSH1 0x1 PUSH1 0x1 PUSH1 0xA0 SHL SUB DUP4 DUP2 AND PUSH1 0x1 PUSH1 0x1 PUSH1 0xA0 SHL SUB NOT DUP4 AND DUP2 OR SWAP1 SWAP4 SSTORE PUSH1 0x40 MLOAD SWAP2 AND SWAP2 SWAP1 DUP3 SWAP1 PUSH32 0x8BE0079C531659141344CD1FD0A4F28419497F9722A3DAAFE3B4186F6B6457E0 SWAP1 PUSH1 0x0 SWAP1 LOG3 POP POP JUMP JUMPDEST PUSH1 0x7 SLOAD PUSH2 0x18CD DUP3 DUP3 PUSH1 0x1 PUSH2 0x192D JUMP JUMPDEST PUSH1 0x40 DUP1 MLOAD PUSH1 0x1 PUSH1 0x1 PUSH1 0xA0 SHL SUB DUP5 AND DUP2 MSTORE PUSH1 0x20 DUP2 ADD DUP4 SWAP1 MSTORE PUSH32 0x30385C845B448A36257A6A1716E6AD2E1BC2CBE333CDE1E69FE849AD6511ADFE SWAP2 ADD PUSH1 0x40 MLOAD DUP1 SWAP2 SUB SWAP1 LOG1 PUSH1 0x1 PUSH1 0x7 PUSH1 0x0 DUP3 DUP3 SLOAD PUSH2 0x1922 SWAP2 SWAP1 PUSH2 0x21F8 JUMP JUMPDEST SWAP1 SWAP2 SSTORE POP SWAP1 SWAP3 SWAP2 POP POP JUMP JUMPDEST PUSH1 0x0 DUP3 DUP2 MSTORE PUSH1 0x20 DUP2 SWAP1 MSTORE PUSH1 0x40 SWAP1 KECCAK256 PUSH1 0x1 ADD SLOAD PUSH1 0x1 PUSH1 0x1 PUSH1 0xA0 SHL SUB AND ISZERO PUSH2 0x1995 JUMPI PUSH1 0x40 MLOAD PUSH3 0x461BCD PUSH1 0xE5 SHL DUP2 MSTORE PUSH1 0x20 PUSH1 0x4 DUP3 ADD MSTORE PUSH1 0x1D PUSH1 0x24 DUP3 ADD MSTORE PUSH32 0x43616E6E6F74206D696E7420616E2061737369676E656420746F6B656E000000 PUSH1 0x44 DUP3 ADD MSTORE PUSH1 0x64 ADD PUSH2 0x988 JUMP JUMPDEST PUSH1 0x1 PUSH1 0x1 PUSH1 0xA0 SHL SUB DUP4 AND PUSH1 0x0 SWAP1 DUP2 MSTORE PUSH1 0x2 PUSH1 0x20 MSTORE PUSH1 0x40 DUP2 KECCAK256 SLOAD SWAP1 SUB PUSH2 0x19CD JUMPI PUSH1 0x1 PUSH1 0x8 PUSH1 0x0 DUP3 DUP3 SLOAD PUSH2 0x19C7 SWAP2 SWAP1 PUSH2 0x21F8 JUMP JUMPDEST SWAP1 SWAP2 SSTORE POP POP JUMPDEST PUSH1 0x40 DUP1 MLOAD PUSH1 0x60 DUP2 ADD DUP3 MSTORE CALLER DUP2 MSTORE PUSH1 0x1 PUSH1 0x1 PUSH1 0xA0 SHL SUB DUP6 DUP2 AND PUSH1 0x20 DUP1 DUP5 ADD DUP3 DUP2 MSTORE DUP7 ISZERO DUP1 ISZERO DUP7 DUP9 ADD SWAP1 DUP2 MSTORE PUSH1 0x0 DUP11 DUP2 MSTORE DUP1 DUP6 MSTORE DUP9 DUP2 KECCAK256 SWAP8 MLOAD DUP9 SLOAD SWAP1 DUP9 AND PUSH1 0x1 PUSH1 0x1 PUSH1 0xA0 SHL SUB NOT SWAP1 SWAP2 AND OR DUP9 SSTORE SWAP3 MLOAD PUSH1 0x1 SWAP8 DUP9 ADD DUP1 SLOAD SWAP3 MLOAD ISZERO ISZERO PUSH1 0x1 PUSH1 0xA0 SHL MUL PUSH1 0x1 PUSH1 0x1 PUSH1 0xA8 SHL SUB NOT SWAP1 SWAP4 AND SWAP2 SWAP1 SWAP8 AND OR OR SWAP1 SWAP5 SSTORE SWAP2 DUP3 MSTORE PUSH1 0x2 DUP1 DUP3 MSTORE DUP6 DUP4 KECCAK256 DUP1 SLOAD PUSH1 0x3 DUP5 MSTORE DUP8 DUP6 KECCAK256 DUP11 DUP7 MSTORE DUP5 MSTORE SWAP7 DUP5 KECCAK256 DUP8 SWAP1 SSTORE SWAP1 DUP3 MSTORE SWAP4 DUP6 ADD DUP5 SSTORE SWAP3 DUP2 MSTORE SWAP2 SWAP1 SWAP2 KECCAK256 SWAP1 SWAP2 ADD DUP4 SWAP1 SSTORE PUSH2 0x9A9 JUMPI PUSH1 0x1 PUSH1 0x1 PUSH1 0xA0 SHL SUB DUP4 AND PUSH1 0x0 SWAP1 DUP2 MSTORE PUSH1 0x4 PUSH1 0x20 MSTORE PUSH1 0x40 DUP2 KECCAK256 DUP1 SLOAD PUSH1 0x1 SWAP3 SWAP1 PUSH2 0x1AA1 SWAP1 DUP5 SWAP1 PUSH2 0x21F8 JUMP JUMPDEST SWAP1 SWAP2 SSTORE POP POP POP POP POP JUMP JUMPDEST PUSH1 0x0 PUSH1 0x20 DUP3 DUP5 SUB SLT ISZERO PUSH2 0x1ABD JUMPI PUSH1 0x0 DUP1 REVERT JUMPDEST DUP2 CALLDATALOAD PUSH1 0x1 PUSH1 0x1 PUSH1 0xE0 SHL SUB NOT DUP2 AND DUP2 EQ PUSH2 0x1AD5 JUMPI PUSH1 0x0 DUP1 REVERT JUMPDEST SWAP4 SWAP3 POP POP POP JUMP JUMPDEST PUSH1 0x0 DUP2 MLOAD DUP1 DUP5 MSTORE PUSH1 0x0 JUMPDEST DUP2 DUP2 LT ISZERO PUSH2 0x1B02 JUMPI PUSH1 0x20 DUP2 DUP6 ADD DUP2 ADD MLOAD DUP7 DUP4 ADD DUP3 ADD MSTORE ADD PUSH2 0x1AE6 JUMP JUMPDEST POP PUSH1 0x0 PUSH1 0x20 DUP3 DUP7 ADD ADD MSTORE PUSH1 0x20 PUSH1 0x1F NOT PUSH1 0x1F DUP4 ADD AND DUP6 ADD ADD SWAP2 POP POP SWAP3 SWAP2 POP POP JUMP JUMPDEST PUSH1 0x20 DUP2 MSTORE PUSH1 0x0 PUSH2 0x1AD5 PUSH1 0x20 DUP4 ADD DUP5 PUSH2 0x1ADC JUMP JUMPDEST DUP1 CALLDATALOAD PUSH1 0x1 PUSH1 0x1 PUSH1 0x40 SHL SUB DUP2 AND DUP2 EQ PUSH2 0x1B4C JUMPI PUSH1 0x0 DUP1 REVERT JUMPDEST SWAP2 SWAP1 POP JUMP JUMPDEST PUSH1 0x0 DUP1 PUSH1 0x40 DUP4 DUP6 SUB SLT ISZERO PUSH2 0x1B64 JUMPI PUSH1 0x0 DUP1 REVERT JUMPDEST DUP3 CALLDATALOAD SWAP2 POP PUSH2 0x1B74 PUSH1 0x20 DUP5 ADD PUSH2 0x1B35 JUMP JUMPDEST SWAP1 POP SWAP3 POP SWAP3 SWAP1 POP JUMP JUMPDEST DUP1 CALLDATALOAD PUSH1 0x1 PUSH1 0x1 PUSH1 0xA0 SHL SUB DUP2 AND DUP2 EQ PUSH2 0x1B4C JUMPI PUSH1 0x0 DUP1 REVERT JUMPDEST DUP1 CALLDATALOAD DUP1 ISZERO ISZERO DUP2 EQ PUSH2 0x1B4C JUMPI PUSH1 0x0 DUP1 REVERT JUMPDEST PUSH1 0x0 DUP1 PUSH1 0x0 PUSH1 0x60 DUP5 DUP7 SUB SLT ISZERO PUSH2 0x1BB9 JUMPI PUSH1 0x0 DUP1 REVERT JUMPDEST PUSH2 0x1BC2 DUP5 PUSH2 0x1B7D JUMP JUMPDEST SWAP3 POP PUSH1 0x20 DUP5 ADD CALLDATALOAD SWAP2 POP PUSH2 0x1BD7 PUSH1 0x40 DUP6 ADD PUSH2 0x1B94 JUMP JUMPDEST SWAP1 POP SWAP3 POP SWAP3 POP SWAP3 JUMP JUMPDEST PUSH4 0x4E487B71 PUSH1 0xE0 SHL PUSH1 0x0 MSTORE PUSH1 0x41 PUSH1 0x4 MSTORE PUSH1 0x24 PUSH1 0x0 REVERT JUMPDEST PUSH1 0x40 MLOAD PUSH1 0x1F DUP3 ADD PUSH1 0x1F NOT AND DUP2 ADD PUSH1 0x1 PUSH1 0x1 PUSH1 0x40 SHL SUB DUP2 GT DUP3 DUP3 LT OR ISZERO PUSH2 0x1C1E JUMPI PUSH2 0x1C1E PUSH2 0x1BE0 JUMP JUMPDEST PUSH1 0x40 MSTORE SWAP2 SWAP1 POP JUMP JUMPDEST PUSH1 0x0 DUP3 PUSH1 0x1F DUP4 ADD SLT PUSH2 0x1C37 JUMPI PUSH1 0x0 DUP1 REVERT JUMPDEST DUP2 CALLDATALOAD PUSH1 0x1 PUSH1 0x1 PUSH1 0x40 SHL SUB DUP2 GT ISZERO PUSH2 0x1C50 JUMPI PUSH2 0x1C50 PUSH2 0x1BE0 JUMP JUMPDEST PUSH2 0x1C63 PUSH1 0x1F DUP3 ADD PUSH1 0x1F NOT AND PUSH1 0x20 ADD PUSH2 0x1BF6 JUMP JUMPDEST DUP2 DUP2 MSTORE DUP5 PUSH1 0x20 DUP4 DUP7 ADD ADD GT ISZERO PUSH2 0x1C78 JUMPI PUSH1 0x0 DUP1 REVERT JUMPDEST DUP2 PUSH1 0x20 DUP6 ADD PUSH1 0x20 DUP4 ADD CALLDATACOPY PUSH1 0x0 SWAP2 DUP2 ADD PUSH1 0x20 ADD SWAP2 SWAP1 SWAP2 MSTORE SWAP4 SWAP3 POP POP POP JUMP JUMPDEST PUSH1 0x0 DUP1 PUSH1 0x40 DUP4 DUP6 SUB SLT ISZERO PUSH2 0x1CA8 JUMPI PUSH1 0x0 DUP1 REVERT JUMPDEST DUP3 CALLDATALOAD SWAP2 POP PUSH1 0x20 DUP4 ADD CALLDATALOAD PUSH1 0x1 PUSH1 0x1 PUSH1 0x40 SHL SUB DUP2 GT ISZERO PUSH2 0x1CC5 JUMPI PUSH1 0x0 DUP1 REVERT JUMPDEST PUSH2 0x1CD1 DUP6 DUP3 DUP7 ADD PUSH2 0x1C26 JUMP JUMPDEST SWAP2 POP POP SWAP3 POP SWAP3 SWAP1 POP JUMP JUMPDEST DUP1 CALLDATALOAD PUSH1 0x5 DUP2 LT PUSH2 0x1B4C JUMPI PUSH1 0x0 DUP1 REVERT JUMPDEST PUSH1 0x0 DUP1 PUSH1 0x0 DUP1 PUSH1 0x0 DUP1 PUSH1 0xC0 DUP8 DUP10 SUB SLT ISZERO PUSH2 0x1D03 JUMPI PUSH1 0x0 DUP1 REVERT JUMPDEST DUP7 CALLDATALOAD PUSH1 0x1 PUSH1 0x1 PUSH1 0x40 SHL SUB DUP2 GT ISZERO PUSH2 0x1D19 JUMPI PUSH1 0x0 DUP1 REVERT JUMPDEST PUSH2 0x1D25 DUP10 DUP3 DUP11 ADD PUSH2 0x1C26 JUMP JUMPDEST SWAP7 POP POP PUSH2 0x1D34 PUSH1 0x20 DUP9 ADD PUSH2 0x1B7D JUMP JUMPDEST SWAP5 POP PUSH1 0x40 DUP8 ADD CALLDATALOAD SWAP4 POP PUSH2 0x1D49 PUSH1 0x60 DUP9 ADD PUSH2 0x1B35 JUMP JUMPDEST SWAP3 POP PUSH2 0x1D57 PUSH1 0x80 DUP9 ADD PUSH2 0x1CDB JUMP JUMPDEST SWAP2 POP PUSH2 0x1D65 PUSH1 0xA0 DUP9 ADD PUSH2 0x1B94 JUMP JUMPDEST SWAP1 POP SWAP3 SWAP6 POP SWAP3 SWAP6 POP SWAP3 SWAP6 JUMP JUMPDEST PUSH1 0x0 DUP1 PUSH1 0x40 DUP4 DUP6 SUB SLT ISZERO PUSH2 0x1D84 JUMPI PUSH1 0x0 DUP1 REVERT JUMPDEST PUSH2 0x1D8D DUP4 PUSH2 0x1B7D JUMP JUMPDEST SWAP5 PUSH1 0x20 SWAP4 SWAP1 SWAP4 ADD CALLDATALOAD SWAP4 POP POP POP JUMP JUMPDEST PUSH1 0x0 PUSH1 0x20 DUP3 DUP5 SUB SLT ISZERO PUSH2 0x1DAD JUMPI PUSH1 0x0 DUP1 REVERT JUMPDEST PUSH2 0x1AD5 DUP3 PUSH2 0x1B7D JUMP JUMPDEST PUSH1 0x0 DUP1 PUSH1 0x40 DUP4 DUP6 SUB SLT ISZERO PUSH2 0x1DC9 JUMPI PUSH1 0x0 DUP1 REVERT JUMPDEST DUP3 CALLDATALOAD PUSH1 0x1 PUSH1 0x1 PUSH1 0x40 SHL SUB DUP2 GT ISZERO PUSH2 0x1DDF JUMPI PUSH1 0x0 DUP1 REVERT JUMPDEST PUSH2 0x1DEB DUP6 DUP3 DUP7 ADD PUSH2 0x1C26 JUMP JUMPDEST SWAP6 PUSH1 0x20 SWAP5 SWAP1 SWAP5 ADD CALLDATALOAD SWAP5 POP POP POP POP JUMP JUMPDEST PUSH1 0x0 PUSH1 0x20 DUP3 DUP5 SUB SLT ISZERO PUSH2 0x1E0C JUMPI PUSH1 0x0 DUP1 REVERT JUMPDEST POP CALLDATALOAD SWAP2 SWAP1 POP JUMP JUMPDEST PUSH1 0x0 DUP1 PUSH1 0x40 DUP4 DUP6 SUB SLT ISZERO PUSH2 0x1E26 JUMPI PUSH1 0x0 DUP1 REVERT JUMPDEST DUP3 CALLDATALOAD SWAP2 POP PUSH2 0x1B74 PUSH1 0x20 DUP5 ADD PUSH2 0x1B94 JUMP JUMPDEST PUSH1 0x0 DUP1 PUSH1 0x40 DUP4 DUP6 SUB SLT ISZERO PUSH2 0x1E49 JUMPI PUSH1 0x0 DUP1 REVERT JUMPDEST DUP3 CALLDATALOAD SWAP2 POP PUSH2 0x1B74 PUSH1 0x20 DUP5 ADD PUSH2 0x1CDB JUMP JUMPDEST PUSH1 0x0 DUP1 PUSH1 0x40 DUP4 DUP6 SUB SLT ISZERO PUSH2 0x1E6C JUMPI PUSH1 0x0 DUP1 REVERT JUMPDEST DUP3 CALLDATALOAD SWAP2 POP PUSH2 0x1B74 PUSH1 0x20 DUP5 ADD PUSH2 0x1B7D JUMP JUMPDEST PUSH1 0x20 DUP1 DUP3 MSTORE DUP3 MLOAD DUP3 DUP3 ADD DUP2 SWAP1 MSTORE PUSH1 0x0 SWAP2 DUP5 ADD SWAP1 PUSH1 0x40 DUP5 ADD SWAP1 DUP4 JUMPDEST DUP2 DUP2 LT ISZERO PUSH2 0x1EB4 JUMPI DUP4 MLOAD DUP4 MSTORE PUSH1 0x20 SWAP4 DUP5 ADD SWAP4 SWAP1 SWAP3 ADD SWAP2 PUSH1 0x1 ADD PUSH2 0x1E96 JUMP JUMPDEST POP SWAP1 SWAP6 SWAP5 POP POP POP POP POP JUMP JUMPDEST PUSH1 0x0 DUP1 PUSH1 0x40 DUP4 DUP6 SUB SLT ISZERO PUSH2 0x1ED2 JUMPI PUSH1 0x0 DUP1 REVERT JUMPDEST POP POP DUP1 CALLDATALOAD SWAP3 PUSH1 0x20 SWAP1 SWAP2 ADD CALLDATALOAD SWAP2 POP JUMP JUMPDEST PUSH4 0x4E487B71 PUSH1 0xE0 SHL PUSH1 0x0 MSTORE PUSH1 0x21 PUSH1 0x4 MSTORE PUSH1 0x24 PUSH1 0x0 REVERT JUMPDEST PUSH1 0x5 DUP2 LT PUSH2 0x1F15 JUMPI PUSH4 0x4E487B71 PUSH1 0xE0 SHL PUSH1 0x0 MSTORE PUSH1 0x21 PUSH1 0x4 MSTORE PUSH1 0x24 PUSH1 0x0 REVERT JUMPDEST SWAP1 MSTORE JUMP JUMPDEST PUSH1 0xC0 DUP2 MSTORE PUSH1 0x0 PUSH2 0x1F2C PUSH1 0xC0 DUP4 ADD DUP10 PUSH2 0x1ADC JUMP JUMPDEST PUSH1 0x1 PUSH1 0x1 PUSH1 0xA0 SHL SUB DUP9 AND PUSH1 0x20 DUP5 ADD MSTORE PUSH1 0x40 DUP4 ADD DUP8 SWAP1 MSTORE PUSH1 0x1 PUSH1 0x1 PUSH1 0x40 SHL SUB DUP7 AND PUSH1 0x60 DUP5 ADD MSTORE SWAP1 POP PUSH2 0x1F60 PUSH1 0x80 DUP4 ADD DUP6 PUSH2 0x1EF7 JUMP JUMPDEST DUP3 ISZERO ISZERO PUSH1 0xA0 DUP4 ADD MSTORE SWAP8 SWAP7 POP POP POP POP POP POP POP JUMP JUMPDEST PUSH1 0x0 DUP1 PUSH1 0x0 PUSH1 0x60 DUP5 DUP7 SUB SLT ISZERO PUSH2 0x1F88 JUMPI PUSH1 0x0 DUP1 REVERT JUMPDEST DUP4 CALLDATALOAD PUSH1 0x1 PUSH1 0x1 PUSH1 0x40 SHL SUB DUP2 GT ISZERO PUSH2 0x1F9E JUMPI PUSH1 0x0 DUP1 REVERT JUMPDEST DUP5 ADD PUSH1 0x1F DUP2 ADD DUP7 SGT PUSH2 0x1FAF JUMPI PUSH1 0x0 DUP1 REVERT JUMPDEST DUP1 CALLDATALOAD PUSH1 0x1 PUSH1 0x1 PUSH1 0x40 SHL SUB DUP2 GT ISZERO PUSH2 0x1FC8 JUMPI PUSH2 0x1FC8 PUSH2 0x1BE0 JUMP JUMPDEST DUP1 PUSH1 0x5 SHL PUSH2 0x1FD8 PUSH1 0x20 DUP3 ADD PUSH2 0x1BF6 JUMP JUMPDEST SWAP2 DUP3 MSTORE PUSH1 0x20 DUP2 DUP5 ADD DUP2 ADD SWAP3 SWAP1 DUP2 ADD SWAP1 DUP10 DUP5 GT ISZERO PUSH2 0x1FF4 JUMPI PUSH1 0x0 DUP1 REVERT JUMPDEST PUSH1 0x20 DUP6 ADD SWAP5 POP JUMPDEST DUP4 DUP6 LT ISZERO PUSH2 0x201D JUMPI PUSH2 0x200C DUP6 PUSH2 0x1B7D JUMP JUMPDEST DUP3 MSTORE PUSH1 0x20 SWAP5 DUP6 ADD SWAP5 SWAP1 SWAP2 ADD SWAP1 PUSH2 0x1FFB JUMP JUMPDEST SWAP7 POP POP POP POP PUSH1 0x20 DUP6 ADD CALLDATALOAD SWAP3 POP PUSH2 0x1BD7 SWAP1 POP PUSH1 0x40 DUP6 ADD PUSH2 0x1B94 JUMP JUMPDEST PUSH1 0x1 DUP2 DUP2 SHR SWAP1 DUP3 AND DUP1 PUSH2 0x204B JUMPI PUSH1 0x7F DUP3 AND SWAP2 POP JUMPDEST PUSH1 0x20 DUP3 LT DUP2 SUB PUSH2 0x206B JUMPI PUSH4 0x4E487B71 PUSH1 0xE0 SHL PUSH1 0x0 MSTORE PUSH1 0x22 PUSH1 0x4 MSTORE PUSH1 0x24 PUSH1 0x0 REVERT JUMPDEST POP SWAP2 SWAP1 POP JUMP JUMPDEST PUSH1 0x1F DUP3 GT ISZERO PUSH2 0x9A9 JUMPI DUP1 PUSH1 0x0 MSTORE PUSH1 0x20 PUSH1 0x0 KECCAK256 PUSH1 0x1F DUP5 ADD PUSH1 0x5 SHR DUP2 ADD PUSH1 0x20 DUP6 LT ISZERO PUSH2 0x2098 JUMPI POP DUP1 JUMPDEST PUSH1 0x1F DUP5 ADD PUSH1 0x5 SHR DUP3 ADD SWAP2 POP JUMPDEST DUP2 DUP2 LT ISZERO PUSH2 0xC72 JUMPI PUSH1 0x0 DUP2 SSTORE PUSH1 0x1 ADD PUSH2 0x20A4 JUMP JUMPDEST DUP2 MLOAD PUSH1 0x1 PUSH1 0x1 PUSH1 0x40 SHL SUB DUP2 GT ISZERO PUSH2 0x20D1 JUMPI PUSH2 0x20D1 PUSH2 0x1BE0 JUMP JUMPDEST PUSH2 0x20E5 DUP2 PUSH2 0x20DF DUP5 SLOAD PUSH2 0x2037 JUMP JUMPDEST DUP5 PUSH2 0x2071 JUMP JUMPDEST PUSH1 0x20 PUSH1 0x1F DUP3 GT PUSH1 0x1 DUP2 EQ PUSH2 0x2119 JUMPI PUSH1 0x0 DUP4 ISZERO PUSH2 0x2101 JUMPI POP DUP5 DUP3 ADD MLOAD JUMPDEST PUSH1 0x0 NOT PUSH1 0x3 DUP6 SWAP1 SHL SHR NOT AND PUSH1 0x1 DUP5 SWAP1 SHL OR DUP5 SSTORE PUSH2 0xC72 JUMP JUMPDEST PUSH1 0x0 DUP5 DUP2 MSTORE PUSH1 0x20 DUP2 KECCAK256 PUSH1 0x1F NOT DUP6 AND SWAP2 JUMPDEST DUP3 DUP2 LT ISZERO PUSH2 0x2149 JUMPI DUP8 DUP6 ADD MLOAD DUP3 SSTORE PUSH1 0x20 SWAP5 DUP6 ADD SWAP5 PUSH1 0x1 SWAP1 SWAP3 ADD SWAP2 ADD PUSH2 0x2129 JUMP JUMPDEST POP DUP5 DUP3 LT ISZERO PUSH2 0x2167 JUMPI DUP7 DUP5 ADD MLOAD PUSH1 0x0 NOT PUSH1 0x3 DUP8 SWAP1 SHL PUSH1 0xF8 AND SHR NOT AND DUP2 SSTORE JUMPDEST POP POP POP POP PUSH1 0x1 SWAP1 DUP2 SHL ADD SWAP1 SSTORE POP JUMP JUMPDEST PUSH4 0x4E487B71 PUSH1 0xE0 SHL PUSH1 0x0 MSTORE PUSH1 0x11 PUSH1 0x4 MSTORE PUSH1 0x24 PUSH1 0x0 REVERT JUMPDEST PUSH1 0x0 PUSH1 0x1 DUP3 ADD PUSH2 0x219E JUMPI PUSH2 0x219E PUSH2 0x2176 JUMP JUMPDEST POP PUSH1 0x1 ADD SWAP1 JUMP JUMPDEST PUSH1 0xC0 DUP2 MSTORE PUSH1 0x0 PUSH2 0x21B8 PUSH1 0xC0 DUP4 ADD DUP10 PUSH2 0x1ADC JUMP JUMPDEST SWAP1 POP DUP7 PUSH1 0x20 DUP4 ADD MSTORE DUP6 PUSH1 0x40 DUP4 ADD MSTORE PUSH1 0x1 PUSH1 0x1 PUSH1 0x40 SHL SUB DUP6 AND PUSH1 0x60 DUP4 ADD MSTORE PUSH2 0x1F60 PUSH1 0x80 DUP4 ADD DUP6 PUSH2 0x1EF7 JUMP JUMPDEST PUSH4 0x4E487B71 PUSH1 0xE0 SHL PUSH1 0x0 MSTORE PUSH1 0x32 PUSH1 0x4 MSTORE PUSH1 0x24 PUSH1 0x0 REVERT JUMPDEST DUP1 DUP3 ADD DUP1 DUP3 GT ISZERO PUSH2 0x75B JUMPI PUSH2 0x75B PUSH2 0x2176 JUMP INVALID LOG2 PUSH5 0x6970667358 0x22 SLT KECCAK256 0xFC 0xD2 PUSH28 0x28C482CFB3DB36E45A1D3114ACD3FFA675D9951F8728CD3E4ADF5D4F SWAP5 PUSH5 0x736F6C6343 STOP ADDMOD SHR STOP CALLER "},"methodIdentifiers":{"balanceOf(address)":"70a08231","emittedCount()":"26019c18","getUserIDs(address)":"98b06f07","hasValid(address)":"43945512","holdersCount()":"6b4ed21b","isValid(uint256)":"f577a500","isWhitelisted(uint256,address)":"7d22c35c","mintPaidToken(address,uint256)":"5484dabb","mintPrivateToken(address,uint256)":"d88f5b89","mintPublicToken(address,uint256)":"71bae2cb","mintServiceToken(address,uint256)":"ef9ec2f3","mintWhitelistedToken(address,uint256)":"a4e3bab9","name()":"06fdde03","owner()":"8da5cb5b","ownerOf(uint256)":"6352211e","registerServiceToken(string,address,uint256,uint64,uint8,bool)":"18dce595","renounceOwnership()":"715018a6","serviceCount()":"06237526","services(uint256)":"c22c4f43","setTokenURI(uint256,string)":"162094c4","supportsInterface(bytes4)":"01ffc9a7","symbol()":"95d89b41","tokenByIndex(uint256)":"4f6ccce7","tokenIds(address,uint256)":"3de419e9","tokenOfOwnerByIndex(address,uint256)":"2f745c59","tokenURI(uint256)":"c87b56dd","tokensOfOwner(address)":"8462151c","transferOwnership(address)":"f2fde38b","updateServiceActiveStatus(uint256,bool)":"5c5514d0","updateServiceManager(address,uint256)":"987168c0","updateServicePrice(uint256,uint256)":"9fd80934","updateServiceStatus(uint256,uint8)":"60423fa2","updateServiceTokenLimit(uint256,uint64)":"08322acb","updateServiceURI(string,uint256)":"47883916","updateWhitelist(address,uint256,bool)":"08405e74","updateWhitelistBatch(address[],uint256,bool)":"ee2786bc"}}}}}