{
  "_format": "hh-sol-artifact-1",
  "contractName": "ERC4671Consensus",
  "sourceName": "contracts/base/ERC4671Consensus.sol",
  "abi": [
    {
      "inputs": [
        {
          "internalType": "string",
          "name": "name_",
          "type": "string"
        },
        {
          "internalType": "string",
          "name": "symbol_",
          "type": "string"
        },
        {
          "internalType": "address[]",
          "name": "voters_",
          "type": "address[]"
        }
      ],
      "stateMutability": "nonpayable",
      "type": "constructor"
    },
    {
      "anonymous": false,
      "inputs": [
        {
          "indexed": false,
          "internalType": "address",
          "name": "owner",
          "type": "address"
        },
        {
          "indexed": false,
          "internalType": "uint256",
          "name": "tokenId",
          "type": "uint256"
        }
      ],
      "name": "Minted",
      "type": "event"
    },
    {
      "anonymous": false,
      "inputs": [
        {
          "indexed": false,
          "internalType": "address",
          "name": "owner",
          "type": "address"
        },
        {
          "indexed": false,
          "internalType": "uint256",
          "name": "tokenId",
          "type": "uint256"
        }
      ],
      "name": "Revoked",
      "type": "event"
    },
    {
      "inputs": [
        {
          "internalType": "address",
          "name": "owner",
          "type": "address"
        }
      ],
      "name": "approveMint",
      "outputs": [],
      "stateMutability": "nonpayable",
      "type": "function"
    },
    {
      "inputs": [
        {
          "internalType": "uint256",
          "name": "tokenId",
          "type": "uint256"
        }
      ],
      "name": "approveRevoke",
      "outputs": [],
      "stateMutability": "nonpayable",
      "type": "function"
    },
    {
      "inputs": [
        {
          "internalType": "address",
          "name": "owner",
          "type": "address"
        }
      ],
      "name": "balanceOf",
      "outputs": [
        {
          "internalType": "uint256",
          "name": "",
          "type": "uint256"
        }
      ],
      "stateMutability": "view",
      "type": "function"
    },
    {
      "inputs": [],
      "name": "emittedCount",
      "outputs": [
        {
          "internalType": "uint256",
          "name": "",
          "type": "uint256"
        }
      ],
      "stateMutability": "view",
      "type": "function"
    },
    {
      "inputs": [
        {
          "internalType": "address",
          "name": "owner",
          "type": "address"
        }
      ],
      "name": "hasValid",
      "outputs": [
        {
          "internalType": "bool",
          "name": "",
          "type": "bool"
        }
      ],
      "stateMutability": "view",
      "type": "function"
    },
    {
      "inputs": [],
      "name": "holdersCount",
      "outputs": [
        {
          "internalType": "uint256",
          "name": "",
          "type": "uint256"
        }
      ],
      "stateMutability": "view",
      "type": "function"
    },
    {
      "inputs": [
        {
          "internalType": "uint256",
          "name": "tokenId",
          "type": "uint256"
        }
      ],
      "name": "isValid",
      "outputs": [
        {
          "internalType": "bool",
          "name": "",
          "type": "bool"
        }
      ],
      "stateMutability": "view",
      "type": "function"
    },
    {
      "inputs": [],
      "name": "name",
      "outputs": [
        {
          "internalType": "string",
          "name": "",
          "type": "string"
        }
      ],
      "stateMutability": "view",
      "type": "function"
    },
    {
      "inputs": [
        {
          "internalType": "uint256",
          "name": "tokenId",
          "type": "uint256"
        }
      ],
      "name": "ownerOf",
      "outputs": [
        {
          "internalType": "address",
          "name": "",
          "type": "address"
        }
      ],
      "stateMutability": "view",
      "type": "function"
    },
    {
      "inputs": [
        {
          "internalType": "uint256",
          "name": "tokenId",
          "type": "uint256"
        },
        {
          "internalType": "string",
          "name": "tokenUri",
          "type": "string"
        }
      ],
      "name": "setTokenURI",
      "outputs": [],
      "stateMutability": "nonpayable",
      "type": "function"
    },
    {
      "inputs": [
        {
          "internalType": "bytes4",
          "name": "interfaceId",
          "type": "bytes4"
        }
      ],
      "name": "supportsInterface",
      "outputs": [
        {
          "internalType": "bool",
          "name": "",
          "type": "bool"
        }
      ],
      "stateMutability": "view",
      "type": "function"
    },
    {
      "inputs": [],
      "name": "symbol",
      "outputs": [
        {
          "internalType": "string",
          "name": "",
          "type": "string"
        }
      ],
      "stateMutability": "view",
      "type": "function"
    },
    {
      "inputs": [
        {
          "internalType": "uint256",
          "name": "index",
          "type": "uint256"
        }
      ],
      "name": "tokenByIndex",
      "outputs": [
        {
          "internalType": "uint256",
          "name": "",
          "type": "uint256"
        }
      ],
      "stateMutability": "view",
      "type": "function"
    },
    {
      "inputs": [
        {
          "internalType": "address",
          "name": "owner",
          "type": "address"
        },
        {
          "internalType": "uint256",
          "name": "index",
          "type": "uint256"
        }
      ],
      "name": "tokenOfOwnerByIndex",
      "outputs": [
        {
          "internalType": "uint256",
          "name": "",
          "type": "uint256"
        }
      ],
      "stateMutability": "view",
      "type": "function"
    },
    {
      "inputs": [
        {
          "internalType": "uint256",
          "name": "tokenId",
          "type": "uint256"
        }
      ],
      "name": "tokenURI",
      "outputs": [
        {
          "internalType": "string",
          "name": "",
          "type": "string"
        }
      ],
      "stateMutability": "view",
      "type": "function"
    },
    {
      "inputs": [
        {
          "internalType": "address",
          "name": "owner",
          "type": "address"
        }
      ],
      "name": "tokensOfOwner",
      "outputs": [
        {
          "internalType": "uint256[]",
          "name": "tokens",
          "type": "uint256[]"
        }
      ],
      "stateMutability": "view",
      "type": "function"
    },
    {
      "inputs": [],
      "name": "voters",
      "outputs": [
        {
          "internalType": "address[]",
          "name": "",
          "type": "address[]"
        }
      ],
      "stateMutability": "view",
      "type": "function"
    }
  ],
  "bytecode": "0x608060405234801561001057600080fd5b5060405161164f38038061164f83398101604081905261002f9161021f565b8282600561003d83826103c6565b50600661004a82826103c6565b5050600980546001600160a01b0319163317905550805161007290600b9060208401906100da565b5060005b81518110156100d1576001600a600084848151811061009757610097610484565b6020908102919091018101516001600160a01b03168252810191909152604001600020805460ff1916911515919091179055600101610076565b5050505061049a565b82805482825590600052602060002090810192821561012f579160200282015b8281111561012f57825182546001600160a01b0319166001600160a01b039091161782556020909201916001909101906100fa565b5061013b92915061013f565b5090565b5b8082111561013b5760008155600101610140565b634e487b7160e01b600052604160045260246000fd5b604051601f8201601f191681016001600160401b038111828210171561019257610192610154565b604052919050565b600082601f8301126101ab57600080fd5b81516001600160401b038111156101c4576101c4610154565b6101d7601f8201601f191660200161016a565b8181528460208386010111156101ec57600080fd5b60005b8281101561020b576020818601810151838301820152016101ef565b506000918101602001919091529392505050565b60008060006060848603121561023457600080fd5b83516001600160401b0381111561024a57600080fd5b6102568682870161019a565b602086015190945090506001600160401b0381111561027457600080fd5b6102808682870161019a565b604086015190935090506001600160401b0381111561029e57600080fd5b8401601f810186136102af57600080fd5b80516001600160401b038111156102c8576102c8610154565b8060051b6102d86020820161016a565b918252602081840181019290810190898411156102f457600080fd5b6020850194505b8385101561032e57845192506001600160a01b038316831461031c57600080fd5b828252602094850194909101906102fb565b80955050505050509250925092565b600181811c9082168061035157607f821691505b60208210810361037157634e487b7160e01b600052602260045260246000fd5b50919050565b601f8211156103c157806000526020600020601f840160051c8101602085101561039e5750805b601f840160051c820191505b818110156103be57600081556001016103aa565b50505b505050565b81516001600160401b038111156103df576103df610154565b6103f3816103ed845461033d565b84610377565b6020601f821160018114610427576000831561040f5750848201515b600019600385901b1c1916600184901b1784556103be565b600084815260208120601f198516915b828110156104575787850151825560209485019460019092019101610437565b50848210156104755786840151600019600387901b60f8161c191681555b50505050600190811b01905550565b634e487b7160e01b600052603260045260246000fd5b6111a6806104a96000396000f3fe608060405234801561001057600080fd5b506004361061010b5760003560e01c80634f6ccce7116100a25780638462151c116100715780638462151c1461024757806395d89b4114610267578063c87b56dd1461026f578063df97f56f14610282578063f577a5001461029557600080fd5b80634f6ccce7146101da5780636352211e146101eb5780636b4ed21b1461021657806370a082311461021e57600080fd5b806326019c18116100de57806326019c18146101755780632f745c5914610187578063350580ea1461019a57806343945512146101af57600080fd5b806301ffc9a71461011057806306fdde03146101385780630e801ee11461014d578063162094c414610162575b600080fd5b61012361011e366004610d2a565b6102a8565b60405190151581526020015b60405180910390f35b6101406102d3565b60405161012f9190610d5b565b61016061015b366004610dc5565b610365565b005b610160610170366004610df6565b610489565b6007545b60405190815260200161012f565b610179610195366004610eb9565b61050f565b6101a2610594565b60405161012f9190610ee3565b6101236101bd366004610dc5565b6001600160a01b0316600090815260046020526040902054151590565b6101796101e8366004610f2f565b90565b6101fe6101f9366004610f2f565b6105f5565b6040516001600160a01b03909116815260200161012f565b600854610179565b61017961022c366004610dc5565b6001600160a01b031660009081526002602052604090205490565b61025a610255366004610dc5565b610613565b60405161012f9190610f48565b61014061067f565b61014061027d366004610f2f565b61068e565b610160610290366004610f2f565b61072e565b6101236102a3366004610f2f565b61082c565b60006001600160e01b031982166339049ad960e21b14806102cd57506102cd8261084b565b92915050565b6060600580546102e290610f80565b80601f016020809104026020016040519081016040528092919081815260200182805461030e90610f80565b801561035b5780601f106103305761010080835404028352916020019161035b565b820191906000526020600020905b81548152906001019060200180831161033e57829003601f168201915b5050505050905090565b336000908152600a602052604090205460ff166103bf5760405162461bcd60e51b81526020600482015260136024820152722cb7ba9030b932903737ba1030903b37ba32b960691b60448201526064015b60405180910390fd5b336000908152600c602090815260408083206001600160a01b038516845290915290205460ff16156104035760405162461bcd60e51b81526004016103b690610fba565b336000908152600c602090815260408083206001600160a01b03851684528252808320805460ff19166001908117909155600d909252822080549192909161044c908490611011565b9091555050600b546001600160a01b0382166000908152600d6020526040902054036104865761047b816108b6565b61048481610943565b505b50565b6009546001600160a01b031633146104f25760405162461bcd60e51b815260206004820152602660248201527f4f6e6c79207468652063726561746f722063616e207365742074686520746f6b604482015265656e2055524960d01b60648201526084016103b6565b600082815260016020526040902061050a8282611072565b505050565b6001600160a01b03821660009081526002602052604081208054831061056e5760405162461bcd60e51b8152602060048201526014602482015273151bdad95b88191bd95cc81b9bdd08195e1a5cdd60621b60448201526064016103b6565b80838154811061058057610580611131565b906000526020600020015491505092915050565b6060600b80548060200260200160405190810160405280929190818152602001828054801561035b57602002820191906000526020600020905b81546001600160a01b031681526001909101906020018083116105ce575050505050905090565b6000610600826109b2565b600101546001600160a01b031692915050565b6001600160a01b03811660009081526002602090815260409182902080548351818402810184019094528084526060939283018282801561067357602002820191906000526020600020905b81548152602001906001019080831161065f575b50505050509050919050565b6060600680546102e290610f80565b6060610699826109b2565b50600082815260016020526040902080546106b390610f80565b80601f01602080910402602001604051908101604052809291908181526020018280546106df90610f80565b80156106735780601f1061070157610100808354040283529160200191610673565b820191906000526020600020905b81548152906001019060200180831161070f5750939695505050505050565b336000908152600a602052604090205460ff166107835760405162461bcd60e51b81526020600482015260136024820152722cb7ba9030b932903737ba1030903b37ba32b960691b60448201526064016103b6565b336000908152600e6020908152604080832084845290915290205460ff16156107be5760405162461bcd60e51b81526004016103b690610fba565b336000908152600e602090815260408083208484528252808320805460ff19166001908117909155600f90925282208054919290916107fe908490611011565b9091555050600b546000828152600f6020526040902054036104865761082381610a11565b61048681610a90565b6000610837826109b2565b60010154600160a01b900460ff1692915050565b60006001600160e01b0319821663a511533d60e01b148061087c57506001600160e01b03198216635b5e139f60e01b145b8061089757506001600160e01b03198216632d57debd60e01b145b806102cd57506301ffc9a760e01b6001600160e01b03198316146102cd565b60005b600b54811015610928576000600c6000600b84815481106108dc576108dc611131565b6000918252602080832091909101546001600160a01b03908116845283820194909452604092830182209387168252929092529020805460ff19169115159190911790556001016108b9565b506001600160a01b03166000908152600d6020526040812055565b60075461095282826001610bac565b604080516001600160a01b0384168152602081018390527f30385c845b448a36257a6a1716e6ad2e1bc2cbe333cde1e69fe849ad6511adfe910160405180910390a16001600760008282546109a79190611011565b909155509092915050565b600081815260208190526040812060018101546001600160a01b03166102cd5760405162461bcd60e51b8152602060048201526014602482015273151bdad95b88191bd95cc81b9bdd08195e1a5cdd60621b60448201526064016103b6565b60005b600b54811015610a7e576000600e6000600b8481548110610a3757610a37611131565b6000918252602080832091909101546001600160a01b0316835282810193909352604091820181208682529092529020805460ff1916911515919091179055600101610a14565b506000908152600f6020526040812055565b6000610a9b826109b2565b6001810154909150600160a01b900460ff16610af95760405162461bcd60e51b815260206004820152601860248201527f546f6b656e20697320616c726561647920696e76616c6964000000000000000060448201526064016103b6565b60018101805460ff60a01b1981169091556001600160a01b0316600090815260046020526040902054610b2e57610b2e611147565b6001818101546001600160a01b031660009081526004602052604081208054909190610b5b90849061115d565b90915550506001810154604080516001600160a01b039092168252602082018490527f713b90881ad62c4fa8ab6bd9197fa86481fc0c11b2edba60026514281b2dbac4910160405180910390a15050565b6000828152602081905260409020600101546001600160a01b031615610c145760405162461bcd60e51b815260206004820152601d60248201527f43616e6e6f74206d696e7420616e2061737369676e656420746f6b656e00000060448201526064016103b6565b6001600160a01b0383166000908152600260205260408120549003610c4c57600160086000828254610c469190611011565b90915550505b604080516060810182523381526001600160a01b0385811660208084018281528615801586880190815260008a8152808552888120975188549088166001600160a01b031990911617885592516001978801805492511515600160a01b026001600160a81b031990931691909716171790945591825260028082528583208054600384528785208a8652845296842087905590825293850184559281529190912090910183905561050a576001600160a01b0383166000908152600460205260408120805460019290610d20908490611011565b9091555050505050565b600060208284031215610d3c57600080fd5b81356001600160e01b031981168114610d5457600080fd5b9392505050565b602081526000825180602084015260005b81811015610d895760208186018101516040868401015201610d6c565b506000604082850101526040601f19601f83011684010191505092915050565b80356001600160a01b0381168114610dc057600080fd5b919050565b600060208284031215610dd757600080fd5b610d5482610da9565b634e487b7160e01b600052604160045260246000fd5b60008060408385031215610e0957600080fd5b82359150602083013567ffffffffffffffff811115610e2757600080fd5b8301601f81018513610e3857600080fd5b803567ffffffffffffffff811115610e5257610e52610de0565b604051601f8201601f19908116603f0116810167ffffffffffffffff81118282101715610e8157610e81610de0565b604052818152828201602001871015610e9957600080fd5b816020840160208301376000602083830101528093505050509250929050565b60008060408385031215610ecc57600080fd5b610ed583610da9565b946020939093013593505050565b602080825282518282018190526000918401906040840190835b81811015610f245783516001600160a01b0316835260209384019390920191600101610efd565b509095945050505050565b600060208284031215610f4157600080fd5b5035919050565b602080825282518282018190526000918401906040840190835b81811015610f24578351835260209384019390920191600101610f62565b600181811c90821680610f9457607f821691505b602082108103610fb457634e487b7160e01b600052602260045260246000fd5b50919050565b60208082526021908201527f596f7520616c726561647920617070726f7665642074686973206164647265736040820152607360f81b606082015260800190565b634e487b7160e01b600052601160045260246000fd5b808201808211156102cd576102cd610ffb565b601f82111561050a57806000526020600020601f840160051c8101602085101561104b5750805b601f840160051c820191505b8181101561106b5760008155600101611057565b5050505050565b815167ffffffffffffffff81111561108c5761108c610de0565b6110a08161109a8454610f80565b84611024565b6020601f8211600181146110d457600083156110bc5750848201515b600019600385901b1c1916600184901b17845561106b565b600084815260208120601f198516915b8281101561110457878501518255602094850194600190920191016110e4565b50848210156111225786840151600019600387901b60f8161c191681555b50505050600190811b01905550565b634e487b7160e01b600052603260045260246000fd5b634e487b7160e01b600052600160045260246000fd5b818103818111156102cd576102cd610ffb56fea2646970667358221220aec9cdd2842eb6c92012d63cc35a789b966931ed794418f6cb32be38304fbf0264736f6c634300081c0033",
  "linkReferences": {},
  "deployedLinkReferences": {}
}